:10000000DDC0CAC8F6C0F5C0F4C0F3C0F2C0F1C08C
:10001000F0C0EFC0EEC0EDC0ECC0EBC0EAC0E9C07C
:10002000E8C0E7C0E6C01201100100000008C016D9
:10003000DF050002010200011A037A007500720058
:1000400062006F00720067002E0069006E0066009B
:100050006F0028034400750061006C00200053000D
:100060007400720069006B006500200020005600DB
:1000700032002E0030002E00320005010904A101DB
:10008000A1027501950D15002501350045010509F1
:100090001901290D8102950381010501750495015E
:1000A0002507463B016514093981426500950181A8
:1000B00003A10075029504250245020930093109A2
:1000C0003209358102C0C07508950826FF0046FF39
:1000D000000600FF09200921092209230924092516
:1000E0000926092709280929092A092B950C8102C3
:1000F0000A2126B102C009022200010100807D0907
:100100000400000103000000092101010001227C1C
:10011000000705810308000112011001000000081A
:10012000C016DF050002010200012A0370006F0003
:1001300068006C002D006D006900630068006100BC
:1001400065006C00400067006D0078002E006200C2
:1001500069007A000E034800490044002000450071
:1001600050000600FF0901A101150026FF007508D7
:10017000850195060900B20201850295840900B245
:100180000201850395030900B202018504958309E4
:1001900000B20201C009022200010100807D0904B1
:1001A00000000103000000092101010001223300C9
:1001B000070581030800C8040309040011241FBEB9
:1001C000CFE5D4E0DEBFCDBF10E0A0E6B0E0E0EACE
:1001D000F4E102C005900D92A836B107D9F711E0FD
:1001E000A8E6B0E001C01D92AD3AB107E1F7C8D171
:1001F00055C906CFFC01909160008081981751F499
:10020000909161008181981729F420E0909162001B
:100210008281981321E0822F0895909A80E090E0E7
:10022000089590916200892F82958370813009F042
:100230000895849907C09E9B05C092609B7F909310
:1002400062000895849B07C09E9905C094609D7FBD
:10025000909362000895849BEBCF9E9BE9CF997F9A
:100260009093620008958091620082958F7090E073
:10027000837090700297029710F49498AE98CAD247
:100280009098939A81E090E00895CF93DF93EC01EA
:10029000909160008881981769F49091610089813C
:1002A000981741F4909162008A81981719F4DF91B0
:1002B000CF910895CE0160E070E043E050E0D8D8DF
:1002C0008881809360008981809361008A81809316
:1002D0006200DF91CF910895CF93DF93EC0180E628
:1002E00090E060E070E043E050E0B2D880916000C0
:1002F000813039F081E0888389831A82DF91CF9140
:100300000895809161008130A9F788838091610010
:100310008983809162008A83DF91CF910895DF9372
:10032000CF9300D00F92CDB7DEB780E690E060E0CB
:1003300070E043E050E08CD8809160008130F1F0B3
:1003400081E089838A831B82999B23C090916000FE
:100350008981981709F08FC0909161008A81981760
:1003600009F089C0909162008B81981709F083C0D1
:100370000F900F900F90CF91DF91089580916100C1
:100380008130F1F689838A83809162008B83999909
:10039000DDCF909AE7D4989B20C0879B1EC0B09B6E
:1003A0001CC0B29B1AC0859B18C0869B16C0B4990E
:1003B00012C013C0B39B11C05FD2989B0EC0879B25
:1003C0000CC0B09B0AC0B29B08C0859B06C0869B30
:1003D00004C0B49B02C0B199EDCF909880E690E044
:1003E00060E070E043E050E033D8809160008130FD
:1003F00009F457C081E089838A831B82282F982FB4
:100400008B81989B1EC0869903C021E091E080E01B
:10041000859B04C0869B02C0879917C0859904C03C
:100420009B9B8E7F9A9B8160879904C09B9B877F53
:100430009A9B8860B099E5CF9C990FC08F7C989962
:10044000E2CF2A8399838B8381CFB09BE7CFB49B84
:10045000E5CF9C9933C0897FE1CF9B9903C0806130
:100460008F7DCFCF9A9B04C09D99CBCF8063C9CF9E
:1004700080628F7EC6CFCE01019660E070E043E0DF
:1004800050E0F6D78981809360008A818093610073
:100490008B81809362000F900F900F90CF91DF912E
:1004A000089580916100813009F0A4CF89838A8307
:1004B000809162008B832A819981A3CF9B9B05C089
:1004C0009A99ACCF84608D7FA9CF82608B7FA6CFB5
:1004D00014BA8FE385BB17BA88BB89E081BB80EE75
:1004E00082BB1DDF9C991AC080916200897F809336
:1004F000620040916200842F82958F70282F30E037
:10050000C901837090700197D9F087991DC040FF91
:1005100026C0909A20E030E0C90108959B9907C059
:100520008091620082608B7F80936200E2CF9A9913
:10053000E0CF8091620084608D7F80936200D9CF8C
:10054000949AAE9A879BE3CFB09BE1CF859BDFCF98
:10055000869BDDCF40FFDDCF86DE9C01DDCF2370A3
:100560003070225030402230310538F053D190980D
:10057000939A21E030E0C90108959498AE98F6CF9F
:1005800014BA8FE385BB17BA88BB89E081BB80EEC4
:1005900082BBC5DE9C991AC080916200897F8093DE
:1005A000620040916200842F82958F70282F30E086
:1005B000C90183709070019749F187992BC040FF62
:1005C0000EC0909AE5D380E090E008959B9915C005
:1005D0008091620082608B7F80936200E2CF237003
:1005E0003070225030402230310510F113D19098F4
:1005F000939A21D080E090E008959A99D2CF80918B
:10060000620084608D7F80936200CBCF949AAE9A13
:10061000879BD5CFB09BD3CF859BD1CF869BCFCFA8
:1006200040FFCFCF20DE009769F2019761F6E1CF5E
:100630009498AE98DBCF40916200842F82958F70A2
:10064000282F30E02370307022303105A1F143FFB4
:1006500023C02330310561F0989906C0999904C0F0
:10066000C598BD9A989BFACFBD98C59AF5CFAE981C
:1006700098990CC099990AC0C598BD9AB3990AC0B7
:10068000949AB499F4CFAE9A989BF4CFBD98C59A3A
:10069000B39BF6CF9498F5CF2330310511F0FFCFFF
:1006A000AE9AB39906C0949AB49BFACFAE98B39B16
:1006B000FACF9498F9CF842F869590E0837090704C
:1006C0008130910559F08230910569F0892B09F04C
:1006D000BECF8C98A698949AAE9AB9CFAE9A9498B9
:1006E0008C9AA69AB4CF949AAE988C9AA69AAFCFC9
:1006F000FC01809168008130B9F0823011F080E017
:1007000008958381833009F457C0843050F58130D7
:1007100009F468C0823099F785E991E090939201DD
:100720008093910182E208958381833039F184308E
:1007300060F08132C9F1823211F78AE790E090933C
:100740009201809391018CE70895813029F18230E4
:10075000B1F686EF90E0909392018093910182E24E
:100760000895813209F446C0823249F682E691E06A
:10077000909392018093910183E308958281813067
:1007800049F1823009F0BBCF82E590E0909392016D
:100790008093910188E2089586E290E0909392011F
:1007A0008093910182E1089588E091E09093920115
:1007B0008093910189E008958281813019F182301E
:1007C00009F09DCF84E591E090939201809391018F
:1007D0008EE0089588E390E09093920180939101D8
:1007E0008AE1089588E191E09093920180939101CC
:1007F00082E1089587EA91E09093920180939101BC
:1008000089E008958AE291E09093920180939101AA
:100810008AE20895899A20E030E04CE251E0CA0172
:100820000197F1F72F5F3F4F8BE0283B3807B9F76F
:1008300008951092700010926F008FE08093710005
:1008400085E58093720010927E0010927D001092D8
:100850007C0010927B0010927A0010927900109226
:100860007800109277001092760010927500109226
:10087000740010927300089525D30895899A20E09A
:1008800030E04CE251E0CA010197F1F72F5F3F4F92
:100890008BE0283B3807B9F7899807D3789412D3AF
:1008A0000895CF92DF92EF92FF920F931F93CF9311
:1008B000DF936C017B0100E010E002C00C0F1D1FF4
:1008C0000E151F05E0F4E701C01BD10BC930D1059F
:1008D00014F0C8E0D0E0C601800F911F6C2F21D426
:1008E0008091820184FDEACFEDD28091820184FD66
:1008F000E5CFE8D28091820184FDE0CFF5CFDF9192
:10090000CF911F910F91FF90EF90DF90CF900895BE
:10091000FF920F931F93CF93DF93FC0180916800A8
:10092000823049F0FF24FA948F2DDF91CF911F91EF
:100930000F91FF90089580916900823059F08330C3
:1009400089F73181228130936A0020936B00FF2464
:10095000F394EACF40916300509164004115510532
:1009600099F130916A0020916B00C62FD0E0CE0142
:10097000840F951F909364008093630090E8F92E94
:10098000F82280916C0090916D001816190664F69B
:100990008830910514F4C82FD0E0032F122FCF0117
:1009A000B801AE0165D50C0F1D1F10936B000093AD
:1009B0006A0080916C0090916D008C1B9D0B909350
:1009C0006D0080936C00B0CF31812281848180934F
:1009D0006C0010926D0035966550C7CF0F931F9332
:1009E000FC013281938120916800213051F1223045
:1009F00021F080E01F910F910895808180768032F0
:100A0000C1F78181893009F441C0813091F73130DB
:100A100009F04DC030936F0084E080937000109215
:100A20007100109272002093730010927400109263
:100A300075008FE690E0909392018093910187E09A
:100A4000D9CF808180768032A1F68181813089F68C
:100A5000933079F6332369F681E280936F0086E262
:100A600080937000109271001092720010927300C7
:100A70001092740010927500109276008FE690E04C
:100A8000909392018093910188E0B4CF323041F489
:100A90001092640010926300309369008FEFAACF28
:100AA000333009F0A6CF309369008FEFA3CF3430F5
:100AB00009F09FCF60916A0070916B0082E0603016
:100AC000780700F540E052E0461B570B40385105CF
:100AD000B8F040E850E090E80FE610E084E0809342
:100AE0006F00909370001092710010927200C80114
:100AF0000496AED4109392010093910184E87ACFCA
:100B0000942FEACF8FEF76CF1092700010926F0083
:100B10008FE08093710085E58093720010927E00D3
:100B200010927D0010927C0010927B0010927A004F
:100B3000109279001092780010927700109276004F
:100B40001092750010927400109273002091620050
:100B5000822F869590E0837090708130910509F422
:100B6000A3C08230910509F47BC0892B71F49C9954
:100B70008EC09B9BC4C09A99E8C081E080937100AD
:100B80008FEF8093750080937300879908C08091E0
:100B90006F00816080936F008FEF80937A00B0992F
:100BA00008C080916F00886080936F008FEF809302
:100BB0007700B29908C080916F00806280936F00C7
:100BC0008FEF80937C00859908C080916F008260D0
:100BD00080936F008FEF80937900869908C0809191
:100BE0006F00846080936F008FEF80937800B499DA
:100BF00008C080916F00806880936F008FEF8093B2
:100C00007E00B19908C080916F00806180936F0071
:100C10008FEF80937B00B39908C080916F00806450
:100C200080936F008FEF80937D0023FF02C0989B1D
:100C300026C0989905C080917000826080937000F2
:100C4000999B08C0B59905C0809170008061809320
:100C50007000089580917000816080937000F2CFE1
:100C60009C9B3FC09D9903C085E9809372009B992E
:100C70003DC0809172008F7C8093720086CF9999DD
:100C8000D8CF80917000806180937000DBCF9D99F8
:100C90003FC09B994FC085E0809371008FEF809398
:100CA00076008093740071CF9C9B0DC09D9903C00A
:100CB00089E5809372009B990BC0809172008C7FB4
:100CC0008093720062CF81E5809372009B9BF5CF89
:100CD0009A995BCF8091720082608E7F80937200C0
:100CE00054CF85E1809372009B9BC3CF9A994DCFDF
:100CF0008091720080628F7E8093720046CF87E081
:100D0000809371008FEF80937500809374003DCFC6
:100D10009B9907C086E0809371008FEF80937400E9
:100D200034CF9A9932CF82E0809371008FEF809315
:100D300073002BCF9A990FC083E0809371008FEFDF
:100D4000809376008093730020CF109271008FEF14
:100D5000809375001ACF84E0809371008FEF8093A9
:100D6000760013CF82E080936800899A20E030E01B
:100D70004CE251E0CA010197F1F72F5F3F4F8BE042
:100D8000283B3807B9F7899890D078949BD008957C
:100D9000EF92FF920F931F93CF93DF9381E08093A5
:100DA0006800899A80E090E02CE231E0F901319707
:100DB000F1F701964BE0883B9407C1F7899875D00D
:100DC000789480D07FD01092700010926F008FE0E6
:100DD0008093710085E58093720010927E001092DE
:100DE0007D0010927C0010927B0010927A0010928D
:100DF000790010927800109277001092760010928D
:100E00007500109274001092730000E010E080E012
:100E100090E030E1E32EF12C04C0C801003111054F
:100E2000C0F4E701C81BD90BC930D10514F0C8E0E4
:100E3000D0E081599F4F6C2F74D10C0F1D1F8091F2
:100E4000820184FDEACF3ED08091820184FDE5CF0E
:100E5000FACF20E1E22EF12C35D0E3D955DE00E0C7
:100E600010E080E090E004C0C80100311105A0F757
:100E7000E701C81BD90BC930D10514F0C8E0D0E098
:100E800081599F4F6C2F4DD10C0F1D1F80918201F6
:100E900084FDEACF17D08091820184FDE5CF12D086
:100EA0008091820184FDE0CFF5CF85B7836085BF57
:100EB0008BB780648BBF8BE4809383018AE580933A
:100EC000820108951F93CF93DF9360919301635044
:100ED00067FD13C080919001CCE0D0E0C81BD10920
:100EE000C956DE4F80918F018D3209F46BC080911D
:100EF0006E0087FDADC0109293018091650084FF64
:100F00003BC0109166001F3FB9F1193008F481C051
:100F10001850109366008091770198E88927809394
:100F2000770118E0209191013091920180916E003B
:100F300086FF85C0A8E7B1E080E090E0F901E80F06
:100F4000F91FE491ED9301961817C1F71150812F05
:100F500090E01F5F0196820F931F90939201809300
:100F6000910188E791E0612F13D1612F6C5F6C30A4
:100F700009F05FC06093650080B38670F9F480B3B8
:100F80008670E1F480B38670C9F480B38670B1F4E2
:100F900080B3867099F480B3867081F480B38670D4
:100FA00069F480B3867051F480B3867039F480B3ED
:100FB000867021F41092940110928E01DF91CF91EE
:100FC0001F910895683009F096CF83EC80937701E4
:100FD0008AE58093650010926E008881807609F022
:100FE00041C09A81109280018981882309F04DC007
:100FF0001092810122E080E891E090939201809329
:1010000091018F81882319F49E819217B8F1922F54
:1010100035C0109266008091770198E88927809307
:101020007701112309F07ECF88E791E060E0B0D02E
:1010300064E08FEF80936600609365009DCF912FF1
:10104000D901E8E7F1E08D9181939150E1F77ECFEE
:10105000CE015EDC8F3FA9F0882309F44CCF1092BB
:10106000660049CFCE01BADC282F2F3F51F6888188
:1010700087FD21C09FEF80E880936E00909366000B
:101080003ACF8EE18093650036CF853071F086309F
:10109000A1F0883051F1893061F18A3081F18B30D3
:1010A000E1F120E080E891E0A8CF9093940120E066
:1010B00080E891E0A2CF9E81DECF8B81813089F0E4
:1010C000823079F08330F9F0813259F0823249F080
:1010D00020E080E480936E00C8CF913011F0923010
:1010E000B9F7CE0105DB282FF4CF21E086E991E0A6
:1010F00084CF9093960120E080E891E07ECF21E0BC
:1011000080E891E07ACF992341F787EB91E09093C3
:1011100092018093910124E0DCCF8BE480938301E2
:10112000C0CF1F93DC01162F8091820184FF17C06E
:101130008091830198E8892780938301912FE4E8C7
:10114000F1E08D91819391501916DCF384E891E0E0
:10115000612F1ED01C5F109382011F9108958AE5B4
:1011600080938201EBCFA82FB92F80E090E041E07F
:1011700050EA60956F5F58F42D9138EF822797956C
:10118000879510F0842795273F5FC8F3F3CF089524
:10119000EADF8D939D930895CF93CFB7CF93819B33
:1011A000FECF819B09C0819B07C0819B05C0819BAD
:1011B00003C0819B01C0A3C0DF93C0919001DD27D4
:1011C000C956DE4F819B02C0DF91EBCF2F930F9367
:1011D0001F9300B32FEF01FB20F94F933F9310B300
:1011E0004FEF012701FB21F93BE031C04E7F012F7A
:1011F00010B3216028C0102F4D7F2260000000B383
:1012000029C04B7F2460012F000010B32BC010B306
:10121000477F28602AC04F7E00B320612CC04F7DDD
:1012200010B320622FC04F7B00B3206432C042272E
:1012300000B349934FEF0000102711FB20F910B3C2
:101240001670C9F1297F91F2012701FB21F900B342
:10125000237F89F2315058F1102711FB22F910B386
:10126000277E79F2012701FB23F92F7C81F200B35D
:10127000102711FB24F92F7971F200C010B3012758
:1012800001FB25F92F7359F200C000B3102711FBA1
:1012900026F9223040F200C010B3012701FB27F9E4
:1012A000243028F64F77206810B30000F9CF10E4FF
:1012B0001ABF002719C03B503195C31BD04010E422
:1012C0001ABF0881033CF9F00B34E9F020918E013C
:1012D0001981110F1213EDCF4A81441F093641F1D4
:1012E0000D3211F0013E29F7009395013F914F9186
:1012F0001F910F912F91DF91CAB7C6FD50CFCF91AB
:10130000CFBFCF91189500919501002379F31091EB
:1013100093011123A1F53430A2F13093930100938E
:101320008F01109190013BE0311B3093900129C057
:101330000091930101301CF50AE54F7049F430919A
:10134000650034FD20C000936500C7E7D1E01FC0F1
:101350003091820134FD17C000938201C3E8D1E0CF
:1013600016C0052710E002BB1FC0052722C00527B5
:1013700027C005272CC0052710E002BB33C04AE573
:1013800003C042ED01C0432FC4E1D0E032E011B30D
:101390001660919A02B311BB5F9356E020E820FFDC
:1013A000052702BB279517951C3FD8F620FF052778
:1013B000279502BB17951C3FC0F620FF05272795F0
:1013C000179502BB1C3F98F620FF05272795179518
:1013D0001C3F02BB70F600C0499120FF052702BBED
:1013E000279517951C3F38F620FF0527279502BB48
:1013F00017951C3F38F520FF05272795179502BB49
:101400001C3F10F520FF0527279517951C3F02BBB1
:10141000E8F4242F3A9519F6097F5F9102BB1091E9
:101420009401110FC651D04011F010938E0110E4B9
:101430001ABF026011B3197F402F497F02BB11BB55
:1014400042BB54CF0527D3CF0527D8CF0527DDCF03
:10145000DC01CB01FC01E199FECF06C0FFBBEEBB76
:10146000E09A31960DB20D9241505040B8F7089570
:10147000DC01CB0102C02D9105D041505040D8F77E
:101480000895262FE199FECF9FBB8EBB2DBB0FB6D3
:10149000F894E29AE19A0FBE01960895F894FFCF6E
:0814A000FFFFFFFFFF5AFF00F0
:00000001FF
