:1018000050C093C269C068C067C066C065C064C08C
:1018100063C062C061C060C05FC05EC05DC05CC0CC
:101820005BC05AC059C00403090412036F00620070
:101830006400650076002E0061007400100348000B
:101840004900440042006F006F0074001201100153
:1018500000000008C016DF050001010200010902B6
:101860002200010100803209040000010300000091
:10187000092101010001222100070581030800C898
:101880000600FF0901A101150026FF00750885016A
:1018900095060900B20201850295830900B2020192
:1018A000C00011241FBECFE5D4E0DEBFCDBF10E0E5
:1018B000A0E6B0E0E0E9FFE102C005900D92AA3693
:1018C000B107D9F710E0AAE6B0E001C01D92AB392C
:1018D000B107E1F702D05AC393CF2F923F924F92B4
:1018E0005F926F927F928F929F92AF92BF92CF92B0
:1018F000DF92EF92FF920F931F93DF93CF9300D06D
:1019000000D0CDB7DEB78FE385BB14BA88BB17BA5A
:1019100082B3896F82BB81B3867081BB909A9398A2
:1019200081B3896081BB88E28A95F1F7989B04C0F6
:101930009999CBC19D99C9C181E08BBF82E08BBFD2
:1019400085B7836085BF8BB780648BBF899A20E0A1
:1019500048EB5BE0A895CA010197F1F72150D1F758
:1019600089987894FF2400E060E4E62E50E8252E64
:1019700058E1352E4AE2842E48E1942E36E2632E59
:1019800038E1732E2EEE422E2FEF522E20E738E153
:10199000420E531E9CE4C92E98E1D92E82E6A82E51
:1019A00080E0B82EA89590918100292F235027FD23
:1019B00027C180917E004CE050E0481B51094B57F5
:1019C0005F4F5C834B8380917D008D3209F0B4C002
:1019D000283009F013C153EC509371006AE560930D
:1019E000600010926A00AB81BC812C91822F8076BE
:1019F00011969C9111978823C9F0993071F4129631
:101A00008C91823031F410926D0027FD84C09FEFDD
:101A100086C0B1E0B0936E0067C1913009F064C137
:101A2000B0928000A0927F0027E05FC1EB81FC8133
:101A3000828110927A00992331F410927B008AE718
:101A400090E022E063C0953019F4809382005BC07F
:101A5000963009F048C0AB81BC8113968C918130DF
:101A600029F4D0928000C0927F001BC0823031F4F4
:101A70005092800040927F0022E232C08330E9F42D
:101A8000EB81FC818281882331F470928000609226
:101A90007F0024E025C0813031F490928000809254
:101AA0007F0022E11DC08230D1F42CE338E1309375
:101AB000800020937F0020E113C0813241F440E791
:101AC00058E15093800040937F0029E009C08232A2
:101AD00031F43092800020927F0021E201C020E0AA
:101AE000E0926A0002C1983019F484E890E009C0DD
:101AF000993019F48093840006C09A3021F48AE763
:101B000090E021E003C08AE790E020E0909380001D
:101B100080937F00EAC0AB81BC8116969C9180E8DF
:101B200080936A0006C0EB81FC819681921708F0D1
:101B3000922F9093610062C080916A0087FF5EC01F
:101B400040916B0050916C005A83498380916D00E5
:101B5000882389F4AB81BC811196BC91B983EB8158
:101B6000FC81F281FA832B813C812C5F3F4F3C83C7
:101B70002B83292F2750322F380F30936D00898106
:101B80008F7359F4F89443E0E981FA814093570048
:101B9000E895789407B600FCFDCFF89449815A8106
:101BA000AB81BC818D919C9161E0FA010C01609345
:101BB0005700E895112478943296FA83E983898155
:101BC0008F7351F4F89465E0FA0160935700E8953B
:101BD000789407B600FCFDCF225031F08B819C81B8
:101BE00002969C838B83CBCFA981BA81B0936C0082
:101BF000A0936B0037FF02C0109261001092810029
:101C00008091600084FF49C0809161008F3F09F49A
:101C100044C0182F893008F018E0811B80936100C0
:101C20008091710098E8892780937100112341F118
:101C300020917F003091800080916A0086FF0DC066
:101C4000A2E7B0E080E090E0F901E80FF91FE4912D
:101C5000ED9301961817C1F708C0D901912FE2E75B
:101C6000F0E08D9181939150E1F71150812F90E038
:101C70001F5F0196820F931F9093800080937F00D7
:101C800082E790E0612F4DD0612F6C5F6C3019F0CE
:101C90008FEF809361006093600094E180B3867061
:101CA00031F49150D9F71092820010927C0080910B
:101CB0006E00882321F0FA9411F4015031F0989BC2
:101CC00071CE999902C09D9B6DCEF89481E180936D
:101CD0005700E8951BBE15BE81E08BBF1BBEE0918F
:101CE0006F00F0917000099520E0EB81FC81878105
:101CF000882309F418CF1CCFA82FB92F80E090E0DB
:101D000041E050EA60956F5F58F42D9138EF8227DB
:101D10009795879510F0842795273F5FC8F3F3CFF9
:101D20000895EADF8D939D930895CF93CFB7CF9316
:101D3000C395819BE9F7819B09C0819B07C0819B6B
:101D400005C0819B03C0819B01C0A3C0DF93C091EC
:101D50007E00DD27CB57DF4F819B02C0DF91EBCFA9
:101D60002F930F931F9300B32FEF01FB20F94F9395
:101D70003F9310B34FEF012701FB21F93BE031C046
:101D80004E7F012F10B3216028C0102F4D7F22609D
:101D9000000000B329C04B7F2460012F000010B366
:101DA0002BC010B3477F28602AC04F7E00B320614C
:101DB0002CC04F7D10B320622FC04F7B00B3206436
:101DC00032C0422700B349934FEF0000102711FBA8
:101DD00020F910B31670C9F1297F91F2012701FB98
:101DE00021F900B3237F89F2315058F1102711FBFC
:101DF00022F910B3277E79F2012701FB23F92F7C0A
:101E000081F200B3102711FB24F92F7971F200C081
:101E100010B3012701FB25F92F7359F200C000B35D
:101E2000102711FB26F9223040F200C010B3012721
:101E300001FB27F9243028F64F77206810B3000003
:101E4000F9CF10E41ABF002719C03B503195C31BCE
:101E5000D04010E41ABF0881033CF9F00B34E9F0DC
:101E600020917C001981110F1213EDCF4A81441F7C
:101E7000093641F10D3211F0013E29F7009383003C
:101E80003F914F911F910F912F91DF91CAB7C6FDDE
:101E90004FCFCF91CFBFCF911895209183002223B0
:101EA00079F310918100112321F5343022F1309320
:101EB000810020937D0010917E003BE0311B309328
:101EC0007E0019C00091810001309CF40AE54F703A
:101ED00081F43091600034FD10C000936000C1E7D0
:101EE000D0E00FC02795A8F45150A9F4220F0000AC
:101EF000F9CF4AE503C042ED01C0432FC4E1D0E071
:101F000032E011B31660919A11BB02B320E416E0DF
:101F10005F93012756E002BB279520F4515021F42E
:101F2000220FF9CF012756E000003B5A02BBD0F246
:101F3000279528F4515029F4220F0000F9CF0127EA
:101F400056E0279502BB20F4515021F4220FF9CF1F
:101F5000012756E02991332302BB21F6097F109116
:101F60008200110FC651D04002BB11F010937C00CB
:101F700010E41ABF026011B3197F402F497F5F91AF
:101F800000C000C002BB11BB42BB7ACFF894FFCFA8
:0A1F90005AFF01400000200000008D
:0400000300001800E1
:00000001FF
