:1000000075C0CEC38EC08DC08CC08BC08AC089C065
:1000100088C087C086C085C084C083C082C081C0BC
:1000200080C07FC07EC01201100100000008C01611
:10003000DF050001010200012A0370006F00680063
:100040006C002D006D0069006300680061006500B0
:100050006C00400067006D0078002E0062006900AF
:100060007A0016034D0065006D006F007200790084
:1000700054006F006F006C000600FF0901A101151C
:100080000026FF007508850195060900B20201856A
:100090000295840900B20201850395030900B202AA
:1000A00001850495830900B20201850595060900C2
:1000B000B20201850695030900B202018507958306
:1000C0000900B20201C009022200010100803E09BC
:1000D0000400000103000000092101010001224E7B
:1000E00000070581030800C80403090411241FBE8A
:1000F000CFE5D4E0DEBFCDBF10E0A0E6B0E0EEEB90
:10010000FAE002C005900D92A436B107D9F711E0CC
:10011000A4E6B0E001C01D92A73EB107E1F702D00E
:10012000CCC46ECF14BA8FE385BB17BA88BB89E005
:1001300081BB80EE82BB909A7DD150D0FECFFC0176
:1001400093819330A1F0943028F4913041F09230B3
:10015000E1F523C0913249F19232B9F52EC086E221
:1001600090E09093A9018093A80182E10895828193
:10017000813019F0823049F508C088E390E090930F
:10018000A9018093A8018AE2089582E690E0909305
:10019000A9018093A80186E1089586EC90E09093F0
:1001A000A9018093A80182E2089588ED90E09093E0
:1001B000A9018093A80189E0089588E790E09093D1
:1001C000A9018093A8018EE4089580E0089580E05D
:1001D0009091AD01913009F481E008959ED1089588
:1001E000899A8FE19FEBA2E081509040A040E1F717
:1001F00000C000000895EF92FF921F93CF93DF930A
:10020000FC0180916700823009F044C020916000B9
:10021000309161002115310551F491818281448131
:1002200040936C0010926D003596655004C090911B
:10023000680080916900260F311D30936100209382
:100240006000122F107820916C0030916D00121612
:100250001306A4F5283031050CF4622FE92EE701CE
:100260007E01F82EE701E62EFF24CF01BE01A70193
:100270000ED4CE0DDF1DD0936900C093680080912D
:100280006C0090916D008E199F0990936D00809382
:100290006C0014C0833039F491818281909368009E
:1002A000809369000AC0863011F01FEF07C091816A
:1002B000828190936A0080936B0011E0812FDF911F
:1002C000CF911F91FF90EF900895CF93DF93FC01A2
:1002D000828190819076903209F099C09181993015
:1002E00079F4823029F4109261001092600005C008
:1002F000833019F0863009F08AC08093670085C08A
:10030000913009F084C0813059F480936F0084E00B
:1003100080937000109271001092720082E033C0DE
:10032000843029F5609168007091690082E0603046
:10033000780708F06AC040E052E0461B570B40388F
:10034000510510F040E850E0CFE6D0E084E0809323
:100350006F00409370001092710010927200CE01F5
:10036000049685D3D093A901C093A8014CC08530D1
:10037000C1F480936F0080E480937000109271004C
:100380001092720080E280937300109274001092B9
:1003900075008FE690E09093A9018093A80187E013
:1003A00037C08730A1F540916A0050916B00E0E2C0
:1003B00040305E0750F580E090E2841B950B80385A
:1003C000910510F49C0102C020E830E087E08093A2
:1003D0006F00209370001092710010927200A3E7DA
:1003E000B0E080E090E0BC01640F751FFB016491F8
:1003F0006D93019682179307B0F38FE690E0909388
:10040000A9018093A80184E803C08FEF01C080E0B8
:10041000DF91CF910895899A8FE19FEBA2E08150FF
:100420009040A040E1F700C00000899865D0789422
:1004300074D00895F0DF0895CF92DF92EF92FF928B
:100440000F931F93CF93DF93EC016B0100E010E05B
:1004500017C07601E01AF10A89E0E816F1042CF0E1
:1004600088E0E82EF12C01C058D08091C40186FFAD
:10047000FBCFCE01800F911F6E2D71D10E0D1F1D70
:100480000C151D0530F3DF91CF911F910F91FF9057
:10049000EF90DF90CF900895CF92DF92EF92FF928E
:1004A0000F931F93CF93DF93EC016B0100E010E0FB
:1004B00017C07601E01AF10A89E0E816F1042CF081
:1004C00098E0E92EF12C01C028D08091820184FFB0
:1004D000FBCFCE01800F911F6E2D45D10E0D1F1D3C
:1004E0000C151D0530F3DF91CF911F910F91FF90F7
:1004F000EF90DF90CF90089585B7836085BF8BB76D
:1005000080648BBF8BE4809383018093C5018AE56F
:10051000809382018093C40108951F93CF93DF934A
:100520006091AA01635067FD98C08091A701CCE05B
:10053000D0E0C81BD109C255DE4F8091A6018D3293
:1005400009F079C0683009F086C083EC80937701A8
:100550008AE58093620010926E008881807619F09F
:10056000CE01B3DE55C09A81109280018981882323
:1005700031F41092810120E831E082E044C08530FE
:1005800019F49093AB013CC0863019F58B81813012
:10059000C1F08230B1F0833081F48A81882341F444
:1005A00088EE90E09093A9018093A80184E00DC0AB
:1005B000813039F0823041F404C0813211F082324E
:1005C00019F4CE01BCDD01C080E090E490936E0090
:1005D0001FC0883019F42DEA31E009C0893019F4C0
:1005E0009093AD010DC08A3021F420E831E081E024
:1005F0000AC08B3029F48BE4809383018093C5017A
:1006000020E831E080E03093A9012093A80109C0DF
:100610008F3F39F4988197FD8E8190E890936E001A
:1006200006C09F81992319F49E81981708F0982F8E
:100630009093630010C080916E0087FF0CC0CE01C4
:10064000DADD8F3F21F48EE18093620004C08823BD
:1006500011F0109263001092AA018091620084FF51
:100660004DC0809163008F3F09F448C0182F893036
:1006700008F018E0811B809363008091770198E86F
:10068000892780937701112369F12091A801309186
:10069000A90190916E00812F815096FF10C090E0CB
:1006A000BC0167587E4FA901C8E7D1E0FA01A491C7
:1006B000A9934F5F5F4FC617D707C1F70CC090E0F3
:1006C000AC0147585E4FD901E8E7F1E06D916193C5
:1006D000E417F507D9F70196820F931F9093A901AC
:1006E0008093A80188E791E0612F56D01C5F1C30F1
:1006F00019F08FEF80936300109362008AE090B34B
:10070000967031F48150D9F71092AB011092A50187
:10071000DF91CF911F9108951F93CF93DF93FC0139
:10072000162FEA01888184FF05C0898198E889270E
:10073000898302C08AE588839E012E5F3F4F912FF7
:10074000D90181918D9391501916DCF3C901612F64
:1007500023D01C5F1883DF91CF911F91089544EC43
:1007600051E0DADF089542E851E0D6DF0895A82F7E
:10077000B92F80E090E041E050EA60956F5F58F457
:100780002D9138EF82279795879510F0842795272C
:100790003F5FC8F3F3CF0895EADF8D939D930895EB
:1007A000CF93CFB7CF93819BFECF819B09C0819B15
:1007B00007C0819B05C0819B03C0819B01C0A3C072
:1007C000DF93C091A701DD27C255DE4F819B02C098
:1007D000DF91EBCF2F930F931F9300B32FEF01FB0C
:1007E00020F94F933F9310B34FEF012701FB21F9FD
:1007F0003BE031C04E7F012F10B3216028C0102F85
:100800004D7F2260000000B329C04B7F2460012F80
:10081000000010B32BC010B3477F28602AC04F7E62
:1008200000B320612CC04F7D10B320622FC04F7BDE
:1008300000B3206432C0422700B349934FEF000059
:10084000102711FB20F910B31670C9F1297F91F21E
:10085000012701FB21F900B3237F89F2315058F1C0
:10086000102711FB22F910B3277E79F2012701FB33
:1008700023F92F7C81F200B3102711FB24F92F7983
:1008800071F200C010B3012701FB25F92F7359F253
:1008900000C000B3102711FB26F9223040F200C03F
:1008A00010B3012701FB27F9243028F64F77206881
:1008B00010B30000F9CF10E41ABF002719C03B5055
:1008C0003195C31BD04010E41ABF0881033CF9F0F6
:1008D0000B34E9F02091A5011981110F1213EDCF0E
:1008E0004A81441F093641F10D3211F0013E29F7CA
:1008F0000093AC013F914F911F910F912F91DF9188
:10090000CAB7C6FD50CFCF91CFBFCF9118950091F8
:10091000AC01002379F31091AA011123F9F53430C9
:10092000FAF13093AA010093A6011091A7013BE0D0
:10093000311B3093A70134C00091AA01013074F536
:100940000AE54F7049F43091620034FD2BC00093EA
:100950006200C7E7D1E02AC0423049F030918201FD
:1009600034FD20C000938201C3E8D1E01FC0309164
:10097000C40136FD17C00093C401C5ECD1E016C018
:10098000052710E002BB1FC0052722C0052727C08E
:1009900005272CC0052710E002BB33C04AE503C081
:1009A00042ED01C0432FC4E1D0E032E011B3166044
:1009B000919A02B311BB5F9356E020E820FF052710
:1009C00002BB279517951C3FD8F620FF05272795D2
:1009D00002BB17951C3FC0F620FF052727951795EA
:1009E00002BB1C3F98F620FF0527279517951C3F53
:1009F00002BB70F600C0499120FF052702BB279576
:100A000017951C3F38F620FF0527279502BB179541
:100A10001C3F38F520FF05272795179502BB1C3F83
:100A200010F520FF0527279517951C3F02BBE8F41A
:100A3000242F3A9519F6097F5F9102BB1091AB0103
:100A4000110FC651D04011F01093A50110E41ABF48
:100A5000026011B3197F402F497F02BB11BB42BB1B
:100A600049CF0527D3CF0527D8CF0527DDCFDC0118
:100A7000CB01FC01E199FECF06C0FFBBEEBBE09AC3
:100A800031960DB20D9241505040B8F70895DC01F7
:100A9000CB0102C02D9105D041505040D8F70895A8
:100AA000262FE199FECF9FBB8EBB2DBB0FB6F894CE
:100AB000E29AE19A0FBE01960895F894FFCFFFFFE6
:100AC0005AFF0000000000000000000000000000CD
:100AD0000000000000000000000000000000000016
:100AE0000000000000000000000000000000000006
:100AF00000000000000000000000000000000000F6
:100B000000000000000000000000000000000000E5
:00000001FF
