:100000000C948F000C9478030C94AC000C94AC000E
:100010000C94AC000C94AC000C94AC000C94AC00B0
:100020000C94AC000C94AC000C94AC000C94AC00A0
:100030000C94AC000C94AC000C94AC000C94AC0090
:100040000C94AC000C94AC000C94AC000C94AC0080
:100050000C94AC000C94AC000C94AC000C94AC0070
:100060000C94AC000C94AC001201100100000008CC
:100070000304308E0001010200011A037A007500AA
:10008000720062006F00720067002E0069006E004F
:1000900066006F00320354007200610063006B0061
:1000A000620061006C006C0020005300740072005C
:1000B00069006B00650020002000560031002E0012
:1000C00030002E00300005010902A1010901A10044
:1000D0000509190129031500250195037501810200
:1000E0009501750581030501093009311581257FC9
:1000F000750895028106C0C0090222000101008036
:100100007D09040000010300000009210101000134
:1001100022320007058103080001040309041124A9
:100120001FBECFEFD4E0DEBFCDBF11E0A0E0B1E055
:10013000ECEAF9E002C005900D92A230B107D9F7C0
:1001400012E0A2E0B1E001C01D92A934B107E1F7CD
:100150000E94CD000C94D4040C940000589A81E0C5
:1001600090E008950E94240158985B9A80E090E006
:10017000089517B88FE388B914B885B989E08AB9AA
:1001800080EE8BB9359904C00E94B2009C0103C077
:10019000589A21E030E0C90108950E94B900009703
:1001A00019F0019731F403C00E94DC0002C00E94E4
:1001B000100280E090E00895FFCFFC01838183303E
:1001C000A1F0843028F4813041F08230B9F51EC0AE
:1001D000813221F1823291F529C088E690E0909336
:1001E0002E0280932D0282E108958281813019F0E0
:1001F000823021F508C08AE790E090932E02809328
:100200002D028AE1089584E990E012C088EF90E021
:1002100090932E0280932D0282E208958AE091E06D
:1002200090932E0280932D0289E0089586EC90E051
:1002300090932E0280932D0282E3089580E008952A
:1002400080E008958FEF0895519A88EB9BE02CE2AF
:1002500031E0F9013197F1F70197D9F7089510923C
:100260000D0110920C0110920B01089583B1817061
:10027000809306018093020183B190E09695879563
:1002800081708093070189B190E026E0969587956B
:100290002A95E1F781708093080189B1881F88272A
:1002A000881F8093090180930301089540910601FE
:1002B000409302016091070160930301509108018E
:1002C00050930401709109017093050183B181700D
:1002D0008093060123B130E036952795922F9170D7
:1002E0009093070129B130E0E6E036952795EA952D
:1002F000E1F721702093080139B1331F3327331FF1
:1003000030930901841711F4961779F0941731F09E
:1003100080910C018F3749F08F5F05C080910C01EF
:1003200082381CF0815080930C01251711F4371787
:1003300089F0351741F080910D0182385CF08150D1
:1003400080930D01089580910D018F3719F08F5F13
:1003500080930D0108951F930E94360116BC10E092
:10036000A89B02C0A89A1F5F0E9456011530C0F3D7
:100370001A9905C080910B01816080930B011B9934
:1003800005C080910B01826080930B011D9905C00F
:1003900080910B01846080930B011F910895CF928F
:1003A000DF92EF92FF920F931F93CF93DF936C0135
:1003B0007B0100E010E017C0E701C01BD10BC93082
:1003C000D10514F0C8E0D0E0C601800F911F6C2F5A
:1003D0000E943C0302C00E94400280911E0284FFE2
:1003E000FACF0C0F1D1F0E151F0530F3DF91CF91B3
:1003F0001F910F91FF90EF90DF90CF900895519A49
:1004000088EB9BE02CE231E0F9013197F1F701979D
:10041000D9F751980E94330278940E9440020895BF
:100420000E94FF010E94400210920D0110920C01E7
:1004300010920B0182E085BD04C00E9440020E9420
:10044000AB0180911E0284FFF8CF0E94AB018BE0CC
:1004500091E063E00E943C0310920D0110920C01A8
:1004600010920B01EECFE9E6F0E08081836080839B
:10047000E89A8BE480931F028AE580931E02089518
:100480001F93CF93DF9360912F02635067FD98C055
:1004900080912C02CCE0D0E0C81BD109CD5CDD4FAF
:1004A00080912B028D3209F078C0683009F086C047
:1004B00083EC809313028AE58093000110920A0175
:1004C0008881807629F0CE010E942001282F52C019
:1004D0009A8110921C028981882321F410921D02B6
:1004E00022E041C0853019F4909330023BC0863041
:1004F00029F58B818130C1F08230B1F0833081F4F5
:100500008A81882341F48AE191E090932E028093BE
:100510002D0224E00FC0813039F0823051F404C044
:10052000813211F0823229F4CE010E94DD00282FA1
:1005300001C020E080E480930A011CC0883021F4CF
:1005400021E082E392E011C0893019F490933202E5
:1005500009C08A3011F421E006C08B3019F48BE415
:1005600080931F0220E08CE192E090932E02809312
:100570002D0209C02F3F39F4888187FD2E8180E844
:1005800080930A0106C08F81882319F48E81821717
:1005900008F0822F8093010111C080910A0187FF2A
:1005A0000DC0CE010E9422018F3F21F48EE1809385
:1005B000000104C0882311F01092010110922F0253
:1005C0008091000184FF4AC0809101018F3F09F4AE
:1005D00045C0182F893008F018E0811B8093010175
:1005E0008091130298E8892780931302112341F127
:1005F00020912D0230912E0280910A0186FF0DC0BC
:10060000A4E1B2E080E090E0F901E80FF91FE49185
:10061000ED9301961817C1F708C0912FD901E4E1B5
:10062000F2E08D9181939150E1F71150812F90E08C
:100630001F5F0196820F931F90932E0280932D02CD
:1006400084E192E0612F0E947403612F6C5F6C3033
:1006500019F08FEF80930101609300019AE089B156
:10066000867031F49150D9F71092300210922A021C
:10067000DF91CF911F9108951F93DC01162F809178
:100680001E0284FF07C080911F0298E8892780938B
:100690001F0203C08AE580931E02912FE0E2F2E080
:1006A0008D91819391501916DCF380E292E0612FD5
:1006B0000E9474031C5F10931E021F910895A82FBF
:1006C000B92F80E090E041E050EA60956F5F58F408
:1006D0002D9138EF82279795879510F084279527DD
:1006E0003F5FC8F3F3CF0895EADF8D939D9308959C
:1006F000CF93CFB7CF93499BFECF499B09C0499B6E
:1007000007C0499B05C0499B03C0499B01C0A3C0CA
:10071000DF93C0912C02DD27CD5CDD4F499B02C0E9
:10072000DF91EBCF2F930F931F9309B12FEF01FBB5
:1007300020F94F933F9319B14FEF012701FB21F9A6
:100740003BE031C04E7F012F19B1216028C0102F2E
:100750004D7F2260000009B129C04B7F2460012F2A
:10076000000019B12BC019B1477F28602AC04F7E05
:1007700009B120612CC04F7D19B120622FC04F7B81
:1007800009B1206432C0422709B149934FEF0000FC
:10079000102711FB20F919B11670C9F1297F91F2C8
:1007A000012701FB21F909B1237F89F2315058F16A
:1007B000102711FB22F919B1277E79F2012701FBDD
:1007C00023F92F7C81F209B1102711FB24F92F792D
:1007D00071F200C019B1012701FB25F92F7359F2FD
:1007E00000C009B1102711FB26F9223040F200C0E9
:1007F00019B1012701FB27F9243028F64F7720682B
:1008000019B10000F9CF11E01CBB002719C03B5003
:100810003195C31BD04011E01CBB0881033CF9F0AB
:100820000B34E9F020912A021981110F1213EDCF38
:100830004A81441F093641F10D3211F0013E29F77A
:10084000009331023F914F911F910F912F91DF91B2
:10085000CCB3C0FD50CFCF91CFBFCF9118950091B1
:100860003102002379F310912F021123A1F53430C6
:10087000A2F130932F0200932B0210912C023BE047
:10088000311B30932C0229C000912F0201301CF53E
:100890000AE54F7049F43091000134FD20C0009307
:1008A0000001C3E1D2E01FC030911E0234FD17C029
:1008B00000931E02CFE1D2E016C0052710E00BB96D
:1008C0001FC0052722C0052727C005272CC00527E4
:1008D00010E00BB933C04AE503C042ED01C0432F1D
:1008E000C4E1D0E032E01AB11660599A0BB11AB9DE
:1008F0005F9356E020E820FF05270BB92795179551
:100900001C3FD8F620FF052727950BB917951C3FEC
:10091000C0F620FF0527279517950BB91C3F98F6C1
:1009200020FF0527279517951C3F0BB970F600C0CF
:10093000499120FF05270BB9279517951C3F38F6DD
:1009400020FF052727950BB917951C3F38F520FF89
:100950000527279517950BB91C3F10F520FF052794
:10096000279517951C3F0BB9E8F4242F3A9519F6F3
:10097000097F5F910BB910913002110FC651D04021
:1009800011F010932A0211E01CBB02601AB1197F0A
:10099000402F497F0BB91AB94BB954CF0527D3CF94
:0C09A0000527D8CF0527DDCFF894FFCF46
:0209AC005AFFF0
:00000001FF
