:100000006DC058C386C085C084C083C082C081C013
:1000100080C07FC07EC07DC07CC07BC07AC079C0FC
:1000200078C077C076C012011001000000080304F8
:10003000308E0001010200011A037A00750072007F
:1000400062006F00720067002E0069006E0066009B
:100050006F00320354007200610063006B006200A5
:1000600061006C006C002000530074007200690095
:100070006B00650020002000560031002E0030008B
:100080002E00300005010902A1010901A1000509A6
:1000900019012903150025019503750181029501B8
:1000A000750581030501093009311581257F750822
:1000B00095028106C0C009022200010100807D096D
:1000C00004000001030000000921010100012232A7
:1000D00000070581030800010403090411241FBE61
:1000E000CFE5D4E0DEBFCDBF10E0A0E6B0E0E0E7B2
:1000F000F9E002C005900D92A236B107D9F711E0E0
:10010000A2E6B0E001C01D92A93AB107E1F71FD005
:100110002DC476CF909A81E090E008956CD09098AD
:10012000939A80E090E0089514BA8FE385BB17BAE4
:1001300088BB89E081BB80EE82BBB59903C0EEDF4E
:100140009C0103C0909A21E030E0C9010895ECDFE2
:10015000009719F0019721F402C005D001C04DD1DC
:1001600080E090E00895FFCFFC0183818330A1F00F
:10017000843028F4813041F08230B9F51EC08132DC
:1001800021F1823291F529C086E290E090938E01B0
:1001900080938D0182E108958281813019F082304F
:1001A00021F508C088E390E090938E0180938D0143
:1001B0008AE1089582E590E012C086EB90E090938A
:1001C0008E0180938D0182E2089588EC90E09093F7
:1001D0008E0180938D0189E0089584E890E09093EA
:1001E0008E0180938D0182E3089580E0089580E080
:1001F00008958FEF0895899A88EB9BE02CE231E017
:10020000F9013197F1F70197D9F7089510926D0030
:1002100010926C0010926B00089583B390E053E04D
:10022000969587955A95E1F7817080936600809343
:10023000620083B390E09695879596958795817037
:100240008093670083B390E034E0969587953A9564
:10025000E1F781708093680083B390E025E0969584
:1002600087952A95E1F781708093690080936300F8
:10027000089540916600409362007091670070930A
:1002800063005091680050936400E0916900E0932E
:10029000650023B330E083E0369527958A95E1F732
:1002A00021702093660083B390E09695879596958C
:1002B0008795382F31703093670083B390E0A4E0C6
:1002C00096958795AA95E1F7682F6170609368000D
:1002D00083B390E0F5E096958795FA95E1F7817004
:1002E00080936900241711F4371779F0341731F02F
:1002F00090916C0092384CF0915005C090916C0038
:100300009F3719F09F5F90936C00651711F48E175B
:1003100089F0851741F080916D008F3759F08F5F1C
:1003200080936D00089580916D0082381CF081509B
:1003300080936D0008951F9370DF12BE10E008B621
:1003400000FE04C088B7816088BF1F5F92DF153050
:10035000B0F3879905C080916B00816080936B003A
:10036000859905C080916B00826080936B00B09985
:1003700005C080916B00846080936B001F9108958D
:10038000CF92DF92EF92FF920F931F93CF93DF9361
:100390006C017B0100E010E015C0E701C01BD10B30
:1003A000C930D10514F0C8E0D0E0C601800F911F1C
:1003B0006C2F45D101C04BD080917E0184FFFBCFD3
:1003C0000C0F1D1F0E151F0540F3DF91CF911F91DC
:1003D0000F91FF90EF90DF90CF900895899A88EB6E
:1003E0009BE02CE231E0F9013197F1F70197D9F761
:1003F000899820D078942BD00895F0DF28D01092DF
:100400006D0010926C0010926B0082E083BF02C0FE
:100410001ED091DF80917E0184FFFACF8CDF8BE6C6
:1004200090E063E00CD110926D0010926C0010927D
:100430006B00F0CF85B7836085BF8BB780648BBFBF
:100440008BE480937F018AE580937E0108951F935A
:10045000CF93DF9360918F01635067FD95C08091CA
:100460008C01CCE0D0E0C81BD109CD56DE4F809185
:100470008B018D3209F076C0683009F083C083ECBF
:10048000809373018AE58093600010926A008881EE
:10049000807621F0CE01ABDE282F51C09A811092D8
:1004A0007C018981882321F410927D0122E040C0E3
:1004B000853019F4909390013AC0863021F58B81F4
:1004C0008130C1F08230B1F0833081F48A81882399
:1004D00041F488ED90E090938E0180938D0124E0AB
:1004E0000EC0813039F0823049F404C0813211F0FD
:1004F000823221F4CE0138DE282F01C020E080E4D2
:1005000080936A001CC0883021F421E082E991E0E8
:1005100011C0893019F49093920109C08A3011F406
:1005200021E006C08B3019F48BE480937F0120E03A
:100530008CE791E090938E0180938D0109C02F3F4D
:1005400039F4888187FD2E8180E880936A0006C097
:100550008F81882319F48E81821708F0822F80936F
:10056000610010C080916A0087FF0CC0CE0141DE9F
:100570008F3F21F48EE18093600004C0882311F046
:100580001092610010928F018091600084FF49C039
:10059000809161008F3F09F444C0182F893008F022
:1005A00018E0811B809361008091730198E889278E
:1005B00080937301112341F120918D0130918E01BF
:1005C00080916A0086FF0DC0A4E7B1E080E090E072
:1005D000F901E80FF91FE491ED9301961817C1F79F
:1005E00008C0912FD901E4E7F1E08D9181939150FA
:1005F000E1F71150812F90E01F5F0196820F931F4A
:1006000090938E0180938D0184E791E0612F4ED00D
:10061000612F6C5F6C3019F08FEF809361006093F5
:1006200060009AE080B3867031F49150D9F710924F
:10063000900110928A01DF91CF911F9108951F932D
:10064000DC01162F80917E0184FF07C080917F011D
:1006500098E8892780937F0103C08AE580937E0113
:10066000912FE0E8F1E08D91819391501916DCF320
:1006700080E891E0612F1AD01C5F10937E011F91DA
:100680000895A82FB92F80E090E041E050EA6095EE
:100690006F5F58F42D9138EF82279795879510F06A
:1006A000842795273F5FC8F3F3CF0895EADF8D9342
:1006B0009D930895CF93CFB7CF93819BFECF819B1E
:1006C00009C0819B07C0819B05C0819B03C0819BA2
:1006D00001C0A3C0DF93C0918C01DD27CD56DE4F52
:1006E000819B02C0DF91EBCF2F930F931F9300B339
:1006F0002FEF01FB20F94F933F9310B34FEF0127EA
:1007000001FB21F93BE031C04E7F012F10B3216086
:1007100028C0102F4D7F2260000000B329C04B7FFE
:100720002460012F000010B32BC010B3477F286056
:100730002AC04F7E00B320612CC04F7D10B32062D1
:100740002FC04F7B00B3206432C0422700B34993CF
:100750004FEF0000102711FB20F910B31670C9F1FC
:10076000297F91F2012701FB21F900B3237F89F250
:10077000315058F1102711FB22F910B3277E79F27E
:10078000012701FB23F92F7C81F200B3102711FB15
:1007900024F92F7971F200C010B3012701FB25F96C
:1007A0002F7359F200C000B3102711FB26F9223035
:1007B00040F200C010B3012701FB27F9243028F6CE
:1007C0004F77206810B30000F9CF10E41ABF00275C
:1007D00019C03B503195C31BD04010E41ABF0881AB
:1007E000033CF9F00B34E9F020918A011981110FD3
:1007F0001213EDCF4A81441F093641F10D3211F039
:10080000013E29F7009391013F914F911F910F9164
:100810002F91DF91CAB7C6FD50CFCF91CFBFCF91F7
:10082000189500919101002379F310918F01112304
:10083000A1F53430A2F130938F0100938B01109118
:100840008C013BE0311B30938C0129C000918F015A
:1008500001301CF50AE54F7049F43091600034FD19
:1008600020C000936000C3E7D1E01FC030917E013B
:1008700034FD17C000937E01CFE7D1E016C00527F5
:1008800010E002BB1FC0052722C0052727C005278F
:100890002CC0052710E002BB33C04AE503C042ED7F
:1008A00001C0432FC4E1D0E032E011B31660919A49
:1008B00002B311BB5F9356E020E820FF052702BB7F
:1008C000279517951C3FD8F620FF0527279502BBD3
:1008D00017951C3FC0F620FF05272795179502BBEB
:1008E0001C3F98F620FF0527279517951C3F02BB54
:1008F00070F600C0499120FF052702BB2795179588
:100900001C3F38F620FF0527279502BB17951C3F93
:1009100038F520FF05272795179502BB1C3F10F5DA
:1009200020FF0527279517951C3F02BBE8F4242FCD
:100930003A9519F6097F5F9102BB10919001110F52
:10094000C651D04011F010938A0110E41ABF026022
:1009500011B3197F402F497F02BB11BB42BB54CF5B
:100960000527D3CF0527D8CF0527DDCFF894FFCFB4
:020970005AFF2C
:00000001FF
