:100000000C9497000C9407040C94B4000C94B40066
:100010000C94B4000C94B4000C94B4000C94B40090
:100020000C94B4000C94B4000C94B4000C94B40080
:100030000C94B4000C94B4000C94B4000C94B40070
:100040000C94B4000C94B4000C94B4000C94B40060
:100050000C94B4000C94B4000C94B4000C94B40050
:100060000C94B4000C94B4001201100100000008BC
:10007000C016DF050001010200012A0370006F00B5
:1000800068006C002D006D0069006300680061006D
:1000900065006C00400067006D0078002E00620073
:1000A00069007A0016034D0065006D006F00720054
:1000B000790054006F006F006C000600FF0901A179
:1000C00001150026FF007508850195060900B2029A
:1000D00001850295840900B2020185039503090098
:1000E000B20201850495830900B2020185059506D7
:1000F0000900B20201850695030900B202018507D5
:1001000095830900B20201C00902220001010080AA
:100110003E09040000010300000009210101000163
:10012000224E00070581030800C8040309041124B6
:100130001FBECFEFD4E0DEBFCDBF11E0A0E0B1E045
:10014000E0E3FBE002C005900D92A430B107D9F7BF
:1001500012E0A4E0B1E001C01D92A738B107E1F7B9
:100160000E94B6000C9496050C94000017B88FE31B
:1001700088B914B885B989E08AB980EE8BB9589AE4
:100180000E9445020E941401FDCFFC01938193302F
:10019000A1F0943028F4913041F09230E1F523C081
:1001A000913249F19232B9F52EC088E690E09093F1
:1001B00049028093480282E108958281813019F0DA
:1001C000823049F508C08AE790E090934902809315
:1001D00048028AE2089584EA90E09093490280936D
:1001E000480286E1089588E091E090934902809367
:1001F000480282E208958AE191E090934902809357
:10020000480289E008958AEB90E090934902809338
:1002100048028EE4089580E0089580E090914D02B8
:10022000913009F481E008950E94BD020895519A29
:100230008FE19FEBA2E081509040A040E1F700C029
:1002400000000895EF92FF921F93CF93DF93FC017C
:1002500080910701823009F045C020910001309162
:1002600001012115310551F491818281448140932E
:100270000C0110920D013596655004C09091080153
:1002800080910901260F311D309301012093000157
:10029000122F107820910C0130910D0112161306C7
:1002A000ACF5283031050CF4622FE92EE7017E0110
:1002B000F82EE701E62EFF24CF01BE01A7010E9420
:1002C0007E05CE0DDF1DD0930901C09308018091FA
:1002D0000C0190910D018E199F0990930D0180934F
:1002E0000C0114C0833039F491818281909308010C
:1002F000809309010AC0863011F01FEF07C0918179
:10030000828190930A0180930B0111E0812FDF918C
:10031000CF911F91FF90EF900895CF93DF93FC0151
:10032000828190819076903209F09AC091819930C3
:1003300079F4823029F4109201011092000105C075
:10034000833019F0863009F08BC08093070186C096
:10035000913009F085C0813059F480930F0184E019
:1003600080931001109211011092120182E034C0AA
:10037000843031F5609108017091090182E06030AC
:10038000780708F06BC040E052E0461B570B40383E
:10039000510510F040E850E0CFE0D1E084E08093D8
:1003A0000F01409310011092110110921201CE0121
:1003B00004960E946E05D0934902C09348024CC037
:1003C0008530C1F480930F0180E880931001109272
:1003D00011011092120180E4809313011092140114
:1003E000109215018FE091E09093490280934802AA
:1003F00087E037C08730A1F540910A0150910B0189
:10040000E0E440305E0750F580E090E4841B950BFB
:100410008038910510F49C0102C020E830E087E0AC
:1004200080930F012093100110921101109212017C
:10043000A3E1B1E080E090E0BC01640F751FFB0117
:1004400064916D93019682179307B0F38FE091E06A
:10045000909349028093480284E803C08FEF01C063
:1004600080E0DF91CF910895519A8FE19FEBA2E058
:1004700081509040A040E1F700C0000051980E94D8
:10048000AC0278940E94BD0208950E94340208953F
:10049000CF92DF92EF92FF920F931F93CF93DF9350
:1004A000EC016B0100E010E019C07601E01AF10ADE
:1004B00089E0E816F10434F088E0E82EF12C02C05F
:1004C0000E94BD028091640286FFFACFCE01800FA8
:1004D000911F6E2D0E94E4030E0D1F1D0C151D05AE
:1004E00020F3DF91CF911F910F91FF90EF90DF905C
:1004F000CF900895CF92DF92EF92FF920F931F93C8
:10050000CF93DF93EC016B0100E010E019C076019E
:10051000E01AF10A89E0E816F10434F098E0E92ED7
:10052000F12C02C00E94BD028091220284FFFACF0A
:10053000CE01800F911F6E2D0E94E9030E0D1F1D2D
:100540000C151D0520F3DF91CF911F910F91FF90A6
:10055000EF90DF90CF900895E9E6F0E0808183602E
:100560008083E89A8BE480932302809365028AE576
:10057000809322028093640208951F93CF93DF93A8
:1005800060914A02635067FD9BC080914702CCE0B6
:10059000D0E0C81BD109C25BDD4F809146028D328D
:1005A00009F07BC0683009F089C083EC80931702A2
:1005B0008AE58093020110920E018881807621F0F5
:1005C000CE010E948D0156C09A811092200289812D
:1005D000882331F41092210220E232E082E045C00B
:1005E000853019F490934B023DC0863021F58B8104
:1005F0008130C1F08230B1F0833081F48A81882368
:1006000041F48AE291E0909349028093480284E0A9
:100610000EC0813039F0823049F404C0813211F0CB
:10062000823221F4CE010E94C50001C080E090E436
:1006300090930E011FC0883019F42DE432E009C0F8
:10064000893019F490934D020DC08A3021F420E2D4
:1006500032E081E00AC08B3029F48BE480932302DE
:100660008093650220E232E080E0309349022093DB
:10067000480209C08F3F39F4988197FD8E8190E838
:1006800090930E0106C09F81992319F49E819817BB
:1006900008F0982F9093030111C080910E0187FFFD
:1006A0000DC0CE010E9422018F3F21F48EE1809384
:1006B000020104C0882311F01092030110924A0233
:1006C0008091020184FF4EC0809103018F3F09F4A5
:1006D00049C0182F893008F018E0811B809303016E
:1006E0008091170298E8892780931702112369F1F6
:1006F000209148023091490290910E01812F815042
:1007000096FF10C090E0BC01675E7D4FA901C8E173
:10071000D2E0FA01A491A9934F5F5F4FC617D707A4
:10072000C1F70CC090E0AC01475E5D4FD901E8E134
:10073000F2E06D916193E417F507D9F70196820F06
:10074000931F909349028093480288E192E0612FC1
:100750000E9403041C5F1C3019F08FEF809303018B
:10076000109302018AE099B1967031F48150D9F763
:1007700010924B0210924502DF91CF911F91089584
:100780001F93CF93DF93FC01162FEA01888184FF2A
:1007900005C0898198E88927898302C08AE5888312
:1007A0009E012E5F3F4F912FD90181918D939150E2
:1007B0001916DCF3C901612F0E9403041C5F188322
:1007C000DF91CF911F91089544E652E00E94C0034B
:1007D000089542E252E00E94C0030895A82FB92F65
:1007E00080E090E041E050EA60956F5F58F42D9111
:1007F00038EF82279795879510F0842795273F5FDC
:10080000C8F3F3CF0895EADF8D939D930895CF93B6
:10081000CFB7CF93499BFECF499B09C0499B07C0E7
:10082000499B05C0499B03C0499B01C0A3C0DF93FE
:10083000C0914702DD27C25BDD4F499B02C0DF91BB
:10084000EBCF2F930F931F9309B12FEF01FB20F9EB
:100850004F933F9319B14FEF012701FB21F93BE083
:1008600031C04E7F012F19B1216028C0102F4D7F5C
:100870002260000009B129C04B7F2460012F0000D5
:1008800019B12BC019B1477F28602AC04F7E09B12A
:1008900020612CC04F7D19B120622FC04F7B09B160
:1008A000206432C0422709B149934FEF000010275E
:1008B00011FB20F919B11670C9F1297F91F20127B6
:1008C00001FB21F909B1237F89F2315058F110273A
:1008D00011FB22F919B1277E79F2012701FB23F9D7
:1008E0002F7C81F209B1102711FB24F92F7971F2C5
:1008F00000C019B1012701FB25F92F7359F200C07F
:1009000009B1102711FB26F9223040F200C019B1BD
:10091000012701FB27F9243028F64F77206819B109
:100920000000F9CF11E01CBB002719C03B503195E6
:10093000C31BD04011E01CBB0881033CF9F00B3411
:10094000E9F0209145021981110F1213EDCF4A8170
:10095000441F093641F10D3211F0013E29F7009391
:100960004C023F914F911F910F912F91DF91CCB38A
:10097000C0FD50CFCF91CFBFCF91189500914C02C1
:10098000002379F310914A021123F9F53430FAF17A
:1009900030934A0200934602109147023BE0311B1C
:1009A0003093470234C000914A02013074F50AE5E1
:1009B0004F7049F43091020134FD2BC000930201C5
:1009C000C7E1D2E02AC0423049F03091220234FD22
:1009D00020C000932202C3E2D2E01FC03091640223
:1009E00036FD17C000936402C5E6D2E016C00527A5
:1009F00010E00BB91FC0052722C0052727C0052717
:100A00002CC0052710E00BB933C04AE503C042ED06
:100A100001C0432FC4E1D0E032E01AB11660599A08
:100A20000BB11AB95F9356E020E820FF05270BB9F8
:100A3000279517951C3FD8F620FF052727950BB95A
:100A400017951C3FC0F620FF0527279517950BB972
:100A50001C3F98F620FF0527279517951C3F0BB9DB
:100A600070F600C0499120FF05270BB9279517950F
:100A70001C3F38F620FF052727950BB917951C3F1B
:100A800038F520FF0527279517950BB91C3F10F562
:100A900020FF0527279517951C3F0BB9E8F4242F55
:100AA0003A9519F6097F5F910BB910914B02110F1E
:100AB000C651D04011F01093450211E01CBB0260FA
:100AC0001AB1197F402F497F0BB91AB94BB949CFD9
:100AD0000527D3CF0527D8CF0527DDCFDC01CB01F4
:100AE000FC01F999FECF06C0F2BDE1BDF89A31963E
:100AF00000B40D9241505040B8F70895DC01CB018D
:100B000003C02D910E94890541505040D0F70895AF
:100B1000262FF999FECF1FBA92BD81BD20BD0FB619
:100B2000F894FA9AF99A0FBE01960895F894FFCFB7
:100B3000FFFF5AFF0000000000000000000000005E
:100B400000000000000000000000000000000000A5
:100B50000000000000000000000000000000000095
:100B60000000000000000000000000000000000085
:100B70000000000000000000000000000000000075
:00000001FF
