:100000002DC547C546C545C544C543C542C541C5BF
:1000100040C53FC53EC53DC53CC53BC53AC539C5D4
:1000200038C543C936C5A877A6E0F7435A3585E2F7
:1000300072978FB71A6287380D67C7BE4F3E20761A
:10004000378F68B7A9263F2B10E3307E900E850AC4
:1000500070510386400D4FEB3ECCD18735BDF50B7B
:100060005ED0F8F2D5E26C310CADFC21C378C1064C
:10007000C24C55E64A3448111EDAE71A84A096A706
:10008000E37FAF639CFA235B79C89EBAB2C92212A0
:100090004BB3A1B63249A2E189391066C5078F5426
:1000A000EA91CA3FF919F0D746BC281B61E82F6ACC
:1000B000AE9DF64E0914774DDB1F2E7B7CF143A3DA
:1000C00000B8138C85B9297588FDD2561C5097410C
:1000D000E53B60B5C064EE98D62D25A4AACD7DA8D9
:1000E00083C6ABBE4499263CCE9FBFD3CB767A7EE7
:1000F00082018A9A801D0EB05CD43862F430E08EA2
:1001000053B70257ACA6520A6D9265172433457255
:1001100074B1B4F75DED2CFF47375A90BBDF2A1658
:100120005995D9C4276773C768FEA5DD6B5F93D85F
:10013000EC053A8D6EFB3DA96936F394DEEF156F41
:100140008B9B080FDC81182004E471CFE92B425807
:1001500001A0A962D63F85A7B6D4FA15661709BDD6
:100160005D14342659729154064FF8B05B7493991C
:100170008CF245CDEA4EAD104AE5CAEEDFC66F9F60
:10018000888E02CC08A877946D21B128E43979963D
:10019000607181162EE678B9C4469A42AEB77C43A8
:1001A000B3221A86C2323D2D9CD229E9639BD131FC
:1001B000385E1E3641BB03182B3EBF6861FC52C03F
:1001C000DEE00A58135A00BE1C900E5312FDE26E78
:1001D000BACE2427447F87A3A1D55040E3F983F703
:1001E000C7A235C8DB19AB2F1125ED339E55E14869
:1001F000AF7384DA2AAA51EB9D95B2CBE77080FEEB
:100200004C6504EFC5F1C33AB4F55F2389DD30A531
:100210008BD3F6DC4D64D7F08FEC56375CA40D071A
:10022000768A2C0BB5D8C11FE83BF44B1B476C49B1
:10023000677B92CF757E20D97D3C977AD0056B0F76
:100240001DFB8298578DF36ABCACC9A6FFB8690C38
:100250004C4D72075A49338DA2AB463D630DA097B2
:10026000FFF0F5FAC0E9DB62E4E17443DC861829AB
:1002700037F406E2ED6F90481E2D1DEA739454DFAB
:1002800025F64727D91177C9841C5B5C5181A622CA
:100290003E2496C88AEC827C09B8454A57BB2F5049
:1002A000758E61708C6CAFD0FDB41BAEDEFE3BB5BD
:1002B00036BD55010E9C41565FB3260383BA134BDE
:1002C000CAC50AF860A5B9C7C39832FB12F9A7924C
:1002D000AA68F3787E05202102E8BFF2B0598FD2D8
:1002E000CB876515F11AB230ADEE58A38B661F2C83
:1002F000D75D1985A8E6D36BA10C91936A5E0B7943
:10030000E3DD004F3C896E7169A9AC40E59928C6D0
:10031000314E7ACD089E7DEF17FC88D8A46D4495A8
:10032000D1B7D49BBE2A34642BCF2EEB38CE23E03A
:100330003A3FF77B9F1053BC526716E7807604C4A0
:10034000B6C1C27F9ADAD53942149DB10F35D6CCE9
:10035000B9DA380CA29C091F06B1B6FD1A69233020
:10036000C4DE01D1F45829371C7DD5BFFFBDC8C9F3
:10037000CF65BE7B7897986708B32657F7FA40ADEC
:100380008E75A67CDB918B5199D4177A908DCE63B4
:10039000CB4EA0AB183A5B507F2174C1BBB8B7BA43
:1003A0000B359531599A4D04071E5A7613F3718314
:1003B000D08603A83942AA28E6E4D85DD3D06E6F70
:1003C00096FB5EBC56C25F859BE7AFD23B846AA7B3
:1003D00053C54449A5F936723D2CD91BA1F54F935D
:1003E0009D68474116CA2A4CA387D6E5192E771572
:1003F0006D70C0DFB20046EDC66C4360922DA9223D
:10040000458F3455AEA40A6632E0DC02ACE8208C9D
:1004100089624AFEEEC3E33CF17905E9F62733CC65
:10042000F29E11817E80108A829F480DD7B4FC2FE6
:10043000B5C7DD88146B2B54EA1D945CB0EF122411
:10044000CDEBE1E264733F0E5261253EF80F4BECB9
:10045000C00030F602493D106E20C9A62FFE2C2B9D
:10046000752E4526AB48A980FC04CCD3B5BAA33879
:10047000317D01D9A77B96B663694EF7DEE078CA75
:1004800050AA41916588E42185DA3A27BE1C3E4294
:100490005E17527F1F89246F8F5C67740E12878DE1
:1004A000E934ED73C4F8615B05DF594C9779831823
:1004B000A45595EBBD53F5F15766469FB28109519E
:1004C000862216DD23937629C2D71DD4BF363FEA94
:1004D0004B1132B9625460D66D439A0D929CB0EFC5
:1004E000586C9D772D70FAF3B30BE2407EF48AE5E9
:1004F0008C3C5671D164E1820ACB131590EC0399C0
:10050000AF145D0F334A94A5A8351BE36AC628FFD4
:100510004DE72584AC08AEC5A22AB8370C7AA0C333
:10052000CEAD061A9E8BFBD5D0C11ED0B49BB14474
:10053000F247C768CF72BB4F5AF9DC6BDBD2E87C5D
:10054000C8EE98A1E6D839075FFD8E19B73BBCCD40
:100550007CE38173B211BF6F2098FE7596EF6CDA61
:1005600050E109725445BA34805BED3E532C87A4A8
:1005700057F3333F3CB767B4A325604F076B1B4766
:10058000150FE40AEAD1327836498D4BD2BCA5DC8E
:100590001D0D4DCD9A825FFC9465BEE2F4C91E44E8
:1005A000CB9E0C64712663B314E840708A0E194226
:1005B0006DAC88105CDF41A9ADE5FB74CCD5068E2F
:1005C0005986CE1F3D76E08FB977277BA6D829D3F1
:1005D000ECB813F7FAC3516ADE4A5AEBC28B2348D0
:1005E00092CF62A899F8D02E856143C8BDF00593DB
:1005F000CA4EF17D30FDC469662F08B152F921E67B
:100600007A2BDD3984FFC091D637D47F2D9B5DA135
:100610003B6EB5C54604F590EE7E831C0356B6AA24
:100620000017013555790B12BB1A31E7022816C1A4
:10063000F6A2DB189C89683897ABC72AD73AF2C66E
:10064000244CB058A0225E9DD9A7E9AEAF8C959FEF
:1006500028B720D7B030C30919C067D6003C7EE761
:10066000E9F4085AF8B82E05A6259E5CD8150DE1C8
:10067000F611546BCD2146665E84AD06382944C51B
:10068000A2CEF1AAC1407186B5EFFC36A8CB0A48CC
:10069000274564A3AF8CB2C69F0789DC17D349797D
:1006A000FBFE1DD0B9884352BC01782B7D94C70E48
:1006B000DEA5D59BCCF7617AC274813903AB96A0D5
:1006C00037BD2D72753FC9D48E6FF98DED62DB1C7D
:1006D000DF04AC1B6C144B63D0BFB482EC7B1A59A3
:1006E00092D21060B63D5FE6806E70C4F235D97C60
:1006F000EEE541A45B50DDBB4CF31F9D5D575551AA
:1007000097E358424D9C73BAC877316926AEEA8A9E
:10071000DA22B38756FA930B341633E8E453BEA9B2
:10072000B13A3EF5906ACF3B12FD8F9AA747919957
:10073000EB0F24FF2318854E7F0CE0A1D2D12C2A89
:100740004A024F1E95688B98836D76CA6532132FC7
:10075000C3829AA4BA8160373435FC80A85165679A
:10076000ED305F10D34A272F13B92AD2CCE1EFAE78
:10077000EBBEF4BDCF43B3C58884B7DD3940CE4866
:100780006D9B72617EE7A14E532E773BE2C9362204
:100790001B6E73B103B24C87A9D44D0FD8156CAA48
:1007A00018F649575DFB7A149463A011B09EDE05DC
:1007B00046C8EE47DBDC24899C919729E97BC10779
:1007C0001EB8FDFEACC662984FF179E0E86B785632
:1007D000B68D045086CA6F20E6EAE576171C747F52
:1007E000BC0D2C85F76696E48B753F4BD938AF7CF2
:1007F000DA0B832D3132A2F51D594145BF3C1FF85C
:10080000F98AD016256912999D2195AB01A6D7B515
:10081000C07DFF580E3A92D155E3089FD63E528EC6
:10082000FAA3C702CDDF8F64198CF3A70C5E0A6AA6
:1008300009F0935B42C20623EC71ADB4CBBB7028C8
:10084000D51A5C33685A004490A5C4263D2BF25457
:1008500096ADDA1FED33E18169080D0ADB35779A31
:1008600064D1FC78AA1BD067A0DDFA6C63710584A3
:10087000176A894F667FC65055926FBDE7D24072A6
:100880008DBBEC06428AE4889D7E7A822713411A4A
:10089000AFC8A476B4C2FE6D1CD96130B37CEAF750
:1008A000290FF23B51C1DE5FE52A2F990B5DA32B87
:1008B0004AAB95A5D35856EE283100CC1546CAE66A
:1008C00086383C65F5E39FD65B094983702D53A9B3
:1008D0007DE2C4AC8E5EB825F4B957F3F16847B237
:1008E000A25920CE34795C900E1EBED52223B1C908
:1008F0001862162E913E078FD83F933DD49BDF851B
:1009000021FB117497C7D7DC4C194598E943024B7A
:10091000BCC3049C6BF07552A726F6C5BACFB0B71E
:10092000AE5AA1BF038B80126E0CEBF9C04424EFCA
:1009300010F8A88CE87BFF9E2CCD603687B594A676
:1009400054733A144E011DB6FD37484D39CBE03291
:100950000000000000000000000000000000000097
:100960000000000000000000000000000000000087
:100970000000000000000000000000000000000077
:100980000000000000000000000000000000000067
:100990000000000000000000000000000000000057
:1009A0000000000000000000000000000000000047
:1009B0000000000000000000000000000000000037
:1009C0000000000000000000000000000000000027
:1009D0000000000000000000000000000000000017
:1009E0000000000000000000000000000000000007
:1009F00000000000000000000000000000000000F7
:100A000000000000000000000000000000000000E6
:100A100000000000000000000000000000000000D6
:100A200000000000000000000000000000000000C6
:100A300000000000000000000000000000000000B6
:100A400000000000000000000000000000000000A6
:100A500000000000010100000000000011241FBE82
:100A6000CFE5D4E0DEBFCDBF10E0A0E6B0E0E4E526
:100A7000F7E102C005900D92A236B107D9F711E057
:100A8000A2E6B0E001C01D92A839B107E1F7F0D0AD
:100A90005FC6B6CA909A81E090E0089580916000A8
:100AA00085FDA59A8091610081FF02C08C9AA69A6B
:100AB000939A82E090E008958091610080FF28C0C1
:100AC00081FD26C0849907C09E9B05C0809160006F
:100AD000837E846011C0849B07C09E9905C080916D
:100AE0006000837F806108C0849B09C09E9B07C013
:100AF0008091600088608B7E809360000895849967
:100B000007C09E9905C080916000837E809360003D
:100B10000895DF93CF9300D0CDB7DEB719821A8244
:100B200080E690E060E070E042E050E0EBD520919C
:100B300060002F3F21F0809161008F3F21F481E020
:100B400089831A8202C029838A8399993AC089814C
:100B50009A8133C0869903C088608B7E09C0B099A2
:100B600003C0837E846004C0B19902C0837F80612A
:100B7000879B8860B39905C0869B8E7F8260B19BFE
:100B80008C7FB49902C081E090E0B29904C0B09B20
:100B90008F7DB19B8062B59910C0869902C09C7F01
:100BA0000CC0B09903C091609D7F07C0B19903C08C
:100BB0009E7F926002C0879B93609899CBCF898378
:100BC0009A838981821729F49A818091610098170C
:100BD00069F0CE01019660E070E042E050E0A2D5FD
:100BE0008981809360008A81809361000F900F90CB
:100BF000CF91DF91089514BA8FE385BB17BA88BBF4
:100C000089E081BB80EE82BB84DF869905C080913C
:100C1000600088608B7E0DC0B09905C08091600037
:100C2000837E846006C0B19906C080916000837F96
:100C30008061809360008091610080FF04C081FD2D
:100C400002C0949AAE9AB49B0BC0B29B0DC0809127
:100C5000600080FF03C02FEF3FEF08C081FF04C09A
:100C6000909A21E030E002C019DF9C01C90108958B
:100C7000C2DF8130910519F0029721F402C0EFD450
:100C800001C0FCD480E090E008951092950110928C
:100C90009401880F82B985E486BF789408958823EB
:100CA00011F085EC01C085E886BF0895282F30E05B
:100CB00070E088E090E0861B970BA90102C0440F0A
:100CC000551F8A95E2F7CA0102C0359527956A95A6
:100CD000E2F7822B0895863028F4E0917200F091BB
:100CE000730009950895A4E9B0E0FC0186E0019045
:100CF0000D928150E1F708950F931F93182F092F3C
:100D00003093730020937200A4E9B0E0FB0186E009
:100D100001900D928150E1F710928401812F902F64
:100D20009C01D9012AEF30E08D91F901EC56FF4F7B
:100D300080832F5F3F4F81E020303807A9F7DA0129
:100D400020E230E08D91F901EC56FF4F80832F5F58
:100D50003F4F26323105B1F7919892981092950144
:100D60001092940184EA82B985E486BF78941F9139
:100D70000F9108952F923F924F925F926F927F92C0
:100D80008F929F92AF92BF92CF92DF92EF92FF929B
:100D90000F931F93DF93CF93CDB7DEB768970FB64E
:100DA000F894DEBF0FBECDBF46E2642E40E0742E45
:100DB000882437E0232E312C2C0E3D1E28E0422EB5
:100DC000512CCAC084918D933196A215B305D1F7E9
:100DD00080E090E0FC01EC58FF4FE081F0E0E05B48
:100DE000FF4FE491ADE0B0E0AC0FBD1FA80FB91FFD
:100DF000EC9301968A30910569F7AA88CF842981FE
:100E00002A2530E04C2D477050E09E88B988C201F9
:100E1000841B950BB90102C0660F771F8A95E2F714
:100E2000CB0102C0359527954A95E2F7822B8919A7
:100E30008B258F83EE84DD842A812E2530E04D2D95
:100E4000477050E0AC89C201841B950BF90102C0C8
:100E5000EE0FFF1F8A95E2F7CF0102C03595279567
:100E60004A95E2F7822B8A198A278887EB892B819A
:100E70002E2730E00D89077010E0B201601B710B66
:100E8000C901062E02C0880F991F0A94E2F7002EAE
:100E900002C0359527950A94E2F7822B8C198D258F
:100EA00089872C812B2530E04A2F4770842F90E0D2
:100EB000988F8F8BD888C2014F89588D841B950BD2
:100EC000A90102C0440F551F8A95E2F7CA010F8895
:100ED00002C0359527950A94E2F7822B8D198C254F
:100EE0008A878D81E826FF24E770F0E0C2018E1B1F
:100EF0009F0B970102C0220F331F8A95E2F7C901A9
:100F000002C0F594E794EA95E2F78E298D198B25B6
:100F10008B878E81A827B0E0AD0102C0440F551F1A
:100F20006A95E2F7BA0102C0B595A7950A95E2F76E
:100F30006A2B6A1969256C87C1016EE770E046E08B
:100F400050E0D3D3009761F0839466E070E0660EC2
:100F5000771E77E0871621F0DE011196F30132CF7C
:100F6000282D30E02F5F3F4F522F44278091820081
:100F7000FA01E80FF11DE05BFF4F94912F5F3F4FA7
:100F8000322F222780917700F901E80FF11DE05BF5
:100F9000FF4FE491E927E093840080918000FA01FB
:100FA000E80FF11DE05BFF4F949180917900F9010A
:100FB000E80FF11DE05BFF4FE491E927E093850026
:100FC00080918300FA01E80FF11DE05BFF4F9491DF
:100FD00080917B00F901E80FF11DE05BFF4FE49188
:100FE000E927E093860080917E00FA01E80FF11D69
:100FF000E05BFF4F949180917600F901E80FF11DBD
:10100000E05BFF4FE491E927E093870080917F0048
:10101000FA01E80FF11DE05BFF4F94918091780099
:10102000F901E80FF11DE05BFF4FE491E927E09340
:10103000880080918100FA01E80FF11DE05BFF4F0D
:10104000949180917D00F901E80FF11DE05BFF4F65
:10105000E491E927E093890080917400FA01E80F98
:10106000F11DE05BFF4F949180917A00F901E80F48
:10107000F11DE05BFF4FE491E927E0938A00809146
:101080007500FA01E80FF11DE05BFF4F949180912C
:101090007C00F901E80FF11DE05BFF4FE491E927C7
:1010A000E0938B0080917E00FA01E80FF11DE05B78
:1010B000FF4F949180917500F901E80FF11DE05BFD
:1010C000FF4FE491E927E0938C0080918300FA01BF
:1010D000E80FF11DE05BFF4F949180917800F901DA
:1010E000E80FF11DE05BFF4FE491E927E0938D00ED
:1010F00080918100FA01E80FF11DE05BFF4F9491B0
:1011000080917400F901E80FF11DE05BFF4FE4915D
:10111000E927E0938E0080918000FA01E80FF11D2D
:10112000E05BFF4F949180917D00F901E80FF11D84
:10113000E05BFF4FE491E927E0938F00809182000C
:10114000FA01E80FF11DE05BFF4F949180917B0065
:10115000F901E80FF11DE05BFF4FE491E927E0930F
:10116000900080917F00FA01E80FF11DE05BFF4FD6
:10117000949180917C00F901E80FF11DE05BFF4F35
:10118000E491E927E093910080917700FA01E80F5C
:10119000F11DE05BFF4F949180917900F901E80F18
:1011A000F11DE05BFF4FE491E927E093920080910D
:1011B0007600480F511D405B5F4FFA01949180917A
:1011C0007A00280F311D205B3F4FF9018491892758
:1011D0008093930068960FB6F894DEBF0FBECDBF24
:1011E000CF91DF911F910F91FF90EF90DF90CF9003
:1011F000BF90AF909F908F907F906F905F904F9037
:101200003F902F900895982F80548630A0F420E4CA
:1012100030E049E450E0FA01E21BF30BD901AC568F
:10122000BF4F8C91EC58FF4F80832F5F3F4F263488
:10123000310589F70895892F86548630C8F4809146
:10124000DA00809377008091DB00809376008091B4
:10125000DC00809375008091DD00809374008091A4
:10126000DE00809383008091DF00809382000895E8
:10127000892F8C548430C0F48091E00080938100E9
:101280008091E100809380008091E20080937F0054
:101290008091E30080937E00892F90E0860F911D5E
:1012A0008035910509F466DD08951F920F920FB6FF
:1012B0000F9211242F933F934F935F936F937F93DC
:1012C0008F939F93AF93BF93EF93FF9381B190E080
:1012D000887F907080399105E9F181399105D4F4C6
:1012E00080379105A1F18137910544F4803691054D
:1012F00071F18836910509F0B7C029C08038910591
:1013000049F18838910509F4AFC08837910509F093
:10131000ABC01DC0803B910509F467C0813B9105BE
:101320004CF4803A910509F455C0883A910509F0CA
:101330009BC05BC0803C910509F494C0883C91053A
:1013400009F490C0883B910509F08EC055C01092F9
:10135000960188C080919601882381F123B1809104
:1013600084018A3A19F58091940190919501803F0A
:101370009105E1F0A0919401B0919501E091940163
:10138000F0919501E770F070E457FF4F8081E09194
:101390009401F0919501E770F070EC57FF4F908148
:1013A0008227890FAC56BF4F8C934EC0E0919401B9
:1013B000F0919501EC56FF4F208346C083B190E039
:1013C000909395018093940181E08093960110920F
:1013D000970148C0809194019091950120919701C7
:1013E00060919701821B0FDF3DC080919401909125
:1013F000950171DC10929701809184018A3AE1F4A1
:10140000E0919401F0919501EC56FF4F8081E091BD
:101410009401F0919501E770F070EC57FF4F208137
:10142000E0919401F0919501E770F070E457FF4F5F
:101430009081821B892707C0E0919401F09195016A
:10144000EC56FF4F808183B9809194019091950172
:1014500001969093950180939401809197018F5FFD
:101460008093970185EC01C085E886BFFF91EF91DD
:10147000BF91AF919F918F917F916F915F914F91AC
:101480003F912F910F900FBE0F901F9018950895C8
:1014900080EA8093620080E28093630080E1809321
:1014A0006400109267001092660010926500089523
:1014B000EFDF80916000982F82FF1AC0869904C0E8
:1014C00080916300807C05C0879905C0809163008E
:1014D000816180936300B09904C080916200807C38
:1014E00005C0B19905C0809162008F63809362004E
:1014F00094FF2EC0869904C080916400807E05C050
:10150000879905C0809164008F6180936400B099D1
:101510000EC0809162008F7380936200809163009F
:101520008F7380936300809164008F770FC0B199AF
:101530000FC080916200806C809362008091630094
:10154000806C809363008091640080688093640065
:1015500093FF1EC0869906C08091670081608093CA
:10156000670007C0879905C08091660080648093FA
:101570006600B19906C0809166008068809366001D
:1015800007C0B09905C080916700826080936700B2
:10159000B29905C080916700806280936700B3991B
:1015A00005C080916700886080936700B59905C089
:1015B00080916700806880936700B49905C080912E
:1015C0006700846080936700859905C080916700FB
:1015D0008061809367009A990AC08091660082605A
:1015E00080936600809165008F61809365009B9970
:1015F00005C0809167008068809367009C990FC048
:101600008091660080628093660080916500806EA4
:10161000809365008091640080668093640095FFEC
:1016200008C0989906C0999904C0809166008860A6
:101630000CC0989905C08091660080618093660017
:10164000999905C0809166008460809366009D9999
:1016500005C080916600886080936600089580E5EB
:101660009AE062E670E046E55AE027E43AE044DBBF
:1016700023DA1EDF82E690E036DBFACF809161004C
:10168000282F30E080FF08C08091600090E08072D9
:1016900090702370307012C081FFF6CF809160008F
:1016A00082FF02C0949808C084FF03C0949AAE9849
:1016B000EBCF83FFE9CF949AAE9AE6CF009739F04B
:1016C000989904C0999902C0AD9801C0AD9A233091
:1016D0003105A1F79C9902C0949A01C094989A99F7
:1016E00002C0AE9AEBCFAE98E9CFFB01DC0104C09B
:1016F0008D910190801921F441505040C8F7881B0A
:10170000990B0895DC01CB01FC01E199FECF06C0E5
:10171000FFBBEEBBE09A31960DB20D9241505040A6
:10172000B8F70895DC01CB0102C02D9105D04150DE
:101730005040D8F70895262FE199FECF9FBB8EBB6E
:101740002DBB0FB6F894E29AE19A0FBE0196089568
:04175000F894FFCF3B
:02175400FFFF95
:00000001FF
