:1000000075C014C48EC08DC08CC08BC08AC089C01E
:1000100088C087C086C085C084C083C082C081C0BC
:1000200080C07FC07EC005010905A1011500250122
:10003000350045017501950D05091901290D81024C
:100040009503810105012507463B0175049501656E
:10005000140939814265009501810126FF0046FFA0
:100060000009300931093209357508950481020605
:1000700000FF0A21269508B102C0040309041203F7
:10008000420065006E00630061006F0037003400BD
:1000900028034400750061006C00200053007400C8
:1000A000720069006B0065002000200056003100DE
:1000B0002E0032002E003000120110010000000856
:1000C000C410C082060101020001090222000101E0
:1000D00000807D09040000010300000009210101E6
:1000E00000012254000705810308000111241FBEEE
:1000F000CFE5D4E0DEBFCDBF10E0A0E6B0E0E4E3A2
:10010000FBE002C005900D92A436B107D9F710E0CC
:10011000A4E6B0E001C01D92AB3AB107E1F7F6D01A
:1001200007C56ECF909A80E090E0089580916000BE
:1001300085FDA59A8091610081FF02C08C9AA69AE4
:10014000939A82E090E008958091610080FF28C03A
:1001500081FD26C0849907C09E9B05C080916000E8
:10016000837E846011C0849B07C09E9905C08091E6
:100170006000837F806108C0849B09C09E9B07C08C
:100180008091600088608B7E8093600008958499E0
:1001900007C09E9905C080916000837E80936000B7
:1001A0000895DF93CF9300D0CDB7DEB719821A82BE
:1001B00080E690E060E070E042E050E093D420916F
:1001C00060002F3F21F0809161008F3F21F481E09A
:1001D00089831A8202C029838A8399993AC08981C6
:1001E0009A8133C0869903C088608B7E09C0B0991C
:1001F00003C0837E846004C0B19902C0837F8061A4
:10020000879B8860B39905C0B09B81608D7FB19B4F
:100210008C7FB49902C081E090E0B29904C0B09B99
:100220008F7DB19B8062B59910C0869902C09C7F7A
:100230000CC0B09903C091609D7F07C0B19903C005
:100240009E7F926002C0879B93609899CBCF8983F1
:100250009A838981821729F49A8180916100981785
:1002600069F0CE01019660E070E042E050E04AD4CF
:100270008981809360008A81809361000F900F9044
:10028000CF91DF91089514BA8FE385BB17BA88BB6D
:1002900089E081BB80EE82BB84DF869905C08091B6
:1002A000600088608B7E0DC0B09905C080916000B1
:1002B000837E846006C0B19906C080916000837F10
:1002C0008061809360008091610080FF04C081FDA7
:1002D00002C0949AAE9AB39B0CC0B29B10C080919E
:1002E000600090E09C012270307080FF06C0232BDC
:1002F00049F4909A20E030E007C0232B19F416DF70
:100300009C0102C02FEF3FEFC901089510926500D4
:1003100010926400B8DF009719F0029721F402C030
:1003200020D101C003D080E090E008958091610069
:10033000282F30E080FF08C08091600090E080723C
:1003400090702370307012C081FFF6CF80916000F2
:1003500082FF02C0949808C084FF03C0949AAE98AC
:10036000EBCF83FFE9CF949AAE9AE6CF009739F0AE
:10037000989904C0999902C0AD9801C0AD9A2330F4
:100380003105A1F79C9902C0949A01C094989A995A
:1003900002C0AE9AEBCFAE98E9CFFC0180818076A7
:1003A0008032E9F481818130D1F481E2809364006C
:1003B00086E28093650010926B0010926A001092A2
:1003C000690010926800109267001092660084E63F
:1003D00090E09093900080938F0088E0089580E0F3
:1003E000089510926B00109265001092640088E0EE
:1003F0008093660080E880936A0080936900809310
:100400006800809367000895ECDF80916000982F6A
:1004100082FF14C0869903C01092680005C08799B6
:1004200003C08FEF80936800B09903C010926700FB
:1004300005C0B19903C08FEF8093670094FF14C08B
:10044000869903C010926A0005C0879903C08FEF98
:1004500080936A00B09903C01092690005C0B199F9
:1004600003C08FEF8093690093FF23C086990BC070
:10047000B19902C081E01BC0B09902C087E017C0EB
:100480001092660016C087990AC0B19902C083E035
:100490000EC0B09902C085E00AC084E008C0B199DE
:1004A00003C082E080936600B09903C086E0809329
:1004B0006600B29905C080916400816080936400F9
:1004C000B39905C080916400826080936400B49900
:1004D00005C080916400846080936400B59905C074
:1004E000809164008860809364009B9905C080912E
:1004F00064008061809364009C9905C080916400D1
:10050000806480936400859905C080916400806256
:10051000809364009A9905C08091640080688093FC
:10052000640095FF08C0989906C0999904C080910D
:10053000650080610CC0989905C08091650082605B
:1005400080936500999905C08091650081608093D2
:1005500065009D9905C0809165008061809365006C
:100560000895899A88EB9BE02CE231E0F9013197FC
:10057000F1F70197D9F789980DD0789418D0809128
:10058000800084FFFBCFE0DD3FDF84E690E067E0A2
:1005900012D1F4CF85B7836085BF8BB780648BBFE2
:1005A0008BE4809381008AE58093800008951F93F7
:1005B000CF93DF9390919100935097FDA1C020912C
:1005C0008E0080918D008D3209F098C0983009F02E
:1005D00095C0CCE0D0E0C21BD109CB56DF4F83ECF5
:1005E000809375008AE58093620010927400888180
:1005F000807621F0CE01D1DE282F77C09A8110922B
:100600007E008981882321F410927F0022E067C058
:10061000853019F49093920061C0863009F04AC089
:100620008B81813019F488EB90E01BC0823041F45B
:100630008AEC90E09093900080938F0022E236C085
:100640008330F9F48A81882341F48AE790E090931B
:10065000900080938F0024E029C0813041F48EE720
:1006600090E09093900080938F0022E11FC0823031
:10067000E1F480E990E09093900080938F0028E26D
:1006800015C0813241F48CED90E0909390008093FE
:100690008F0029E00BC0823241F486E290E0909313
:1006A000900080938F0024E501C020E080E48093D7
:1006B00074001BC0883021F421E084E990E011C06F
:1006C000893019F49093940009C08A3011F421E024
:1006D00006C08B3019F48BE48093810020E08EE714
:1006E00090E09093900080938F008F81882321F475
:1006F0008E81821708F4282F2093630010929100B6
:100700008091620084FF49C0809163008F3F09F4AB
:1007100044C0182F893008F018E0811B80936300D3
:100720008091750098E8892780937500112341F125
:1007300020918F00309190008091740086FF0DC051
:10074000A6E7B0E080E090E0F901E80FF91FE4913E
:10075000ED9301961817C1F708C0912FD901E6E76C
:10076000F0E08D9181939150E1F71150812F90E04D
:100770001F5F0196820F931F9093900080938F00CC
:1007800086E790E0612F4ED0612F6C5F6C3019F0DE
:100790008FEF80936300609362009AE080B386706D
:1007A00031F49150D9F71092920010928C00DF91A1
:1007B000CF911F9108951F93DC01162F8091800027
:1007C00084FF07C08091810098E889278093810089
:1007D00003C08AE580938000912FE2E8F0E08D91DC
:1007E000819391501916DCF382E890E0612F1AD0C2
:1007F0001C5F109380001F910895A82FB92F80E0EF
:1008000090E041E050EA60956F5F58F42D9138EF29
:1008100082279795879510F0842795273F5FC8F327
:10082000F3CF0895EADF8D939D930895CF93CFB7CB
:10083000CF93819BFECF819B09C0819B07C0819B89
:1008400005C0819B03C0819B01C0A3C0DF93C09101
:100850008E00DD27CB56DF4F819B02C0DF91EBCFAF
:100860002F930F931F9300B32FEF01FB20F94F93AA
:100870003F9310B34FEF012701FB21F93BE031C05B
:100880004E7F012F10B3216028C0102F4D7F2260B2
:10089000000000B329C04B7F2460012F000010B37B
:1008A0002BC010B3477F28602AC04F7E00B3206161
:1008B0002CC04F7D10B320622FC04F7B00B320644B
:1008C00032C0422700B349934FEF0000102711FBBD
:1008D00020F910B31670C9F1297F91F2012701FBAD
:1008E00021F900B3237F89F2315058F1102711FB11
:1008F00022F910B3277E79F2012701FB23F92F7C1F
:1009000081F200B3102711FB24F92F7971F200C096
:1009100010B3012701FB25F92F7359F200C000B372
:10092000102711FB26F9223040F200C010B3012736
:1009300001FB27F9243028F64F77206810B3000018
:10094000F9CF10E41ABF002719C03B503195C31BE3
:10095000D04010E41ABF0881033CF9F00B34E9F0F1
:1009600020918C001981110F1213EDCF4A81441F81
:10097000093641F10D3211F0013E29F70093930041
:100980003F914F911F910F912F91DF91CAB7C6FDF3
:1009900050CFCF91CFBFCF911895009193000023F6
:1009A00079F3109191001123A1F53430A2F1309325
:1009B000910000938D0010918E003BE0311B30932D
:1009C0008E0029C00091910001301CF50AE54F709E
:1009D00049F43091620034FD20C000936200C5E705
:1009E000D0E01FC03091800034FD17C0009380001C
:1009F000C1E8D0E016C0052710E002BB1FC00527E4
:100A000022C0052727C005272CC0052710E002BB00
:100A100033C04AE503C042ED01C0432FC4E1D0E03A
:100A200032E011B31660919A02B311BB5F9356E0A6
:100A300020E820FF052702BB279517951C3FD8F615
:100A400020FF0527279502BB17951C3FC0F620FF06
:100A500005272795179502BB1C3F98F620FF052711
:100A6000279517951C3F02BB70F600C0499120FFE7
:100A7000052702BB279517951C3F38F620FF052751
:100A8000279502BB17951C3F38F520FF05272795B2
:100A9000179502BB1C3F10F520FF052727951795DA
:100AA0001C3F02BBE8F4242F3A9519F6097F5F91A9
:100AB00002BB10919200110FC651D04011F010935B
:100AC0008C0010E41ABF026011B3197F402F497FD8
:100AD00002BB11BB42BB54CF0527D3CF0527D8CFCC
:100AE0000527DDCFDC01CB01FC01E199FECF06C07B
:100AF000FFBBEEBBE09A31960DB20D9241505040D3
:100B0000B8F70895DC01CB0102C02D9105D041500A
:100B10005040D8F70895262FE199FECF9FBB8EBB9A
:100B20002DBB0FB6F894E29AE19A0FBE0196089594
:040B3000F894FFCF67
:040B3400FFFF5AFF66
:00000001FF
