:100000000C94F4000C94DD080C9411010C94110173
:100010000C9411010C9411010C9411010C94110118
:100020000C9411010C9411010C9411010C94110108
:100030000C9411010C9411010C9411010C941101F8
:100040000C9411010C9411010C9411010C941101E8
:100050000C9411010C9411010C9411010C941101D8
:100060000C9411010C941101120110010000000800
:10007000C016DC050801010200011A037A007500B0
:10008000720062006F00720067002E0069006E004F
:1000900066006F0028034400750061006C002000BA
:1000A00053007400720069006B006500200020009E
:1000B000560031002E0038002E00300005010904E2
:1000C000A101A1027501950D15002501350045011D
:1000D00005091901290D81029503810105017504A6
:1000E00095012507463B0165140939814265009554
:1000F000018103A10075029504250245020930091A
:1001000031093209358102C0C07508950826FF0003
:1001100046FF000600FF09200921092209230924BE
:1001200009250926092709280929092A092B950CD7
:1001300081020A2126B102C00902220001010080C9
:100140007D090400000103000000092101010001F4
:10015000227C000705810308000112011001000044
:100160000008C016DF0508010102000112036F003C
:1001700062006400650076002E00610074001003C8
:1001800048004900440042006F006F007400060000
:10019000FF0901A101150026FF00750885039506DA
:1001A0000900B20201850495840900B202018505A7
:1001B00095030900B20201850695830900B2020188
:1001C000C009022200010100807D09040000010332
:1001D000000000092101010001223300070581030D
:1001E0000800C8040309040011241FBECFEFD4E0A7
:1001F000DEBFCDBF11E0A0E0B1E0E6ECF4E102C06B
:1002000005900D92A830B107D9F712E0A8E0B1E04F
:1002100001C01D92AD34B107E1F70E94D7020C94E2
:10022000610A0C940000FC019091000180819817F4
:1002300051F4909101018181981729F420E0909167
:1002400002018281981321E0822F0895589A80E05C
:1002500090E008958091020183FD3D9A82958F7010
:1002600090E0837090700297029710F4549A3E9A2F
:100270005B9A81E090E0089590910201892F829528
:100280008370813009F008954C9907C0369B05C0F2
:1002900092609B7F9093020108954C9B07C0369912
:1002A00005C094609D7F9093020108954C9BEBCF15
:1002B000369BE9CF997F909302010895CF93DF9306
:1002C000EC01909100018881981769F490910101E7
:1002D0008981981741F4909102018A81981719F445
:1002E000DF91CF910895CE0160E070E043E050E0EF
:1002F0000E94490A888180930001898180930101CD
:100300008A8180930201DF91CF910895CF93DF938B
:10031000EC0180E091E060E070E043E050E00E949A
:10032000390A80910001813039F081E08883898326
:100330001A82DF91CF910895809101018130A9F750
:100340008883809101018983809102018A83DF91F2
:10035000CF910895DF93CF9300D00F92CDB7DEB742
:1003600080E091E060E070E043E050E00E94390AF4
:10037000809100018130F1F081E089838A831B82C2
:10038000319B23C0909100018981981709F094C096
:10039000909101018A81981709F08EC09091020115
:1003A0008B81981709F088C00F900F900F90CF9114
:1003B000DF910895809101018130F1F689838A836C
:1003C000809102018B833199DDCF589A0E94B0064B
:1003D000309B1FC01A9B1DC01D9B1BC04D9B19C08D
:1003E0001B9B17C01C9913C014C0339B12C0349BB5
:1003F00010C00E943204309B0CC01A9B0AC01D9B87
:1004000008C04D9B06C01B9B04C01C9B02C03299B8
:10041000ECCF589880E091E060E070E043E050E07D
:100420000E94390A80910001813009F45CC081E0AA
:1004300089838A831B82282F982F8B81309B28C029
:100440001C9903C021E091E080E01B9B0EC01C9B27
:100450000CC01A9B0AC01D9B08C0329B06C04E9B55
:1004600029C018994DC082608B7F1B9904C0189BCE
:100470008E7F199B81601A9904C0189B877F199BF6
:1004800088601D99DBCF4E9907C08F7C3099D8CFFB
:100490002A8399838B8376CF189903C080618F7DDF
:1004A000CDCF199B04C04F99C9CF8063C7CF80625D
:1004B0008F7EC4CF897FD9CFCE01019660E070E0F6
:1004C00043E050E00E94490A8981809300018A81BB
:1004D000809301018B81809302010F900F900F9008
:1004E000CF91DF91089580910101813009F09FCF74
:1004F00089838A83809102018B832A8199819ECF8F
:100500001999B3CF84608D7FB0CF17B88FE388B9C6
:1005100014B885B989E08AB980EE8BB90E94AA0126
:100520004E991CC080910201897F80930201409105
:100530000201842F82958F70282F30E0C9018370CB
:1005400090700197E9F01B9B04C01A9B1CC040FDF2
:100550002AC0589A20E030E0C9010895189907C0D0
:100560008091020182608B7F80930201E0CF199914
:10057000DECF8091020184608D7F80930201D7CF0E
:100580005C9A469AE0CF43FD10C023703070225031
:1005900030402230310510F4549A3E9A5B9A21E0A3
:1005A00030E0C901089543FFF0CF3D9AEECF17B870
:1005B0008FE388B914B885B989E08AB980EE8BB920
:1005C0000E94AA014E991DC080910201897F8093EB
:1005D000020140910201842F82958F70282F30E014
:1005E000C901837090700197F1F01B9B04C01A9BA6
:1005F0001DC040FD2CC0589A0E94C80680E090E0C3
:100600000895189907C08091020182608B7F8093C2
:100610000201DFCF1999DDCF8091020184608D7FC7
:1006200080930201D6CF5C9A469ADFCF43FD11C07A
:1006300023703070225030402230310510F4549A2B
:100640003E9A5B9A0E942B0380E090E0089543FF5E
:10065000EFCF3D9AEDCF40910201842F82958F70AC
:10066000282F30E0237030702230310581F143FFB4
:100670001FC02330310551F0309905C0319903C0B6
:100680004598309BFBCF459AF7CF469830990BC0E1
:10069000319909C04598349909C05C9A3299F5CFCF
:1006A000469A309BF5CF459A349BF7CF5C98F6CFAE
:1006B0002330310511F0FFCF469A349906C05C9A79
:1006C000329BFACF4698349BFACF5C98F9CF842FAF
:1006D000869590E0837090708130910541F0823072
:1006E000910541F0892B19F65C9A469AC0CF5C9827
:1006F000469ABDCF5C9A4698BACFFC01809108011A
:100700008130B9F0823011F080E008958381833028
:1007100009F457C0843050F5813009F468C0823044
:1007200099F781EC91E0909332028093310282E25A
:1007300008958381833039F1843060F08132C9F1CA
:10074000823211F78CEB90E0909332028093310269
:100750008CE70895813029F18230B1F688E391E089
:10076000909332028093310282E20895813209F43B
:1007700046C0823249F68EE891E09093320280932F
:10078000310283E308958281813049F1823009F09A
:10079000BBCF84E990E0909332028093310288E2EB
:1007A000089588E690E0909332028093310282E1CE
:1007B00008958AE491E0909332028093310289E0B7
:1007C00008958281813019F1823009F09DCF8EE742
:1007D00091E0909332028093310280E108958AE79C
:1007E00090E090933202809331028AE108958AE585
:1007F00091E0909332028093310282E1089583ED7B
:1008000091E0909332028093310289E008958CE662
:1008100091E0909332028093310282E10895109228
:10082000100110920F018FE08093110185E58093F4
:10083000120110921E0110921D0110921C011092C3
:100840001B0110921A0110921901109218011092B6
:1008500017011092160110921501109214011092B6
:10086000130108950E946D070895519A20E030E029
:100870004CE251E0CA010197F1F72F5F3F4F8BE047
:10088000283B3807B9F751980E94600778940E9476
:100890006D070895CF92DF92EF92FF920F931F930F
:1008A000CF93DF936C017B0100E010E002C00C0FDE
:1008B0001D1F0E151F05F8F4E701C01BD10BC93031
:1008C000D10514F0C8E0D0E0C601800F911F6C2F55
:1008D0000E94A1088091220284FDE9CF0E946D0749
:1008E0008091220284FDE3CF0E946D078091220255
:1008F00084FDDDCFF3CFDF91CF911F910F91FF905A
:10090000EF90DF90CF900895FF920F931F93CF93B6
:10091000DF93FC0180910801823049F0FF24FA94B2
:100920008F2DDF91CF911F910F91FF9008958091AE
:100930000901843059F0853089F731812281309363
:100940000A0120930B01FF24F394EACF40910301A5
:100950005091040141155105A1F130910A012091F6
:100960000B01C62FD0E0CE01840F951F9093040198
:100970008093030190E8F92EF82280910C01909168
:100980000D011816190664F68830910514F4C82F65
:10099000D0E0032F122FCF01B801AE010E94490A07
:1009A0000C0F1D1F10930B0100930A0180910C0185
:1009B00090910D018C1B9D0B90930D0180930C0168
:1009C000AFCF31812281848180930C0110920D017F
:1009D00035966550C6CF0F931F93FC0132819381EA
:1009E00020910801213051F1223021F080E01F9147
:1009F0000F910895808180768032C1F7818189309E
:100A000009F441C0813091F7333009F04DC0309383
:100A10000F0184E0809310011092110110921201D5
:100A20002093130110921401109215018FE091E0B0
:100A3000909332028093310287E0D9CF8081807613
:100A40008032A1F68181813089F6933079F63323A3
:100A500069F681E280930F0186E280931001109283
:100A600011011092120110921301109214011092B0
:100A70001501109216018FE091E09093320280935D
:100A8000310288E0B4CF343041F410920401109266
:100A90000301309309018FEFAACF353009F0A6CFBB
:100AA000309309018FEFA3CF363009F09FCF6091CB
:100AB0000A0170910B0182E06030780708F540E090
:100AC00052E0461B570B40385105C0F040E850E05B
:100AD00090E80FE011E086E080930F019093100101
:100AE0001092110110921201C80104960E94390A55
:100AF000109332020093310284E879CF942FE9CF2A
:100B00008FEF75CF1092100110920F018FE080933C
:100B1000110185E58093120110921E0110921D01B2
:100B200010921C0110921B0110921A0110921901CF
:100B300010921801109217011092160110921501CF
:100B4000109214011092130120910201822F8695B8
:100B500090E0837090708130910509F4A3C08230D9
:100B6000910509F47BC0892B71F44E998EC0189BB6
:100B7000C4C01999E1C081E0809311018FEF809387
:100B80001501809313011A9908C080910F018160AB
:100B900080930F018FEF80931A011D9908C08091F7
:100BA0000F01886080930F018FEF809317014D999B
:100BB00008C080910F01806280930F018FEF8093B6
:100BC0001C011B9908C080910F01826080930F0166
:100BD0008FEF809319011C9908C080910F018460E8
:100BE00080930F018FEF80931801329908C0809194
:100BF0000F01806880930F018FEF80931E0133995E
:100C000008C080910F01806180930F018FEF809366
:100C10001B01349908C080910F01806480930F01FB
:100C20008FEF80931D0123FF02C0309B26C03099B7
:100C300005C080911001826080931001319B08C033
:100C4000359905C08091100180618093100108954D
:100C500080911001816080931001F2CF4E9B2FC0D4
:100C60004F9903C085E98093120118992DC0809196
:100C700012018F7C8093120186CF3199D8CF809159
:100C80001001806180931001DBCF4F993FC018990C
:100C900048C085E0809311018FEF80931601809307
:100CA000140171CF4E9919C081E5809312011899F2
:100CB0001BC0809112018C7F8093120164CF85E16B
:100CC00080931201189BD3CF19995DCF80911201A7
:100CD00080628F7E8093120156CF4F99E8CF89E5CD
:100CE00080931201189BE5CF19994DCF8091120185
:100CF00082608E7F8093120146CF87E0809311013E
:100D00008FEF80931501809314013DCF189B21C074
:100D1000199939CF82E0809311018FEF80931301ED
:100D200032CF19990FC083E0809311018FEF809328
:100D300016018093130127CF109211018FEF80933A
:100D4000150121CF84E0809311018FEF809316016C
:100D50001ACF86E0809311018FEF8093140113CF97
:100D600082E080930801519A20E030E04CE251E0AB
:100D7000CA010197F1F72F5F3F4F8BE0283B3807FF
:100D8000B9F751980E94600778940E946D07089502
:100D9000EF92FF920F931F93CF93DF9381E08093A5
:100DA0000801519A80E090E02CE231E0F90131979E
:100DB000F1F701964BE0883B9407C1F751980E94E8
:100DC000600778940E946D070E946D0710921001D1
:100DD00010920F018FE08093110185E5809312013D
:100DE00010921E0110921D0110921C0110921B0105
:100DF00010921A0110921901109218011092170105
:100E00001092160110921501109214011092130104
:100E100000E010E080E090E030E1E32EF12C04C02F
:100E2000C80100311105D0F4E701C81BD90BC93046
:100E3000D10514F0C8E0D0E0815F9E4F6C2F0E9476
:100E4000A1080C0F1D1F8091220284FDE9CF0E9492
:100E50006D078091220284FDE3CFF9CF20E1E22EDD
:100E6000F12C0E946D070E943C010E94820500E067
:100E700010E080E090E004C0C8010031110588F75F
:100E8000E701C81BD90BC930D10514F0C8E0D0E088
:100E9000815F9E4F6C2F0E94A1080C0F1D1F809137
:100EA000220284FDE9CF0E946D078091220284FD19
:100EB000E3CF0E946D078091220284FDDDCFF3CF46
:100EC000E9E6F0E0808183608083E89A8BE4809398
:100ED00023028AE58093220208951F93CF93DF9324
:100EE00060913302635067FD13C080913002CCE003
:100EF000D0E0C81BD109C95CDD4F80912F028D3233
:100F000009F46CC080910E0187FDAFC010923302CE
:100F10008091050184FF3CC0109106011F3FC1F183
:100F2000193008F482C018501093060180911702FE
:100F300098E889278093170218E0209131023091B8
:100F4000320280910E0186FF87C0A8E1B2E080E006
:100F500090E0F901E80FF91FE491ED93019618175D
:100F6000C1F71150812F90E01F5F0196820F931FF0
:100F7000909332028093310288E192E0612F0E94C7
:100F8000D908612F6C5F6C3009F060C06093050177
:100F900089B18670F9F489B18670E1F489B18670FF
:100FA000C9F489B18670B1F489B1867099F489B1B8
:100FB000867081F489B1867069F489B1867051F4C4
:100FC00089B1867039F489B1867021F410923402A7
:100FD00010922E02DF91CF911F910895683009F091
:100FE00095CF83EC809317028AE5809305011092D8
:100FF0000E018881807609F043C09A811092200208
:101000008981882309F050C01092210222E080E2F9
:1010100092E090933202809331028F81882319F4F9
:101020009E819217D0F1922F38C0109206018091C4
:10103000170298E8892780931702112309F07DCFC2
:1010400088E192E060E00E94D90864E08FEF80932D
:101050000601609305019CCF912FD901E8E1F2E0F0
:101060008D9181939150E1F77CCFCE010E94840451
:101070008F3FB1F0882309F449CF1092060146CF83
:10108000CE010E94EB04282F2F3F39F6888187FD7F
:1010900021C09FEF80E880930E019093060136CF28
:1010A0008EE18093050132CF853071F08630A1F05A
:1010B000883059F1893069F18A3089F18B30E9F152
:1010C00020E080E292E0A5CF9093340220E080E21D
:1010D00092E09FCF9E81DECF8B81813089F082307C
:1010E00079F0833001F1813259F0823249F020E009
:1010F00080E480930E01C8CF913011F09230B9F79F
:10110000CE010E947D03282FF3CF21E086E392E0F9
:1011100080CF9093360220E080E292E07ACF21E007
:1011200080E292E076CF992339F783EE91E09093B5
:1011300032028093310224E0DBCF8BE480932302E0
:10114000BFCF1F93DC01162F8091220284FF18C0AD
:101150008091230298E8892780932302912FE4E26B
:10116000F2E08D91819391501916DCF384E292E0C4
:10117000612F0E94D9081C5F109322021F910895CD
:101180008AE580932202EACFA82FB92F80E090E071
:1011900041E050EA60956F5F58F42D9138EF822757
:1011A0009795879510F0842795273F5FC8F3F3CF75
:1011B0000895EADF8D939D930895CF93CFB7CF9392
:1011C000499BFECF499B09C0499B07C0499B05C06D
:1011D000499B03C0499B01C0A3C0DF93C09130026B
:1011E000DD27C95CDD4F499B02C0DF91EBCF2F9318
:1011F0000F931F9309B12FEF01FB20F94F933F93FA
:1012000019B14FEF012701FB21F93BE031C04E7FBF
:10121000012F19B1216028C0102F4D7F22600000DE
:1012200009B129C04B7F2460012F000019B12BC0E8
:1012300019B1477F28602AC04F7E09B120612CC0B8
:101240004F7D19B120622FC04F7B09B1206432C09D
:10125000422709B149934FEF0000102711FB20F9F5
:1012600019B11670C9F1297F91F2012701FB21F90B
:1012700009B1237F89F2315058F1102711FB22F96F
:1012800019B1277E79F2012701FB23F92F7C81F226
:1012900009B1102711FB24F92F7971F200C019B19F
:1012A000012701FB25F92F7359F200C009B110275E
:1012B00011FB26F9223040F200C019B1012701FBD1
:1012C00027F9243028F64F77206819B10000F9CFAC
:1012D00011E01CBB002719C03B503195C31BD04007
:1012E00011E01CBB0881033CF9F00B34E9F02091BC
:1012F0002E021981110F1213EDCF4A81441F0936B6
:1013000041F10D3211F0013E29F7009335023F9172
:101310004F911F910F912F91DF91CCB3C0FD50CF12
:10132000CF91CFBFCF91189500913502002379F36B
:10133000109133021123A1F53430A2F1309333021E
:1013400000932F02109130023BE0311B30933002AA
:1013500029C00091330201301CF50AE54F7049F4B1
:101360003091050134FD20C000930501C7E1D2E0B2
:101370001FC03091220234FD17C000932202C3E245
:10138000D2E016C0052710E00BB91FC0052722C008
:10139000052727C005272CC0052710E00BB933C04F
:1013A0004AE503C042ED01C0432FC4E1D0E032E082
:1013B0001AB11660599A0BB11AB95F9356E020E83A
:1013C00020FF05270BB9279517951C3FD8F620FF5E
:1013D000052727950BB917951C3FC0F620FF052759
:1013E000279517950BB91C3F98F620FF05272795E1
:1013F00017951C3F0BB970F600C0499120FF0527D7
:101400000BB9279517951C3F38F620FF0527279520
:101410000BB917951C3F38F520FF05272795179521
:101420000BB91C3F10F520FF0527279517951C3F8A
:101430000BB9E8F4242F3A9519F6097F5F910BB99F
:1014400010913402110FC651D04011F010932E02AA
:1014500011E01CBB02601AB1197F402F497F0BB904
:101460001AB94BB954CF0527D3CF0527D8CF0527B5
:10147000DDCFDC01CB01FC01F999FECF06C0F2BD46
:10148000E1BDF89A319600B40D9241505040B8F742
:101490000895DC01CB0103C02D910E94540A4150F4
:1014A0005040D0F70895262FF999FECF1FBA92BD6C
:1014B00081BD20BD0FB6F894FA9AF99A0FBE019635
:0614C0000895F894FFCF2F
:0814C600FFFFFFFFFF5AFF00CA
:00000001FF
