:100000000C94F0010C948A180C940D020C940D02BF
:100010000C940D020C940D020C940D020C940D0224
:100020000C940D020C940D020C940D020C940D0214
:100030000C940D020C940D020C940D020C940D0204
:100040000C940D020C940D020C940D020C940D02F4
:100050000C940D020C940D020C940D020C940D02E4
:100060000C940D020C940D02120110010000000806
:10007000C016DF050303010200011A037A007500B0
:10008000720062006F00720067002E0069006E004F
:1000900066006F0032034400750061006C002000B0
:1000A00053007400720069006B0065002000560068
:1000B00033002E0033002E003100200028005000B5
:1000C00053003300290005010904A101A1027501B3
:1000D000950D150025013500450105091901290D6A
:1000E0008102950381010501750495012507463BB1
:1000F00001651409398142650095018103A10075EC
:100100000295042502450209300931093209358179
:1001100002C0C07508950826FF0046FF000600FFD4
:10012000092009210922092309240925092609276B
:1001300009280929092A092B950C81020A2126B1CF
:1001400002C009022200010100803E0904000001F2
:1001500003000000092101010001227C0007058243
:100160000310000130034400750061006C002000A2
:1001700053007400720069006B0065002000560097
:1001800033002E0033002E003100200028005000E4
:100190004300290005010905A101150025013500CD
:1001A00045017501950D05091901290D810205010A
:1001B0000900950381012507463B017504950165FA
:1001C0001409398142950109008101450225027512
:1001D00002950409300931093209358102C009024A
:1001E0002200010100803E0904000001030000001C
:1001F000092101010001224A0007058103080001CD
:100200001201100100000008C016DF0503030102FF
:1002100000012A0370006F0068006C002D006D0063
:10022000690063006800610065006C0040006700C1
:100230006D0078002E00620069007A000E0348000D
:10024000490044002000450050000600FF0901A1BC
:1002500001150026FF007508850195060900B20208
:1002600001850295840900B2020185039503090006
:10027000B20201850495830900B20201C00902227D
:1002800000010100803E0904000001030000000994
:100290002101010001223300070581030800C81273
:1002A000011001000000080304288E03030102006E
:1002B0000134034400750061006C00200053007499
:1002C00000720069006B0065002000560033002EAC
:1002D0000033002E003100200028004D0041004D69
:1002E00000450029000501090615002501350045D6
:1002F000017501A101850105070952094F0951093D
:100300005009E009E209E109280929092C092B090A
:100310003B093C090409070909090A090C090E09E6
:1003200013091409150916091A091B091D091E09C3
:100330001F092209230926090195208102C0050C05
:100340000901A101850209E909EA950281029506E0
:100350008101C009022200010100803E0904000061
:100360000103000000092101010001226E000705C0
:100370008103080004120110010000000803042991
:100380008E03030102000134034400750061006C18
:1003900000200053007400720069006B00650020AB
:1003A00000560033002E0033002E003100200028BC
:1003B00000580042006F0078002900090220000167
:1003C0000100807D090400000258420000070582F8
:1003D00003200004070502030800040403090400C5
:1003E00011241FBECFEFD4E0DEBFCDBF11E0A0E0EF
:1003F000B1E0E6E3F4E302C005900D92A436B10744
:10040000D9F712E0A4E6B1E001C01D92A03FB10708
:10041000E1F70E9400050C94191A0C940000AC013D
:1004200020E030E0F901E050FF4FDA01A20FB31FE6
:1004300090818C91981711F081E008952F5F3F4FC4
:100440002331310579F780E00895589A81E090E0F2
:1004500008955C9A469A589A82E090E00895589AD6
:1004600084E090E00895589A85E090E0089583E054
:1004700090E008959091640180910301869586959E
:1004800080FD02C086B102C086B1869580958170DC
:1004900080936401992319F420E030E008C090E0D3
:1004A00080916401811191E081E09827292F80914A
:1004B0006501882349F0109267011092660122239A
:1004C000C9F0109265010895222349F080916801D6
:1004D00090916901909367018093660108958091DE
:1004E000660190916701009729F001979093670149
:1004F000809366010895809104018695877081300C
:10050000E1F44C9907C0369B05C0809103018061DE
:100510008F7D10C04C9B07C0369905C080910301A8
:1005200080628F7E07C04C9B27C0369B25C0809180
:1005300003018F7C8093030108959091030193FF41
:100540001BC0809164018823B9F04E9902C09F7C42
:1005500004C0189908C090619F7D9093030181E0C9
:10056000809365010895199907C090629F7E9093CA
:10057000030181E080936501089585E085BD0895BC
:1005800010926A0116BCA89A0895589810926C01AE
:100590000895A89B08C080916A018F3F19F08F5F72
:1005A00080936A01A89A20E090916A0180916B0182
:1005B000981708F021E0822F089580910401869514
:1005C00090E0877090700297029710F45C984698BC
:1005D0000E94040A58985B9A80E090E008951F9367
:1005E00085E085BD8091020183FF21C0589810925B
:1005F0006C01589A0E942C1702C00E9445178091E6
:100600006C018823D1F38FE080936B0110926A0113
:1006100016BCA89A02C00E9445170E94C9028823EE
:10062000D1F380916C01823011F40E9435148091D5
:10063000030180FF21C0589810926C01589A0E94C3
:10064000E81602C00E94451780916C018823D1F3FF
:1006500085E080936B0110926A0116BCA89A02C0D3
:100660000E9445170E94C9028823D1F380916C0132
:10067000823011F40E941A148091020184FF29C073
:10068000589810926C010E9429020E941C1711E0D8
:1006900008C00E9445170E942207882311F010937A
:1006A0006C0180916C018823A1F380E580936B013C
:1006B00010926A0116BCA89A02C00E940B160E94F2
:1006C000C9028823D1F380916C01823011F40E9419
:1006D000C2168091020185FF10C0589810926C01DB
:1006E00088EB9BE02CE231E0F9013197F1F70197BB
:1006F000D9F70E94DD020E9430051F910895809174
:10070000020190E0877090708130910521F4589A31
:1007100021E030E016C08230910519F40E942902D0
:100720000FC08430910521F4589A24E030E009C0CC
:10073000059721F4589A25E030E003C00E94DD02BD
:100740009C01C9010895CF93DF93EC0120E030E0D4
:10075000F901E050FF4FDE01A20FB31F90818C9191
:10076000981731F42F5F3F4F2331310589F716C0B9
:10077000CE0160E070E043E150E00E94011A20E009
:1007800030E0F901E050FF4FDE01A20FB31F8C9162
:1007900080832F5F3F4F2331310599F7DF91CF9150
:1007A0000895CF93DF93EC0180E091E060E070E08A
:1007B00043E150E00E94F11980910001823021F460
:1007C00080910101843039F132E0388384E08983FB
:1007D00088E78A8381E08B8380E38C8324E32D8305
:1007E00084E48E838AE08F838CE2888793E2998702
:1007F0002A8788E28B8783E08C8782E28D879E87B9
:1008000086E58F8781E1888B8AE1898B3A8BCE01DF
:100810000E94A3030FC020E030E0FE01E20FF31FAF
:10082000D901A050BF4F8C9180832F5F3F4F233160
:10083000310599F7DF91CF910895DF93CF93CDB72D
:10084000DEB763970FB6F894DEBF0FBECDBFCE0103
:1008500001960E94D10331990DC0589A0E94171732
:1008600002C00E9417143099FCCF5898CE0101960F
:100870000E94D10363960FB6F894DEBF0FBECDBFC2
:10088000CF91DF9108950F931F93CF93DF9317B804
:100890008FE388B914B885B989E08AB980EE8BB93D
:1008A0000E941D044E9904C0809103018F7C0DC0ED
:1008B000189905C08091030180618F7D06C0199948
:1008C00006C08091030180628F7E80930301809136
:1008D0000401869590E0877090708130910511F049
:1008E000049711F45C9A469A80910201282F30E017
:1008F000C90143E0969587954A95E1F7682F6170A5
:10090000462F50E089010071107024FF02C04F5F34
:100910005F4FD901A074B07026FF02C04F5F5F4FD8
:100920008091030190E0EC01C170D07080FF02C0A3
:100930004F5F5F4FF901E072F07025FF02C04F5F1B
:100940005F4FC90187709070009719F043305105CF
:10095000C4F01B9902C0662341F51C9902C0AB2B61
:10096000A9F51A9902C0CD2BC9F51D9905C0EF2B29
:1009700019F00E94DD023DC0329934C0012B91F183
:100980001DC04230510599F51B9B0AC01C9B08C035
:100990001A9B06C01D9B04C04D9B02C0339927C003
:1009A0008130910549F0662321F0589A21E030E02A
:1009B00021C08230910541F0012B19F00E942902DB
:1009C00018C08430910541F0AB2B21F0589A24E0F7
:1009D00030E010C0059759F0CD2B49F0589A25E02A
:1009E00030E008C0892B19F423E030E003C00E94F6
:1009F0007F039C01C901DF91CF911F910F91089551
:100A00000E94430482309105E1F0833091052CF47B
:100A1000009779F0019709F50FC084309105B1F086
:100A2000843091051CF00597C1F413C00E94EF02B9
:100A300014C00E94300511C00E942C170E9435146A
:100A40000CC00E941C170E94C21607C00E94F0161C
:100A500004C00E94E8160E941A1480E090E00895F5
:100A600080910401869587708230F9F40E943A02E1
:100A70000E947B028091030182958F7090E08370C9
:100A800090708130910519F4469A5C9805C08230C7
:100A9000910529F45C9A4698549A3E9A06C0892B8F
:100AA00021F454983E985C9A469A9091030196FFDF
:100AB00009C0309905C0319903C045983D9A02C0DC
:100AC0003D98459A8091040180FF20C092FD0CC0A2
:100AD000309905C0349903C044983C9A02C03C98B0
:100AE000449A309911C00BC0319905C0349903C0A4
:100AF00044983C9A02C03C98449A319905C0339975
:100B000003C043983B9A02C03B98439A86958770EE
:100B1000833009F0A5CF349902C05C9A01C05C987B
:100B2000329902C0469A9CCF46989ACF40916D0167
:100B300050916E015093700140936F0110926E01BD
:100B400010926D014E9906C088E090E090936E017E
:100B500080936D014F9909C080916D0190916E0154
:100B6000846090936E0180936D01189909C0809103
:100B70006D0190916E01816090936E0180936D0183
:100B8000199909C080916D0190916E0182609093D6
:100B90006E0180936D0180916D0190916E019C01B9
:100BA0002470307083FF10C0232B61F09A012470F1
:100BB000307043FF05C0232B49F047FF07C002C038
:100BC000232B49F0806803C0232B29F08064909385
:100BD0006E0180936D0180916D0190916E019C0179
:100BE0002270307080FF08C0232B69F480619093DD
:100BF0006E0180936D010895232B29F080629093FC
:100C00006E0180936D010895FC0180912B0182306B
:100C100009F441C0833038F4882309F47FC081305F
:100C200009F00EC107C0833009F4B1C0843009F067
:100C300007C1D8C02381233089F0243030F421301B
:100C400051F0223009F0FCC018C02132C9F0223224
:100C500009F0F6C018C088E690E0CDC082818130EE
:100C600009F4D6C0823009F0EBC084E990E090939B
:100C7000B2028093B10282E3089582E491E035C02C
:100C800084E591E03AC086EC90E09093B2028093C4
:100C9000B1028CE7089583818330B1F0843030F461
:100CA000813051F0823009F0CBC01DC0813219F182
:100CB000823209F0C5C027C088E690E09093B20266
:100CC0008093B10282E108958281813009F4A0C04D
:100CD000823009F0B5C084E691E09093B20280932F
:100CE000B10280E308958EED91E09093B20280937B
:100CF000B10282E2089580EF91E09093B202809376
:100D0000B10289E0089584E991E09093B202809362
:100D1000B10281E080936C018AE40895838183307D
:100D200089F0843030F4813051F0823009F088C08D
:100D300020C0813209F1823209F082C020C080E0F7
:100D400092E0BCCF8281813021F0823009F078C0FE
:100D500008C082E192E09093B2028093B1028AE2ED
:100D600008958CE392E09093B2028093B1028EE0FA
:100D700008958DE792E0B9CF8FE892E0BECF8AE484
:100D800092E09093B2028093B10283E3089583814D
:100D9000833089F0843030F4813051F0823009F0B2
:100DA0004FC012C0813299F0823209F049C012C09E
:100DB0008FE992E083CF8281813051F1823009F056
:100DC0003FC081EB92E02EC083E593E08ECF85E6B5
:100DD00093E093CF85EE92E09093B2028093B102BC
:100DE0008EE608952381223019F1233059F0213005
:100DF00039F585E793E09093B2028093B102209396
:100E00006C0160CF8281813019F08230C9F408C052
:100E10008AE790E09093B2028093B1028AE108954C
:100E200087E893E09093B2028093B10284E308953F
:100E30008BEB93E09093B2028093B10280E208952D
:100E400080E0089590E08091B602813009F491E04D
:100E5000892F089510927901109278018FE0809384
:100E60007A0185E580937B011092870110928601BB
:100E700010928501109284011092830110928201D8
:100E8000109281011092800110927F0110927E01D8
:100E900010927D0110927C0108950E942A070E9401
:100EA000960560910401862F8695482F50E0477083
:100EB00050704130510529F080916401882309F078
:100EC0009DC08091030182958F7090E08370907037
:100ED00081309105F9F490916D0197FF05C08091E3
:100EE0007B01837F80937B0196FF06C080917B010D
:100EF00088608B7F80937B0194FF05C080917B018C
:100F00008C7F80937B0195FF79C080917B0182600B
:100F10008E7F21C08230910509F590916D0197FF78
:100F200005C080917B018F7380937B0196FF06C083
:100F300080917B0180688F7B80937B0194FF05C04B
:100F400080917B018F7C80937B0195FF57C08091BE
:100F50007B0180628F7E80937B0150C0892B09F0DA
:100F60004DC080916D0190916E0187FF18C084FF84
:100F700007C087E080937A018FEF80937E011CC0C9
:100F800085FF07C081E080937A018FEF80937E0117
:100F900033C010927A018FEF80937E012FC09C01A5
:100FA0002071307086FF1BC0232B49F085E08093B1
:100FB0007A018FEF80937F0180937D011FC085FFB1
:100FC00007C083E080937A018FEF80937F0114C084
:100FD00084E080937A018FEF80937F010FC0232BF1
:100FE00029F086E080937A018FEFE6CF85FF06C077
:100FF00082E080937A018FEF80937C011A9908C078
:10100000809178018160809378018FEF80938301D4
:101010001D9908C0809178018860809378018FEFD6
:10102000809380014D991AC060FF10C080916401C7
:10103000882361F0809178018061809378018FEF3F
:101040008093840181E08093650108C080917801DC
:101050008062809378018FEF809385011B9918C07F
:101060004430510569F080916401882349F08091F2
:10107000790184608093790181E08093650108C0E3
:10108000809178018260809378018FEF8093820154
:101090001C9918C04430510569F08091640188237F
:1010A00049F08091790188608093790181E0809393
:1010B000650108C0809178018460809378018FEF8A
:1010C0008093810132991AC060FF10C08091640141
:1010D000882361F0809178018064809378018FEF9C
:1010E0008093860181E08093650108C0809178013A
:1010F0008068809378018FEF80938701339908C0CF
:10110000809178018061809378018FEF80938401D2
:10111000349908C0809178018064809378018FEFC2
:10112000809386018091030186FF0DC030990BC02A
:10113000319909C08091790180618093790181E0C2
:101140008093650124C08695869580FD0EC08091B0
:10115000660190916701892B29F080917901826065
:1011600080937901319913C00DC0309905C08091E9
:101170007901826080937901809166019091670185
:10118000892B29F080917901816080937901443025
:10119000510571F44C9905C0809179018460809368
:1011A0007901369905C08091790188608093790131
:1011B000359905C080917901806180937901089506
:1011C00010927901109278018FE080937A0185E581
:1011D00080937B01089510927901109278018FE03D
:1011E00080937A0185E580937B010E94960580912A
:1011F00004018695482F50E04770507041305105EA
:1012000029F080916401882309F078C0809103015E
:1012100082958F7090E08370907081309105F9F421
:1012200090916D0197FF05C080917B01837F809332
:101230007B0196FF06C080917B0188608B7F809345
:101240007B0194FF05C080917B018C7F80937B01A3
:1012500095FF54C080917B0182608E7F21C08230D7
:10126000910509F590916D0197FF05C080917B0173
:101270008F7380937B0196FF06C080917B0180680D
:101280008F7B80937B0194FF05C080917B018F7CD5
:1012900080937B0195FF32C080917B0180628F7EBD
:1012A00080937B012BC0892B49F580916D01909132
:1012B0006E0187FF0BC084FF02C087E01DC085FF61
:1012C00002C081E019C010927A0118C09C012071FF
:1012D000307086FF0AC0232B11F085E00DC085FF1A
:1012E00002C083E009C084E007C0232B11F086E030
:1012F00003C085FF03C082E080937A011A9905C07C
:10130000809178018061809378011D9905C080915A
:1013100078018062809378014D9905C080917801B1
:101320008064809378011B9905C080917801816069
:10133000809378011C9905C0809178018260809328
:101340007801329905C0809178018460809378019A
:10135000339905C080917801806880937801349931
:1013600005C08091780188608093780144305105F0
:1013700071F44C9905C08091790181608093790165
:10138000369905C0809179018260809379018091BE
:10139000030186FF0DC030990BC0319909C08091BF
:1013A000790180618093790181E08093650124C097
:1013B0008695869580FD0EC08091660190916701AB
:1013C000892B29F08091790184608093790131998A
:1013D00013C00DC0309905C080917901846080935D
:1013E00079018091660190916701892B29F08091A4
:1013F0007901886080937901359905C080917901E0
:101400008061809379010895519A88EB9BE02CE2EA
:1014100031E0F9013197F1F70197D9F7089581E0AB
:101420008093780182E0809381010895EDE7F1E0F7
:10143000AF0144505040DA018C9180937D019F01AF
:1014400023503040D9018C9180937E01DF011297A7
:101450008C9180937F0182918093800110821C92F5
:10146000F9011082DA011C92109282010895809194
:10147000040182958F7090E087709070009719F446
:101480008FEF9FEF24C08130910529F410922F0136
:1014900010922E0120C08230910519F481E090E075
:1014A00016C08330910519F482E090E010C08430BA
:1014B000910519F483E090E00AC08530910519F494
:1014C00084E090E004C0069731F485E090E09093CA
:1014D0002F0180932E0120910501822F90E08770CB
:1014E0009070009719F48FEF9FEF24C08130910521
:1014F00029F4109231011092300120C08230910500
:1015000019F481E090E016C08330910519F482E06F
:1015100090E010C08430910519F483E090E00AC097
:101520008530910519F484E090E004C0069731F409
:1015300085E090E09093310180933001822F869571
:101540008695869590E087709070009719F48FEFDC
:101550009FEF24C08130910529F41092330110923D
:10156000320120C08230910519F481E090E016C06C
:101570008330910519F482E090E010C08430910529
:1015800019F483E090E00AC08530910519F484E0F5
:1015900090E004C0069731F485E090E09093330129
:1015A000809332012295269526952370822F90E014
:1015B0009C012170307080FD0AC08091060190E08E
:1015C00083709070892B19F48FEF9FEF42C0422FE8
:1015D000222361F08091060190E083709070892B46
:1015E00029F4109235011092340137C021153105CC
:1015F00041F48091060190E08370907081309105F4
:1016000041F1442341F0809106018370813019F447
:1016100082E090E01EC02115310541F48091060161
:101620008370823019F483E090E013C0442341F0CA
:10163000809106018370823019F484E090E009C043
:10164000232B59F4809106018370833031F485E0B7
:1016500090E0909335018093340120910601822F10
:101660008695869590E087709070009719F48FEFBB
:101670009FEF24C08130910529F410923701109218
:10168000360120C08230910519F481E090E016C047
:101690008330910519F482E090E010C08430910508
:1016A00019F483E090E00AC08530910519F484E0D4
:1016B00090E004C0069731F485E090E09093370104
:1016C0008093360122952695277030E02370307084
:1016D0002115310539F48091070180FD03C08FEF9A
:1016E0009FEF3DC02130310549F48091070180FD15
:1016F00005C0109239011092380135C022303105F1
:1017000039F48091070180FD03C081E090E027C09B
:101710002330310539F48091070180FD0DC082E04E
:1017200090E01DC02115310539F48091070180FF3B
:1017300003C083E090E013C02130310539F480917B
:10174000070180FF03C084E090E009C0223031052A
:1017500051F48091070180FF06C085E090E09093EE
:1017600039018093380120910701822F869590E0FE
:1017700087709070009719F48FEF9FEF24C081302D
:10178000910529F410923B0110923A0120C0823059
:10179000910519F481E090E016C08330910519F4A9
:1017A00082E090E010C08430910519F483E090E06D
:1017B0000AC08530910519F484E090E004C00697D2
:1017C00031F485E090E090933B0180933A012295BB
:1017D0002F70822F90E087709070009719F48FEF30
:1017E0009FEF24C08130910529F410923D011092A1
:1017F0003C0120C08230910519F481E090E016C0D0
:101800008330910519F482E090E010C08430910596
:1018100019F483E090E00AC08530910519F484E062
:1018200090E004C0069731F485E090E090933D018C
:1018300080933C0120910801822F90E08770907086
:10184000009719F48FEF9FEF24C08130910529F4A0
:101850001092400110923F0120C08230910519F48E
:1018600081E090E016C08330910519F482E090E0A9
:1018700010C08430910519F483E090E00AC08530EF
:10188000910519F484E090E004C0069731F485E0F6
:1018900090E09093400180933F01822F869586953A
:1018A000869590E087709070009719F48FEF9FEF06
:1018B00024C08130910529F4109242011092410117
:1018C00020C08230910519F481E090E016C0833089
:1018D000910519F482E090E010C08430910519F46C
:1018E00083E090E00AC08530910519F484E090E02F
:1018F00004C0069731F485E090E090934201809314
:1019000041012295269526952370822F90E09C0117
:101910002170307080FD0AC08091090190E08370D1
:101920009070892B19F48FEF9FEF42C0422F222332
:1019300061F08091090190E083709070892B29F407
:10194000109244011092430137C02115310541F432
:101950008091090190E0837090708130910541F190
:10196000442341F0809109018370813019F482E0B1
:1019700090E01EC02115310541F48091090183706A
:10198000823019F483E090E013C0442341F0809149
:1019900009018370823019F484E090E009C0232BA0
:1019A00059F4809109018370833031F485E090E02F
:1019B000909344018093430120910901822F8695E1
:1019C000869590E087709070009719F48FEF9FEFE5
:1019D00024C08130910529F41092460110924501EE
:1019E00020C08230910519F481E090E016C0833068
:1019F000910519F482E090E010C08430910519F44B
:101A000083E090E00AC08530910519F484E090E00D
:101A100004C0069731F485E090E0909346018093EE
:101A2000450122952695277030E0237030702115EE
:101A3000310539F480910A0180FD03C08FEF9FEFDB
:101A40003DC02130310549F480910A0180FD05C077
:101A5000109248011092470135C02230310539F407
:101A600080910A0180FD03C081E090E027C023300F
:101A7000310539F480910A0180FD0DC082E090E0CB
:101A80001DC02115310539F480910A0180FF03C082
:101A900083E090E013C02130310539F480910A01D0
:101AA00080FF03C084E090E009C02230310551F48A
:101AB00080910A0180FF06C085E090E09093480184
:101AC0008093470120910A01822F869590E08770CC
:101AD0009070009719F48FEF9FEF24C0813091052B
:101AE00029F410924A011092490120C082309105D8
:101AF00019F481E090E016C08330910519F482E07A
:101B000090E010C08430910519F483E090E00AC0A1
:101B10008530910519F484E090E004C0069731F413
:101B200085E090E090934A018093490122952F70BF
:101B3000822F90E087709070009719F48FEF9FEFDD
:101B400024C08130910529F410924C0110924B0170
:101B500020C08230910519F481E090E016C08330F6
:101B6000910519F482E090E010C08430910519F4D9
:101B700083E090E00AC08530910519F484E090E09C
:101B800004C0069731F485E090E090934C01809377
:101B90004B0120910B01822F90E08770907000978D
:101BA00019F48FEF9FEF24C08130910529F4109232
:101BB0004E0110924D0120C08230910519F481E050
:101BC00090E016C08330910519F482E090E010C0D7
:101BD0008430910519F483E090E00AC085309105C6
:101BE00019F484E090E004C0069731F485E090E0B9
:101BF00090934E0180934D01822F86958695869510
:101C000090E087709070009719F48FEF9FEF24C0D9
:101C10008130910529F41092500110924F0120C09B
:101C20008230910519F481E090E016C0833091056F
:101C300019F482E090E010C08430910519F483E03B
:101C400090E00AC08530910519F484E090E004C06A
:101C5000069731F485E090E09093500180934F0116
:101C60002295269526952370822F90E09C01217065
:101C7000307080FD0AC080910C0190E083709070FC
:101C8000892B19F48FEF9FEF42C0422F222361F07E
:101C900080910C0190E083709070892B29F4109250
:101CA00052011092510137C02115310541F4809144
:101CB0000C0190E0837090708130910541F14423D4
:101CC00041F080910C018370813019F482E090E042
:101CD0001EC02115310541F480910C0183708230C2
:101CE00019F483E090E013C0442341F080910C018B
:101CF0008370823019F484E090E009C0232B59F4FA
:101D000080910C018370833031F485E090E09093F2
:101D100052018093510120910C01822F8695869566
:101D200090E087709070009719F48FEF9FEF24C0B8
:101D30008130910529F4109254011092530120C072
:101D40008230910519F481E090E016C0833091054E
:101D500019F482E090E010C08430910519F483E01A
:101D600090E00AC08530910519F484E090E004C049
:101D7000069731F485E090E09093540180935301ED
:101D800022952695277030E023703070211531059B
:101D900039F480910D0180FD03C08FEF9FEF3DC0AE
:101DA0002130310549F480910D0180FD05C010926C
:101DB00056011092550135C02230310539F4809119
:101DC0000D0180FD03C081E090E027C02330310584
:101DD00039F480910D0180FD0DC082E090E01DC0BE
:101DE0002115310539F480910D0180FF03C083E096
:101DF00090E013C02130310539F480910D0180FF4E
:101E000003C084E090E009C02230310551F4809194
:101E10000D0180FF06C085E090E09093560180930D
:101E2000550120910D01822F869590E0877090706A
:101E3000009719F48FEF9FEF24C08130910529F4AA
:101E4000109258011092570120C08230910519F468
:101E500081E090E016C08330910519F482E090E0B3
:101E600010C08430910519F483E090E00AC08530F9
:101E7000910519F484E090E004C0069731F485E000
:101E800090E0909358018093570122952F70822FF4
:101E900090E087709070009719F48FEF9FEF24C047
:101EA0008130910529F410925A011092590120C0F5
:101EB0008230910519F481E090E016C083309105DD
:101EC00019F482E090E010C08430910519F483E0A9
:101ED00090E00AC08530910519F484E090E004C0D8
:101EE000069731F485E090E090935A018093590170
:101EF00020910E01822F90E087709070009719F466
:101F00008FEF9FEF24C08130910529F410925C017E
:101F100010925B0120C08230910519F481E090E0BD
:101F200016C08330910519F482E090E010C084302F
:101F3000910519F483E090E00AC08530910519F409
:101F400084E090E004C0069731F485E090E090933F
:101F50005C0180935B01269526952695822F90E063
:101F600087709070009719F48FEF9FEF1FC081303A
:101F7000910529F410925E0110925D01089582305E
:101F8000910519F481E090E011C08330910519F4B6
:101F900082E090E00BC08430910519F483E090E07A
:101FA00005C08530910539F484E090E090935E019E
:101FB00080935D010895069731F485E090E0909359
:101FC0005E0180935D010895809179018061809325
:101FD0007901089580917901806280937901089553
:101FE00080917A01826080937A01089580917901CD
:101FF000806480937901089580917C018160809351
:102000007C01089580917C01826080937C01089519
:1020100080917A01806280937A01089580917B019A
:10202000806480937B01089580917B01806180931F
:102030007B01089580917B01806880937B010895E6
:1020400080917B01846080937B01089580917B0166
:10205000826080937B01089585E085BD089510928C
:10206000710116BC089530915F01332311F480E0B3
:102070000895209171012F3FD9F481E0089523172D
:1020800090F486B596B5975E96BD96B5891708F417
:10209000A89A822F8B5F821750F48FEF8093710183
:1020A000909171010EC020937101A89AF9CF282F49
:1020B000A899E5CF20937101F3CF86B58E5286BDE6
:1020C000922F9F3F29F086B5292F2F5F8E32A8F7D8
:1020D0009093710180E0931708F081E0089580915A
:1020E0006401882329F11B9908C0809179018068D7
:1020F0008093790181E0809365011C9908C08091EB
:102100007A01816080937A0181E0809365018091FA
:10211000030186FFEEC03099ECC03199EAC080918E
:102120007B01886080937B0181E080936501089545
:102130004E9905C0809179018160809379014F9912
:1021400005C080917901846080937901189905C058
:1021500080917901886080937901199905C08091F7
:1021600079018260809379011B9911C0E0912C0163
:10217000F0912D010190F081E02DF7FD08C0EE0FE8
:10218000FF1FED5EFE4F0190F081E02D09951C9937
:1021900011C0E0912C01F0912D010280F381E02D1E
:1021A000F7FD08C0EE0FFF1FED5EFE4F0190F081BE
:1021B000E02D0995329911C0E0912C01F0912D018B
:1021C0000480F581E02DF7FD08C0EE0FFF1FED5EE6
:1021D000FE4F0190F081E02D09951A9911C0E09110
:1021E0002C01F0912D010084F185E02DF7FD08C050
:1021F000EE0FFF1FED5EFE4F0190F081E02D09957F
:102200001D9911C0E0912C01F0912D010284F385FC
:10221000E02DF7FD08C0EE0FFF1FED5EFE4F0190B1
:10222000F081E02D09954D9911C0E0912C01F091BC
:102230002D010484F585E02DF7FD08C0EE0FFF1F8A
:10224000ED5EFE4F0190F081E02D0995349911C0AB
:10225000E0912C01F0912D010680F781E02DF7FD32
:1022600008C0EE0FFF1FED5EFE4F0190F081E02DE4
:102270000995339911C0E0912C01F0912D0106844C
:10228000F785E02DF7FD08C0EE0FFF1FED5EFE4F56
:102290000190F081E02D0995809103018695869546
:1022A00080FD0EC08091660190916701892B29F015
:1022B00080917C01846080937C01319913C00DC0B2
:1022C000309905C080917C01846080937C0180916D
:1022D000660190916701892B29F080917C018061D2
:1022E00080937C01359905C080917B018860809343
:1022F0007B01089580916401882389F08091030116
:1023000086FFEEC03099ECC03199EAC080917B0124
:10231000886080937B0181E08093650108954E99E8
:1023200005C080917B01806280937B014F9905C03D
:1023300080917A01806880937A01189905C0809114
:102340007A01806480937A01199905C080917B019C
:10235000816080937B011B9911C0E0912C01F09169
:102360002D010190F081E02DF7FD08C0EE0FFF1F59
:10237000E15EFE4F0190F081E02D09951C9911C09E
:10238000E0912C01F0912D010280F381E02DF7FD09
:1023900008C0EE0FFF1FE15EFE4F0190F081E02DBF
:1023A0000995329911C0E0912C01F0912D01048022
:1023B000F581E02DF7FD08C0EE0FFF1FE15EFE4F37
:1023C0000190F081E02D09951A9911C0E0912C013E
:1023D000F0912D010084F185E02DF7FD08C0EE0F8E
:1023E000FF1FE15EFE4F0190F081E02D09951D99E0
:1023F00011C0E0912C01F0912D010284F385E02DB4
:10240000F7FD08C0EE0FFF1FE15EFE4F0190F08167
:10241000E02D09954D9911C0E0912C01F0912D010D
:102420000484F585E02DF7FD08C0EE0FFF1FE15E87
:10243000FE4F0190F081E02D0995349911C0E09193
:102440002C01F0912D010680F781E02DF7FD08C0E9
:10245000EE0FFF1FE15EFE4F0190F081E02D099528
:10246000339911C0E0912C01F0912D010684F7857C
:10247000E02DF7FD08C0EE0FFF1FE15EFE4F01905B
:10248000F081E02D0995809103018695869580FD68
:102490000EC08091660190916701892B29F080918F
:1024A0007C01886080937C01319913C00DC0309904
:1024B00005C080917C01886080937C0180916601D9
:1024C00090916701892B29F080917C018062809333
:1024D0007C01359905C080917B01886080937B01E8
:1024E00008954E9905C080917901816080937901AA
:1024F0004F9905C080917901846080937901189982
:1025000005C080917901886080937901199905C08F
:10251000809179018260809379011A9905C0809138
:1025200079018068809379011D9905C080917A01B5
:10253000816080937A011B9905C080917A0188603F
:1025400080937A011C9905C080917A018061809303
:102550007A01809103018695869580FD0EC0809159
:10256000660190916701892B29F080917A0184603E
:1025700080937A01319913C00DC0309905C08091C4
:102580007A01846080937A0180916601909167015D
:10259000892B29F080917C01806480937C013399A0
:1025A00005C080918201816080938201349905C0C9
:1025B0008091820182608093820108951092780157
:1025C00094E19093790110927B0180E180938C01DA
:1025D00082E480938D0110928E0181E080938F01BF
:1025E0008093900182E0809391019093920186E024
:1025F00080939301E4E9F1E08FEF819391E0EC396E
:10260000F907D9F7089510928B0110928A01109260
:102610008901109288011092870110928601109210
:102620008501109284011092830110928201109210
:1026300081011092800110927F0110927E01109210
:102640007D0110927C0110927A0108950E9403137B
:102650000E94960540910401842F8695282F30E032
:10266000277030702130310529F080916401882372
:1026700009F067C08091030182958F7090E08370AC
:10268000907081309105E9F490916D0197FF06C03B
:102690008FEF809386018FE78093870196FF03C0B9
:1026A00080E88093870194FF03C080E880938501D0
:1026B00095FF47C08FEF809384018FE7809385015A
:1026C00040C082309105E9F490916D0197FF06C0FA
:1026D0008FEF80938A018FE780938B0196FF03C071
:1026E00080E880938B0194FF03C080E88093890188
:1026F00095FF27C08FEF809388018FE78093890132
:1027000020C0892BF1F490916D0197FF05C0809155
:102710007A01816080937A0196FF05C080917A01E9
:10272000826080937A0194FF05C080917A01846071
:1027300080937A0195FF05C080917A01886080932B
:102740007A011A9903C08FEF80937E011D9903C00F
:102750008FEF80937F014D9910C040FF0BC0809197
:102760006401882339F08FEF8093820181E08093A8
:10277000650103C08FEF809380011B9903C08FEF29
:1027800080937C011C9903C08FEF80937D01329967
:1027900010C040FF0BC080916401882339F08FEF97
:1027A0008093830181E08093650103C08FEF809364
:1027B0008101339903C08FEF80938201349903C064
:1027C0008FEF809383012130310529F440FD03C050
:1027D000309912C00CC0809103018695869580FDCA
:1027E00013C08091660190916701892B29F0809137
:1027F0007A01806180937A01319918C080917A01C1
:10280000806280937A010895309905C080917A01A1
:10281000806180937A018091660190916701892B94
:1028200029F080917A01806280937A0108950E9454
:102830004517089584E190E09093690180936801C1
:102840000E9445170E943A020E947B020E942613B2
:1028500002C00E9445178091CD0286FFFACF88E71B
:1028600091E064E10E946718EBCF88E290E09093DA
:102870006901809368010E9445170E943A020E94F4
:102880007B020E944D0788E791E060E10E94671893
:1028900002C00E9445178091CD0286FDECCFF9CF92
:1028A000CF92DF92EF92FF920F931F93CF93DF931C
:1028B0006C017B0100E010E017C0E701C01BD10BE9
:1028C000C930D1052CF0C8E0D0E002C00E94451705
:1028D0008091CD0286FFFACFC601800F911F6C2F29
:1028E0000E9467180C0F1D1F0E151F0530F3DF9196
:1028F000CF911F910F91FF90EF90DF90CF900895AF
:10290000DF92EF92FF920F931F93FC0180912B01B6
:10291000882309F054C080917201823009F044C0CC
:1029200040916001509161014115510551F431818F
:1029300022818481809375011092760135966550CD
:1029400004C03091730120917401CA01860F911D5A
:10295000909361018093600170E8D72ED822809116
:10296000750190917601181619065CF5883091056D
:102970000CF4682F032F122FE62EFF24CF01B8018D
:10298000A7010E94011A0E0D1F1D109374010093E0
:10299000730180917501909176018E199F09909332
:1029A0007601809375010DC0833049F43181228115
:1029B0003093730120937401DD24D39402C0DD248D
:1029C000DA948D2D1F910F91FF90EF90DF90089575
:1029D0000F931F93FC019281238180912B01823000
:1029E00009F447C0833038F4882309F460C081308B
:1029F00009F00DC107C0833009F4B6C0843009F076
:102A000006C1E2C080818076803209F000C18181F8
:102A1000813009F0FCC0233001F5992309F0F7C09B
:102A200081E28093780186E28093790110927A01A5
:102A300010927B0110927C0110927D0110927E0118
:102A400010927F0188E791E09093B2028093B102E7
:102A500082E080936C0188E0DBC0213009F0D7C0B0
:102A60000E942A0788E791E09093B2028093B10216
:102A7000CCC080818076803209F0C9C081818130EC
:102A800009F0C5C0213009F0C2C01092790110923E
:102A900078018FE080937A0185E580937B0188E758
:102AA00091E09093B2028093B10283E0B1C0808143
:102AB0008076803209F0ABC08181893069F4923030
:102AC00029F4109261011092600103C0933009F063
:102AD0009EC09093720128C0813009F098C0913057
:102AE000C1F49093780184E08093790110927A0187
:102AF00010927B0182E080937C0110927D01109204
:102B00007E0188E791E09093B2028093B10287E062
:102B10007FC0943009F07BC06091730170917401A3
:102B200082E06030780710F08FEF72C040E052E032
:102B3000461B570B4038510510F040E850E008E7BD
:102B400011E084E0809378014093790110927A013A
:102B500010927B01C80104960E94F1191093B202F1
:102B60000093B10284E854C080818076803209F0FD
:102B70004EC08181823059F4923008F048C08FE510
:102B800091E09093B2028093B10281E041C08A301B
:102B900029F49230E0F520935F0139C08130B9F516
:102BA000913041F488E791E09093B2028093B102B2
:102BB00085E02EC0923059F581E891E09093B20201
:102BC0008093B10282E024C0808190E08076907092
:102BD0008032910559F481818130C9F488E791E010
:102BE0009093B2028093B10284E112C080349105C7
:102BF00071F48181863059F48CE891E09093B202AF
:102C00008093B10282E080936C0180E101C080E09A
:102C10001F910F91089588E791E063E00E946C187E
:102C20000E94451780918B0284FF03C082E080934D
:102C30006C010895CF92DF92EF92FF920F931F9352
:102C4000CF93DF936C017B0100E010E017C0E70138
:102C5000C01BD10BC930D1052CF0C8E0D0E002C0B8
:102C60000E94451780918B0284FFFACFC601800F26
:102C7000911F6C2F0E946C180C0F1D1F0E151F0545
:102C800030F3DF91CF911F910F91FF90EF90DF9084
:102C9000CF9008950E94160A0E943A020E947B0279
:102CA00020916401222331F11A9924C04E990AC05F
:102CB0008EE291E090932D0180932C0181E080932E
:102CC0003E0116C0199908C08FE391E090932D0141
:102CD00080932C0182E009C04F990CC08FE491E0F1
:102CE00090932D0180932C0183E080933E0181E03D
:102CF000809365018091030182958F7090E08370CD
:102D00009070009729F4222369F40E9471120AC07E
:102D10008130910519F40E946F1004C0029711F4DC
:102D20000E947A110E9433108823C1F490917D0192
:102D300080917901981791F490917E0180917A01A8
:102D4000981761F490917F0180917B01981731F47D
:102D50009091800180917C01981749F088E791E07B
:102D600065E070E00E941A161092710116BC809105
:102D70008201882331F081E891E062E070E00E94F6
:102D80001A16089588E290E0909369018093680193
:102D90000E9445170E943A020E947B020E94EB08A3
:102DA00088E791E064E070E00E941A16F1CF519A32
:102DB00088EB9BE02CE231E0F9013197F1F70197C4
:102DC000D9F751980E94341778940E9445170895B6
:102DD00084E080932B010E94DE120E94D716089592
:102DE00083E080932B0190910301892F869580FDCC
:102DF00003C090619F7D02C090629F7E909303010B
:102E00000E94D7160E94451781E08093780182E0E6
:102E1000809381010E94370A85E085BD88E893E1AF
:102E200090936901809368010E944A16FDCF109229
:102E30002B010E94D716089582E080932B011092F7
:102E40007901109278018FE080937A0185E5809373
:102E50007B010E94D716089581E080932B010E9488
:102E60002A070E94D7160895E9E6F0E08081836082
:102E70008083E89A8BE480938C028093CE028AE56B
:102E800080938B028093CD0208951F93CF93DF939D
:102E90006091B302635067FD9AC08091B002CCE0AC
:102EA000D0E0C81BD109C954DD4F8091AF028D32EB
:102EB00009F07AC0683009F088C083EC8093800202
:102EC0008AE580936201109277018881807629F0EB
:102ED000CE010E94E814282F54C09A8110928902D2
:102EE0008981882321F410928A0222E043C0853030
:102EF00019F49093B4023DC0863029F58B8181305E
:102F0000C1F08230B1F0833081F48A81882341F4AA
:102F10008BED93E09093B2028093B10224E00FC056
:102F2000813039F0823051F404C0813211F08232A4
:102F300029F4CE010E940406282F01C020E080E47D
:102F4000809377011EC0883021F421E086EB92E067
:102F500013C0893019F49093B6020BC08A3011F473
:102F600021E008C08B3029F48BE480938C0280939D
:102F7000CE0220E089E892E09093B2028093B10201
:102F800009C02F3F39F4888187FD2E8180E8809326
:102F9000770106C08F81882319F48E81821708F08B
:102FA000822F8093630111C08091770187FF0DC04C
:102FB000CE010E9480148F3F21F48EE18093620144
:102FC00004C0882311F0109263011092B302809123
:102FD000620184FF4AC0809163018F3F09F445C0BC
:102FE000182F893008F018E0811B809363018091CD
:102FF000800298E8892780938002112341F1209173
:10300000B1023091B2028091770186FF0DC0A1E834
:10301000B2E080E090E0F901E80FF91FE491ED9350
:1030200001961817C1F708C0912FD901E1E8F2E025
:103030008D9181939150E1F71150812F90E01F5FA6
:103040000196820F931F9093B2028093B10281E8A0
:1030500092E0612F0E948618612F6C5F6C3019F02E
:103060008FEF80936301609362019AE089B186706B
:1030700031F49150D9F71092B4021092AE02DF9160
:10308000CF911F9108951F93CF93DF93DC01162FEB
:10309000EA01888184FF05C0898198E889278983AE
:1030A00002C08AE58883AE014E5F5F4F212FFA018F
:1030B0008D91819321501216DCF3CA01612F0E9479
:1030C00086181C5F1883DF91CF911F9108954DECF6
:1030D00052E00E94431808954BE852E00E944318C2
:1030E0000895A82FB92F80E090E041E050EA609564
:1030F0006F5F58F42D9138EF82279795879510F0E0
:10310000842795273F5FC8F3F3CF0895EADF8D93B7
:103110009D930895CF93CFB7CF93499BFECF499B03
:1031200009C0499B07C0499B05C0499B03C0499BF7
:1031300001C0A3C0DF93C091B002DD27C954DD4FA9
:10314000499B02C0DF91EBCF2F930F931F9309B1DF
:103150002FEF01FB20F94F933F9319B14FEF012758
:1031600001FB21F93BE031C04E7F012F19B12160F5
:1031700028C0102F4D7F2260000009B129C04B7F6D
:103180002460012F000019B12BC019B1477F2860BE
:103190002AC04F7E09B120612CC04F7D19B1206239
:1031A0002FC04F7B09B1206432C0422709B1499337
:1031B0004FEF0000102711FB20F919B11670C9F16B
:1031C000297F91F2012701FB21F909B1237F89F2BF
:1031D000315058F1102711FB22F919B1277E79F2ED
:1031E000012701FB23F92F7C81F209B1102711FB84
:1031F00024F92F7971F200C019B1012701FB25F9DB
:103200002F7359F200C009B1102711FB26F92230A3
:1032100040F200C019B1012701FB27F9243028F63C
:103220004F77206819B10000F9CF11E01CBB0027CF
:1032300019C03B503195C31BD04011E01CBB088125
:10324000033CF9F00B34E9F02091AE021981110F23
:103250001213EDCF4A81441F093641F10D3211F0AE
:10326000013E29F70093B5023F914F911F910F91B5
:103270002F91DF91CCB3C0FD50CFCF91CFBFCF9175
:1032800018950091B502002379F31091B302112330
:10329000F9F53430FAF13093B3020093AF02109194
:1032A000B0023BE0311B3093B00234C00091B30256
:1032B000013074F50AE54F7049F43091620134FD34
:1032C0002BC000936201C0E8D2E02AC0423049F02E
:1032D00030918B0234FD20C000938B02CCE8D2E009
:1032E0001FC03091CD0236FD17C00093CD02CEEC49
:1032F000D2E016C0052710E00BB91FC0052722C079
:10330000052727C005272CC0052710E00BB933C0BF
:103310004AE503C042ED01C0432FC4E1D0E032E0F2
:103320001AB11660599A0BB11AB95F9356E020E8AA
:1033300020FF05270BB9279517951C3FD8F620FFCE
:10334000052727950BB917951C3FC0F620FF0527C9
:10335000279517950BB91C3F98F620FF0527279551
:1033600017951C3F0BB970F600C0499120FF052747
:103370000BB9279517951C3F38F620FF0527279591
:103380000BB917951C3F38F520FF05272795179592
:103390000BB91C3F10F520FF0527279517951C3FFB
:1033A0000BB9E8F4242F3A9519F6097F5F910BB910
:1033B0001091B402110FC651D04011F01093AE021B
:1033C00011E01CBB02601AB1197F402F497F0BB975
:1033D0001AB94BB949CF0527D3CF0527D8CF052731
:1033E000DDCFDC01CB01FC01F999FECF06C0F2BDB7
:1033F000E1BDF89A319600B40D9241505040B8F7B3
:103400000895DC01CB0103C02D910E940C1A41509C
:103410005040D0F70895262FF999FECF1FBA92BDDC
:1034200081BD20BD0FB6F894FA9AF99A0FBE0196A5
:063430000895F894FFCF9F
:10343600FFFFFFFFFFFFFFFFFFFFFFFFFFFFFFFF96
:10344600FFFFFFE40FEA0FF00FF60FFC0F02100864
:10345600100E1014101A1020102610FF2E01FFFF58
:10346600FFFFFFFFFFFFFFFFFFFFFFFFFFFF01FF64
:10347600FFFFFFFFFFFFFFFFFFFFFFFFFFFFFFFF56
:10348600FFFFFFFFFFFFFFFFFFFFFFFFFFFFFF7DC8
:04349600FFFF5AFFDB
:00000001FF
