:1000000075C0F2C48EC08DC08CC08BC08AC089C040
:1000100088C087C086C085C084C083C082C081C0BC
:1000200080C07FC07EC005010905A1011500250122
:10003000350045017501950D05091901290D81024C
:100040009503810105012507463B0175049501656E
:10005000140939814265009501810126FF0046FFA0
:100060000009300931093209357508950481020605
:1000700000FF0A21269508B102C0040309041203F7
:10008000420065006E00630061006F0037003400BD
:1000900028034400750061006C00200053007400C8
:1000A000720069006B0065002000200056003100DE
:1000B0002E0032002E003000120110010000000856
:1000C000C410C082060101020001090222000101E0
:1000D00000807D09040000010300000009210101E6
:1000E00000012254000705810308000111241FBEEE
:1000F000CFE5D4E0DEBFCDBF10E0A0E6B0E0EEEC8F
:10010000FCE002C005900D92A436B107D9F710E0CB
:10011000A4E6B0E001C01D92A43AB107E1F7E1D135
:10012000D4C56ECFFC01808180768032B1F48181AC
:10013000813099F4E4E6F0E0DF0181E28D9386E21C
:100140008C93178216821582148213821282F09386
:100150008900E093880088E0089580E00895EBE648
:10016000F0E01082109265003797108288E0828359
:1001700080E88683858384838383089580916000EB
:1001800085FF0CC086FD0AC0E2E3F0E0808180615B
:100190008083E5E3F0E080818064808310926D00CD
:1001A000089580916000982F84FF05C0E7E3F0E098
:1001B00080818062808395FF0DC096FD0BC0E2E3D5
:1001C000F0E0808180618083E5E3F0E080818064FD
:1001D00080830AC0E1E3F0E0808180618083E4E312
:1001E000F0E0808180648083E2E3F0E080818E7FB4
:1001F000808380818860808381E080936D00089592
:10020000AEDF80916000982F81FF14C09C9903C0DD
:100210001092680005C09D9903C08FEF809368001D
:100220009B9903C01092670005C09A9903C08FEF95
:100230008093670093FF14C09C9903C010926A00DA
:1002400005C09D9903C08FEF80936A009B9903C0FE
:100250001092690005C09A9903C08FEF80936900DE
:1002600092FF2DC09C990FC09A9904C081E08093A1
:10027000660025C09B9904C087E0809366001FC07C
:10028000109266001CC09D9910C09A9904C083E02A
:100290008093660014C09B9904C085E0809366003B
:1002A0000EC084E0809366000AC09A9903C082E081
:1002B000809366009B9903C086E08093660080B3BC
:1002C00088232CF0E4E6F0E08081816080838599CA
:1002D00005C0E4E6F0E0808182608083869905C0F5
:1002E000E4E6F0E0808184608083B09905C0E4E6B4
:1002F000F0E0808188608083B19905C0E4E6F0E099
:10030000808180618083B39905C0E4E6F0E080815C
:1003100080648083B29905C0E4E6F0E08081806269
:100320008083B49905C0E4E6F0E080818068808332
:1003300094FF0AC0989908C0999906C0E5E6F0E0D4
:100340008081806180830EC0989905C0E5E6F0E069
:10035000808182608083999905C0E5E6F0E0808124
:1003600081608083B59905C0E5E6F0E08081806119
:10037000808308951F93CF93DF9380E090E090D423
:10038000982F809360008F3F11F0182F01C014E068
:1003900099995AC0E1E3F0E0808182608083E3E3D1
:1003A000F0E0A0E3B0E024E0C6E3D0E04AC0808102
:1003B00084FD05C0812F8460182F157F0FC08081B8
:1003C00083FD05C0812F817F182F126007C08081B7
:1003D00082FD04C0812F897F182F1860808185FFDE
:1003E00014608C9185FD06C0808183FF1E7F808113
:1003F00082FF11608C9186FF122F8C91882334F03C
:10040000808183FF1F7E808182FF1061888180FD53
:1004100018C0808184FD02C01F7913C0808183FDD4
:1004200005C0812F8062182F1F7B0BC0808182FD49
:1004300005C0812F8F7D182F106403C0808185FF38
:100440001066808180FDB3CF191731F080E090E015
:10045000612F2ED410936000DF91CF911F910895EA
:1004600014BA8FE385BB17BA88BB89E081BB81EEE4
:1004700082BB80DF9C9907C0809160008460857F8B
:100480008093600011C09B9907C080916000817FBC
:1004900082608093600008C09A9906C080916000D5
:1004A000897F88608093600080B3882354F4B09B78
:1004B00008C0B29B06C0859B04C0869B02C0B19950
:1004C00008C08091600080FD02C06BDE089556DE9A
:1004D00008958091600080FD02C050DE089561DEC5
:1004E0000895CF92DF92EF92FF920F931F93CF93D5
:1004F000DF93B6DF80916D00882309F069C0E1E3E6
:10050000F0E080818260808388EB9BE02CE231E028
:10051000F9013197F1F70197D9F7E1E3F0E0808134
:100520008D7F8083D1D07894C9E7D0E00F2EF4E698
:10053000EF2EF0E0FF2EF02D00E310E00F2EF3E39E
:10054000CF2EDD24F02DD2D0888184FFFCCF909176
:10055000600095FF38C096FD36C0F801808184FDAB
:100560000AC0F601808186FF06C0892F817F8260E4
:100570008093600028C0F801808184FF0AC0F601E2
:10058000808186FD06C0892F897F88608093600006
:100590001AC0F801808184FF0AC0F601808186FFBD
:1005A00006C0892F8460857F809360000CC0F801AD
:1005B000808184FD08C0F601808186FD04C0892FFA
:1005C000817F809360001CDEC70167E0CAD1BBCF8A
:1005D000813009F06EC080916000482F50E085FFA7
:1005E00002C086FD26C041FF0BC0E2E3F0E080813F
:1005F0008F7E8083E5E3F0E080818064808319C092
:1006000043FF0BC0E2E3F0E0808180618083E5E39B
:10061000F0E080818F7B80830CC042FF0AC0E2E360
:10062000F0E0808180618083E5E3F0E08081806498
:1006300080839A0120713070A3E3B0E0E8E3F0E03A
:100640004076507006E310E065E370E00F2EF2E3B1
:10065000EF2EFF24F02D2115310569F08C9180FDDE
:1006600007C08C9181FD04C080818F7D808303C091
:100670008081806280834036510569F7E801888176
:1006800083FD05C0E70188818061888304C0E7019C
:1006900088818F7E8883E801888184FD05C0EB0115
:1006A000888180648883D7CFEB0188818F7B8883A2
:1006B000D2CF80E090E0DF91CF911F910F91FF901A
:1006C000EF90DF90CF900895E5E5F0E080818360C2
:1006D0008083EBE5F0E0808180648083EAE7F0E0EE
:1006E0008BE4808331978AE5808308951F93CF93AD
:1006F000DF9380918A00982F93500AF4B5C020911F
:100700008700809186008D3209F0ACC0983009F0E6
:10071000A9C08CE090E0821B9109FC01E257FF4FD9
:10072000EF0183EC80936E008AE580936100109264
:100730006C008081807621F0CF01F4DC982F89C095
:100740009281109277008181882331F4E8E7F0E00C
:10075000108292E0319779C0853031F490938B000C
:1007600090E0E7E7F0E071C0863009F04EC0838189
:10077000813041F488EB90E0909389008093880069
:1007800092E13FC0823041F48AEC90E0909389007E
:100790008093880092E235C08330F1F4992341F4CC
:1007A0008AE790E0909389008093880094E029C0C4
:1007B000913041F48EE790E0909389008093880017
:1007C00092E11FC09230E1F480E990E090938900BB
:1007D0008093880098E215C0813241F48CED90E05E
:1007E000909389008093880099E00BC0823241F495
:1007F00086E290E0909389008093880094E501C0A0
:1008000090E080E480936C0024C0883021F491E073
:10081000EDE8F0E01AC0893031F490938D0090E05B
:10082000E7E7F0E012C08A3021F491E0E7E7F0E07A
:100830000CC08B3021F090E0E7E7F0E006C08BE4DD
:1008400080937A0090E0E7E7F0E0F0938900E0938E
:1008500088008F81882321F48E81891708F4982FCE
:100860009093620010928A008091610084FF56C0CC
:10087000109162001F3F09F451C0193008F05BC0AD
:1008800010926200EEE6F0E0808198E8892780838C
:10089000112309F45CC02091880030918900809177
:1008A0006C0086FF14C0AFE6B0E080E090E0F90194
:1008B000E80FF91FE491ED9301961817C1F7812F06
:1008C000815090E00196F901E80FF91F0FC0D9019E
:1008D000912FEFE6F0E08D9181939150E1F7812F18
:1008E000815090E00196F901E80FF91FF09389001B
:1008F000E0938800193060F48FE690E0612F70D0AB
:10090000612F6C5F6C3040F48FEF8093620004C005
:100910008FEF809362006EE1609361009AE0E0E304
:10092000F0E080818670C9F49150D9F710928B0065
:100930001092850012C0812F885080936200EEE6ED
:10094000F0E0808198E88927808318E0A4CF8FE6C3
:1009500090E060E045D064E0D7CFDF91CF911F9168
:100960000895FF920F931F93DC01F62E809179007A
:1009700084FF07C0EAE7F0E0808198E88927808358
:1009800003C08AE5809379009F2DEBE7F0E08D911D
:10099000819391501916DCF30BE710E0C8016F2D1D
:1009A0001FD08F2D8C5F02501040F80180831F9163
:1009B0000F91FF900895A82FB92F80E090E041E0BB
:1009C00050EA60956F5F58F42D9138EF8227979524
:1009D000879510F0842795273F5FC8F3F3CF0895DC
:1009E000EADF8D939D930895CF93CFB7CF93819BEB
:1009F000FECF819B09C0819B07C0819B05C0819B65
:100A000003C0819B01C0A3C0DF93C0918700DD2795
:100A1000C257DF4F819B02C0DF91EBCF2F930F9323
:100A20001F9300B32FEF01FB20F94F933F9310B3B7
:100A30004FEF012701FB21F93BE031C04E7F012F31
:100A400010B3216028C0102F4D7F2260000000B33A
:100A500029C04B7F2460012F000010B32BC010B3BE
:100A6000477F28602AC04F7E00B320612CC04F7D95
:100A700010B320622FC04F7B00B3206432C04227E6
:100A800000B349934FEF0000102711FB20F910B37A
:100A90001670C9F1297F91F2012701FB21F900B3FA
:100AA000237F89F2315058F1102711FB22F910B33E
:100AB000277E79F2012701FB23F92F7C81F200B315
:100AC000102711FB24F92F7971F200C010B3012710
:100AD00001FB25F92F7359F200C000B3102711FB59
:100AE00026F9223040F200C010B3012701FB27F99C
:100AF000243028F64F77206810B30000F9CF10E4B7
:100B00001ABF002719C03B503195C31BD04010E4D9
:100B10001ABF0881033CF9F00B34E9F020918500FD
:100B20001981110F1213EDCF4A81441F093641F18B
:100B30000D3211F0013E29F700938C003F914F9147
:100B40001F910F912F91DF91CAB7C6FD50CFCF9162
:100B5000CFBFCF91189500918C00002379F31091AD
:100B60008A001123A1F53430A2F130938A0000935A
:100B70008600109187003BE0311B3093870029C02D
:100B800000918A0001301CF50AE54F7049F430915C
:100B9000610034FD20C000936100CEE6D0E01FC0AC
:100BA0003091790034FD17C000937900CAE7D0E096
:100BB00016C0052710E002BB1FC0052722C005276D
:100BC00027C005272CC0052710E002BB33C04AE52B
:100BD00003C042ED01C0432FC4E1D0E032E011B3C5
:100BE0001660919A02B311BB5F9356E020E820FF94
:100BF000052702BB279517951C3FD8F620FF052730
:100C0000279502BB17951C3FC0F620FF05272795A7
:100C1000179502BB1C3F98F620FF052727951795CF
:100C20001C3F02BB70F600C0499120FF052702BBA4
:100C3000279517951C3F38F620FF0527279502BBFF
:100C400017951C3F38F520FF05272795179502BB00
:100C50001C3F10F520FF0527279517951C3F02BB69
:100C6000E8F4242F3A9519F6097F5F9102BB1091A1
:100C70008B00110FC651D04011F01093850010E485
:100C80001ABF026011B3197F402F497F02BB11BB0D
:100C900042BB54CF0527D3CF0527D8CF0527DDCFBB
:100CA000E199FECF9FBB8EBBE09A99278DB3089543
:100CB000262FE199FECF9FBB8EBB2DBB0FB6F894BC
:0E0CC000E29AE19A0FBE01960895F894FFCFD4
:040CCE00FF5AFF00CA
:00000001FF
