:100000000C94A2010C9475160C94BF010C94BF01C2
:100010000C94BF010C94BF010C94BF010C94BF0160
:100020000C94BF010C94BF010C94BF010C94BF0150
:100030000C94BF010C94BF010C94BF010C94BF0140
:100040000C94BF010C94BF010C94BF010C94BF0130
:100050000C94BF010C94BF010C94BF010C94BF0120
:100060000C94BF010C94BF011201100100000008A4
:10007000C016DF050003010200011A037A007500B3
:10008000720062006F00720067002E0069006E004F
:1000900066006F0032034400750061006C002000B0
:1000A00053007400720069006B0065002000560068
:1000B00033002E0030002E003000200028005000B9
:1000C00053003300290005010904A101A1027501B3
:1000D000950D150025013500450105091901290D6A
:1000E0008102950381010501750495012507463BB1
:1000F00001651409398142650095018103A10075EC
:100100000295042502450209300931093209358179
:1001100002C0C07508950826FF0046FF000600FFD4
:10012000092009210922092309240925092609276B
:1001300009280929092A092B950C81020A2126B1CF
:1001400002C009022200010100807D0904000001B3
:1001500003000000092101010001227C0007058144
:100160000308000112011001000000080304288E9A
:1001700000030102000134034400750061006C00BB
:10018000200053007400720069006B0065002000BD
:10019000560033002E0030002E00300020002800D2
:1001A0004D0041004D0045002900050109061500DC
:1001B0002501350045017501A10185010507095299
:1001C000094F0951095009E009E209E10928092903
:1001D000092C092B093B093C090409070909090AEB
:1001E000090C090E0913091409150916091A091B26
:1001F000091D091E091F0922092309260901952045
:100200008102C0050C0901A101850209E909EA95ED
:1002100002810295068101C00902220001010080CD
:100220007D09040000010300000009210101000113
:10023000226E00070581030800041201100100006E
:1002400000080304298E0003010200013403440066
:10025000750061006C00200053007400720069009A
:100260006B0065002000560033002E0030002E0089
:10027000300020002800580042006F00780029005C
:1002800009022000010100803209040000025842E6
:1002900000000705820308000407050203080004A4
:1002A0001201100100000008C016DF050003010262
:1002B00000012A0370006F0068006C002D006D00C3
:1002C000690063006800610065006C004000670021
:1002D0006D0078002E00620069007A000E0348006D
:1002E000490044002000450050000600FF0901A11C
:1002F00001150026FF007508850195060900B20268
:1003000001850295840900B2020185039503090065
:10031000B20201850495830900B20201C0090222DC
:1003200000010100807D09040000010300000009B4
:100330002101010001223300070581030800C804E0
:100340000309040011241FBECFEFD4E0DEBFCDBFF0
:1003500011E0A0E0B1E0ECE0F0E302C005900D9206
:10036000A437B107D9F712E0A4E7B1E001C01D92AC
:10037000AA3CB107E1F70E9455040C9404180C94B0
:100380000000AC0120E030E0F901E050FF4FDA015D
:10039000A20FB31F90818C91981711F081E00895FE
:1003A0002F5F3F4F2231310579F780E00895589A49
:1003B00081E090E00895589A82E090E00895589A7C
:1003C00083E090E0089590910301892F86958695AA
:1003D0008370813051F54C990BC0369B09C08091D8
:1003E00002018064809302019E7F9093030108952F
:1003F0004C9B0DC036990BC0809102018F7B80937E
:1004000002018091030181608093030108954C9B58
:100410000CC0369B0AC0809102018F7B8093020141
:10042000809103018E7F80930301089580910301E1
:1004300081FD3D9A8695869590E083709070029735
:10044000029710F4549A3E9A0E94960558985B9A27
:1004500080E090E008958091020190E083709070B8
:10046000009721F4589A21E030E010C081309105C6
:1004700021F4589A22E030E009C0029721F4589AFA
:1004800023E030E003C00E9416029C01C9010895D8
:10049000CF93DF93EC0120E030E0F901E050FF4F13
:1004A000DE01A20FB31F90818C91981731F42F5F5A
:1004B0003F4F2231310589F716C0CE0160E070E070
:1004C00042E150E00E94EC1720E030E0F901E050FA
:1004D000FF4FDE01A20FB31F8C9180832F5F3F4F30
:1004E0002231310599F7DF91CF910895CF93DF93B2
:1004F000EC0180E091E060E070E042E150E00E94B9
:10050000DC1780910001823021F48091010181305B
:1005100011F132E0388381E089838CE38A8380E3C0
:100520008B8324E32C8384E48D838AE08E838CE2A6
:100530008F8393E29887298788E28A8783E08B8775
:1005400082E28C879D8786E58E8781E18F878AE1AD
:10055000888B398B0FC020E030E0FE01E20FF31FE3
:10056000D901A050BF4F8C9180832F5F3F4F223124
:10057000310599F7DF91CF9108956F927F928F9215
:100580009F92AF92BF92CF92DF92EF92FF920F9322
:100590001F93DF93CF93CDB7DEB762970FB6F89472
:1005A000DEBF0FBECDBFCE0101960E94760231990B
:1005B000C2C0589A0E94611202C00E944D12309B24
:1005C00010C01A9B0EC01D9B0CC04D9B0AC01B9BEC
:1005D00008C01C9B06C0329B04C0339B02C03499E8
:1005E000ECCF5898CE0101960E94760280910201CC
:1005F00090E0FC01E470F070BC0168707070AC01B8
:10060000407150709C0120723070B2E06624639497
:100610009CE3892E80E3782EA4E304E4902E1AE074
:10062000B12E9CE2A92E93E288E2D82E03E0C02EE0
:1006300012E2E12E86E5F82E01E11AE17AC01C995A
:1006400012C0B9836A828B827C82AD839E82BF8214
:10065000A8869987AA87DB86CC86ED869E87FF864B
:10066000088B198BBA8B1B9B1DC01C9B1BC01A9B34
:1006700019C01D9B17C0329B15C04E9903C08B81BA
:100680008F7B04C0189906C08B8180648B838C811A
:100690008E7F07C0199906C08B818F7B8B838C81DD
:1006A00081608C831B9921C0309729F0189903C071
:1006B0008B818C7F19C06115710531F04E9904C092
:1006C0008B8181608D7F10C04115510531F01999E2
:1006D00004C08B8182608E7F07C02115310529F00F
:1006E0004F9903C08B8183608B831A990AC0189934
:1006F00003C08C818D7F8C83199903C08C818260AB
:100700008C831D9916C04E9903C08C81837F10C0C5
:10071000189904C08C818460877F0AC0199904C02D
:100720008C8188608B7F04C04F9903C08C818C6062
:100730008C83309984CFCE0101960E944802629644
:100740000FB6F894DEBF0FBECDBFCF91DF911F91E2
:100750000F91FF90EF90DF90CF90BF90AF909F9060
:100760008F907F906F900895CF93DF9317B88FE3AA
:1007700088B914B885B989E08AB980EE8BB90E942E
:10078000BD024E9904C0809102018F7B05C018996B
:1007900009C080910201806480930201809103016D
:1007A0008E7F0AC019990AC0809102018F7B8093C5
:1007B0000201809103018160809303018091030114
:1007C000869586958370813011F45C9A469A809163
:1007D0000201482F50E0CA01969587959695879516
:1007E000682F6170262F30E0FA01E870F07043FF47
:1007F00002C02F5F3F4FDA01A071B07044FF02C00A
:100800002F5F3F4FEA01C072D07045FF02C02F5FDB
:100810003F4F2230310501F51B9B0AC01C9B08C0CD
:100820001A9B06C01D9B04C04D9B02C0339936C065
:10083000CA0183709070009729F06623A1F481307B
:10084000910529F0EF2BB9F48230910511F1AB2B12
:10085000D1F4039719F11DC023303105FCF01B9929
:1008600006C0662321F0589A21E030E01AC01C9996
:1008700006C0EF2B21F0589A22E030E012C01A99FE
:1008800006C0AB2B21F0589A23E030E00AC01D9936
:1008900005C0CD2B19F00E94160202C00E942B0247
:1008A0009C01C901DF91CF9108950E94B40381306A
:1008B000910579F0823091051CF4892B39F011C033
:1008C0008230910549F0039761F409C00E947404D5
:1008D00008C00E94A31305C00E948F1302C00E948B
:1008E000961280E090E0089560910301862F86952E
:1008F0008695482F50E0437050704230510501F505
:1009000080910201829586958695837090E09C0186
:100910002170307080FF04C060FD02C05C980FC081
:10092000232B71F4862F90E09C012170307060FFC2
:1009300003C05C9A469804C0232B11F45C9A469A33
:10094000862F90E082709070009739F0309904C043
:10095000319902C0459801C0459A43305105A1F72D
:10096000349902C05C9A01C05C98329902C0469AE0
:10097000EBCF4698E9CFFC0180912A01813049F004
:10098000813008F48CC08230A9F1833009F0CCC0EA
:100990005CC08381833089F0843030F4813051F041
:1009A000823009F0C1C018C08132C9F0823209F02A
:1009B000BBC018C088E690E083C08281813009F412
:1009C00056C0823009F0B0C084E990E09093A30251
:1009D0008093A20282E3089582E491E08FC084E5CF
:1009E00091E094C086EC90E09093A3028093A202E1
:1009F0008CE708958381833089F0843030F481302E
:100A000051F0823009F090C012C0813299F08232E8
:100A100009F08AC012C084E691E052C08281813020
:100A200031F1823009F080C086E791E02AC088E188
:100A300092E064C08AE292E069C08AEA91E0909311
:100A4000A3028093A2028EE6089583818230F9F09A
:100A5000833031F0813009F067C08AE392E030C022
:100A60008281813021F0823009F05EC008C08AE7BF
:100A700090E09093A3028093A2028AE108958CE40F
:100A800092E09093A3028093A20284E3089580E809
:100A900092E09093A3028093A20280E20895838162
:100AA0008330A1F0843028F4813041F08230E1F5C8
:100AB00023C0813249F18232B9F52EC080EA92E03A
:100AC0009093A3028093A20282E1089582818130F3
:100AD00019F0823049F508C082EB92E09093A302AE
:100AE0008093A2028AE208958CED92E09093A30293
:100AF0008093A2028EE008958DE193E09093A3028B
:100B00008093A20282E208958FE293E09093A30281
:100B10008093A20289E008958AEE92E09093A30266
:100B20008093A20283E3089580E00895519A88EBB0
:100B30009BE02CE231E0F9013197F1F70197D9F709
:100B4000089510928101109280018FE080938201BC
:100B500085E58093830110928F0110928E0110928F
:100B60008D0110928C0110928B0110928A011092CB
:100B700089011092880110928701109286011092CB
:100B800085011092840108950E94A10580910201BF
:100B9000829586958695837080FF1FC080910301A2
:100BA00080FD80C04E9904C080918301837F06C080
:100BB0004F9906C08091830188608B7F8093830169
:100BC000189904C0809183018C7F25C019996AC04F
:100BD0008091830182608E7F1EC08091030180FF1F
:100BE000D3C04E9904C0809183018F7306C04F9982
:100BF00006C08091830180688F7B80938301189960
:100C000004C0809183018F7C06C019994BC08091EC
:100C1000830180628F7E8093830144C0189907C04E
:100C200087E0809382018FEF8093860119C0199924
:100C300007C081E0809382018FEF8093860130C0EE
:100C4000109282018FEF809386012CC04F991BC0B8
:100C5000189909C085E0809382018FEF8093870106
:100C6000809385011FC0199907C083E0809382019A
:100C70008FEF8093870114C084E0809382018FEF0F
:100C8000809387010FC0189905C086E08093820188
:100C90008FEFE6CF199906C082E0809382018FEF33
:100CA000809384011A9908C08091800181608093AB
:100CB00080018FEF80938B011D9908C08091800186
:100CC0008860809380018FEF809388014D9908C0E0
:100CD000809180018062809380018FEF80938D01ED
:100CE0001B9908C0809180018260809380018FEF02
:100CF00080938A011C9908C0809180018460809350
:100D000080018FEF80938901329908C08091800122
:100D10008068809380018FEF80938F01339908C0A2
:100D2000809180018061809380018FEF80938C019E
:100D3000349908C0809180018064809380018FEF96
:100D400080938E018091030181FF08C0309906C015
:100D5000319904C08091810180610CC0309905C037
:100D600080918101826080938101319905C08091D9
:100D70008101816080938101359909C08091810151
:100D800080618093810108954E9B48CF5FCF089585
:100D900081E08093800182E0809389010895E5E8F5
:100DA000F1E0AF0144505040DA018C91809385010D
:100DB0009F0123503040D9018C9180938601DF013F
:100DC00012978C9180938701829180938801108281
:100DD0001C92F9011082DA011C9210928A01089586
:100DE0008091030182958F7090E0877090700097DA
:100DF00019F48FEF9FEF24C08130910529F41092F0
:100E00002E0110922D0120C08230910519F481E04D
:100E100090E016C08330910519F482E090E010C094
:100E20008430910519F483E090E00AC08530910583
:100E300019F484E090E004C0069731F485E090E076
:100E400090932E0180932D0120910401822F90E038
:100E500087709070009719F48FEF9FEF24C0813056
:100E6000910529F41092300110922F0120C0823098
:100E7000910519F481E090E016C08330910519F4D2
:100E800082E090E010C08430910519F483E090E096
:100E90000AC08530910519F484E090E004C00697FB
:100EA00031F485E090E09093300180932F01822F00
:100EB00086958695869590E087709070009719F4D6
:100EC0008FEF9FEF24C08130910529F410923201F9
:100ED0001092310120C08230910519F481E090E038
:100EE00016C08330910519F482E090E010C0843080
:100EF000910519F483E090E00AC08530910519F45A
:100F000084E090E004C0069731F485E090E090938F
:100F10003201809331012295269526952370822FE8
:100F200090E09C012170307080FD0AC08091050125
:100F300090E083709070892B19F48FEF9FEF42C07F
:100F4000422F222361F08091050190E08370907020
:100F5000892B29F4109234011092330137C02115E6
:100F6000310541F48091050190E0837090708130EB
:100F7000910541F1442341F0809105018370813056
:100F800019F482E090E01EC02115310541F48091F2
:100F900005018370823019F483E090E013C044238C
:100FA00041F0809105018370823019F484E090E073
:100FB00009C0232B59F4809105018370833031F4EB
:100FC00085E090E0909334018093330120910501F6
:100FD000822F8695869590E087709070009719F41F
:100FE0008FEF9FEF24C08130910529F410923601D4
:100FF0001092350120C08230910519F481E090E013
:1010000016C08330910519F482E090E010C084305E
:10101000910519F483E090E00AC08530910519F438
:1010200084E090E004C0069731F485E090E090936E
:1010300036018093350122952695277030E0237084
:1010400030702115310539F48091060180FD03C00F
:101050008FEF9FEF3DC02130310549F480910601AB
:1010600080FD05C0109238011092370135C0223042
:10107000310539F48091060180FD03C081E090E0E4
:1010800027C02330310539F48091060180FD0DC061
:1010900082E090E01DC02115310539F480910601F0
:1010A00080FF03C083E090E013C02130310539F4A4
:1010B0008091060180FF03C084E090E009C02230E7
:1010C000310551F48091060180FF06C085E090E073
:1010D000909338018093370120910601822F8695E5
:1010E00090E087709070009719F48FEF9FEF24C005
:1010F0008130910529F410923A011092390120C0F3
:101100008230910519F481E090E016C0833091059A
:1011100019F482E090E010C08430910519F483E066
:1011200090E00AC08530910519F484E090E004C095
:10113000069731F485E090E090933A01809339016D
:1011400022952F70822F90E087709070009719F48D
:101150008FEF9FEF24C08130910529F410923C015C
:1011600010923B0120C08230910519F481E090E09B
:1011700016C08330910519F482E090E010C08430ED
:10118000910519F483E090E00AC08530910519F4C7
:1011900084E090E004C0069731F485E090E09093FD
:1011A0003C0180933B0120910701822F90E08770E2
:1011B0009070009719F48FEF9FEF24C08130910554
:1011C00029F410923F0110923E0120C08230910517
:1011D00019F481E090E016C08330910519F482E0A3
:1011E00090E010C08430910519F483E090E00AC0CB
:1011F0008530910519F484E090E004C0069731F43D
:1012000085E090E090933F0180933E01822F869588
:101210008695869590E087709070009719F48FEF0F
:101220009FEF24C08130910529F410924101109262
:10123000400120C08230910519F481E090E016C091
:101240008330910519F482E090E010C0843091055C
:1012500019F483E090E00AC08530910519F484E028
:1012600090E004C0069731F485E090E0909341014E
:10127000809340012295269526952370822F90E039
:101280009C012170307080FD0AC08091080190E0BF
:1012900083709070892B19F48FEF9FEF42C0422F1B
:1012A000222361F08091080190E083709070892B77
:1012B00029F4109243011092420137C021153105E3
:1012C00041F48091080190E0837090708130910525
:1012D00041F1442341F0809108018370813019F479
:1012E00082E090E01EC02115310541F48091080193
:1012F0008370823019F483E090E013C0442341F0FE
:10130000809108018370823019F484E090E009C074
:10131000232B59F4809108018370833031F485E0E8
:1013200090E0909343018093420120910801822F25
:101330008695869590E087709070009719F48FEFEE
:101340009FEF24C08130910529F41092450110923D
:10135000440120C08230910519F481E090E016C06C
:101360008330910519F482E090E010C0843091053B
:1013700019F483E090E00AC08530910519F484E007
:1013800090E004C0069731F485E090E09093450129
:101390008093440122952695277030E023703070A9
:1013A0002115310539F48091090180FD03C08FEFCB
:1013B0009FEF3DC02130310549F48091090180FD46
:1013C00005C0109247011092460135C02230310508
:1013D00039F48091090180FD03C081E090E027C0CD
:1013E0002330310539F48091090180FD0DC082E080
:1013F00090E01DC02115310539F48091090180FF6D
:1014000003C083E090E013C02130310539F48091AE
:10141000090180FF03C084E090E009C0223031055B
:1014200051F48091090180FF06C085E090E090931F
:1014300047018093460120910901822F869590E013
:1014400087709070009719F48FEF9FEF24C0813060
:10145000910529F4109249011092480120C0823070
:10146000910519F481E090E016C08330910519F4DC
:1014700082E090E010C08430910519F483E090E0A0
:101480000AC08530910519F484E090E004C0069705
:1014900031F485E090E090934901809348012295D2
:1014A0002F70822F90E087709070009719F48FEF63
:1014B0009FEF24C08130910529F410924B011092C6
:1014C0004A0120C08230910519F481E090E016C0F5
:1014D0008330910519F482E090E010C084309105CA
:1014E00019F483E090E00AC08530910519F484E096
:1014F00090E004C0069731F485E090E090934B01B2
:1015000080934A0120910A01822F90E087709070A9
:10151000009719F48FEF9FEF24C08130910529F4D3
:1015200010924D0110924C0120C08230910519F4A7
:1015300081E090E016C08330910519F482E090E0DC
:1015400010C08430910519F483E090E00AC0853022
:10155000910519F484E090E004C0069731F485E029
:1015600090E090934D0180934C01822F8695869553
:10157000869590E087709070009719F48FEF9FEF39
:1015800024C08130910529F410924F0110924E0130
:1015900020C08230910519F481E090E016C08330BC
:1015A000910519F482E090E010C08430910519F49F
:1015B00083E090E00AC08530910519F484E090E062
:1015C00004C0069731F485E090E090934F0180933A
:1015D0004E012295269526952370822F90E09C013E
:1015E0002170307080FD0AC080910B0190E0837003
:1015F0009070892B19F48FEF9FEF42C0422F222366
:1016000061F080910B0190E083709070892B29F438
:10161000109251011092500137C02115310541F44B
:1016200080910B0190E0837090708130910541F1C1
:10163000442341F080910B018370813019F482E0E2
:1016400090E01EC02115310541F480910B0183709B
:10165000823019F483E090E013C0442341F080917C
:101660000B018370823019F484E090E009C0232BD1
:1016700059F480910B018370833031F485E090E060
:10168000909351018093500120910B01822F8695F8
:10169000869590E087709070009719F48FEF9FEF18
:1016A00024C08130910529F4109253011092520107
:1016B00020C08230910519F481E090E016C083309B
:1016C000910519F482E090E010C08430910519F47E
:1016D00083E090E00AC08530910519F484E090E041
:1016E00004C0069731F485E090E090935301809315
:1016F000520122952695277030E023703070211515
:10170000310539F480910C0180FD03C08FEF9FEF0C
:101710003DC02130310549F480910C0180FD05C0A8
:10172000109255011092540135C02230310539F420
:1017300080910C0180FD03C081E090E027C0233040
:10174000310539F480910C0180FD0DC082E090E0FC
:101750001DC02115310539F480910C0180FF03C0B3
:1017600083E090E013C02130310539F480910C0101
:1017700080FF03C084E090E009C02230310551F4BD
:1017800080910C0180FF06C085E090E090935501A8
:101790008093540120910C01822F869590E08770F0
:1017A0009070009719F48FEF9FEF24C0813091055E
:1017B00029F4109257011092560120C082309105F1
:1017C00019F481E090E016C08330910519F482E0AD
:1017D00090E010C08430910519F483E090E00AC0D5
:1017E0008530910519F484E090E004C0069731F447
:1017F00085E090E0909357018093560122952F70D9
:10180000822F90E087709070009719F48FEF9FEF10
:1018100024C08130910529F4109259011092580189
:1018200020C08230910519F481E090E016C0833029
:10183000910519F482E090E010C08430910519F40C
:1018400083E090E00AC08530910519F484E090E0CF
:1018500004C0069731F485E090E09093590180939D
:10186000580120910D01822F90E0877090700097B1
:1018700019F48FEF9FEF24C08130910529F4109265
:101880005B0110925A0120C08230910519F481E069
:1018900090E016C08330910519F482E090E010C00A
:1018A0008430910519F483E090E00AC085309105F9
:1018B00019F484E090E004C0069731F485E090E0EC
:1018C00090935B0180935A01822F86958695869529
:1018D00090E087709070009719F48FEF9FEF24C00D
:1018E0008130910529F410925D0110925C0120C0B5
:1018F0008230910519F481E090E016C083309105A3
:1019000019F482E090E010C08430910519F483E06E
:1019100090E00AC08530910519F484E090E004C09D
:10192000069731F485E090E090935D0180935C012F
:101930002295269526952370822F90E09C01217098
:10194000307080FD0AC080910E0190E0837090702D
:10195000892B19F48FEF9FEF42C0422F222361F0B1
:1019600080910E0190E083709070892B29F4109281
:101970005F0110925E0137C02115310541F480915D
:101980000E0190E0837090708130910541F1442305
:1019900041F080910E018370813019F482E090E073
:1019A0001EC02115310541F480910E0183708230F3
:1019B00019F483E090E013C0442341F080910E01BC
:1019C0008370823019F484E090E009C0232B59F42D
:1019D00080910E018370833031F485E090E0909324
:1019E0005F0180935E0120910E01822F869586957E
:1019F00090E087709070009719F48FEF9FEF24C0EC
:101A00008130910529F4109261011092600120C08B
:101A10008230910519F481E090E016C08330910581
:101A200019F482E090E010C08430910519F483E04D
:101A300090E00AC08530910519F484E090E004C07C
:101A4000069731F485E090E0909361018093600106
:101A500022952695277030E02370307021153105CE
:101A600039F480910F0180FD03C08FEF9FEF3DC0DF
:101A70002130310549F480910F0180FD05C010929D
:101A800063011092620135C02230310539F4809132
:101A90000F0180FD03C081E090E027C023303105B5
:101AA00039F480910F0180FD0DC082E090E01DC0EF
:101AB0002115310539F480910F0180FF03C083E0C7
:101AC00090E013C02130310539F480910F0180FF7F
:101AD00003C084E090E009C02230310551F48091C8
:101AE0000F0180FF06C085E090E090936301809332
:101AF000620120910F01822F869590E0877090708F
:101B0000009719F48FEF9FEF24C08130910529F4DD
:101B1000109265011092640120C08230910519F481
:101B200081E090E016C08330910519F482E090E0E6
:101B300010C08430910519F483E090E00AC085302C
:101B4000910519F484E090E004C0069731F485E033
:101B500090E0909365018093640122952F70822F0D
:101B600090E087709070009719F48FEF9FEF24C07A
:101B70008130910529F4109267011092660120C00E
:101B80008230910519F481E090E016C08330910510
:101B900019F482E090E010C08430910519F483E0DC
:101BA00090E00AC08530910519F484E090E004C00B
:101BB000069731F485E090E0909367018093660189
:101BC00020911001822F90E087709070009719F497
:101BD0008FEF9FEF24C08130910529F410926901A5
:101BE0001092680120C08230910519F481E090E0E4
:101BF00016C08330910519F482E090E010C0843063
:101C0000910519F483E090E00AC08530910519F43C
:101C100084E090E004C0069731F485E090E0909372
:101C2000690180936801822F86958695869590E05C
:101C300087709070009719F48FEF9FEF24C0813068
:101C4000910529F410926B0110926A0120C0823034
:101C5000910519F481E090E016C08330910519F4E4
:101C600082E090E010C08430910519F483E090E0A8
:101C70000AC08530910519F484E090E004C006970D
:101C800031F485E090E090936B0180936A01229596
:101C9000269526952370822F90E09C01217030704C
:101CA00080FD0AC08091110190E083709070892BB3
:101CB00019F48FEF9FEF38C0422F222361F08091FB
:101CC000110190E083709070892B29F410926D01BE
:101CD00010926C0108952115310541F48091110194
:101CE00090E08370907081309105F1F0442341F0D1
:101CF000809111018370813019F482E090E014C06A
:101D00002115310541F4809111018370823019F45D
:101D100083E090E009C0442361F080911101837059
:101D2000823039F484E090E090936D0180936C01EF
:101D30000895232B59F4809111018370833031F47D
:101D400085E090E090936D0180936C0108958091FF
:101D50008101806180938101089580918101806279
:101D60008093810108958091820182608093820135
:101D7000089580918101806480938101089580910C
:101D80008401816080938401089580918401826040
:101D90008093840108958091820180628093820102
:101DA00008958091830180648093830108958091D8
:101DB000830180618093830108958091830180680D
:101DC00080938301089580918301846080938301CF
:101DD000089580918301826080938301089585E056
:101DE00085BD08951092780116BC089530916F0159
:101DF000332311F480E00895209178012F3FD9F426
:101E000081E00895231790F486B596B5975E96BD48
:101E100096B5891708F4A89A822F8B5F821750F421
:101E20008FEF80937801909178010EC02093780114
:101E3000A89AF9CF282FA899E5CF20937801F3CF5E
:101E400086B58E5286BD922F9F3F29F086B5292FE9
:101E50002F5F8E32A8F79093780180E0931708F0F7
:101E600081E0089580917E01882319F11B9908C0B3
:101E70008091810180688093810181E08093760167
:101E80001C9908C08091820181608093820181E069
:101E9000809376018091030181FFD6C03199D4C02F
:101EA0008091830188608093830181E08093760133
:101EB00008954E9904C080918101816005C04F99B9
:101EC00005C080918101846080938101189904C0CC
:101ED00080918101886005C0199905C080918101B8
:101EE0008260809381011B9911C0E0912B01F091D8
:101EF0002C010190F081E02DF7FD08C0EE0FFF1FCF
:101F0000EE5EFE4F0190F081E02D09951C9911C005
:101F1000E0912B01F0912C010280F381E02DF7FD7F
:101F200008C0EE0FFF1FEE5EFE4F0190F081E02D26
:101F30000995329911C0E0912B01F0912C01048098
:101F4000F581E02DF7FD08C0EE0FFF1FEE5EFE4F9E
:101F50000190F081E02D09951A9911C0E0912B01B3
:101F6000F0912C010084F185E02DF7FD08C0EE0F03
:101F7000FF1FEE5EFE4F0190F081E02D09951D9947
:101F800011C0E0912B01F0912C010284F385E02D2A
:101F9000F7FD08C0EE0FFF1FEE5EFE4F0190F081CF
:101FA000E02D09954D9911C0E0912B01F0912C0184
:101FB0000484F585E02DF7FD08C0EE0FFF1FEE5EEF
:101FC000FE4F0190F081E02D0995349911C0E09108
:101FD0002B01F0912C010680F781E02DF7FD08C060
:101FE000EE0FFF1FEE5EFE4F0190F081E02D099590
:101FF000339911C0E0912B01F0912C010684F785F3
:10200000E02DF7FD08C0EE0FFF1FEE5EFE4F0190C2
:10201000F081E02D099580917401882339F0809139
:10202000840184608093840110927401319905C009
:1020300080918401806180938401359905C08091ED
:10204000830188608093830108954E9906C0809132
:10205000830180628093830107C04F9905C08091FE
:102060008201806880938201189906C08091820164
:1020700080648093820107C0199905C08091830113
:102080008160809383011B9911C0E0912B01F09135
:102090002C010190F081E02DF7FD08C0EE0FFF1F2D
:1020A000E25EFE4F0190F081E02D09951C9911C070
:1020B000E0912B01F0912C010280F381E02DF7FDDE
:1020C00008C0EE0FFF1FE25EFE4F0190F081E02D91
:1020D0000995329911C0E0912B01F0912C010480F7
:1020E000F581E02DF7FD08C0EE0FFF1FE25EFE4F09
:1020F0000190F081E02D09951A9911C0E0912B0112
:10210000F0912C010084F185E02DF7FD08C0EE0F61
:10211000FF1FE25EFE4F0190F081E02D09951D99B1
:1021200011C0E0912B01F0912C010284F385E02D88
:10213000F7FD08C0EE0FFF1FE25EFE4F0190F08139
:10214000E02D09954D9911C0E0912B01F0912C01E2
:102150000484F585E02DF7FD08C0EE0FFF1FE25E59
:10216000FE4F0190F081E02D0995349911C0E09166
:102170002B01F0912C010680F781E02DF7FD08C0BE
:10218000EE0FFF1FE25EFE4F0190F081E02D0995FA
:10219000339911C0E0912B01F0912C010684F78551
:1021A000E02DF7FD08C0EE0FFF1FE25EFE4F01902D
:1021B000F081E02D099580917401882339F0809198
:1021C000840188608093840110927401319905C064
:1021D00080918401806280938401359905C080914B
:1021E00083018860809383018091030181FF0EC089
:1021F00080917E01882351F0319908C0809183013C
:1022000088608093830181E08093760108954E99E0
:1022100004C080918101816005C04F9905C0809103
:102220008101846080938101189904C080918101AB
:10223000886005C0199905C08091810182608093F2
:1022400081011A9905C08091810180688093810184
:102250001D9905C0809182018160809382011B9944
:1022600005C0809182018860809382011C9905C01D
:102270008091820180618093820180917401882322
:1022800039F0809182018460809382011092740100
:10229000319905C0809184018064809384013399D1
:1022A00005C080918A01816080938A01349905C0BC
:1022B00080918A01826080938A01089594E19093CD
:1022C000810180E18093940182E4809395011092D2
:1022D000960181E0809397018093980182E080933A
:1022E000990190939A0186E080939B01ECE9F1E0DB
:1022F0008FEF819391E0E43AF907D9F708951092AE
:1023000093011092920110929101109290011092FB
:102310008F0110928E0110928D0110928C011092FB
:102320008B0110928A0110928901109288011092FB
:1023300087011092860110928501109284011092FB
:102340008301109282011092800108950E947F11F2
:1023500080910201829586958695837080FF25C0C5
:102360008091030180FD5EC04E9907C08FEF80937E
:102370008E0180918F018F6705C04F9905C08091B4
:102380008F01806880938F01189904C080918D011E
:10239000806808C0199946C08FEF80938C018091A6
:1023A0008D018F6780938D013DC08091030180FF77
:1023B00070C04E9907C08FEF809392018091930176
:1023C0008F6705C04F9905C0809193018068809305
:1023D0009301189904C080919101806808C01999EF
:1023E00021C08FEF80939001809191018F6780933E
:1023F000910118C080918201816005C04F9905C08C
:1024000080918201826080938201189904C080913A
:102410008201846005C0199905C08091820188609D
:10242000809382011A9903C08FEF809386011D99D2
:1024300003C08FEF809387014D9903C08FEF809386
:1024400088011B9903C08FEF809384011C9903C0FE
:102450008FEF80938501329903C08FEF80938901BC
:10246000339903C08FEF80938A01349903C08FEFB3
:1024700080938B01309905C08091820180618093A7
:102480008201319909C0809182018062809382012A
:1024900008954E9BAFCFB2CF08950E94FD140895CA
:1024A000519A88EB9BE02CE231E0F9013197F1F78A
:1024B0000197D9F751980E94EC1478940E94FD146A
:1024C000089510922A010E9450120895CF92DF922F
:1024D000EF92FF920F931F93CF93DF936C017B01D9
:1024E00000E010E017C0E701C01BD10BC930D105D7
:1024F00014F0C8E0D0E0C601800F911F6C2F0E943D
:10250000521602C00E94FD148091BE0284FFFACFD1
:102510000C0F1D1F0E151F0530F3DF91CF911F917A
:102520000F91FF90EF90DF90CF90089583E080931C
:102530002A010E9450120E945E110E947F110E9487
:10254000FD140E94E3010E94A61180E891E064E17D
:1025500070E00E946612F3CFCF92DF92EF92FF926B
:102560000F931F93CF93DF936C017B0100E010E08A
:1025700017C0E701C01BD10BC930D10514F0C8E06A
:10258000D0E0C601800F911F6C2F0E94571602C029
:102590000E94FD148091930284FFFACF0C0F1D1F3F
:1025A0000E151F0530F3DF91CF911F910F91FF9012
:1025B000EF90DF90CF9008950E94CF0610927401A3
:1025C00036B13095317030937E01332309F44DC01C
:1025D00021E0209375011A992BC04E9909C08DE214
:1025E00091E090932C0180932B0120933D0129C011
:1025F000199908C08EE391E090932C0180932B01F0
:1026000082E013C04F9908C08EE491E090932C01B2
:1026100080932B0183E009C0189915C08EE591E0E5
:1026200090932C0180932B0184E080933D0109C09D
:102630004E9903C01092770104C04F9904C02093B3
:1026400077012093760180917701882371F418999E
:1026500004C081E080936E0106C0199906C082E033
:1026600080936E0181E080937601809176018823CA
:1026700039F0332381F410927601109275010BC06A
:10268000332349F480917501882329F01092750154
:1026900081E08093740180917701882329F03323AE
:1026A00071F40E9407110BC080916E01813019F402
:1026B0000E94320F04C0332311F40E9425100E949F
:1026C000F60E8823C1F490918501809181019817BD
:1026D00091F49091860180918201981761F4909114
:1026E000870180918301981731F49091880180913E
:1026F0008401981749F080E891E065E070E00E945D
:10270000AC121092780116BC80918A01882331F0B6
:1027100089E891E062E070E00E94AC1208951F9396
:1027200012E010932A010E9450120E94FD1481E0D1
:1027300080938001109389010E94F00685E085BD99
:102740000E94DC12FDCF81E080932A010E9450128A
:102750000E94FD140E94A10580E891E060E170E014
:102760000E94AC120E94FD140E94E3010E94C40565
:10277000F3CFDF92EF92FF920F931F93FC018091B2
:102780002A01882309F054C080917901823009F030
:1027900044C040917001509171014115510551F4AF
:1027A00031812281848180937C0110927D01359654
:1027B000655004C030917A0120917B01CA01860FD7
:1027C000911D909371018093700170E8D72ED822EB
:1027D00080917C0190917D01181619065CF5883076
:1027E00091050CF4682F032F122FE62EFF24CF0142
:1027F000B801A7010E94EC170E0D1F1D10937B015D
:1028000000937A0180917C0190917D018E199F093E
:1028100090937D0180937C010DC0833049F4318118
:10282000228130937A0120937B01DD24D39402C06E
:10283000DD24DA948D2D1F910F91FF90EF90DF90A2
:1028400008950F931F93FC019281238180912A01A7
:10285000813049F0813080F1823009F48AC08330C0
:1028600009F0B6C09EC080818076803209F0B0C089
:102870008181813009F0ACC0233009F0A9C09923CF
:1028800009F0A6C081E28093800186E280938101F5
:10289000109282011092830110928401109285019E
:1028A000109286011092870180E891E09093A30234
:1028B0008093A20288E08DC080818076803209F00A
:1028C00087C08181893069F4923029F410927101B6
:1028D0001092700103C0933009F07AC0909379018F
:1028E00028C0813009F074C09130C1F49093800108
:1028F00084E080938101109282011092830182E032
:1029000080938401109285011092860180E891E005
:102910009093A3028093A20287E05BC0943009F0F9
:1029200057C060917A0170917B0182E06030780736
:1029300010F08FEF4EC040E052E0461B570B40387E
:10294000510510F040E850E000E811E084E0809389
:102950008001409381011092820110928301C8018D
:1029600004960E94DC171093A3020093A20284E84D
:1029700030C080818076803259F58181823051F477
:10298000923030F58FE691E09093A3028093A202FB
:1029900081E01FC08A30E1F49230D0F420936F01BF
:1029A00017C080818076803459F48181863081F42B
:1029B00084E991E09093A3028093A20280E109C090
:1029C00080E891E09093A3028093A20284E101C089
:1029D00080E01F910F910895E9E6F0E08081836027
:1029E0008083E89A8BE4809394028093BF028AE507
:1029F000809393028093BE0208951F93CF93DF9339
:102A00006091A402635067FDC4C08091A102CCE034
:102A1000D0E0C81BD109C855DD4F8091A0028D328E
:102A200009F0A4C0683009F0B2C083EC809388023A
:102A30008AE58093720110927F019881892F8076B8
:102A400029F0CE010E942114282F7DC02A813C81CB
:102A5000109291028981882381F49F71923049F408
:102A6000313839F4809193028E3119F481E08093EA
:102A700091021092920222E05FC0813011F0833007
:102A800099F4222309F057C0313809F054C081303D
:102A900011F08EE101C08AE5809393028BE480936C
:102AA00094028093BF0247C0853019F42093A50299
:102AB00042C0863029F58B818130C1F08230B1F07F
:102AC000833081F48A81882341F48FE393E09093EB
:102AD000A3028093A20224E00FC0813039F082303B
:102AE00051F404C0813211F0823229F4CE010E94E7
:102AF000BB04282F01C020E080E480937F0123C025
:102B0000883021F421E087EA92E018C0893019F476
:102B10002093A7020BC08A3011F421E00DC08B3046
:102B200051F48BE4809394028093BF028AE58093F2
:102B300093028093BE0220E081E992E09093A30289
:102B40008093A20209C02F3F39F4888187FD2E812E
:102B500080E880937F0106C08F81882319F48E81DD
:102B6000821708F0822F8093730111C080917F013A
:102B700087FF0DC0CE010E94B9138F3F21F48EE173
:102B80008093720104C0882311F010927301109297
:102B9000A4028091720184FF4AC0809173018F3F2B
:102BA00009F445C0182F893008F018E0811B809384
:102BB00073018091880298E8892780938802112305
:102BC00041F12091A2023091A30280917F0186FF02
:102BD0000DC0A9E8B2E080E090E0F901E80FF91F2C
:102BE000E491ED9301961817C1F708C0912FD90110
:102BF000E9E8F2E08D9181939150E1F71150812F36
:102C000090E01F5F0196820F931F9093A302809321
:102C1000A20289E892E0612F0E947116612F6C5F19
:102C20006C3019F08FEF80937301609372019AE01A
:102C300089B1867059F49150D9F71092A50210927B
:102C40009F028AE5809393028093BE02DF91CF9129
:102C50001F9108951F93CF93DF93DC01162FEA0194
:102C6000809193028E31D1F0888184FF05C08981E3
:102C700098E88927898302C08AE58883AE014E5F80
:102C80005F4F212FFA018D91819321501216DCF3B1
:102C9000CA01612F0E9471161C5F1883DF91CF91CA
:102CA0001F9108954EEB52E00E942A16089543E9C1
:102CB00052E00E942A160895A82FB92F80E090E0D4
:102CC00041E050EA60956F5F58F42D9138EF82270C
:102CD0009795879510F0842795273F5FC8F3F3CF2A
:102CE0000895EADF8D939D930895CF93CFB7CF9347
:102CF000499BFECF499B09C0499B07C0499B05C022
:102D0000499B03C0499B01C0A3C0DF93C091A102AE
:102D1000DD27C855DD4F499B02C0DF91EBCF2F93D4
:102D20000F931F9309B12FEF01FB20F94F933F93AE
:102D300019B14FEF012701FB21F93BE031C04E7F74
:102D4000012F19B1216028C0102F4D7F2260000093
:102D500009B129C04B7F2460012F000019B12BC09D
:102D600019B1477F28602AC04F7E09B120612CC06D
:102D70004F7D19B120622FC04F7B09B1206432C052
:102D8000422709B149934FEF0000102711FB20F9AA
:102D900019B11670C9F1297F91F2012701FB21F9C0
:102DA00009B1237F89F2315058F1102711FB22F924
:102DB00019B1277E79F2012701FB23F92F7C81F2DB
:102DC00009B1102711FB24F92F7971F200C019B154
:102DD000012701FB25F92F7359F200C009B1102713
:102DE00011FB26F9223040F200C019B1012701FB86
:102DF00027F9243028F64F77206819B10000F9CF61
:102E000011E01CBB002719C03B503195C31BD040BB
:102E100011E01CBB0881033CF9F00B34E9F0209170
:102E20009F021981110F1213EDCF4A81441F0936F9
:102E300041F10D3211F0013E29F70093A6023F91B6
:102E40004F911F910F912F91DF91CCB3C0FD50CFC7
:102E5000CF91CFBFCF9118950091A602002379F3AF
:102E60001091A4021123F9F53430FAF13093A40241
:102E70000093A0021091A1023BE0311B3093A1020C
:102E800034C00091A402013074F50AE54F7049F492
:102E90003091720134FD2BC000937201C8E8D2E07A
:102EA0002AC0423049F03091930234FD20C0009393
:102EB0009302C4E9D2E01FC03091BE0234FD17C0B6
:102EC0000093BE02CFEBD2E016C0052710E00BB98D
:102ED0001FC0052722C0052727C005272CC00527AE
:102EE00010E00BB933C04AE503C042ED01C0432FE7
:102EF000C4E1D0E032E01AB11660599A0BB11AB9A8
:102F00005F9356E020E820FF05270BB9279517951A
:102F10001C3FD8F620FF052727950BB917951C3FB6
:102F2000C0F620FF0527279517950BB91C3F98F68B
:102F300020FF0527279517951C3F0BB970F600C099
:102F4000499120FF05270BB9279517951C3F38F6A7
:102F500020FF052727950BB917951C3F38F520FF53
:102F60000527279517950BB91C3F10F520FF05275E
:102F7000279517951C3F0BB9E8F4242F3A9519F6BD
:102F8000097F5F910BB91091A502110FC651D04076
:102F900011F010939F0211E01CBB02601AB1197F5F
:102FA000402F497F0BB91AB94BB949CF0527D3CF69
:102FB0000527D8CF0527DDCFDC01CB01FC01F9992E
:102FC000FECF06C0F2BDE1BDF89A319600B40D9275
:102FD00041505040B8F70895DC01CB0103C02D915A
:102FE0000E94F71741505040D0F70895262FF999C5
:102FF000FECF1FBA92BD81BD20BD0FB6F894FA9ADC
:0C300000F99A0FBE01960895F894FFCFD6
:10300C00FFFFFFFFFFFFFFFFFFFFFFFFFFFFFFFFC4
:10301C00FFFFA70EAD0EB30EB90EBF0EC50ECB0E35
:10302C00D10ED70EDD0EE30EE90EFF2D01FFFFFFD3
:10303C00FFFFFFFFFFFFFFFFFFFFFFFFFF01FFFF92
:10304C00FFFFFFFFFFFFFFFFFFFFFFFFFFFFFFFF84
:10305C00FFFFFFFFFFFFFFFFFFFFFFFFFFFFFFFF74
:10306C00FFFFFFFFFFFFFFFFFFFFFFFFFFFF017DE4
:04307C00FFFF5AFFF9
:00000001FF
