:100000000C94E7010C947F190C9404020C940402E4
:100010000C9404020C9404020C9404020C94040248
:100020000C9404020C9404020C9404020C94040238
:100030000C9404020C9404020C9404020C94040228
:100040000C9404020C9404020C9404020C94040218
:100050000C9404020C9404020C9404020C94040208
:100060000C9404020C940402120110010000000818
:10007000C016DF050103010200011A037A007500B2
:10008000720062006F00720067002E0069006E004F
:1000900066006F0032034400750061006C002000B0
:1000A00053007400720069006B0065002000560068
:1000B00033002E0031002E003000200028005000B8
:1000C00053003300290005010904A101A1027501B3
:1000D000950D150025013500450105091901290D6A
:1000E0008102950381010501750495012507463BB1
:1000F00001651409398142650095018103A10075EC
:100100000295042502450209300931093209358179
:1001100002C0C07508950826FF0046FF000600FFD4
:10012000092009210922092309240925092609276B
:1001300009280929092A092B950C81020A2126B1CF
:1001400002C009022200010100801E090400000112
:1001500003000000092101010001227C0007058243
:100160000310000130034400750061006C002000A2
:1001700053007400720069006B0065002000560097
:1001800033002E0031002E003000200028005000E7
:100190004300290005010905A101150025013500CD
:1001A00045017501950D05091901290D810205010A
:1001B0000900950381012507463B017504950165FA
:1001C0001409398142090095018101C00902220008
:1001D000010100801E090400000103000000092144
:1001E0000101000122380007058103080001120106
:1001F000100100000008C016DF0501030102000124
:100200002A0370006F0068006C002D006D0069000B
:1002100063006800610065006C00400067006D00CD
:1002200078002E00620069007A000E034800490041
:1002300044002000450050000600FF0901A10115FF
:100240000026FF007508850195060900B2020185A8
:100250000295840900B20201850395030900B202E8
:1002600001850495830900B20201C0090222000140
:100270000100801E090400000103000000092101A3
:10028000010001223300070581030800C812011094
:1002900001000000080304288E010301020001345C
:1002A000034400750061006C00200053007400726C
:1002B0000069006B0065002000560033002E0031FD
:1002C000002E003000200028004D0041004D004568
:1002D00000290005010906150025013500450175B5
:1002E00001A101850105070952094F09510950096A
:1002F000E009E209E109280929092C092B093B0930
:100300003C090409070909090A090C090E0913091E
:100310001409150916091A091B091D091E091F09C7
:100320002209230926090195208102C0050C090133
:10033000A101850209E909EA950281029506810178
:10034000C009022200010100801E0904000001030F
:10035000000000092101010001226E000705810350
:1003600008000412011001000000080304298E0196
:10037000030102000134034400750061006C002099
:100380000053007400720069006B00650020005685
:100390000033002E0031002E0030002000280058CD
:1003A0000042006F007800290009022000010100CE
:1003B000807D0904000002584200000705820320E6
:1003C00000040705020308000404030904001124C3
:1003D0001FBECFEFD4E0DEBFCDBF11E0A0E0B1E0A3
:1003E000E0E2F6E302C005900D92A437B107D9F719
:1003F00012E0A4E7B1E001C01D92AC3FB107E1F704
:100400000E94ED040C940E1B0C940000AC0120E043
:1004100030E0F901E050FF4FDA01A20FB31F9081E5
:100420008C91981711F081E008952F5F3F4F233191
:10043000310579F780E00895589A81E090E00895B9
:100440005C9A469A589A82E090E00895589A84E01F
:1004500090E00895589A85E090E0089583E090E058
:100460000895909174018091030182958F7080FDB1
:1004700002C086B102C086B1869580958170809356
:100480007401992319F420E030E008C090E08091D5
:100490007401811191E081E09827292F80917501E5
:1004A000882349F010927701109276012223C9F037
:1004B000109275010895222349F08091780190915E
:1004C0007901909377018093760108958091760168
:1004D00090917701009729F001979093770180938D
:1004E000760108958091040187708130E1F44C9980
:1004F00007C0369B05C08091030182608B7F10C0CE
:100500004C9B07C0369905C08091030184608D7FA4
:1005100007C04C9B29C0369B27C080910301897F6F
:10052000809303010895809174018823E9F04E9926
:1005300004C080910301897F06C018990AC0809188
:10054000030182608B7F8093030181E080937501BA
:100550000895199909C08091030184608D7F80936B
:10056000030181E080937501089585E085BD0895BC
:1005700010927A0116BCA89A0895589810927C019E
:100580000895A89B08C080917A018F3F19F08F5F72
:1005900080937A01A89A20E090917A0180917B0162
:1005A000981708F021E0822F08958091040190E0CF
:1005B000877090700297029710F45C9846980E949A
:1005C000DA0858985B9A80E090E008951F9385E0E0
:1005D00085BD8091020183FF21C0589810927C0153
:1005E000589A0E94211802C00E943A1880917C01FA
:1005F0008823D1F385E080937B0110927A0116BCA9
:10060000A89A02C00E943A180E94C1028823D1F31E
:1006100080917C01823011F40E94291580910201A1
:1006200086FF21C0589810927C01589A0E94D817D2
:1006300002C00E943A1880917C018823D1F381E0A6
:1006400080937B0110927A0116BCA89A02C00E9486
:100650003A180E94C1028823D1F380917C01823034
:1006600011F40E940E158091020184FF29C0589850
:1006700010927C010E9420020E94141811E008C010
:100680000E943A180E949F06882311F010937C0163
:1006900080917C018823A1F38AE080937B011092F2
:1006A0007A0116BCA89A02C00E94FC160E94C102E0
:1006B0008823D1F380917C01823011F40E94BC1711
:1006C0008091030180FF07C0589810927C010E941E
:1006D000D5020E941D051F9108958091020190E0AE
:1006E000877090708130910521F4589A21E030E0B4
:1006F00016C08230910519F40E9420020FC0833089
:10070000910521F4589A24E030E009C0049721F4BF
:10071000589A25E030E003C00E94D5029C01C9012F
:100720000895CF93DF93EC0120E030E0F901E05031
:10073000FF4FDE01A20FB31F90818C91981731F407
:100740002F5F3F4F2331310589F716C0CE0160E09E
:1007500070E043E150E00E94F61A20E030E0F90139
:10076000E050FF4FDE01A20FB31F8C9180832F5FFB
:100770003F4F2331310599F7DF91CF910895CF9302
:10078000DF93EC0180E091E060E070E043E150E055
:100790000E94E61A80910001823021F480910101CB
:1007A000833019F182E0888383E0898388E78A8334
:1007B00031E03B8388E18C832AE12D8382E28E83C2
:1007C00085E08F8386E5888791E199872A8784E58C
:1007D0008B873C8781E58D879E878BE68F8788E0B6
:1007E000888B8DE0898B3A8B0FC020E030E0FE01D2
:1007F000E20FF31FD901A050BF4F8C9180832F5F70
:100800003F4F2331310599F7DF91CF910895DF9361
:10081000CF93CDB7DEB763970FB6F894DEBF0FBEA8
:10082000CDBFCE0101960E94BF0331990DC0589AE9
:100830000E940F1802C00E940B153099FCCF5898E7
:10084000CE0101960E94BF03CE0101960E94910342
:1008500063960FB6F894DEBF0FBECDBFCF91DF9188
:1008600008950F931F93CF93DF9317B88FE388B941
:1008700014B885B989E08AB980EE8BB90E94070463
:100880004E9904C080910301897F0DC0189905C05D
:100890008091030182608B7F06C0199906C0809108
:1008A000030184608D7F809303018091040190E0B7
:1008B000877090708130910511F0049711F45C9A63
:1008C000469A80910201282F30E0C90143E09695B5
:1008D00087954A95E1F7682F6170462F50E08901AE
:1008E0000071107024FF02C04F5F5F4FD901A072EA
:1008F000B07025FF02C04F5F5F4FE901C074D07038
:1009000026FF02C04F5F5F4F8091030190E0FC0122
:10091000E170F07080FF02C04F5F5F4FC9018770C8
:100920009070009719F043305105C4F01B9902C034
:10093000662341F51C9902C0AB2BA9F51A9902C098
:10094000CD2BC9F51D9905C0EF2B19F00E94D502DA
:100950003DC0329934C0012B91F11DC04230510588
:1009600099F51B9B0AC01C9B08C01A9B06C01D9BC7
:1009700004C04D9B02C0339927C08130910549F0D6
:10098000662321F0589A21E030E021C082309105A1
:1009900041F0012B19F00E94200218C0833091050C
:1009A00041F0AB2B21F0589A24E030E010C00497BE
:1009B00059F0CD2B49F0589A25E030E008C0892B3A
:1009C00019F423E030E003C00E946D039C01C901CB
:1009D000DF91CF911F910F9108950E9431048230D1
:1009E0009105E1F0833091052CF4009779F001979F
:1009F00009F50FC084309105B1F0843091051CF0E9
:100A00000597C1F413C00E94E60214C00E941D05A0
:100A100011C00E9421180E9429150CC00E941418B0
:100A20000E94BC1707C00E94E01704C00E94D8179C
:100A30000E940E1580E090E0089580910401877077
:100A40008230F1F40E9431020E947202809103010F
:100A5000869590E0837090708130910519F4469AE4
:100A60005C9805C08230910529F45C9A4698549AA6
:100A70003E9A06C0892B21F454983E985C9A469A77
:100A800090910301892F95FF09C0309905C03199D4
:100A900003C045983D9A02C03D98459A86FF20C004
:100AA00094FD0CC0309905C0349903C044983C9A19
:100AB00002C03C98449A309911C00BC0319905C0CE
:100AC000349903C044983C9A02C03C98449A3199A6
:100AD00005C0339903C043983B9A02C03B98439AA0
:100AE000809104018770833009F0A7CF349902C048
:100AF0005C9A01C05C98329902C0469A9ECF469893
:100B00009CCFFC0180912B01823009F441C08330DD
:100B100038F4882309F47FC0813009F00EC107C082
:100B2000833009F4B1C0843009F007C1D8C02381F3
:100B3000233089F0243030F4213051F0223009F094
:100B4000FCC018C02132C9F0223209F0F6C018C02A
:100B500088E690E0CDC08281813009F4D6C0823031
:100B600009F0EBC084E990E09093BE028093BD024F
:100B700082E3089582E491E035C084E591E03AC0D3
:100B800086EC90E09093BE028093BD028CE70895BE
:100B900083818330B1F0843030F4813051F0823081
:100BA00009F0CBC01DC0813219F1823209F0C5C0F5
:100BB00027C088E690E09093BE028093BD0282E158
:100BC00008958281813009F4A0C0823009F0B5C057
:100BD00084E691E09093BE028093BD0280E3089585
:100BE0008CEC91E09093BE028093BD0282E2089566
:100BF0008EED91E09093BE028093BD0289E008954E
:100C000084E991E09093BE028093BD0281E08093DD
:100C10007C0188E308958381833089F0843030F447
:100C2000813051F0823009F088C020C0813209F152
:100C3000823209F082C020C08EEE91E0BCCF82816A
:100C4000813021F0823009F078C008C080E092E065
:100C50009093BE028093BD028AE208958AE292E0F8
:100C60009093BE028093BD028EE008958BE692E0E1
:100C7000B9CF8DE792E0BECF88E392E09093BE02B9
:100C80008093BD0283E308958381833089F08430AB
:100C900030F4813051F0823009F04FC012C08132FF
:100CA00099F0823209F049C012C08DE892E083CFFA
:100CB0008281813051F1823009F03FC08FE992E0AA
:100CC0002EC081E493E08ECF83E593E093CF83ED54
:100CD00092E09093BE028093BD028EE60895238138
:100CE000223019F1233059F0213039F583E693E0B1
:100CF0009093BE028093BD0220937C0160CF8281DD
:100D0000813019F08230C9F408C08AE790E09093EE
:100D1000BE028093BD028AE1089585E793E0909337
:100D2000BE028093BD0284E3089589EA93E0909324
:100D3000BE028093BD0280E2089580E0089590E0B5
:100D40008091C202813009F491E0892F08951092B8
:100D50008501109284018FE08093860185E5809360
:100D600087011092930110929201109291011092BA
:100D7000900110928F0110928E0110928D011092AD
:100D80008C0110928B0110928A01109289011092AD
:100D9000880108950E94A70680910401282F30E061
:100DA000277030702130310529F08091740188233B
:100DB00009F08DC080910301869590E0837090705A
:100DC00081309105D9F44E9904C080918701837FC9
:100DD00006C04F9906C08091870188608B7F809301
:100DE0008701189904C0809187018C7F24C01999CC
:100DF0006EC08091870182608E7F1DC08230910518
:100E0000E9F44E9904C0809187018F7306C04F9911
:100E100006C08091870180688F7B80938701189935
:100E200004C0809187018F7C06C0199950C08091C1
:100E3000870180628F7E8093870149C0892B09F0EA
:100E400046C04E9918C0189907C087E08093860164
:100E50008FEF80938A0119C0199907C081E08093B0
:100E600086018FEF80938A0130C0109286018FEF48
:100E700080938A012CC04F991BC0189909C085E046
:100E8000809386018FEF80938B01809389011FC02F
:100E9000199907C083E0809386018FEF80938B01BF
:100EA00014C084E0809386018FEF80938B010FC084
:100EB000189905C086E0809386018FEFE6CF1999D7
:100EC00006C082E0809386018FEF809388011A9993
:100ED00008C0809184018160809384018FEF8093AA
:100EE0008F011D9908C080918401886080938401DE
:100EF0008FEF80938C014D991CC08091030186FF78
:100F000010C080917401882361F080918401806118
:100F1000809384018FEF8093900181E0809375012D
:100F200008C0809184018062809384018FEF809358
:100F300091011B9918C02430310569F0809174012A
:100F4000882349F08091850184608093850181E048
:100F50008093750108C08091840182608093840130
:100F60008FEF80938E011C9918C02430310569F0F1
:100F700080917401882349F0809185018860809375
:100F8000850181E08093750108C0809184018460AF
:100F9000809384018FEF80938D0132991CC08091E2
:100FA000030186FF10C080917401882361F0809155
:100FB00084018064809384018FEF8093920181E0AB
:100FC0008093750108C080918401806880938401BA
:100FD0008FEF80939301339908C0809184018061E1
:100FE000809384018FEF80939001349908C08091A1
:100FF00084018064809384018FEF809392018091BB
:10100000030185FF0DC030990BC0319909C0809153
:10101000850180618093850181E08093750124C002
:1010200082958F7080FD0EC080917601909177013E
:10103000892B29F080918501826080938501319907
:1010400013C00DC0309905C08091850182608093E6
:1010500085018091760190917701892B29F080910B
:1010600085018160809385012430310571F44C99AC
:1010700005C080918501846080938501369905C003
:1010800080918501886080938501359905C08091A4
:1010900085018061809385010895109285011092E9
:1010A00084018FE08093860108951092850110924B
:1010B00084018FE0809386014E990BC0189902C07D
:1010C00087E01AC0199902C081E016C0109286010B
:1010D00015C04F990AC0189902C085E00DC0199932
:1010E00002C083E009C084E007C0189902C086E00E
:1010F00003C0199903C082E0809386011A9905C044
:10110000809184018061809384011D9905C0809144
:1011100084018062809384014D9905C0809184018F
:101120008064809384011B9905C080918401816053
:10113000809384011C9905C0809184018260809312
:101140008401329905C08091840184608093840178
:10115000339905C08091840180688093840134991B
:1011600005C0809184018860809384014C9905C0FA
:1011700080918501816080938501369905C08091B9
:101180008501826080938501309905C08091850139
:10119000846080938501319905C0809185018860C4
:1011A00080938501359905C0809185018061809388
:1011B00085010895519A88EB9BE02CE231E0F9011A
:1011C0003197F1F70197D9F7089581E08093840171
:1011D00082E080938D010895E9E8F1E0AF01445089
:1011E0005040DA018C91809389019F012350304057
:1011F000D9018C9180938A01DF0112978C918093A1
:101200008B01829180938C0110821C92F9011082D3
:10121000DA011C9210928E01089520910401822F10
:1012200086958695869590E087709070009719F462
:101230008FEF9FEF24C08130910529F410922F0188
:1012400010922E0120C08230910519F481E090E0C7
:1012500016C08330910519F482E090E010C084300C
:10126000910519F483E090E00AC08530910519F4E6
:1012700084E090E004C0069731F485E090E090931C
:101280002F0180932E012295269526952370822F7B
:1012900090E09C012170307080FD0AC080910501B2
:1012A00090E083709070892B19F48FEF9FEF42C00C
:1012B000422F222361F08091050190E083709070AD
:1012C000892B29F4109231011092300137C0211579
:1012D000310541F48091050190E083709070813078
:1012E000910541F1442341F08091050183708130E3
:1012F00019F482E090E01EC02115310541F480917F
:1013000005018370823019F483E090E013C0442318
:1013100041F0809105018370823019F484E090E0FF
:1013200009C0232B59F4809105018370833031F477
:1013300085E090E090933101809330012091050188
:10134000822F8695869590E087709070009719F4AB
:101350008FEF9FEF24C08130910529F41092330163
:101360001092320120C08230910519F481E090E0A2
:1013700016C08330910519F482E090E010C08430EB
:10138000910519F483E090E00AC08530910519F4C5
:1013900084E090E004C0069731F485E090E09093FB
:1013A00033018093320122952695277030E0237017
:1013B00030702115310539F48091060180FD03C09C
:1013C0008FEF9FEF3DC02130310549F48091060138
:1013D00080FD05C0109235011092340135C02230D5
:1013E000310539F48091060180FD03C081E090E071
:1013F00027C02330310539F48091060180FD0DC0EE
:1014000082E090E01DC02115310539F4809106017C
:1014100080FF03C083E090E013C02130310539F430
:101420008091060180FF03C084E090E009C0223073
:10143000310551F48091060180FF06C085E090E0FF
:10144000909335018093340120910601822F869577
:1014500090E087709070009719F48FEF9FEF24C091
:101460008130910529F4109237011092360120C085
:101470008230910519F481E090E016C08330910527
:1014800019F482E090E010C08430910519F483E0F3
:1014900090E00AC08530910519F484E090E004C022
:1014A000069731F485E090E0909337018093360100
:1014B00022952F70822F90E087709070009719F41A
:1014C0008FEF9FEF24C08130910529F410923901EC
:1014D0001092380120C08230910519F481E090E02B
:1014E00016C08330910519F482E090E010C084307A
:1014F000910519F483E090E00AC08530910519F454
:1015000084E090E004C0069731F485E090E0909389
:1015100039018093380120910701822F90E0877074
:101520009070009719F48FEF9FEF24C081309105E0
:1015300029F410923B0110923A0120C082309105AB
:1015400019F481E090E016C08330910519F482E02F
:1015500090E010C08430910519F483E090E00AC057
:101560008530910519F484E090E004C0069731F4C9
:1015700085E090E090933B0180933A01822F86951D
:101580008695869590E087709070009719F48FEF9C
:101590009FEF24C08130910529F410923D011092F3
:1015A0003C0120C08230910519F481E090E016C022
:1015B0008330910519F482E090E010C084309105E9
:1015C00019F483E090E00AC08530910519F484E0B5
:1015D00090E004C0069731F485E090E090933D01DF
:1015E00080933C012295269526952370822F90E0CA
:1015F0009C012170307080FD0AC08091080190E04C
:1016000083709070892B19F48FEF9FEF42C0422FA7
:10161000222361F08091080190E083709070892B03
:1016200029F41092400110923F0137C02115310575
:1016300041F48091080190E08370907081309105B1
:1016400041F1442341F0809108018370813019F405
:1016500082E090E01EC02115310541F4809108011F
:101660008370823019F483E090E013C0442341F08A
:10167000809108018370823019F484E090E009C001
:10168000232B59F4809108018370833031F485E075
:1016900090E09093400180933F0120910801822FB8
:1016A0008695869590E087709070009719F48FEF7B
:1016B0009FEF24C08130910529F4109242011092CD
:1016C000410120C08230910519F481E090E016C0FC
:1016D0008330910519F482E090E010C084309105C8
:1016E00019F483E090E00AC08530910519F484E094
:1016F00090E004C0069731F485E090E090934201B9
:101700008093410122952695277030E02370307038
:101710002115310539F48091090180FD03C08FEF57
:101720009FEF3DC02130310549F48091090180FDD2
:1017300005C0109244011092430135C0223031059A
:1017400039F48091090180FD03C081E090E027C059
:101750002330310539F48091090180FD0DC082E00C
:1017600090E01DC02115310539F48091090180FFF9
:1017700003C083E090E013C02130310539F480913B
:10178000090180FF03C084E090E009C022303105E8
:1017900051F48091090180FF06C085E090E09093AC
:1017A00044018093430120910901822F869590E0A6
:1017B00087709070009719F48FEF9FEF24C08130ED
:1017C000910529F4109246011092450120C0823003
:1017D000910519F481E090E016C08330910519F469
:1017E00082E090E010C08430910519F483E090E02D
:1017F0000AC08530910519F484E090E004C0069792
:1018000031F485E090E09093460180934501229564
:101810002F70822F90E087709070009719F48FEFEF
:101820009FEF24C08130910529F410924801109255
:10183000470120C08230910519F481E090E016C084
:101840008330910519F482E090E010C08430910556
:1018500019F483E090E00AC08530910519F484E022
:1018600090E004C0069731F485E090E09093480141
:101870008093470120910A01822F90E08770907039
:10188000009719F48FEF9FEF24C08130910529F460
:1018900010924A011092490120C08230910519F43A
:1018A00081E090E016C08330910519F482E090E069
:1018B00010C08430910519F483E090E00AC08530AF
:1018C000910519F484E090E004C0069731F485E0B6
:1018D00090E090934A0180934901822F86958695E6
:1018E000869590E087709070009719F48FEF9FEFC6
:1018F00024C08130910529F410924C0110924B01C3
:1019000020C08230910519F481E090E016C0833048
:10191000910519F482E090E010C08430910519F42B
:1019200083E090E00AC08530910519F484E090E0EE
:1019300004C0069731F485E090E090934C018093C9
:101940004B012295269526952370822F90E09C01CD
:101950002170307080FD0AC080910B0190E083708F
:101960009070892B19F48FEF9FEF42C0422F2223F2
:1019700061F080910B0190E083709070892B29F4C5
:1019800010924E0110924D0137C02115310541F4DE
:1019900080910B0190E0837090708130910541F14E
:1019A000442341F080910B018370813019F482E06F
:1019B00090E01EC02115310541F480910B01837028
:1019C000823019F483E090E013C0442341F0809109
:1019D0000B018370823019F484E090E009C0232B5E
:1019E00059F480910B018370833031F485E090E0ED
:1019F00090934E0180934D0120910B01822F86958B
:101A0000869590E087709070009719F48FEF9FEFA4
:101A100024C08130910529F41092500110924F0199
:101A200020C08230910519F481E090E016C0833027
:101A3000910519F482E090E010C08430910519F40A
:101A400083E090E00AC08530910519F484E090E0CD
:101A500004C0069731F485E090E0909350018093A4
:101A60004F0122952695277030E0237030702115A4
:101A7000310539F480910C0180FD03C08FEF9FEF99
:101A80003DC02130310549F480910C0180FD05C035
:101A9000109252011092510135C02230310539F4B3
:101AA00080910C0180FD03C081E090E027C02330CD
:101AB000310539F480910C0180FD0DC082E090E089
:101AC0001DC02115310539F480910C0180FF03C040
:101AD00083E090E013C02130310539F480910C018E
:101AE00080FF03C084E090E009C02230310551F44A
:101AF00080910C0180FF06C085E090E09093520138
:101B00008093510120910C01822F869590E087707F
:101B10009070009719F48FEF9FEF24C081309105EA
:101B200029F4109254011092530120C08230910583
:101B300019F481E090E016C08330910519F482E039
:101B400090E010C08430910519F483E090E00AC061
:101B50008530910519F484E090E004C0069731F4D3
:101B600085E090E0909354018093530122952F706B
:101B7000822F90E087709070009719F48FEF9FEF9D
:101B800024C08130910529F410925601109255011C
:101B900020C08230910519F481E090E016C08330B6
:101BA000910519F482E090E010C08430910519F499
:101BB00083E090E00AC08530910519F484E090E05C
:101BC00004C0069731F485E090E09093560180932D
:101BD000550120910D01822F90E087709070009741
:101BE00019F48FEF9FEF24C08130910529F41092F2
:101BF00058011092570120C08230910519F481E0FC
:101C000090E016C08330910519F482E090E010C096
:101C10008430910519F483E090E00AC08530910585
:101C200019F484E090E004C0069731F485E090E078
:101C30009093580180935701822F869586958695BB
:101C400090E087709070009719F48FEF9FEF24C099
:101C50008130910529F410925A011092590120C047
:101C60008230910519F481E090E016C0833091052F
:101C700019F482E090E010C08430910519F483E0FB
:101C800090E00AC08530910519F484E090E004C02A
:101C9000069731F485E090E090935A0180935901C2
:101CA0002295269526952370822F90E09C01217025
:101CB000307080FD0AC080910E0190E083709070BA
:101CC000892B19F48FEF9FEF42C0422F222361F03E
:101CD00080910E0190E083709070892B29F410920E
:101CE0005C0110925B0137C02115310541F48091F0
:101CF0000E0190E0837090708130910541F1442392
:101D000041F080910E018370813019F482E090E0FF
:101D10001EC02115310541F480910E01837082307F
:101D200019F483E090E013C0442341F080910E0148
:101D30008370823019F484E090E009C0232B59F4B9
:101D400080910E018370833031F485E090E09093B0
:101D50005C0180935B0120910E01822F8695869510
:101D600090E087709070009719F48FEF9FEF24C078
:101D70008130910529F410925E0110925D0120C01E
:101D80008230910519F481E090E016C0833091050E
:101D900019F482E090E010C08430910519F483E0DA
:101DA00090E00AC08530910519F484E090E004C009
:101DB000069731F485E090E090935E0180935D0199
:101DC00022952695277030E023703070211531055B
:101DD00039F480910F0180FD03C08FEF9FEF3DC06C
:101DE0002130310549F480910F0180FD05C010922A
:101DF000600110925F0135C02230310539F48091C5
:101E00000F0180FD03C081E090E027C02330310541
:101E100039F480910F0180FD0DC082E090E01DC07B
:101E20002115310539F480910F0180FF03C083E053
:101E300090E013C02130310539F480910F0180FF0B
:101E400003C084E090E009C02230310551F4809154
:101E50000F0180FF06C085E090E0909360018093C1
:101E60005F0120910F01822F869590E0877090701E
:101E7000009719F48FEF9FEF24C08130910529F46A
:101E8000109262011092610120C08230910519F414
:101E900081E090E016C08330910519F482E090E073
:101EA00010C08430910519F483E090E00AC08530B9
:101EB000910519F484E090E004C0069731F485E0C0
:101EC00090E0909362018093610122952F70822FA0
:101ED00090E087709070009719F48FEF9FEF24C007
:101EE0008130910529F4109264011092630120C0A1
:101EF0008230910519F481E090E016C0833091059D
:101F000019F482E090E010C08430910519F483E068
:101F100090E00AC08530910519F484E090E004C097
:101F2000069731F485E090E090936401809363011B
:101F300020911001822F90E087709070009719F423
:101F40008FEF9FEF24C08130910529F41092660134
:101F50001092650120C08230910519F481E090E073
:101F600016C08330910519F482E090E010C08430EF
:101F7000910519F483E090E00AC08530910519F4C9
:101F800084E090E004C0069731F485E090E09093FF
:101F9000660180936501822F86958695869590E0EF
:101FA00087709070009719F48FEF9FEF24C08130F5
:101FB000910529F4109268011092670120C08230C7
:101FC000910519F481E090E016C08330910519F471
:101FD00082E090E010C08430910519F483E090E035
:101FE0000AC08530910519F484E090E004C006979A
:101FF00031F485E090E09093680180936701229529
:10200000269526952370822F90E09C0121703070D8
:1020100080FD0AC08091110190E083709070892B3F
:1020200019F48FEF9FEF42C0422F222361F080917D
:10203000110190E083709070892B29F410926A014D
:102040001092690137C02115310541F480911101C9
:1020500090E0837090708130910541F1442341F00C
:10206000809111018370813019F482E090E01EC0EC
:102070002115310541F4809111018370823019F4EA
:1020800083E090E013C0442341F0809111018370FC
:10209000823019F484E090E009C0232B59F4809138
:1020A00011018370833031F485E090E090936A01F0
:1020B0008093690120911101822F8695869590E089
:1020C00087709070009719F48FEF9FEF24C08130D4
:1020D000910529F410926C0110926B0120C082309E
:1020E000910519F481E090E016C08330910519F450
:1020F00082E090E010C08430910519F483E090E014
:102100000AC08530910519F484E090E004C0069778
:1021100031F485E090E090936C0180936B012295FF
:102120002695277030E0237030702115310539F481
:102130008091120180FD26C08FEF9FEF33C02130C8
:10214000310549F48091120180FD26C010926E0184
:1021500010926D0108952230310539F480911201F9
:1021600080FD25C081E090E01DC02330310539F4A9
:102170008091120180FD28C082E090E013C02115FB
:10218000310539F48091120180FF1EC083E090E098
:1021900009C02130310559F48091120180FF14C02B
:1021A00084E090E090936E0180936D010895223059
:1021B000310551F48091120180FF06C085E090E066
:1021C00090936E0180936D010895809185018061E7
:1021D00080938501089580918501806280938501B7
:1021E0000895809186018260809386010895809190
:1021F00085018064809385010895809188018160C4
:10220000809388010895809188018260809388017D
:10221000089580918601806280938601089580915F
:102220008701806480938701089580918701806190
:10223000809387010895809187018068809387014A
:10224000089580918701846080938701089580912B
:102250008701826080938701089585E085BD089598
:1022600010927D0116BC089530916F01332311F453
:1022700080E0089520917D012F3FD9F481E00895F9
:10228000231790F486B596B5975E96BD96B58917D7
:1022900008F4A89A822F8B5F821750F48FEF8093F7
:1022A0007D0190917D010EC020937D01A89AF9CF08
:1022B000282FA899E5CF20937D01F3CF86B58E52C4
:1022C00086BD922F9F3F29F086B5292F2F5F8E3232
:1022D000A8F790937D0180E0931708F081E00895BE
:1022E00080917401882329F11B9908C08091850190
:1022F00080688093850181E0809375011C9908C0F6
:102300008091860181608093860181E080937501D0
:102310008091030185FFECC03099EAC03199E8C093
:102320008091870188608093870181E080937501A7
:1023300008954E9904C080918501816005C04F9930
:1023400005C080918501846080938501189904C03F
:1023500080918501886005C0199905C0809185012B
:102360008260809385011B9911C0E0912C01F0914E
:102370002D010190F081E02DF7FD08C0EE0FFF1F49
:10238000ED5EFE4F0190F081E02D09951C9911C082
:10239000E0912C01F0912D010280F381E02DF7FDF9
:1023A00008C0EE0FFF1FED5EFE4F0190F081E02DA3
:1023B0000995329911C0E0912C01F0912D01048012
:1023C000F581E02DF7FD08C0EE0FFF1FED5EFE4F1B
:1023D0000190F081E02D09951A9911C0E0912C012E
:1023E000F0912D010084F185E02DF7FD08C0EE0F7E
:1023F000FF1FED5EFE4F0190F081E02D09951D99C4
:1024000011C0E0912C01F0912D010284F385E02DA3
:10241000F7FD08C0EE0FFF1FED5EFE4F0190F0814B
:10242000E02D09954D9911C0E0912C01F0912D01FD
:102430000484F585E02DF7FD08C0EE0FFF1FED5E6B
:10244000FE4F0190F081E02D0995349911C0E09183
:102450002C01F0912D010680F781E02DF7FD08C0D9
:10246000EE0FFF1FED5EFE4F0190F081E02D09950C
:10247000339911C0E0912C01F0912D010684F7856C
:10248000E02DF7FD08C0EE0FFF1FED5EFE4F01903F
:10249000F081E02D09958091030182958F7080FD78
:1024A0000EC08091760190917701892B29F080915F
:1024B0008801846080938801319913C00DC03099E0
:1024C00005C08091880184608093880180917601A5
:1024D00090917701892B29F0809188018061809308
:1024E0008801359905C080918701886080938701B4
:1024F000089580917401882389F08091030185FFFC
:10250000F0C03099EEC03199ECC0809187018860AD
:102510008093870181E08093750108954E9906C0EC
:102520008091870180628093870107C04F9905C021
:1025300080918601806880938601189906C08091F9
:10254000860180648093860107C0199905C0809137
:1025500087018160809387011B9911C0E0912C0154
:10256000F0912D010190F081E02DF7FD08C0EE0FF4
:10257000FF1FE15EFE4F0190F081E02D09951C994F
:1025800011C0E0912C01F0912D010280F381E02D2A
:10259000F7FD08C0EE0FFF1FE15EFE4F0190F081D6
:1025A000E02D0995329911C0E0912C01F0912D0197
:1025B0000480F581E02DF7FD08C0EE0FFF1FE15EFE
:1025C000FE4F0190F081E02D09951A9911C0E0911C
:1025D0002C01F0912D010084F185E02DF7FD08C05C
:1025E000EE0FFF1FE15EFE4F0190F081E02D099597
:1025F0001D9911C0E0912C01F0912D010284F38509
:10260000E02DF7FD08C0EE0FFF1FE15EFE4F0190C9
:10261000F081E02D09954D9911C0E0912C01F091C8
:102620002D010484F585E02DF7FD08C0EE0FFF1F96
:10263000E15EFE4F0190F081E02D0995349911C0C3
:10264000E0912C01F0912D010680F781E02DF7FD3E
:1026500008C0EE0FFF1FE15EFE4F0190F081E02DFC
:102660000995339911C0E0912C01F0912D01068458
:10267000F785E02DF7FD08C0EE0FFF1FE15EFE4F6E
:102680000190F081E02D09958091030182958F7072
:1026900080FD0EC08091760190917701892B29F001
:1026A00080918801886080938801319913C00DC0A2
:1026B000309905C08091880188608093880180915D
:1026C000760190917701892B29F0809188018062B1
:1026D00080938801359905C0809187018860809337
:1026E000870108954E9904C080918501816005C0DD
:1026F0004F9905C080918501846080938501189968
:1027000004C080918501886005C0199905C0809139
:1027100085018260809385011A9905C080918501A9
:102720008068809385011D9905C080918601816034
:10273000809386011B9905C08091860188608093F3
:1027400086011C9905C08091860180618093860175
:102750008091030182958F7080FD0EC0809176017B
:1027600090917701892B29F0809186018460809374
:102770008601319913C00DC0309905C08091860142
:102780008460809386018091760190917701892BF6
:1027900029F080918801806480938801339905C075
:1027A00080918E01816080938E01349905C0809163
:1027B0008E01826080938E0108951092840194E1CD
:1027C000909385011092870180E18093980182E4C3
:1027D0008093990110929A0181E080939B018093EC
:1027E0009C0182E080939D0190939E0186E08093FE
:1027F0009F01E0EAF1E08FEF819391E0E83AF90779
:10280000D9F70895109297011092960110929501B0
:1028100010929401109293011092920110929101E2
:102820001092900110928F0110928E0110928D01E2
:1028300010928C0110928B0110928A0110928901E2
:10284000109288011092860108950E9402148091CE
:102850000401282F30E0277030702130310529F035
:1028600080917401882309F05AC0809103018695F4
:1028700090E08370907081309105C9F44E9905C045
:102880008FEF809392018FE703C04F9903C080E8D8
:1028900080939301189902C080E806C019993FC03F
:1028A0008FEF809390018FE78093910138C0823041
:1028B0009105C9F44E9905C08FEF809396018FE77B
:1028C00003C04F9903C080E880939701189902C014
:1028D00080E806C0199923C08FEF809394018FE799
:1028E000809395011CC0892BD1F44E9904C080912E
:1028F0008601816005C04F9905C080918601826084
:1029000080938601189904C080918601846005C077
:10291000199905C0809186018860809386011A9973
:1029200003C08FEF80938A011D9903C08FEF8093BE
:102930008B014D9912C08091030186FF0BC08091DD
:102940007401882339F08FEF80938E0181E08093AA
:10295000750103C08FEF80938C011B9903C08FEF2B
:10296000809388011C9903C08FEF8093890132996D
:1029700012C08091030186FF0BC0809174018823EF
:1029800039F08FEF80938F0181E08093750103C050
:102990008FEF80938D01339903C08FEF80938E0169
:1029A000349903C08FEF80938F012130310539F4C2
:1029B0008091030186FD03C0309912C00CC0809144
:1029C000030182958F7080FD13C0809176019091F4
:1029D0007701892B29F0809186018061809386019F
:1029E000319918C080918601806280938601089594
:1029F000309905C080918601806180938601809125
:102A0000760190917701892B29F08091860180626F
:102A10008093860108950E943A18089584E190E019
:102A200090937901809378010E943A180E943102B4
:102A30000E9472020E94251402C00E943A188091DE
:102A4000D90286FFFACF84E891E064E10E945C1924
:102A5000EBCF88E290E090937901809378010E9417
:102A60003A180E9431020E9472020E94CA0602C0F5
:102A70000E943A188091D90286FFFACF84E891E04B
:102A800060E10E945C19EBCFCF92DF92EF92FF9250
:102A90000F931F93CF93DF936C017B0100E010E055
:102AA00017C0E701C01BD10BC930D1052CF0C8E01D
:102AB000D0E002C00E943A188091D90286FFFACF76
:102AC000C601800F911F6C2F0E945C190C0F1D1FF7
:102AD0000E151F0530F3DF91CF911F910F91FF90DD
:102AE000EF90DF90CF900895DF92EF92FF920F93D7
:102AF0001F93FC0180912B01882309F054C0809121
:102B00007E01823009F044C0409170015091710102
:102B10004115510551F431812281848180938101D5
:102B2000109282013596655004C030917F0120914A
:102B30008001CA01860F911D9093710180937001ED
:102B400070E8D72ED82280918101909182011816C9
:102B500019065CF5883091050CF4682F032F122FAD
:102B6000E62EFF24CF01B801A7010E94F61A0E0D30
:102B70001F1D1093800100937F018091810190912E
:102B800082018E199F0990938201809381010DC06B
:102B9000833049F43181228130937F012093800179
:102BA000DD24D39402C0DD24DA948D2D1F910F9182
:102BB000FF90EF90DF9008950F931F93FC01928197
:102BC000238180912B01823009F447C0833038F48F
:102BD000882309F45DC0813009F00AC107C0833041
:102BE00009F4B3C0843009F003C1DFC0808180766E
:102BF000803209F0FDC08181813009F0F9C02330B5
:102C000001F5992309F0F4C081E28093840186E202
:102C1000809385011092860110928701109288019D
:102C20001092890110928A0110928B0184E891E040
:102C30009093BE028093BD0282E080937C0188E085
:102C4000D8C0213009F0D4C00E94A70684E891E0E2
:102C50009093BE028093BD02C9C08081807680328D
:102C600009F0C6C08181813009F0C2C0213009F06D
:102C7000BFC010928501109284018FE0809386017D
:102C800084E891E09093BE028093BD0283E0B1C0DE
:102C900080818076803209F0ABC08181893069F40F
:102CA000923029F4109271011092700103C0933098
:102CB00009F09EC090937E0128C0813009F098C031
:102CC0009130C1F49093840184E080938501109247
:102CD00086011092870182E0809388011092890119
:102CE00010928A0184E891E09093BE028093BD0225
:102CF00087E07FC0943009F07BC060917F017091C4
:102D0000800182E06030780710F08FEF72C040E001
:102D100052E0461B570B4038510510F040E850E098
:102D200004E811E084E080938401409385011092CF
:102D3000860110928701C80104960E94E61A10933A
:102D4000BE020093BD0284E854C080818076803248
:102D500009F04EC08181823059F4923008F048C0A9
:102D60008FE691E09093BE028093BD0281E041C066
:102D70008A3029F49230E0F520936F0139C0813018
:102D8000B9F5913041F484E891E09093BE028093CC
:102D9000BD0285E02EC0923059F58DE891E0909308
:102DA000BE028093BD0282E024C0808190E08076E4
:102DB00090708032910559F481818130C9F484E8A2
:102DC00091E09093BE028093BD0284E112C08034F2
:102DD000910571F48181863059F488E991E09093EE
:102DE000BE028093BD0282E080937C0180E101C03D
:102DF00080E01F910F91089584E891E063E00E94C4
:102E000061190E943A188091970284FF03C082E002
:102E100080937C010895CF92DF92EF92FF920F93FF
:102E20001F93CF93DF936C017B0100E010E017C08C
:102E3000E701C01BD10BC930D1052CF0C8E0D0E0B0
:102E400002C00E943A188091970284FFFACFC6010F
:102E5000800F911F6C2F0E9461190C0F1D1F0E1502
:102E60001F0530F3DF91CF911F910F91FF90EF90ED
:102E7000DF90CF9008950E94EC080E9431020E94DA
:102E8000720220917401222381F11A992EC04E9969
:102E90000AC08EE291E090932D0180932C0181E095
:102EA00080933E0120C0199908C08FE391E0909370
:102EB0002D0180932C0182E013C04F9908C08FE44C
:102EC00091E090932D0180932C0183E009C0189923
:102ED0000CC08FE591E090932D0180932C0184E04C
:102EE00080933E0181E08093750180910301869576
:102EF00090E083709070009729F4222369F40E9477
:102F000072130AC08130910519F40E94701104C037
:102F1000029711F40E9479120E9434118823C1F49F
:102F20009091890180918501981791F490918A017F
:102F300080918601981761F490918B0180918701AF
:102F4000981731F490918C0180918801981749F07D
:102F500084E891E065E070E00E940B1710927D011B
:102F600016BC80918E01882331F08DE891E062E0FB
:102F700070E00E940B1708950E943A180E945508AD
:102F800084E891E063E070E00E940B17F5CF519A5E
:102F900088EB9BE02CE231E0F9013197F1F70197E2
:102FA000D9F751980E94291878940E943A180895E8
:102FB00084E080932B010E94DD130E94C7170895BF
:102FC00083E080932B0190910301892F869586954C
:102FD000869580FD03C092609B7F02C094609D7FB8
:102FE000909303010E94C7170E943A1881E08093D2
:102FF000840182E080938D010E940D0985E085BDEA
:1030000088E893E19093790180937801809103019E
:1030100082608B7F809303010E943B17FDCF10924B
:103020002B010E94C717089582E080932B01109214
:103030008501109284018FE0809386010E94C7175A
:10304000089581E080932B010E94A7060E94C71774
:103050000895E9E6F0E0808183608083E89A8BE45C
:10306000809398028093DA028AE580939702809396
:10307000D90208951F93CF93DF936091BF026350ED
:1030800067FD9AC08091BC02CCE0D0E0C81BD1099A
:10309000CD53DD4F8091BB028D3209F07AC068308C
:1030A00009F088C083EC80938C028AE580937201DA
:1030B000109283018881807629F0CE010E94DC1570
:1030C000282F54C09A81109295028981882321F477
:1030D0001092960222E043C0853019F49093C0020A
:1030E0003DC0863029F58B818130C1F08230B1F04E
:1030F000833081F48A81882341F489EC93E09093B2
:10310000BE028093BD0224E00FC0813039F08230CE
:1031100051F404C0813211F0823229F4CE010E94B0
:103120008105282F01C020E080E4809383011EC028
:10313000883021F421E082EC92E013C0893019F448
:103140009093C2020BC08A3011F421E008C08B308A
:1031500029F48BE4809398028093DA0220E085E9D9
:1031600092E09093BE028093BD0209C02F3F39F4D4
:10317000888187FD2E8180E88093830106C08F813E
:10318000882319F48E81821708F0822F80937301AF
:1031900011C08091830187FF0DC0CE010E9474157C
:1031A0008F3F21F48EE18093720104C0882311F0D7
:1031B000109273011092BF028091720184FF4AC085
:1031C000809173018F3F09F445C0182F893008F0B2
:1031D00018E0811B8093730180918C0298E8892705
:1031E00080938C02112341F12091BD023091BE02E7
:1031F0008091830186FF0DC0ADE8B2E080E090E0F1
:10320000F901E80FF91FE491ED9301961817C1F742
:1032100008C0912FD901EDE8F2E08D918193915092
:10322000E1F71150812F90E01F5F0196820F931FED
:103230009093BE028093BD028DE892E0612F0E94C0
:103240007B19612F6C5F6C3019F08FEF80937301E5
:10325000609372019AE089B1867031F49150D9F788
:103260001092C0021092BA02DF91CF911F9108957F
:103270001F93CF93DF93DC01162FEA01888184FF2F
:1032800005C0898198E88927898302C08AE58883F7
:10329000AE014E5F5F4F212FFA018D918193215036
:1032A0001216DCF3CA01612F0E947B191C5F188380
:1032B000DF91CF911F91089549ED52E00E94381996
:1032C000089547E952E00E9438190895A82FB92FB0
:1032D00080E090E041E050EA60956F5F58F42D91F6
:1032E00038EF82279795879510F0842795273F5FC1
:1032F000C8F3F3CF0895EADF8D939D930895CF939C
:10330000CFB7CF93499BFECF499B09C0499B07C0CC
:10331000499B05C0499B03C0499B01C0A3C0DF93E3
:10332000C091BC02DD27CD53DD4F499B02C0DF9128
:10333000EBCF2F930F931F9309B12FEF01FB20F9D0
:103340004F933F9319B14FEF012701FB21F93BE068
:1033500031C04E7F012F19B1216028C0102F4D7F41
:103360002260000009B129C04B7F2460012F0000BA
:1033700019B12BC019B1477F28602AC04F7E09B10F
:1033800020612CC04F7D19B120622FC04F7B09B145
:10339000206432C0422709B149934FEF0000102743
:1033A00011FB20F919B11670C9F1297F91F201279B
:1033B00001FB21F909B1237F89F2315058F110271F
:1033C00011FB22F919B1277E79F2012701FB23F9BC
:1033D0002F7C81F209B1102711FB24F92F7971F2AA
:1033E00000C019B1012701FB25F92F7359F200C064
:1033F00009B1102711FB26F9223040F200C019B1A3
:10340000012701FB27F9243028F64F77206819B1EE
:103410000000F9CF11E01CBB002719C03B503195CB
:10342000C31BD04011E01CBB0881033CF9F00B34F6
:10343000E9F02091BA021981110F1213EDCF4A81E0
:10344000441F093641F10D3211F0013E29F7009376
:10345000C1023F914F911F910F912F91DF91CCB3FA
:10346000C0FD50CFCF91CFBFCF9118950091C10231
:10347000002379F31091BF021123F9F53430FAF1EA
:103480003093BF020093BB021091BC023BE0311BA2
:103490003093BC0234C00091BF02013074F50AE5DC
:1034A0004F7049F43091720134FD2BC000937201CA
:1034B000CCE8D2E02AC0423049F03091970234FD86
:1034C00020C000939702C8E9D2E01FC03091D90212
:1034D00036FD17C00093D902CAEDD2E016C0052709
:1034E00010E00BB91FC0052722C0052727C00527FC
:1034F0002CC0052710E00BB933C04AE503C042EDEC
:1035000001C0432FC4E1D0E032E01AB11660599AED
:103510000BB11AB95F9356E020E820FF05270BB9DD
:10352000279517951C3FD8F620FF052727950BB93F
:1035300017951C3FC0F620FF0527279517950BB957
:103540001C3F98F620FF0527279517951C3F0BB9C0
:1035500070F600C0499120FF05270BB927951795F4
:103560001C3F38F620FF052727950BB917951C3F00
:1035700038F520FF0527279517950BB91C3F10F547
:1035800020FF0527279517951C3F0BB9E8F4242F3A
:103590003A9519F6097F5F910BB91091C002110F8E
:1035A000C651D04011F01093BA0211E01CBB02606A
:1035B0001AB1197F402F497F0BB91AB94BB949CFBE
:1035C0000527D3CF0527D8CF0527DDCFDC01CB01D9
:1035D000FC01F999FECF06C0F2BDE1BDF89A319623
:1035E00000B40D9241505040B8F70895DC01CB0172
:1035F00003C02D910E94011B41505040D0F7089507
:10360000262FF999FECF1FBA92BD81BD20BD0FB6FE
:10361000F894FA9AF99A0FBE01960895F894FFCF9C
:10362000FFFFFFFFFFFFFFFFFFFFFFFFFFFFFFFFAA
:10363000FFFFFFE510EB10F110F710FD100311096B
:10364000110F1115111B1121112711FF2E01FFFF61
:10365000FFFFFFFFFFFFFFFFFFFFFFFFFFFF01FF78
:10366000FFFFFFFFFFFFFFFFFFFFFFFFFFFFFFFF6A
:10367000FFFFFFFFFFFFFFFFFFFFFFFFFFFFFFFF5A
:10368000FFFFFFFFFFFFFFFFFFFFFFFFFFFFFF7DCC
:04369000FFFF5AFFDF
:00000001FF
