:100000000C94F0010C94F9190C940D020C940D024F
:100010000C940D020C940D020C940D020C940D0224
:100020000C940D020C940D020C940D020C940D0214
:100030000C940D020C940D020C940D020C940D0204
:100040000C940D020C940D020C940D020C940D02F4
:100050000C940D020C940D020C940D020C940D02E4
:100060000C940D020C940D02120110010000000806
:10007000C016DF050203010200011A037A007500B1
:10008000720062006F00720067002E0069006E004F
:1000900066006F0032034400750061006C002000B0
:1000A00053007400720069006B0065002000560068
:1000B00033002E0032002E003000200028005000B7
:1000C00053003300290005010904A101A1027501B3
:1000D000950D150025013500450105091901290D6A
:1000E0008102950381010501750495012507463BB1
:1000F00001651409398142650095018103A10075EC
:100100000295042502450209300931093209358179
:1001100002C0C07508950826FF0046FF000600FFD4
:10012000092009210922092309240925092609276B
:1001300009280929092A092B950C81020A2126B1CF
:1001400002C009022200010100803E0904000001F2
:1001500003000000092101010001227C0007058243
:100160000310000130034400750061006C002000A2
:1001700053007400720069006B0065002000560097
:1001800033002E0032002E003000200028005000E6
:100190004300290005010905A101150025013500CD
:1001A00045017501950D05091901290D810205010A
:1001B0000900950381012507463B017504950165FA
:1001C0001409398142950109008101450225027512
:1001D00002950409300931093209358102C009024A
:1001E0002200010100803E0904000001030000001C
:1001F000092101010001224A0007058103080001CD
:100200001201100100000008C016DF050203010200
:1002100000012A0370006F0068006C002D006D0063
:10022000690063006800610065006C0040006700C1
:100230006D0078002E00620069007A000E0348000D
:10024000490044002000450050000600FF0901A1BC
:1002500001150026FF007508850195060900B20208
:1002600001850295840900B2020185039503090006
:10027000B20201850495830900B20201C00902227D
:1002800000010100803E0904000001030000000994
:100290002101010001223300070581030800C81273
:1002A000011001000000080304288E02030102006F
:1002B0000134034400750061006C00200053007499
:1002C00000720069006B0065002000560033002EAC
:1002D0000032002E003000200028004D0041004D6B
:1002E00000450029000501090615002501350045D6
:1002F000017501A101850105070952094F0951093D
:100300005009E009E209E109280929092C092B090A
:100310003B093C090409070909090A090C090E09E6
:1003200013091409150916091A091B091D091E09C3
:100330001F092209230926090195208102C0050C05
:100340000901A101850209E909EA950281029506E0
:100350008101C009022200010100803E0904000061
:100360000103000000092101010001226E000705C0
:100370008103080004120110010000000803042991
:100380008E02030102000134034400750061006C19
:1003900000200053007400720069006B00650020AB
:1003A00000560033002E0032002E003000200028BE
:1003B00000580042006F0078002900090220000167
:1003C0000100807D090400000258420000070582F8
:1003D00003200004070502030800040403090400C5
:1003E00011241FBECFEFD4E0DEBFCDBF11E0A0E0EF
:1003F000B1E0E4E1F7E302C005900D92A437B10744
:10040000D9F713E0A4E7B1E001C01D92A030B10715
:10041000E1F70E94FA040C94881B0C94000020E081
:1004200030E0D901A050BF4FFC01E20FF31F5C91F7
:100430004081541711F081E008952F5F3F4F233121
:10044000310579F780E00895589A81E090E00895A9
:100450005C9A469A589A82E090E00895589A84E00F
:1004600090E00895589A85E090E0089583E090E048
:10047000089590917401809103018695869580FD81
:1004800002C086B102C086B1869580958170809346
:100490007401992319F480E090E008C080E090E0B6
:1004A00020917401222311F481E090E020917501E4
:1004B000222349F010927701109276018823C9F027
:1004C000109275010895882349F0809178019091E8
:1004D0007901909377018093760108958091760158
:1004E00090917701009729F001979093770180937D
:1004F0007601089580910401869587708130E1F43A
:100500004C9907C0369B05C08091030180618F7DA7
:1005100010C04C9B07C0369905C0809103018062D2
:100520008F7E07C04C9B27C0369B25C0809103015E
:100530008F7C8093030108958091030183FF1BC08A
:10054000909174019923B9F04E9902C08F7C04C038
:10055000189908C080618F7D8093030181E08093AA
:1005600075010895199907C080628F7E80930301F9
:1005700081E080937501089585E085BD089510920E
:100580007A0116BCA89A0895589810927C01089593
:10059000A89B08C080917A018F3F19F08F5F8093EC
:1005A0007A01A89A80E020917A0190917B01291725
:1005B00008F081E0089580910401869590E08770AD
:1005C000907002978230910510F45C9846980E94D2
:1005D000DC1558985B9A80E090E008951F9385E0C1
:1005E00085BD8091020183FF21C0589810927C0143
:1005F000589A0E94961802C00E94AF1880917C0100
:100600008823D1F38FE080937B0110927A0116BC8E
:10061000A89A02C00E94AF180E94C8028823D1F392
:1006200080917C01823011F40E948F15809103012A
:1006300080FF21C0589810927C01589A0E9453184C
:1006400002C00E94AF1880917C018823D1F385E01D
:1006500080937B0110927A0116BCA89A02C00E9476
:10066000AF180E94C8028823D1F380917C018230A8
:1006700011F40E9474158091020184FF29C05898DA
:1006800010927C010E9428020E94871811E008C085
:100690000E94AF180E943307882311F010937C0149
:1006A00080917C018823A1F380E580937B011092E7
:1006B0007A0116BCA89A02C00E946F170E94C80255
:1006C0008823D1F380917C01823011F40E94331889
:1006D0008091020185FF10C0589810927C018FE133
:1006E0009FEBA2E081509040A040E1F700C00000E5
:1006F0000E94DB020E942C051F9108958091020147
:1007000090E0877090708130910521F4589A21E033
:1007100030E017C08230910519F40E94280210C001
:100720008430910521F4589A24E030E00AC08530E5
:10073000910521F4589A25E030E003C00E94DB02C5
:100740009C01C9010895CF93DF93EC0180E090E014
:10075000DC01A050BF4FFE01E80FF91F3C91208142
:10076000321729F401968331910591F715C0CE0116
:1007700060E070E043E150E00E94701B80E090E098
:10078000FC01E050FF4FDE01A80FB91F2C91208320
:10079000019683319105A1F7DF91CF910895CF9311
:1007A000DF93EC0180E091E060E070E043E150E035
:1007B0000E94601B80910001823021F48091010130
:1007C000843039F182E0888394E0998398E79A83B2
:1007D00091E09B8390E39C8324E32D8394E49E83A8
:1007E0009AE09F839CE2988793E299872A8728E280
:1007F0002B8723E02C8722E22D879E8796E59F8713
:1008000091E1988B9AE1998B8A8BCE010E94A30388
:100810000EC080E090E0FE01E80FF91FDC01A0505F
:10082000BF4F2C912083019683319105A1F7DF9171
:10083000CF910895DF93CF93CDB7DEB763970FB60F
:10084000F894DEBF0FBECDBFCE0101960E94CF034C
:1008500031990DC0589A0E94821802C00E947115E9
:100860003099FCCF5898CE0101960E94CF03639631
:100870000FB6F894DEBF0FBECDBFCF91DF910895C4
:100880000F931F93CF93DF9317B88FE388B914B8F2
:1008900085B989E08AB980EE8BB90E941A044E9915
:1008A00004C0809103018F7C0DC0189905C0809110
:1008B000030180618F7D06C0199906C080910301F4
:1008C00080628F7E8093030180910401869590E081
:1008D000877090708130910519F08430910511F482
:1008E0005C9A469A2091020130E0A90183E0569576
:1008F00047958A95E1F74170842F90E0D901A07166
:10090000B07024FD0196F901E074F07026FD0196A7
:1009100050910301C52FD0E0BE01617070708E014F
:1009200000FD0196E901C072D07025FD0196277087
:1009300030702115310519F083309105CCF01B99E9
:1009400002C0442349F51C9902C03097B1F51A99A9
:1009500003C061157105D9F51D9905C0209719F0DF
:100960000E94DB0240C0329936C01097A1F11DC031
:1009700082309105B1F51B9B0AC01C9B08C01A9BD5
:1009800006C01D9B04C04D9B02C033992AC0213074
:10099000310549F0442321F0589A21E030E024C089
:1009A0002230310541F0109719F00E9428021BC037
:1009B0002430310549F0309721F0589A24E030E096
:1009C00013C02530310569F06115710551F0589A51
:1009D00025E030E009C02115310519F423E030E0AD
:1009E00003C00E947E039C01C901DF91CF911F913A
:1009F0000F9108950E94400482309105F1F08330F8
:100A0000910534F4009789F08130910511F510C0FB
:100A100084309105B9F08430910524F0853091053A
:100A2000C1F413C00E94EE0214C00E942C0511C034
:100A30000E9496180E948F150CC00E9487180E9471
:100A4000331807C00E945B1804C00E9453180E940C
:100A5000741580E090E00895809104018695877078
:100A60008230F9F40E9439020E947A0280910301D7
:100A700082958F7090E0837090708130910519F4A9
:100A8000469A5C9805C08230910529F45C9A469894
:100A9000549A3E9A06C0009721F454983E985C9A66
:100AA000469A9091030196FF09C0309905C031998B
:100AB00003C045983D9A02C03D98459A8091040133
:100AC00080FF20C0947061F4309905C0349903C050
:100AD00044983C9A02C03C98449A309911C00BC08B
:100AE000319905C0349903C044983C9A02C03C989F
:100AF000449A319905C0339903C043983B9A02C088
:100B00003B98439A86958770833009F0A5CF349936
:100B100002C05C9A01C05C98329902C0469A9CCF90
:100B200046989ACF20917D0130917E0130938001CB
:100B300020937F0110927E0110927D014E9906C094
:100B400088E090E090937E0180937D014F9909C0E9
:100B500080917D0190917E01846090937E018093CD
:100B60007D01189909C080917D0190917E0181607D
:100B700090937E0180937D01199909C080917D0138
:100B800090917E01826090937E0180937D0180919F
:100B90007D0190917E01AC014470507083FF13C0C1
:100BA0004115510571F0A9014470507023FF06C032
:100BB0004115510559F027FF09C003C041155105E2
:100BC00051F0806804C04115510529F0806490936C
:100BD0007E0180937D0180917D0190917E01AC0129
:100BE0004270507080FF18C04115510579F0A9017D
:100BF0004270507020FF07C04115510511F024FDCF
:100C000005C0806204C04115510571F08061909368
:100C10007E0180937D0108954115510529F0806280
:100C200090937E0180937D010895FC0180912B01BA
:100C3000823009F441C0833038F4882309F47FC03E
:100C4000813009F00EC107C0833009F4B1C084308F
:100C500009F007C1D8C08381833089F0843030F433
:100C6000813051F0823009F0FCC018C08132C9F0E7
:100C7000823209F0F6C018C028E630E0CDC082818B
:100C8000813009F4D6C0823009F0EBC084E990E0ED
:100C90009093C2028093C10282E3089582E491E0BE
:100CA00035C084E591E03AC086EC90E09093C202B2
:100CB0008093C1028CE7089583818330B1F0843042
:100CC00030F4813051F0823009F0CBC01DC0813248
:100CD00019F1823209F0C5C027C088E690E09093F0
:100CE000C2028093C10282E108958281813009F4B9
:100CF000A0C0823009F0B5C084E691E09093C202B2
:100D00008093C10280E308958EED91E09093C2023A
:100D10008093C10282E2089580EF91E09093C20235
:100D20008093C10289E0089584E991E09093C20222
:100D30008093C10281E080937C018AE408958381DD
:100D4000833089F0843030F4813051F0823009F002
:100D500088C020C0813209F1823209F082C020C0EF
:100D600080E092E0BCCF8281813021F0823009F0B6
:100D700078C008C082E192E09093C2028093C102E1
:100D80008AE208958CE392E09093C2028093C102BC
:100D90008EE008958DE792E0B9CF8FE892E0BECF64
:100DA0008AE492E09093C2028093C10283E30895A3
:100DB0008381833089F0843030F4813051F0823087
:100DC00009F04FC012C0813299F0823209F049C057
:100DD00012C08FE992E083CF8281813051F182305D
:100DE00009F03FC081EB92E02EC083E593E08ECF07
:100DF00085E693E093CF85EE92E09093C2028093D4
:100E0000C1028EE608958381823019F1833059F052
:100E1000813039F525E733E03093C2022093C102D7
:100E200080937C0160CF8281813019F08230C9F4D7
:100E300008C08AE790E09093C2028093C1028AE1E1
:100E4000089587E893E09093C2028093C10284E3FF
:100E500008958BEB93E09093C2028093C10280E2ED
:100E6000089580E0089580E09091C602913009F4E1
:100E700081E0089510928901E9E8F1E012928FE093
:100E8000828385E5838317861686158614861386E6
:100E90001286118610861782168215821482089592
:100EA0000E943A0740910401242F269530E02770D4
:100EB00030702130310529F080917401882309F0C8
:100EC0009FC08091030182958F7090E08370907035
:100ED00081309105F9F490917D0197FF05C08091D3
:100EE0008B01837F80938B0196FF06C080918B01DD
:100EF00088608B7F80938B0194FF05C080918B016C
:100F00008C7F80938B0195FF7BC080918B018260E9
:100F10008E7F21C08230910509F590917D0197FF68
:100F200005C080918B018F7380938B0196FF06C063
:100F300080918B0180688F7B80938B0194FF05C02B
:100F400080918B018F7C80938B0195FF59C080919C
:100F50008B0180628F7E80938B0152C0009709F0D5
:100F60004FC080917D0190917E0187FF18C084FF62
:100F700007C087E080938A018FEF80938E011DC0A8
:100F800085FF07C081E080938A018FEF80938E01F7
:100F900035C010928A018FEF80938E0131C0BC0161
:100FA0006071707086FF1CC06115710549F085E0A5
:100FB00080938A018FEF80938F0180938D0120C0F1
:100FC00085FF07C083E080938A018FEF80938F01B4
:100FD00015C084E080938A018FEF80938F0110C049
:100FE0006115710529F086E080938A018FEFE5CFC6
:100FF00085FF06C082E080938A018FEF80938C0189
:101000001A9908C0809188018160809388018FEFD0
:10101000809393011D9908C0809188018860809316
:1010200088018FEF809390014D991AC040FF10C046
:1010300080917401882361F08091880180618093A0
:1010400088018FEF8093940181E08093750108C03F
:10105000809188018062809388018FEF8093950151
:101060001B9918C02430310569F0809174018823E0
:1010700049F08091890184608093890181E08093A7
:10108000750108C0809188018260809388018FEF8C
:10109000809392011C9918C02430310569F0809129
:1010A0007401882349F080918901886080938901C7
:1010B00081E08093750108C08091880184608093ED
:1010C00088018FEF8093910132991AC040FF10C0C0
:1010D00080917401882361F08091880180648093FD
:1010E00088018FEF8093960181E08093750108C09D
:1010F000809188018068809388018FEF80939701A9
:10110000339908C0809188018061809388018FEFB6
:1011100080939401349908C0809188018064809301
:1011200088018FEF809396018091030186FF0DC0A7
:1011300030990BC0319909C08091890180618093F9
:10114000890181E08093750124C08695869580FD94
:101150000EC08091760190917701009729F08091DF
:101160008901826080938901319913C00DC0309943
:1011700005C0809189018260809389018091760108
:1011800090917701009729F0809189018160809387
:1011900089012430310571F44C9905C08091890191
:1011A000846080938901369905C0809189018860A7
:1011B00080938901359905C0809189018061809370
:1011C0008901089510928901E9E8F1E012928FE017
:1011D000828385E58383089510928901E8E8F1E030
:1011E000109288018FE0828385E583830E949205B7
:1011F00020910401269530E02770307021303105B0
:1012000029F080917401882309F07AC0809103014C
:1012100082958F7090E08370907081309105F9F421
:1012200090917D0197FF05C080918B01837F809312
:101230008B0196FF06C080918B0188608B7F809325
:101240008B0194FF05C080918B018C7F80938B0173
:1012500095FF56C080918B0182608E7F21C08230C5
:10126000910509F590917D0197FF05C080918B0153
:101270008F7380938B0196FF06C080918B018068ED
:101280008F7B80938B0194FF05C080918B018F7CB5
:1012900080938B0195FF34C080918B0180628F7E9B
:1012A00080938B012DC0009759F580917D0190911D
:1012B0007E0187FF0BC084FF02C087E01FC085FF4F
:1012C00002C081E01BC010928A011AC0AC014071BB
:1012D000507086FF0BC04115510511F085E00EC01E
:1012E00085FF02C083E00AC084E008C041155105B3
:1012F00011F086E003C085FF03C082E080938A017D
:101300001A9905C0809188018061809388011D9998
:1013100005C0809188018062809388014D9905C045
:10132000809188018064809388011B9905C0809119
:1013300088018160809388011C9905C08091880193
:10134000826080938801329905C080918801846011
:1013500080938801339905C08091880180688093CB
:101360008801349905C08091880188608093880144
:101370002430310571F44C9905C080918901816058
:1013800080938901369905C080918901826080939C
:1013900089018091030186FF0DC030990BC03199FE
:1013A00009C08091890180618093890181E08093E7
:1013B000750124C08695869580FD0EC080917601CA
:1013C00090917701009729F0809189018460809342
:1013D0008901319913C00DC0309905C080918901F0
:1013E00084608093890180917601909177010097C4
:1013F00029F080918901886080938901359905C021
:1014000080918901806180938901089581E08093B2
:10141000880182E0809391010895CF93DF938DE856
:1014200091E0DC0114972C9120938D01EC0123971E
:10143000288120938E019C0122503040F901408187
:1014400040938F01FC018291809390011082F901F9
:10145000108218821C9210929201DF91CF91089510
:101460008091040182958F7090E087709070009752
:1014700019F48FEF9FEF25C08130910529F4109268
:101480002D0110922C0121C08230910519F481E0C8
:1014900090E017C08330910519F482E090E011C00C
:1014A0008430910519F483E090E00BC085309105FC
:1014B00019F484E090E005C08630910531F485E0B0
:1014C00090E090932D0180932C0120910501822FB3
:1014D00090E087709070009719F48FEF9FEF25C010
:1014E0008130910529F410922F0110922E0121C014
:1014F0008230910519F481E090E017C083309105A6
:1015000019F482E090E011C08430910519F483E071
:1015100090E00BC08530910519F484E090E005C09F
:101520008630910531F485E090E090932F0180930F
:101530002E01822F86958695869590E08770907013
:10154000009719F48FEF9FEF25C08130910529F4A2
:10155000109231011092300121C08230910519F4AE
:1015600081E090E017C08330910519F482E090E0AB
:1015700011C08430910519F483E090E00BC08530F0
:10158000910519F484E090E005C08630910531F4AE
:1015900085E090E09093310180933001229526956B
:1015A000269523708091060120FD08C090E083708D
:1015B0009070009769F48FEF9FEF22C090E08370E6
:1015C0009070009749F410923301109232011CC0C0
:1015D0008130910539F414C08130910549F482E0DD
:1015E00090E00EC08230910549F483E090E008C09D
:1015F0008230910549F484E090E002C085E090E0FB
:10160000909333018093320180910601282F269513
:10161000269530E0277030702115310519F42FEF31
:101620003FEF25C02130310529F410923501109289
:10163000340121C02230310519F421E030E017C017
:101640002330310519F422E030E011C02430310597
:1016500019F423E030E00BC02530310519F424E003
:1016600030E005C02630310531F425E030E030931C
:1016700035012093340182958695877090E08370C0
:101680009070009739F42091070120FD19C08FEF69
:101690009FEF3CC08130910549F42091070120FD66
:1016A0000FC0109237011092360134C0823091057C
:1016B00039F42091070120FD20C081E090E026C090
:1016C0008330910539F42091070120FD16C082E096
:1016D00090E01CC0009739F48091070180FF1AC088
:1016E00083E090E013C08130910539F480910701C7
:1016F00080FF10C084E090E009C08230910551F471
:101700008091070180FF06C085E090E0909337014B
:101710008093360180910701282F269530E02770AD
:1017200030702115310519F42FEF3FEF25C021301E
:10173000310529F4109239011092380121C022306C
:10174000310519F421E030E017C02330310519F4D8
:1017500022E030E011C02430310519F423E030E0FC
:101760000BC02530310519F424E030E005C02630E7
:10177000310531F425E030E0309339012093380110
:1017800082958F7090E087709070009719F48FEFBA
:101790009FEF25C08130910529F410923B011092F2
:1017A0003A0121C08230910519F481E090E017C020
:1017B0008330910519F482E090E011C084309105E6
:1017C00019F483E090E00BC08530910519F484E0B2
:1017D00090E005C08630910531F485E090E090936B
:1017E0003B0180933A0120910801822F90E087709D
:1017F0009070009719F48FEF9FEF25C0813091050D
:1018000029F41092400110923F0121C082309105CD
:1018100019F481E090E017C08330910519F482E05B
:1018200090E011C08430910519F483E090E00BC082
:101830008530910519F484E090E005C0863091056B
:1018400031F485E090E09093400180933F01822F36
:1018500086958695869590E087709070009719F42C
:101860008FEF9FEF25C08130910529F4109242013E
:101870001092410121C08230910519F481E090E07D
:1018800017C08330910519F482E090E011C08430D4
:10189000910519F483E090E00BC08530910519F4AF
:1018A00084E090E005C08630910531F485E090E059
:1018B00090934201809341012295269526952370AD
:1018C0008091090120FD08C090E08370907000971E
:1018D00069F48FEF9FEF22C090E0837090700097C3
:1018E00049F410924401109243011CC081309105CB
:1018F00039F414C08130910549F482E090E00EC0C3
:101900008230910549F483E090E008C0823091056F
:1019100049F484E090E002C085E090E090934401B7
:101920008093430180910901282F2695269530E068
:10193000277030702115310519F42FEF3FEF25C0C6
:101940002130310529F4109246011092450121C041
:101950002230310519F421E030E017C02330310581
:1019600019F422E030E011C02430310519F423E0ED
:1019700030E00BC02530310519F424E030E005C01B
:101980002630310531F425E030E0309346012093D4
:10199000450182958695877090E0837090700097DE
:1019A00039F420910A0120FD19C08FEF9FEF3CC050
:1019B0008130910549F420910A0120FD0FC0109259
:1019C00048011092470134C08230910539F42091CA
:1019D0000A0120FD20C081E090E026C083309105FF
:1019E00039F420910A0120FD16C082E090E01CC06D
:1019F000009739F480910A0180FF1AC083E090E0DB
:101A000013C08130910539F480910A0180FF10C024
:101A100084E090E009C08230910551F480910A0180
:101A200080FF06C085E090E09093480180934701D5
:101A300080910A01282F269530E0277030702115FB
:101A4000310519F42FEF3FEF25C02130310529F47E
:101A500010924A011092490121C02230310519F437
:101A600021E030E017C02330310519F422E030E0E6
:101A700011C02430310519F423E030E00BC02530CB
:101A8000310519F424E030E005C02630310531F489
:101A900025E030E030934A012093490182958F7010
:101AA00090E087709070009719F48FEF9FEF25C03A
:101AB0008130910529F410924C0110924B0121C004
:101AC0008230910519F481E090E017C083309105D0
:101AD00019F482E090E011C08430910519F483E09C
:101AE00090E00BC08530910519F484E090E005C0CA
:101AF0008630910531F485E090E090934C0180931D
:101B00004B0120910B01822F90E08770907000971D
:101B100019F48FEF9FEF25C08130910529F41092C1
:101B20004E0110924D0121C08230910519F481E0DF
:101B300090E017C08330910519F482E090E011C065
:101B40008430910519F483E090E00BC08530910555
:101B500019F484E090E005C08630910531F485E009
:101B600090E090934E0180934D01822F869586954B
:101B7000869590E087709070009719F48FEF9FEF33
:101B800025C08130910529F41092500110924F0127
:101B900021C08230910519F481E090E017C08330B4
:101BA000910519F482E090E011C08430910519F498
:101BB00083E090E00BC08530910519F484E090E05B
:101BC00005C08630910531F485E090E09093500196
:101BD00080934F01229526952695237080910C01C4
:101BE00020FD08C090E083709070009769F48FEF3B
:101BF0009FEF22C090E083709070009749F410929C
:101C00005201109251011CC08130910539F414C069
:101C10008130910549F482E090E00EC08230910558
:101C200049F483E090E008C08230910549F484E0F3
:101C300090E002C085E090E09093520180935101C2
:101C400080910C01282F2695269530E02770307062
:101C50002115310519F42FEF3FEF25C02130310553
:101C600029F4109254011092530121C02230310501
:101C700019F421E030E017C02330310519F422E0D7
:101C800030E011C02430310519F423E030E00BC0FE
:101C90002530310519F424E030E005C02630310547
:101CA00031F425E030E030935401209353018295C4
:101CB0008695877090E083709070009739F420913A
:101CC0000D0120FD19C08FEF9FEF3CC081309105C1
:101CD00049F420910D0120FD0FC010925601109281
:101CE000550134C08230910539F420910D0120FD59
:101CF00020C081E090E026C08330910539F4209126
:101D00000D0120FD16C082E090E01CC0009739F460
:101D100080910D0180FF1AC083E090E013C08130F4
:101D2000910539F480910D0180FF10C084E090E0AE
:101D300009C08230910551F480910D0180FF06C0E9
:101D400085E090E0909356018093550180910D01BC
:101D5000282F269530E0277030702115310519F4B1
:101D60002FEF3FEF25C02130310529F410925801A3
:101D70001092570121C02230310519F421E030E0E2
:101D800017C02330310519F422E030E011C02430AF
:101D9000310519F423E030E00BC02530310519F48A
:101DA00024E030E005C02630310531F425E030E094
:101DB000309358012093570182958F7090E087707F
:101DC0009070009719F48FEF9FEF25C08130910537
:101DD00029F410925A011092590121C082309105C4
:101DE00019F481E090E017C08330910519F482E086
:101DF00090E011C08430910519F483E090E00BC0AD
:101E00008530910519F484E090E005C08630910595
:101E100031F485E090E090935A018093590120912C
:101E20000E01822F90E087709070009719F48FEF69
:101E30009FEF25C08130910529F410925C0110922A
:101E40005B0121C08230910519F481E090E017C058
:101E50008330910519F482E090E011C0843091053F
:101E600019F483E090E00BC08530910519F484E00B
:101E700090E005C08630910531F485E090E09093C4
:101E80005C0180935B01822F86958695869590E014
:101E900087709070009719F48FEF9FEF25C0813005
:101EA000910529F410925E0110925D0121C08230EB
:101EB000910519F481E090E017C08330910519F481
:101EC00082E090E011C08430910519F483E090E045
:101ED0000BC08530910519F484E090E005C0863090
:101EE000910531F485E090E090935E0180935D016F
:101EF000229526952695237080910F0120FD08C01C
:101F000090E083709070009769F48FEF9FEF22C08C
:101F100090E083709070009749F4109260011092E5
:101F20005F011CC08130910539F414C081309105E6
:101F300049F482E090E00EC08230910549F483E0DC
:101F400090E008C08230910549F484E090E002C03E
:101F500085E090E09093600180935F0180910F0194
:101F6000282F2695269530E02770307021153105F1
:101F700019F42FEF3FEF25C02130310529F41092DD
:101F800062011092610121C02230310519F421E073
:101F900030E017C02330310519F422E030E011C0E1
:101FA0002430310519F423E030E00BC02530310531
:101FB00019F424E030E005C02630310531F425E085
:101FC00030E030936201209361018295869587709D
:101FD00090E083709070009739F42091100120FDFB
:101FE00019C08FEF9FEF3CC08130910549F42091DB
:101FF000100120FD0FC0109264011092630134C0E3
:102000008230910539F42091100120FD20C081E03B
:1020100090E026C08330910539F42091100120FD15
:1020200016C082E090E01CC0009739F48091100146
:1020300080FF1AC083E090E013C08130910539F42D
:102040008091100180FF10C084E090E009C08230D0
:10205000910551F48091100180FF06C085E090E069
:10206000909364018093630180911001282F26953D
:1020700030E0277030702115310519F42FEF3FEF54
:1020800025C02130310529F41092660110926501B6
:1020900021C02230310519F421E030E017C023308F
:1020A000310519F422E030E011C02430310519F473
:1020B00023E030E00BC02530310519F424E030E096
:1020C00005C02630310531F425E030E0309366015B
:1020D0002093650182958F7090E0877090700097D3
:1020E00019F48FEF9FEF25C08130910529F41092EC
:1020F00068011092670121C08230910519F481E0D6
:1021000090E017C08330910519F482E090E011C08F
:102110008430910519F483E090E00BC0853091057F
:1021200019F484E090E005C08630910531F485E033
:1021300090E0909368018093670120911101822FB4
:1021400090E087709070009719F48FEF9FEF25C093
:102150008130910529F410926A011092690121C021
:102160008230910519F481E090E017C08330910529
:1021700019F482E090E011C08430910519F483E0F5
:1021800090E00BC08530910519F484E090E005C023
:102190008630910531F485E090E090936A01809358
:1021A0006901822F86958695869590E0877090705C
:1021B000009719F48FEF9FEF25C08130910529F426
:1021C00010926C0110926B0121C08230910519F4BC
:1021D00081E090E017C08330910519F482E090E02F
:1021E00011C08430910519F483E090E00BC0853074
:1021F000910519F484E090E005C08630910531F432
:1022000085E090E090936C0180936B012295269578
:10221000269523708091120120FD08C090E0837004
:102220009070009769F48FEF9FEF1FC090E083706C
:102230009070009749F410926E0110926D0108950C
:102240008130910539F411C08130910549F482E063
:1022500090E00BC08230910569F483E090E005C006
:102260008230910569F484E090E090936E01809350
:102270006D01089585E090E090936E0180936D016B
:1022800008958091890180618093890108958091EA
:102290008901806280938901089580918A0182601A
:1022A00080938A01089580918901806480938901D7
:1022B000089580918C01816080938C0108958091B4
:1022C0008C01826080938C01089580918A018062E4
:1022D00080938A01089580918B01806480938B01A3
:1022E000089580918B01806180938B010895809186
:1022F0008B01806880938B01089580918B018460AD
:1023000080938B01089580918B01826080938B0173
:10231000089585E085BD08951092810116BC089549
:1023200020916F01222311F480E0089580918101B2
:102330008F3FD9F481E00895821790F436B596B5B1
:10234000975E96BD96B5391708F4A89A982F9B5FAB
:10235000981750F48FEF80938101909181010CC008
:1023600080938101A89AF9CF892FA899E5CFF3CF5F
:1023700086B58E5286BD932F9F3F29F086B5392FA3
:102380003F5F8E32A8F79093810180E0921708F0AA
:1023900081E0089580917401882329F11B9908C078
:1023A0008091890180688093890181E08093750123
:1023B0001C9908C080918A01816080938A0181E024
:1023C000809375018091030186FFEEC03099ECC0C7
:1023D0003199EAC080918B01886080938B0181E004
:1023E0008093750108954E9905C08091890181609F
:1023F000809389014F9905C0809189018460809301
:102400008901189905C080918901886080938901AC
:10241000199905C0809189018260809389011B9977
:1024200011C0E0913C01F0913D010190F081E02D5F
:10243000F7FD08C0EE0FFF1FED5EFE4F0190F0812B
:10244000E02D09951C9911C0E0913C01F0913D01EE
:102450000280F381E02DF7FD08C0EE0FFF1FED5E57
:10246000FE4F0190F081E02D0995329911C0E09165
:102470003C01F0913D010480F581E02DF7FD08C09D
:10248000EE0FFF1FED5EFE4F0190F081E02D0995EC
:102490001A9911C0E0913C01F0913D010084F18551
:1024A000E02DF7FD08C0EE0FFF1FED5EFE4F01901F
:1024B000F081E02D09951D9911C0E0913C01F0914A
:1024C0003D010284F385E02DF7FD08C0EE0FFF1FEC
:1024D000ED5EFE4F0190F081E02D09954D9911C000
:1024E000E0913C01F0913D010484F585E02DF7FD7C
:1024F00008C0EE0FFF1FED5EFE4F0190F081E02D52
:102500000995349911C0E0913C01F0913D0106809C
:10251000F781E02DF7FD08C0EE0FFF1FED5EFE4FC7
:102520000190F081E02D0995339911C0E0913C01B3
:10253000F0913D010684F785E02DF7FD08C0EE0F10
:10254000FF1FED5EFE4F0190F081E02D0995809117
:1025500003018695869580FD0EC08091760190914D
:102560007701009729F080918C01846080938C0121
:10257000319913C00DC0309905C080918C018460E1
:1025800080938C018091760190917701009729F0DA
:1025900080918C01806180938C01359905C0809178
:1025A0008B01886080938B0108958091740188234A
:1025B00089F08091030186FFEEC03099ECC031991B
:1025C000EAC080918B01886080938B0181E08093C9
:1025D000750108954E9905C080918B0180628093AA
:1025E0008B014F9905C080918A01806880938A0190
:1025F000189905C080918A01806480938A01199995
:1026000005C080918B01816080938B011B9911C063
:10261000E0913C01F0913D010190F081E02DF7FD4A
:1026200008C0EE0FFF1FE15EFE4F0190F081E02D2C
:1026300009951C9911C0E0913C01F0913D01028087
:10264000F381E02DF7FD08C0EE0FFF1FE15EFE4FA6
:102650000190F081E02D0995329911C0E0913C0183
:10266000F0913D010480F581E02DF7FD08C0EE0FEB
:10267000FF1FE15EFE4F0190F081E02D09951A9950
:1026800011C0E0913C01F0913D010084F185E02D05
:10269000F7FD08C0EE0FFF1FE15EFE4F0190F081D5
:1026A000E02D09951D9911C0E0913C01F0913D018B
:1026B0000284F385E02DF7FD08C0EE0FFF1FE15EF9
:1026C000FE4F0190F081E02D09954D9911C0E091E8
:1026D0003C01F0913D010484F585E02DF7FD08C033
:1026E000EE0FFF1FE15EFE4F0190F081E02D099596
:1026F000349911C0E0913C01F0913D010680F781D1
:10270000E02DF7FD08C0EE0FFF1FE15EFE4F0190C8
:10271000F081E02D0995339911C0E0913C01F091D1
:102720003D010684F785E02DF7FD08C0EE0FFF1F81
:10273000E15EFE4F0190F081E02D0995809103014B
:102740008695869580FD0EC08091760190917701E7
:10275000009729F080918C01886080938C013199D9
:1027600013C00DC0309905C080918C0188608093A2
:102770008C018091760190917701009729F08091EA
:102780008C01806280938C01359905C080918B010A
:10279000886080938B0108954E9905C080918901CE
:1027A0008160809389014F9905C08091890184607F
:1027B00080938901189905C0809189018860809370
:1027C0008901199905C080918901826080938901EE
:1027D0001A9905C0809189018068809389011D99AB
:1027E00005C080918A01816080938A011B9905C090
:1027F00080918A01886080938A011C9905C080912C
:102800008A01806180938A01809103018695869573
:1028100080FD0EC08091760190917701009729F09C
:1028200080918A01846080938A01319913C00DC020
:10283000309905C080918A01846080938A018091DB
:10284000760190917701009729F080918C01806446
:1028500080938C01339905C08091920181608093AF
:102860009201349905C08091920182608093920117
:1028700008951092880184E18093890110928B0160
:1028800090E190939C0192E490939D0110929E019F
:1028900091E090939F019093A00192E09093A10109
:1028A0008093A20186E08093A301E4EAF1E08FEF38
:1028B000819391E0EC3AF907D9F7089510929B01C2
:1028C00010929A011092990110929801109297011A
:1028D000109296011092950110929401109293011A
:1028E00010929201109291011092900110928F011A
:1028F00010928E0110928D0110928C0110928A011B
:1029000008950E945E140E94920520910401422FB6
:10291000469550E0477050704130510529F0809144
:102920007401882309F067C08091030182958F703C
:1029300090E08370907081309105E9F480917D0181
:1029400087FF06C09FEF909396019FE790939701B2
:1029500086FF03C090E89093970184FF03C090E83E
:102960009093950185FF47C08FEF809394018FE787
:102970008093950140C082309105E9F480917D01FA
:1029800087FF06C09FEF90939A019FE790939B016A
:1029900086FF03C090E890939B0184FF03C090E8FA
:1029A0009093990185FF27C08FEF809398018FE75F
:1029B0008093990120C00097F1F480917D0187FFF9
:1029C00005C090918A01916090938A0186FF05C0AD
:1029D00090918A01926090938A0184FF05C0909142
:1029E0008A01946090938A0185FF05C080918A01D5
:1029F000886080938A011A9903C08FEF80938E01BB
:102A00001D9903C08FEF80938F014D9910C020FF57
:102A10000BC080917401882339F08FEF809392016D
:102A200081E08093750103C08FEF809390011B9923
:102A300003C08FEF80938C011C9903C08FEF8093AC
:102A40008D01329910C020FF0BC080917401882342
:102A500039F08FEF8093930181E08093750103C07B
:102A60008FEF80939101339903C08FEF8093920190
:102A7000349903C08FEF809393014130510529F4BD
:102A800020FD03C0309912C00CC0809103018695CF
:102A9000869580FD13C08091760190917701009713
:102AA00029F080918A01806180938A01319918C050
:102AB00080918A01806280938A010895309905C0CF
:102AC00080918A01806180938A0180917601909142
:102AD0007701009729F080918A01806280938A01B2
:102AE00008950E94AF18089584E190E090937901D1
:102AF000809378010E94AF180E9439020E947A02E6
:102B00000E94811402C00E94AF188091DD0286FFEE
:102B1000FACF88E891E064E10E94D619EBCF88E211
:102B200090E090937901809378010E94AF180E9401
:102B300039020E947A020E94500788E891E060E121
:102B40000E94D61902C00E94AF188091DD0286FD56
:102B5000ECCFF9CFCF92DF92EF92FF920F931F93BA
:102B6000CF93DF93EC016B0100E010E019C0760118
:102B7000E01AF10A89E0E816F10434F068E0E62E84
:102B8000F12C02C00E94AF188091DD0286FFFACFBF
:102B9000CE01800F911F6E2D0E94D6190E0D1F1DA4
:102BA0000C151D0520F3DF91CF911F910F91FF9020
:102BB000EF90DF90CF900895519A8FE19FEBA2E0C4
:102BC00081509040A040E1F700C000000895EF92CE
:102BD000FF921F93CF93DF93FC0180912B018823F9
:102BE00009F054C080918201823009F045C02091E3
:102BF0007001309171012115310551F4918182816B
:102C0000448140938501109286013596655004C039
:102C10009091830180918401260F311D30937101C1
:102C200020937001122F1078209185013091860138
:102C30001216130664F5283031050CF4622FE92EC4
:102C4000E7017E01F82EE701E62EFF24CF01BE0149
:102C5000A7010E94701BCE0DDF1DD0938401C0938D
:102C6000830180918501909186018E199F0990932F
:102C70008601809385010BC0833041F4918182816C
:102C8000909383018093840111E001C01FEF812F95
:102C9000DF91CF911F91FF90EF900895CF93DF9335
:102CA000FC018281238190912B01923009F447C06D
:102CB000933038F4992309F45EC0913009F00BC1C8
:102CC00007C0933009F4B4C0943009F004C1E0C0E7
:102CD00090819076903209F0FEC09181913009F098
:102CE000FAC0233001F5882309F0F5C081E2809312
:102CF000880186E28093890110928A0110928B01EB
:102D000010928C0110928D0110928E0110928F0101
:102D100088E891E09093C2028093C10282E08093A0
:102D20007C0188E0D9C0213009F0D5C00E943A0763
:102D300088E891E09093C2028093C102CAC080816A
:102D40008076803209F0C7C08181813009F0C3C02C
:102D5000213009F0C0C010928901E8E8F1E010923A
:102D600088018FE0828385E58383F093C202E0933C
:102D7000C10283E0B1C090819076903209F0ABC07F
:102D80009181993069F4823029F410927101109286
:102D9000700103C0833009F09EC08093820128C077
:102DA000913009F098C08130C1F48093880184E0AB
:102DB0008093890110928A0110928B0182E08093A6
:102DC0008C0110928D0110928E0188E891E0909311
:102DD000C2028093C10287E07FC0843009F07BC0CB
:102DE000609183017091840182E06030780710F077
:102DF0008FEF72C040E052E0461B570B4038510540
:102E000010F040E850E0C8E8D1E084E08093880109
:102E10004093890110928A0110928B01CE01049691
:102E20000E94601BD093C202C093C10284E854C0C8
:102E300090819076903209F04EC09181923059F491
:102E4000823008F048C08FE691E09093C2028093F0
:102E5000C10281E041C09A3029F48230E0F520932C
:102E60006F0139C09130B9F5813041F488E891E0C3
:102E70009093C2028093C10285E02EC0823059F542
:102E800081E991E09093C2028093C10282E024C064
:102E9000808190E0807690708032910559F4818134
:102EA0008130C9F488E891E09093C2028093C10216
:102EB00084E112C08034910571F48181863059F427
:102EC0008CE991E09093C2028093C10282E08093EA
:102ED0007C0180E101C080E0DF91CF91089588E816
:102EE00091E063E00E94DB190E94AF1880919B0281
:102EF00084FF03C082E080937C010895CF92DF922B
:102F0000EF92FF920F931F93CF93DF93EC016B012E
:102F100000E010E019C07601E01AF10A89E0E81635
:102F2000F10434F078E0E72EF12C02C00E94AF18D3
:102F300080919B0284FFFACFCE01800F911F6E2DEE
:102F40000E94DB190E0D1F1D0C151D0520F3DF91CE
:102F5000CF911F910F91FF90EF90DF90CF90089548
:102F60000E940D0A0E9439020E947A022091740187
:102F7000222381F11A992EC04E990AC08CE291E069
:102F800090933D0180933C0181E080933E0120C0FD
:102F9000199908C08FE391E090933D0180933C0123
:102FA00082E013C04F9908C08FE491E090933D01F7
:102FB00080933C0183E009C018990CC08FE591E033
:102FC00090933D0180933C0184E080933E0181E039
:102FD000809375018091030182958F7090E08370DA
:102FE0009070009729F4222371F40E94CC130BC037
:102FF0008130910519F40E94CA1105C082309105F3
:1030000011F40E94D5120E9490118823C1F490916E
:103010008D0180918901981791F490918E01809192
:103020008A01981761F490918F0180918B01981714
:1030300031F49091900180918C01981749F088E8C3
:1030400091E065E070E00E947E171092810116BC4D
:1030500080919201882331F081E991E062E070E093
:103060000E947E1708950E94AF180E9439020E94A4
:103070007A020E94EC0888E891E064E070E00E9427
:103080007E17F1CF519A8FE19FEBA2E081509040E3
:10309000A040E1F700C0000051980E949E1878946B
:1030A0000E94AF18089584E080932B010E94391488
:1030B0000E944218089583E080932B0180910301C0
:1030C000982F969590FD03C080618F7D02C080622D
:1030D0008F7E809303010E9442180E94AF1881E006
:1030E0008093880182E0809391010E94300A85E0FC
:1030F00085BD88E893E190937901809378010E94DF
:10310000B017FDCF10922B010E944218089582E063
:1031100080932B0110928901E9E8F1E012928FE08F
:10312000828385E583830E944218089581E080931D
:103130002B010E943A070E9442180895E9E6F0E048
:10314000808183608083E89A8BE480939C028093E3
:10315000DE028AE580939B028093DD0208951F932F
:10316000CF93DF936091C302635067FD9BC0809152
:10317000C002CCE0D0E0C81BD109C953DD4F80911B
:10318000BF028D3209F07BC0683009F089C083EC42
:10319000809390028AE58093720110928701888162
:1031A000807621F0CE010E944E1656C09A81109270
:1031B00099028981882331F410929A0229E932E038
:1031C00082E045C0853019F49093C4023DC086303A
:1031D00021F58B818130C1F08230B1F0833081F4F0
:1031E0008A81882341F48BED93E09093C20280930F
:1031F000C10284E00EC0813039F0823049F404C04D
:10320000813211F0823221F4CE010E94150601C0F4
:1032100080E090E4909387011FC0883019F426EC79
:1032200032E009C0893019F49093C6020DC08A308B
:1032300021F429E932E081E00AC08B3029F48BE4E3
:1032400080939C028093DE0229E932E080E0309393
:10325000C2022093C10209C08F3F39F4988197FDC3
:103260008E8190E89093870106C09F81992319F47D
:103270009E81981708F0982F9093730111C0809148
:10328000870187FF0DC0CE010E94E7158F3F21F413
:103290008EE18093720104C0882311F010927301B3
:1032A0001092C3028091720184FF4EC0809173011D
:1032B0008F3F09F449C0182F893008F018E0811BAE
:1032C000809373018091900298E8892780939002FF
:1032D000112369F12091C1023091C20290918701BE
:1032E000812F815096FF10C090E0BC016E567D4F3B
:1032F000A901C1E9D2E0FA01A491A9934F5F5F4F00
:10330000C617D707C1F70CC090E0AC014E565D4F11
:10331000D901E1E9F2E06D916193E417F507D9F77E
:103320000196820F931F9093C2028093C10281E99C
:1033300092E0612F0E94F5191C5F1C3019F08FEF8D
:1033400080937301109372018AE099B1967031F401
:103350008150D9F71092C4021092BE02DF91CF9132
:103360001F9108951F93CF93DF93FC01162FEA015D
:10337000888184FF05C0898198E88927898302C0F4
:103380008AE588839E012E5F3F4F912FD90181915D
:103390008D9391501916DCF3C901612F0E94F51924
:1033A0001C5F1883DF91CF911F9108954DED52E07E
:1033B0000E94B21908954BE952E00E94B219089593
:1033C000A82FB92F80E090E041E050EA60956F5F50
:1033D00058F42D9138EF82279795879510F0842720
:1033E00095273F5FC8F3F3CF0895EADF8D939D9350
:1033F0000895CF93CFB7CF93499BFECF499B09C088
:10340000499B07C0499B05C0499B03C0499B01C01C
:10341000A3C0DF93C091C002DD27C953DD4F499B94
:1034200002C0DF91EBCF2F930F931F9309B12FEFC2
:1034300001FB20F94F933F9319B14FEF012701FB97
:1034400021F93BE031C04E7F012F19B1216028C026
:10345000102F4D7F2260000009B129C04B7F2460EE
:10346000012F000019B12BC019B1477F28602AC075
:103470004F7E09B120612CC04F7D19B120622FC051
:103480004F7B09B1206432C0422709B149934FEF05
:103490000000102711FB20F919B11670C9F1297F1E
:1034A00091F2012701FB21F909B1237F89F2315003
:1034B00058F1102711FB22F919B1277E79F2012763
:1034C00001FB23F92F7C81F209B1102711FB24F9AC
:1034D0002F7971F200C019B1012701FB25F92F7373
:1034E00059F200C009B1102711FB26F9223040F231
:1034F00000C019B1012701FB27F9243028F64F77C6
:10350000206819B10000F9CF11E01CBB002719C0D9
:103510003B503195C31BD04011E01CBB0881033CDC
:10352000F9F00B34E9F02091BE021981110F12134A
:10353000EDCF4A81441F093641F10D3211F0013EB1
:1035400029F70093C5023F914F911F910F912F9141
:10355000DF91CCB3C0FD50CFCF91CFBFCF911895A5
:103560000091C502002379F31091C3021123F9F5EC
:103570003430FAF13093C3020093BF021091C002BD
:103580003BE0311B3093C00234C00091C3020130D4
:1035900074F50AE54F7049F43091720134FD2BC087
:1035A00000937201C0E9D2E02AC0423049F0309164
:1035B0009B0234FD20C000939B02CCE9D2E01FC0E7
:1035C0003091DD0236FD17C00093DD02CEEDD2E072
:1035D00016C0052710E00BB91FC0052722C005271C
:1035E00027C005272CC0052710E00BB933C04AE5DA
:1035F00003C042ED01C0432FC4E1D0E032E01AB174
:103600001660599A0BB11AB95F9356E020E820FF73
:1036100005270BB9279517951C3FD8F620FF0527DE
:1036200027950BB917951C3FC0F620FF0527279556
:1036300017950BB91C3F98F620FF0527279517957E
:103640001C3F0BB970F600C0499120FF05270BB94C
:10365000279517951C3F38F620FF052727950BB9AE
:1036600017951C3F38F520FF0527279517950BB9AF
:103670001C3F10F520FF0527279517951C3F0BB918
:10368000E8F4242F3A9519F6097F5F910BB9109150
:10369000C402110FC651D04011F01093BE0211E0C8
:1036A0001CBB02601AB1197F402F497F0BB91AB9B0
:1036B0004BB949CF0527D3CF0527D8CF0527DDCF75
:1036C000DC01CB01FC01F999FECF06C0F2BDE1BDE2
:1036D000F89A319600B40D9241505040B8F70895D1
:1036E000DC01CB0103C02D910E947B1B4150504057
:1036F000D0F70895262FF999FECF1FBA92BD81BD4C
:1037000020BD0FB6F894FA9AF99A0FBE0196089563
:04371000F894FFCF5B
:10371400FFFFFFFFFFFFFFFFFFFFFFFFFFFFFFFFB5
:10372400FFFFFF411147114D11531159115F1165ED
:10373400116B11711177117D118311FFFFFFFFFFD1
:10374400FFFFFFFFFFFFFFFFFFFFFFFF2C0101FF54
:10375400FFFFFFFFFFFFFFFFFFFFFFFFFFFFFFFF75
:10376400FFFFFFFFFFFFFFFFFFFFFFFFFFFFFFFF65
:10377400FFFFFFFFFFFFFFFFFFFFFFFFFFFFFF7DD7
:04378400FFFF5AFFEA
:00000001FF
