:100000000C94A2010C9488160C94BF010C94BF01AF
:100010000C94BF010C94BF010C94BF010C94BF0160
:100020000C94BF010C94BF010C94BF010C94BF0150
:100030000C94BF010C94BF010C94BF010C94BF0140
:100040000C94BF010C94BF010C94BF010C94BF0130
:100050000C94BF010C94BF010C94BF010C94BF0120
:100060000C94BF010C94BF011201100100000008A4
:10007000C016DF050003010200011A037A007500B3
:10008000720062006F00720067002E0069006E004F
:1000900066006F0032034400750061006C002000B0
:1000A00053007400720069006B0065002000560068
:1000B00033002E0030002E003000200028005000B9
:1000C00053003300290005010904A101A1027501B3
:1000D000950D150025013500450105091901290D6A
:1000E0008102950381010501750495012507463BB1
:1000F00001651409398142650095018103A10075EC
:100100000295042502450209300931093209358179
:1001100002C0C07508950826FF0046FF000600FFD4
:10012000092009210922092309240925092609276B
:1001300009280929092A092B950C81020A2126B1CF
:1001400002C009022200010100807D0904000001B3
:1001500003000000092101010001227C0007058144
:100160000308000112011001000000080304288E9A
:1001700000030102000134034400750061006C00BB
:10018000200053007400720069006B0065002000BD
:10019000560033002E0030002E00300020002800D2
:1001A0004D0041004D0045002900050109061500DC
:1001B0002501350045017501A10185010507095299
:1001C000094F0951095009E009E209E10928092903
:1001D000092C092B093B093C090409070909090AEB
:1001E000090C090E0913091409150916091A091B26
:1001F000091D091E091F0922092309260901952045
:100200008102C0050C0901A101850209E909EA95ED
:1002100002810295068101C00902220001010080CD
:100220007D09040000010300000009210101000113
:10023000226E00070581030800041201100100006E
:1002400000080304298E0003010200013403440066
:10025000750061006C00200053007400720069009A
:100260006B0065002000560033002E0030002E0089
:10027000300020002800580042006F00780029005C
:1002800009022000010100803209040000025842E6
:1002900000000705820308000407050203080004A4
:1002A0001201100100000008C016DF050003010262
:1002B00000012A0370006F0068006C002D006D00C3
:1002C000690063006800610065006C004000670021
:1002D0006D0078002E00620069007A000E0348006D
:1002E000490044002000450050000600FF0901A11C
:1002F00001150026FF007508850195060900B20268
:1003000001850295840900B2020185039503090065
:10031000B20201850495830900B20201C0090222DC
:1003200000010100807D09040000010300000009B4
:100330002101010001223300070581030800C804E0
:100340000309040011241FBECFEFD4E0DEBFCDBFF0
:1003500011E0A0E0B1E0E2E3F0E302C005900D920D
:10036000A437B107D9F712E0A4E7B1E001C01D92AC
:10037000AC3CB107E1F70E945D040C9417180C9493
:100380000000AC0120E030E0F901E050FF4FDA015D
:10039000A20FB31F90818C91981711F081E00895FE
:1003A0002F5F3F4F2231310579F780E00895589A49
:1003B00081E090E00895589A82E090E00895589A7C
:1003C00083E090E0089590910301892F86958695AA
:1003D00086958370813051F54C990BC0369B09C0CE
:1003E000809102018064809302019E7F90930301BB
:1003F00008954C9B0DC036990BC0809102018F7BF4
:10040000809302018091030181608093030108952C
:100410004C9B0CC0369B0AC0809102018F7B80935D
:100420000201809103018E7F8093030108958091E2
:10043000030182FD3D9A86958695869590E08370AE
:1004400090700297029710F4549A3E9A0E949F056A
:1004500058985B9A80E090E008958091020190E0C6
:1004600083709070009721F4589A21E030E010C01A
:100470008130910521F4589A22E030E009C00297BA
:1004800021F4589A23E030E003C00E9417029C0137
:10049000C9010895CF93DF93EC0120E030E0F9012A
:1004A000E050FF4FDE01A20FB31F90818C9198178F
:1004B00031F42F5F3F4F2231310589F716C0CE014D
:1004C00060E070E042E150E00E94FF1720E030E081
:1004D000F901E050FF4FDE01A20FB31F8C91808322
:1004E0002F5F3F4F2231310599F7DF91CF9108956A
:1004F000CF93DF93EC0180E091E060E070E042E1B7
:1005000050E00E94EF1780910001823021F4809129
:100510000101813019F182E0888381E089838CE3D5
:100520008A8380E68B8328E62C8388E08D8385E1AF
:100530008E8388E58F8396E49887298780E58A876C
:1005400086E08B8784E48C879D878CE28E8783E2AC
:100550008F8784E3888B84E0898B0FC020E030E0B4
:10056000FE01E20FF31FD901A050BF4F8C91808391
:100570002F5F3F4F2231310599F7DF91CF910895D9
:100580005F926F927F928F929F92AF92BF92CF9223
:10059000DF92EF92FF920F931F93DF93CF93CDB72C
:1005A000DEB762970FB6F894DEBF0FBECDBFCE01A7
:1005B00001960E9478023199C4C0589A0E94701224
:1005C00002C00E945C12309B10C01A9B0EC01D9B83
:1005D0000CC04D9B0AC01B9B08C01C9B06C0329BD5
:1005E00004C0339B02C03499ECCF5898CE010196D9
:1005F0000E9478028091020190E0FC01E470F070AA
:10060000BC0168707070AC01407150709C01207228
:10061000307082E0582E772473940CE3602E10E63D
:10062000812EA8E6B8E09B2E95E1A92E88E5B82E8C
:1006300096E400E5C02E16E0E12EB4E4DB2E8CE259
:10064000F82E03E214E3B4E07AC01C9912C0598278
:100650007A826B828C82AD839E82AF82B8869987C4
:10066000AA87CB86EC86DD869E87FF86088B198B52
:10067000BA8B1B9B1DC01C9B1BC01A9B19C01D9BCA
:1006800017C0329B15C04E9903C08B818F7B04C06D
:10069000189906C08B8180648B838C818E7F07C004
:1006A000199906C08B818F7B8B838C8181608C83B1
:1006B0001B9921C0309729F0189903C08B818C7F3A
:1006C00019C06115710531F04E9904C08B818160AC
:1006D0008D7F10C04115510531F0199904C08B81EF
:1006E00082608E7F07C02115310529F04F9903C024
:1006F0008B8183608B831A990AC0189903C08C81FF
:100700008B7F8C83199903C08C8184608C831D99A5
:1007100016C04E9903C08C81877E10C0189904C002
:100720008C8188608F7E0AC0199904C08C81806199
:10073000877F04C04F9903C08C8188618C83309976
:1007400084CFCE0101960E944A0262960FB6F894B9
:10075000DEBF0FBECDBFCF91DF911F910F91FF90F4
:10076000EF90DF90CF90BF90AF909F908F907F9051
:100770006F905F900895CF93DF9317B88FE388B998
:1007800014B885B989E08AB980EE8BB90E94C0029D
:100790004E9904C0809102018F7B05C0189909C051
:1007A00080910201806480930201809103018E7F19
:1007B0000AC019990AC0809102018F7B80930201BF
:1007C00080910301816080930301809103018695EC
:1007D000869586958370813011F45C9A469A809153
:1007E0000201482F50E0CA01969587959695879506
:1007F000682F6170262F30E0FA01E870F07043FF37
:1008000002C02F5F3F4FDA01A071B07044FF02C0F9
:100810002F5F3F4FEA01C072D07045FF02C02F5FCB
:100820003F4F2230310501F51B9B0AC01C9B08C0BD
:100830001A9B06C01D9B04C04D9B02C0339936C055
:10084000CA0183709070009729F06623A1F481306B
:10085000910529F0EF2BB9F48230910511F1AB2B02
:10086000D1F4039719F11DC023303105FCF01B9919
:1008700006C0662321F0589A21E030E01AC01C9986
:1008800006C0EF2B21F0589A22E030E012C01A99EE
:1008900006C0AB2B21F0589A23E030E00AC01D9926
:1008A00005C0CD2B19F00E94170202C00E942D0234
:1008B0009C01C901DF91CF9108950E94BB03813053
:1008C000910579F0823091051CF4892B39F011C023
:1008D0008230910549F0039761F409C00E947C04BD
:1008E00008C00E94DE1305C00E94BF1302C00E9410
:1008F000A51280E090E0089560910301862F86950F
:1009000086958695482F50E04370507042305105CF
:1009100001F580910201829586958695837090E01D
:100920009C012170307080FF04C060FD02C05C98A3
:100930000FC0232B71F4862F90E09C012170307042
:1009400060FF03C05C9A469804C0232B11F45C9AA4
:10095000469A862F90E084709070009739F0309915
:1009600004C0319902C0459801C0459A43305105F1
:10097000A1F7349902C05C9A01C05C98329902C018
:10098000469AEBCF4698E9CFFC0180912A0181304D
:1009900049F0813008F48CC08230A9F1833009F02D
:1009A000CCC05CC08381833089F0843030F48130E6
:1009B00051F0823009F0C1C018C08132C9F08232D2
:1009C00009F0BBC018C088E690E083C08281813006
:1009D00009F456C0823009F0B0C084E990E09093E9
:1009E000A5028093A40282E3089582E491E08FC07F
:1009F00084E591E094C086EC90E09093A50280930A
:100A0000A4028CE708958381833089F0843030F428
:100A1000813051F0823009F090C012C0813299F0DB
:100A2000823209F08AC012C084E691E052C082810D
:100A3000813031F1823009F080C086E791E02AC030
:100A400088E192E064C08AE292E069C08AEA91E0BB
:100A50009093A5028093A4028EE60895838182304C
:100A6000F9F0833031F0813009F067C08AE392E019
:100A700030C08281813021F0823009F05EC008C030
:100A80008AE790E09093A5028093A4028AE10895FA
:100A90008CE492E09093A5028093A40284E30895ED
:100AA00080E892E09093A5028093A40280E20895EA
:100AB00083818330A1F0843028F4813041F082308A
:100AC000E1F523C0813249F18232B9F52EC080EAC6
:100AD00092E09093A5028093A40282E1089582811E
:100AE000813019F0823049F508C082EB92E0909392
:100AF000A5028093A4028AE208958CED92E090937F
:100B0000A5028093A4028EE008958DE193E0909376
:100B1000A5028093A40282E208958FE293E090936D
:100B2000A5028093A40289E008958AEE92E0909352
:100B3000A5028093A40283E3089580E00895519A6A
:100B400088EB9BE02CE231E0F9013197F1F7019756
:100B5000D9F7089510928301109282018FE080935B
:100B6000840185E580938501109291011092900196
:100B700010928F0110928E0110928D0110928C01B3
:100B800010928B0110928A011092890110928801B3
:100B9000109287011092860108950E94AA05809103
:100BA0000201829586958695837080FF1FC0809193
:100BB000030180FD80C04E9904C080918501837F30
:100BC00006C04F9906C08091850188608B7F809315
:100BD0008501189904C0809185018C7F25C01999E1
:100BE0006AC08091850182608E7F1EC08091030162
:100BF00080FFD3C04E9904C0809185018F7306C0D9
:100C00004F9906C08091850180688F7B8093850114
:100C1000189904C0809185018F7C06C019994BC03A
:100C20008091850180628F7E8093850144C01899F0
:100C300007C087E0809384018FEF8093880119C0FB
:100C4000199907C081E0809384018FEF8093880118
:100C500030C0109284018FEF809388012CC04F998F
:100C60001BC0189909C085E0809384018FEF8093A1
:100C70008901809387011FC0199907C083E0809381
:100C800084018FEF8093890114C084E080938401F4
:100C90008FEF809389010FC0189905C086E080937B
:100CA00084018FEFE6CF199906C082E0809384011A
:100CB0008FEF809386011A9908C08091820181602C
:100CC000809382018FEF80938D011D9908C08091E0
:100CD00082018860809382018FEF80938A014D9911
:100CE00008C0809182018062809382018FEF80939F
:100CF0008F011B9908C080918201826080938201DC
:100D00008FEF80938C011C9908C0809182018460D0
:100D1000809382018FEF80938B01329908C080917C
:100D200082018068809382018FEF809391013399D3
:100D300008C0809182018061809382018FEF80934F
:100D40008E01349908C08091820180648093820171
:100D50008FEF809390018091030182FF08C030994A
:100D600006C0319904C08091830180610CC0309924
:100D700005C080918301826080938301319905C011
:100D800080918301816080938301359909C08091AE
:100D9000830180618093830108954E9B48CF5FCF8C
:100DA000089581E08093820182E080938B01089511
:100DB000E7E8F1E0AF0144505040DA018C918093B4
:100DC00087019F0123503040D9018C918093880185
:100DD000DF0112978C9180938901829180938A011F
:100DE00010821C92F9011082DA011C9210928C017F
:100DF000089580910301829586958770282F30E0B1
:100E0000237030702115310539F48091040180FD83
:100E100003C08FEF9FEF3DC02130310549F4809131
:100E2000040180FD05C010922F0110922E0135C0E3
:100E30002230310539F48091040180FD03C081E046
:100E400090E027C02330310539F48091040180FD02
:100E50000DC082E090E01DC02115310539F480916C
:100E6000040180FF03C083E090E013C0213031050E
:100E700039F48091040180FF03C084E090E009C050
:100E80002230310551F48091040180FF06C085E0D5
:100E900090E090932F0180932E0120910401822FE6
:100EA000869590E087709070009719F48FEF9FEF10
:100EB00024C08130910529F4109231011092300143
:100EC00020C08230910519F481E090E016C0833093
:100ED000910519F482E090E010C08430910519F476
:100EE00083E090E00AC08530910519F484E090E039
:100EF00004C0069731F485E090E09093310180932F
:100F0000300122952F70822F90E0877090700097AB
:100F100019F48FEF9FEF24C08130910529F41092CE
:100F200033011092320120C08230910519F481E022
:100F300090E016C08330910519F482E090E010C073
:100F40008430910519F483E090E00AC08530910562
:100F500019F484E090E004C0069731F485E090E055
:100F6000909333018093320120910501822F90E00C
:100F700087709070009719F48FEF9FEF24C0813035
:100F8000910529F4109235011092340120C082306D
:100F9000910519F481E090E016C08330910519F4B1
:100FA00082E090E010C08430910519F483E090E075
:100FB0000AC08530910519F484E090E004C00697DA
:100FC00031F485E090E09093350180933401822FD5
:100FD00086958695869590E087709070009719F4B5
:100FE0008FEF9FEF24C08130910529F410923701D3
:100FF0001092360120C08230910519F481E090E012
:1010000016C08330910519F482E090E010C084305E
:10101000910519F483E090E00AC08530910519F438
:1010200084E090E004C0069731F485E090E090936E
:101030003701809336012295269526952370822FBD
:1010400090E09C012170307080FD0AC08091060103
:1010500090E083709070892B19F48FEF9FEF42C05E
:10106000422F222361F08091060190E083709070FE
:10107000892B29F4109239011092380137C02115BB
:10108000310541F48091060190E0837090708130C9
:10109000910541F1442341F0809106018370813034
:1010A00019F482E090E01EC02115310541F48091D1
:1010B00006018370823019F483E090E013C044236A
:1010C00041F0809106018370823019F484E090E051
:1010D00009C0232B59F4809106018370833031F4C9
:1010E00085E090E0909339018093380120910601CA
:1010F000822F8695869590E087709070009719F4FE
:101100008FEF9FEF24C08130910529F410923B01AD
:1011100010923A0120C08230910519F481E090E0EC
:1011200016C08330910519F482E090E010C084303D
:10113000910519F483E090E00AC08530910519F417
:1011400084E090E004C0069731F485E090E090934D
:101150003B0180933A0122952695277030E0237059
:1011600030702115310539F48091070180FD03C0ED
:101170008FEF9FEF3DC02130310549F48091070189
:1011800080FD05C010923D0110923C0135C0223017
:10119000310539F48091070180FD03C081E090E0C2
:1011A00027C02330310539F48091070180FD0DC03F
:1011B00082E090E01DC02115310539F480910701CE
:1011C00080FF03C083E090E013C02130310539F483
:1011D0008091070180FF03C084E090E009C02230C5
:1011E000310551F48091070180FF06C085E090E051
:1011F00090933D0180933C0120910701822F8695B9
:1012000090E087709070009719F48FEF9FEF24C0E3
:101210008130910529F41092400110923F0120C0C5
:101220008230910519F481E090E016C08330910579
:1012300019F482E090E010C08430910519F483E045
:1012400090E00AC08530910519F484E090E004C074
:10125000069731F485E090E09093400180933F0140
:1012600022952F70822F90E087709070009719F46C
:101270008FEF9FEF24C08130910529F41092420135
:101280001092410120C08230910519F481E090E074
:1012900016C08330910519F482E090E010C08430CC
:1012A000910519F483E090E00AC08530910519F4A6
:1012B00084E090E004C0069731F485E090E09093DC
:1012C00042018093410120910801822F90E08770B4
:1012D0009070009719F48FEF9FEF24C08130910533
:1012E00029F4109244011092430120C082309105EC
:1012F00019F481E090E016C08330910519F482E082
:1013000090E010C08430910519F483E090E00AC0A9
:101310008530910519F484E090E004C0069731F41B
:1013200085E090E09093440180934301822F86955D
:101330008695869590E087709070009719F48FEFEE
:101340009FEF24C08130910529F41092460110923C
:10135000450120C08230910519F481E090E016C06B
:101360008330910519F482E090E010C0843091053B
:1013700019F483E090E00AC08530910519F484E007
:1013800090E004C0069731F485E090E09093460128
:10139000809345012295269526952370822F90E013
:1013A0009C012170307080FD0AC08091090190E09D
:1013B00083709070892B19F48FEF9FEF42C0422FFA
:1013C000222361F08091090190E083709070892B55
:1013D00029F4109248011092470137C021153105B8
:1013E00041F48091090190E0837090708130910503
:1013F00041F1442341F0809109018370813019F457
:1014000082E090E01EC02115310541F48091090170
:101410008370823019F483E090E013C0442341F0DC
:10142000809109018370823019F484E090E009C052
:10143000232B59F4809109018370833031F485E0C6
:1014400090E0909348018093470120910901822FF9
:101450008695869590E087709070009719F48FEFCD
:101460009FEF24C08130910529F410924A01109217
:10147000490120C08230910519F481E090E016C046
:101480008330910519F482E090E010C0843091051A
:1014900019F483E090E00AC08530910519F484E0E6
:1014A00090E004C0069731F485E090E090934A0103
:1014B0008093490122952695277030E02370307083
:1014C0002115310539F480910A0180FD03C08FEFA9
:1014D0009FEF3DC02130310549F480910A0180FD24
:1014E00005C010924C0110924B0135C022303105DD
:1014F00039F480910A0180FD03C081E090E027C0AB
:101500002330310539F480910A0180FD0DC082E05D
:1015100090E01DC02115310539F480910A0180FF4A
:1015200003C083E090E013C02130310539F480918D
:101530000A0180FF03C084E090E009C02230310539
:1015400051F480910A0180FF06C085E090E09093FD
:101550004C0180934B0120910A01822F869590E0E7
:1015600087709070009719F48FEF9FEF24C081303F
:10157000910529F410924E0110924D0120C0823045
:10158000910519F481E090E016C08330910519F4BB
:1015900082E090E010C08430910519F483E090E07F
:1015A0000AC08530910519F484E090E004C00697E4
:1015B00031F485E090E090934E0180934D012295A7
:1015C0002F70822F90E087709070009719F48FEF42
:1015D0009FEF24C08130910529F4109250011092A0
:1015E0004F0120C08230910519F481E090E016C0CF
:1015F0008330910519F482E090E010C084309105A9
:1016000019F483E090E00AC08530910519F484E074
:1016100090E004C0069731F485E090E0909350018B
:1016200080934F0120910B01822F90E08770907082
:10163000009719F48FEF9FEF24C08130910529F4B2
:10164000109252011092510120C08230910519F47C
:1016500081E090E016C08330910519F482E090E0BB
:1016600010C08430910519F483E090E00AC0853001
:10167000910519F484E090E004C0069731F485E008
:1016800090E09093520180935101822F8695869528
:10169000869590E087709070009719F48FEF9FEF18
:1016A00024C08130910529F4109254011092530105
:1016B00020C08230910519F481E090E016C083309B
:1016C000910519F482E090E010C08430910519F47E
:1016D00083E090E00AC08530910519F484E090E041
:1016E00004C0069731F485E090E090935401809314
:1016F00053012295269526952370822F90E09C0118
:101700002170307080FD0AC080910C0190E08370E0
:101710009070892B19F48FEF9FEF42C0422F222344
:1017200061F080910C0190E083709070892B29F416
:10173000109256011092550137C02115310541F420
:1017400080910C0190E0837090708130910541F19F
:10175000442341F080910C018370813019F482E0C0
:1017600090E01EC02115310541F480910C01837079
:10177000823019F483E090E013C0442341F080915B
:101780000C018370823019F484E090E009C0232BAF
:1017900059F480910C018370833031F485E090E03E
:1017A000909356018093550120910C01822F8695CC
:1017B000869590E087709070009719F48FEF9FEFF7
:1017C00024C08130910529F41092580110925701DC
:1017D00020C08230910519F481E090E016C083307A
:1017E000910519F482E090E010C08430910519F45D
:1017F00083E090E00AC08530910519F484E090E020
:1018000004C0069731F485E090E0909358018093EE
:10181000570122952695277030E0237030702115EE
:10182000310539F480910D0180FD03C08FEF9FEFEA
:101830003DC02130310549F480910D0180FD05C086
:1018400010925A011092590135C02230310539F4F5
:1018500080910D0180FD03C081E090E027C023301E
:10186000310539F480910D0180FD0DC082E090E0DA
:101870001DC02115310539F480910D0180FF03C091
:1018800083E090E013C02130310539F480910D01DF
:1018900080FF03C084E090E009C02230310551F49C
:1018A00080910D0180FF06C085E090E090935A0181
:1018B0008093590120910D01822F869590E08770C9
:1018C0009070009719F48FEF9FEF24C0813091053D
:1018D00029F410925C0110925B0120C082309105C6
:1018E00019F481E090E016C08330910519F482E08C
:1018F00090E010C08430910519F483E090E00AC0B4
:101900008530910519F484E090E004C0069731F425
:1019100085E090E090935C0180935B0122952F70AD
:10192000822F90E087709070009719F48FEF9FEFEF
:1019300024C08130910529F410925E0110925D015E
:1019400020C08230910519F481E090E016C0833008
:10195000910519F482E090E010C08430910519F4EB
:1019600083E090E00AC08530910519F484E090E0AE
:1019700004C0069731F485E090E090935E01809377
:101980005D0120910E01822F90E08770907000978A
:1019900019F48FEF9FEF24C08130910529F4109244
:1019A000600110925F0120C08230910519F481E03E
:1019B00090E016C08330910519F482E090E010C0E9
:1019C0008430910519F483E090E00AC085309105D8
:1019D00019F484E090E004C0069731F485E090E0CB
:1019E0009093600180935F01822F869586958695FE
:1019F00090E087709070009719F48FEF9FEF24C0EC
:101A00008130910529F4109262011092610120C089
:101A10008230910519F481E090E016C08330910581
:101A200019F482E090E010C08430910519F483E04D
:101A300090E00AC08530910519F484E090E004C07C
:101A4000069731F485E090E0909362018093610104
:101A50002295269526952370822F90E09C01217077
:101A6000307080FD0AC080910F0190E0837090700B
:101A7000892B19F48FEF9FEF42C0422F222361F090
:101A800080910F0190E083709070892B29F410925F
:101A900064011092630137C02115310541F4809132
:101AA0000F0190E0837090708130910541F14423E3
:101AB00041F080910F018370813019F482E090E051
:101AC0001EC02115310541F480910F0183708230D1
:101AD00019F483E090E013C0442341F080910F019A
:101AE0008370823019F484E090E009C0232B59F40C
:101AF00080910F018370833031F485E090E0909302
:101B000064018093630120910F01822F8695869551
:101B100090E087709070009719F48FEF9FEF24C0CA
:101B20008130910529F4109266011092650120C060
:101B30008230910519F481E090E016C08330910560
:101B400019F482E090E010C08430910519F483E02C
:101B500090E00AC08530910519F484E090E004C05B
:101B6000069731F485E090E09093660180936501DB
:101B700022952695277030E02370307021153105AD
:101B800039F48091100180FD03C08FEF9FEF3DC0BD
:101B90002130310549F48091100180FD05C010927B
:101BA00068011092670135C02230310539F4809107
:101BB000100180FD03C081E090E027C02330310593
:101BC00039F48091100180FD0DC082E090E01DC0CD
:101BD0002115310539F48091100180FF03C083E0A5
:101BE00090E013C02130310539F48091100180FF5D
:101BF00003C084E090E009C02230310551F48091A7
:101C0000100180FF06C085E090E09093680180930A
:101C1000670120911001822F869590E08770907067
:101C2000009719F48FEF9FEF24C08130910529F4BC
:101C300010926A011092690120C08230910519F456
:101C400081E090E016C08330910519F482E090E0C5
:101C500010C08430910519F483E090E00AC085300B
:101C6000910519F484E090E004C0069731F485E012
:101C700090E090936A018093690122952F70822FE2
:101C800090E087709070009719F48FEF9FEF24C059
:101C90008130910529F410926C0110926B0120C0E3
:101CA0008230910519F481E090E016C083309105EF
:101CB00019F482E090E010C08430910519F483E0BB
:101CC00090E00AC08530910519F484E090E004C0EA
:101CD000069731F485E090E090936C0180936B015E
:101CE0008091110190E087709070009719F48FEF48
:101CF0009FEF1FC08130910529F410926E01109260
:101D00006D0108958230910519F481E090E011C0D1
:101D10008330910519F482E090E00BC08430910586
:101D200019F483E090E005C08530910539F484E032
:101D300090E090936E0180936D010895069731F4C1
:101D400085E090E090936E0180936D0108958091FD
:101D50008301806180938301089580918301806273
:101D6000809383010895809184018260809384012F
:101D70000895809183018064809383010895809108
:101D8000860181608093860108958091860182603A
:101D900080938601089580918401806280938401FC
:101DA00008958091850180648093850108958091D4
:101DB0008501806180938501089580918501806807
:101DC00080938501089580918501846080938501C9
:101DD000089580918501826080938501089585E052
:101DE00085BD089510927A0116BC089530916F0157
:101DF000332311F480E0089520917A012F3FD9F424
:101E000081E00895231790F486B596B5975E96BD48
:101E100096B5891708F4A89A822F8B5F821750F421
:101E20008FEF80937A0190917A010EC020937A010E
:101E3000A89AF9CF282FA899E5CF20937A01F3CF5C
:101E400086B58E5286BD922F9F3F29F086B5292FE9
:101E50002F5F8E32A8F790937A0180E0931708F0F5
:101E600081E0089580918001882319F11B9908C0B1
:101E70008091830180688093830181E08093780161
:101E80001C9908C08091840181608093840181E065
:101E9000809378018091030182FFDBC03199D9C022
:101EA0008091850188608093850181E0809378012D
:101EB00008954E9904C080918301816005C04F99B7
:101EC00005C080918301846080938301189904C0C8
:101ED00080918301886005C0199905C080918301B4
:101EE0008260809383011B9911C0E0912C01F091D5
:101EF0002D010190F081E02DF7FD08C0EE0FFF1FCE
:101F0000EE5EFE4F0190F081E02D09951C9911C005
:101F1000E0912C01F0912D010280F381E02DF7FD7D
:101F200008C0EE0FFF1FEE5EFE4F0190F081E02D26
:101F30000995329911C0E0912C01F0912D01048096
:101F4000F581E02DF7FD08C0EE0FFF1FEE5EFE4F9E
:101F50000190F081E02D09951A9911C0E0912C01B2
:101F6000F0912D010084F185E02DF7FD08C0EE0F02
:101F7000FF1FEE5EFE4F0190F081E02D09951D9947
:101F800011C0E0912C01F0912D010284F385E02D28
:101F9000F7FD08C0EE0FFF1FEE5EFE4F0190F081CF
:101FA000E02D09954D9911C0E0912C01F0912D0182
:101FB0000484F585E02DF7FD08C0EE0FFF1FEE5EEF
:101FC000FE4F0190F081E02D0995349911C0E09108
:101FD0002C01F0912D010680F781E02DF7FD08C05E
:101FE000EE0FFF1FEE5EFE4F0190F081E02D099590
:101FF000339911C0E0912C01F0912D010684F785F1
:10200000E02DF7FD08C0EE0FFF1FEE5EFE4F0190C2
:10201000F081E02D099580917401909175010097F0
:1020200051F001979093750180937401809186011E
:10203000846080938601319905C08091860180611A
:1020400080938601359905C08091850188608093D1
:10205000850108954E9906C0809185018062809324
:10206000850107C04F9905C08091840180688093E5
:102070008401189906C08091840180648093840152
:1020800007C0199905C08091850181608093850101
:102090001B9911C0E0912C01F0912D010190F0816C
:1020A000E02DF7FD08C0EE0FFF1FE25EFE4F01902E
:1020B000F081E02D09951C9911C0E0912C01F0915F
:1020C0002D010280F381E02DF7FD08C0EE0FFF1F08
:1020D000E25EFE4F0190F081E02D0995329911C02A
:1020E000E0912C01F0912D010480F581E02DF7FDA8
:1020F00008C0EE0FFF1FE25EFE4F0190F081E02D61
:1021000009951A9911C0E0912C01F0912D010084DC
:10211000F185E02DF7FD08C0EE0FFF1FE25EFE4FD8
:102120000190F081E02D09951D9911C0E0912C01DD
:10213000F0912D010284F385E02DF7FD08C0EE0F2C
:10214000FF1FE25EFE4F0190F081E02D09954D9951
:1021500011C0E0912C01F0912D010484F585E02D52
:10216000F7FD08C0EE0FFF1FE25EFE4F0190F08109
:10217000E02D0995349911C0E0912C01F0912D01C9
:102180000680F781E02DF7FD08C0EE0FFF1FE25E2D
:10219000FE4F0190F081E02D0995339911C0E09137
:1021A0002C01F0912D010684F785E02DF7FD08C084
:1021B000EE0FFF1FE25EFE4F0190F081E02D0995CA
:1021C0008091740190917501009751F0019790935F
:1021D00075018093740180918601886080938601E7
:1021E000319905C08091860180628093860135997E
:1021F00005C08091850188608093850180910301ED
:1022000082FF0EC080918001882351F0319908C06F
:102210008091850188608093850181E080937801B9
:1022200008954E9904C080918301816005C04F9943
:1022300005C080918301846080938301189904C054
:1022400080918301886005C0199905C08091830140
:102250008260809383011A9905C080918301806810
:10226000809383011D9905C08091840181608093D2
:1022700084011B9905C0809184018860809384014A
:102280001C9905C0809184018061809384018091B4
:10229000740190917501009751F001979093750129
:1022A00080937401809184018460809384013199CA
:1022B00005C080918601806480938601339905C0B2
:1022C00080918C01816080938C01349905C080914C
:1022D0008C01826080938C01089594E19093830136
:1022E00080E18093960182E4809397011092980197
:1022F00081E08093990180939A0182E080939B0111
:1023000090939C0186E080939D01EEE9F1E08FEFD0
:10231000819391E0E63AF907D9F708951092950173
:1023200010929401109293011092920110929101D7
:102330001092900110928F0110928E0110928D01D7
:1023400010928C0110928B0110928A0110928901D7
:1023500010928801109287011092860110928501D7
:10236000109284011092820108950E948E11809132
:102370000201829586958695837080FF25C08091A5
:10238000030180FD5EC04E9907C08FEF80939001DE
:10239000809191018F6705C04F9905C0809191018F
:1023A000806880939101189904C080918F018068A2
:1023B00008C0199946C08FEF80938E0180918F01DC
:1023C0008F6780938F013DC08091030180FF70C0B3
:1023D0004E9907C08FEF80939401809195018F678C
:1023E00005C04F9905C08091950180688093950143
:1023F000189904C080919301806808C0199921C080
:102400008FEF80939201809193018F678093930166
:1024100018C080918401816005C04F9905C08091EA
:102420008401826080938401189904C080918401A2
:10243000846005C0199905C08091840188608093EB
:1024400084011A9903C08FEF809388011D9903C0FE
:102450008FEF809389014D9903C08FEF80938A019C
:102460001B9903C08FEF809386011C9903C08FEFE7
:1024700080938701329903C08FEF80938B0133994A
:1024800003C08FEF80938C01349903C08FEF80934A
:102490008D01309905C08091840180618093840111
:1024A000319909C0809184018062809384010895EC
:1024B0004E9BAFCFB2CF08950E9443150895519A15
:1024C00088EB9BE02CE231E0F9013197F1F70197BD
:1024D000D9F751980E94321578940E9443150895B7
:1024E00010922A010E945F120895CF92DF92EF921C
:1024F000FF920F931F93CF93DF936C017B0100E05A
:1025000010E017C0E701C01BD10BC930D10514F092
:10251000C8E0D0E0C601800F911F6C2F0E946516A5
:1025200002C00E9443158091C00284FFFACF0C0FB5
:102530001D1F0E151F0530F3DF91CF911F910F91D5
:10254000FF90EF90DF90CF90089583E080932A0171
:102550000E945F120E946D110E948E110E9443150D
:102560000E94E3010E94B51182E891E064E170E00D
:102570000E947512F3CFCF92DF92EF92FF920F93EA
:102580001F93CF93DF936C017B0100E010E017C035
:10259000E701C01BD10BC930D10514F0C8E0D0E071
:1025A000C601800F911F6C2F0E946A1602C00E9404
:1025B00043158091950284FFFACF0C0F1D1F0E1555
:1025C0001F0530F3DF91CF911F910F91FF90EF9096
:1025D000DF90CF9008950E94D80680917401909169
:1025E0007501892B09F083C01092760136B13095C0
:1025F000317030938001332309F457C021E02093D8
:1026000077011A992DC04E9909C08EE291E09093FE
:102610002D0180932C0120933E011FC0199908C001
:102620008FE391E090932D0180932C0182E013C001
:102630004F9908C08FE491E090932D0180932C0175
:1026400083E009C018991BC08FE591E090932D019C
:1026500080932C0184E080933E01209378010FC089
:102660004E9903C01092790104C04F9908C020937D
:102670007901209378011092750110927401809174
:102680007901882391F4189904C081E080932B018B
:1026900006C019990AC082E080932B0181E08093E3
:1026A000780110927501109274018091780188234D
:1026B00039F0332381F410927801109277010BC026
:1026C000332349F480917701882329F01092770110
:1026D00081E08093760180917601882341F088EE35
:1026E00093E090937501809374011092760180912C
:1026F0007901882339F080918001882381F40E9438
:1027000011110DC080912B01813019F40E94320FFC
:1027100006C080918001882311F40E942A100E9433
:10272000F60E8823C1F49091870180918301981758
:1027300091F49091880180918401981761F49091AF
:10274000890180918501981731F490918A018091D7
:102750008601981749F082E891E065E070E00E94F8
:10276000BB1210927A0116BC80918C01882331F043
:102770008BE891E062E070E00E94BB12089592E065
:1027800090932A0180910301869580FD04C081E029
:1027900080932B0102C090932B010E945F120E9434
:1027A000431581E08093820182E080938B010E9437
:1027B000F90685E085BD0E94EB12FDCF81E0809394
:1027C0002A010E945F120E9443150E94AA0582E816
:1027D00091E060E170E00E94BB120E9443150E94EC
:1027E000E3010E94CD05F3CFDF92EF92FF920F93AA
:1027F0001F93FC0180912A01882309F054C0809125
:102800007B01823009F044C0409170015091710108
:102810004115510551F431812281848180937E01DB
:1028200010927F013596655004C030917C01209153
:102830007D01CA01860F911D9093710180937001F3
:1028400070E8D72ED82280917E0190917F011816D2
:1028500019065CF5883091050CF4682F032F122FB0
:10286000E62EFF24CF01B801A7010E94FF170E0D2D
:102870001F1D10937D0100937C0180917E0190913A
:102880007F018E199F0990937F0180937E010DC077
:10289000833049F43181228130937C0120937D0182
:1028A000DD24D39402C0DD24DA948D2D1F910F9185
:1028B000FF90EF90DF9008950F931F93FC0122810A
:1028C000938180912A01813049F0813080F18230FA
:1028D00009F48AC0833009F0C1C09EC0808180762F
:1028E000803209F0BBC08181813009F0B7C09330DC
:1028F00009F0B4C0222309F0B1C081E280938201C3
:1029000086E28093830110928401109285011092D7
:10291000860110928701109288011092890182E845
:1029200091E09093A5028093A40288E098C08081F2
:102930008076803209F092C08181893069F422303A
:1029400029F4109271011092700103C0233009F034
:1029500085C020937B0128C0813009F07FC02130E1
:10296000C1F42093820184E080938301109284015A
:102970001092850182E08093860110928701109267
:10298000880182E891E09093A5028093A40287E0F9
:1029900066C0243009F062C060917C0170917D01B5
:1029A00082E06030780710F08FEF59C040E052E0CD
:1029B000461B570B4038510510F040E850E002E844
:1029C00011E084E08093820140938301109284019E
:1029D00010928501C80104960E94EF171093A5027A
:1029E0000093A40284E83BC0808180768032B1F5F8
:1029F0008181823051F4223088F58FE691E0909306
:102A0000A5028093A40281E02AC08A3039F52230E1
:102A100028F590936F0122C0808190E080769070BD
:102A20008032910569F481818130C1F42130B1F4A3
:102A300082E891E09093A5028093A40284E10FC004
:102A40008034910559F48181863041F486E991E022
:102A50009093A5028093A40280E101C080E01F91C1
:102A60000F910895E9E6F0E0808183608083E89A21
:102A70008BE4809396028093C1028AE5809395024D
:102A80008093C00208951F93CF93DF936091A602B5
:102A9000635067FD9AC08091A302CCE0D0E0C81BD0
:102AA000D109C655DD4F8091A2028D3209F07AC05E
:102AB000683009F088C083EC80938A028AE58093AD
:102AC0007201109281018881807629F0CE010E94E6
:102AD0005C14282F54C09A81109293028981882314
:102AE00021F41092940222E043C0853019F49093AF
:102AF000A7023DC0863029F58B818130C1F082303C
:102B0000B1F0833081F48A81882341F48FE393E02C
:102B10009093A5028093A40224E00FC0813039F085
:102B2000823051F404C0813211F0823229F4CE0196
:102B30000E94C404282F01C020E080E4809381011A
:102B40001EC0883021F421E089EA92E013C0893068
:102B500019F49093A9020BC08A3011F421E008C047
:102B60008B3029F48BE4809396028093C10220E09D
:102B700083E992E09093A5028093A40209C02F3FBD
:102B800039F4888187FD2E8180E88093810106C019
:102B90008F81882319F48E81821708F0822F809309
:102BA000730111C08091810187FF0DC0CE010E9489
:102BB000F4138F3F21F48EE18093720104C08823C7
:102BC00011F0109273011092A6028091720184FF9D
:102BD0004AC0809173018F3F09F445C0182F893096
:102BE00008F018E0811B8093730180918A0298E8B5
:102BF000892780938A02112341F12091A402309108
:102C0000A5028091810186FF0DC0ABE8B2E080E0B3
:102C100090E0F901E80FF91FE491ED930196181780
:102C2000C1F708C0912FD901EBE8F2E08D918193B3
:102C30009150E1F71150812F90E01F5F0196820FB4
:102C4000931F9093A5028093A4028BE892E0612FDA
:102C50000E948416612F6C5F6C3019F08FEF8093A7
:102C60007301609372019AE089B1867031F49150DA
:102C7000D9F71092A7021092A102DF91CF911F9174
:102C800008951F93CF93DF93DC01162FEA0188810B
:102C900084FF05C0898198E88927898302C08AE575
:102CA0008883AE014E5F5F4F212FFA018D91819392
:102CB00021501216DCF3CA01612F0E9484161C5F9A
:102CC0001883DF91CF911F91089540EC52E00E944C
:102CD0004116089545E952E00E9441160895A82F33
:102CE000B92F80E090E041E050EA60956F5F58F4C2
:102CF0002D9138EF82279795879510F08427952797
:102D00003F5FC8F3F3CF0895EADF8D939D93089555
:102D1000CF93CFB7CF93499BFECF499B09C0499B27
:102D200007C0499B05C0499B03C0499B01C0A3C084
:102D3000DF93C091A302DD27C655DD4F499B02C03A
:102D4000DF91EBCF2F930F931F9309B12FEF01FB6F
:102D500020F94F933F9319B14FEF012701FB21F960
:102D60003BE031C04E7F012F19B1216028C0102FE8
:102D70004D7F2260000009B129C04B7F2460012FE4
:102D8000000019B12BC019B1477F28602AC04F7EBF
:102D900009B120612CC04F7D19B120622FC04F7B3B
:102DA00009B1206432C0422709B149934FEF0000B6
:102DB000102711FB20F919B11670C9F1297F91F282
:102DC000012701FB21F909B1237F89F2315058F124
:102DD000102711FB22F919B1277E79F2012701FB97
:102DE00023F92F7C81F209B1102711FB24F92F79E7
:102DF00071F200C019B1012701FB25F92F7359F2B7
:102E000000C009B1102711FB26F9223040F200C0A2
:102E100019B1012701FB27F9243028F64F772068E4
:102E200019B10000F9CF11E01CBB002719C03B50BD
:102E30003195C31BD04011E01CBB0881033CF9F065
:102E40000B34E9F02091A1021981110F1213EDCF7B
:102E50004A81441F093641F10D3211F0013E29F734
:102E60000093A8023F914F911F910F912F91DF91F5
:102E7000CCB3C0FD50CFCF91CFBFCF91189500916B
:102E8000A802002379F31091A6021123F9F534303A
:102E9000FAF13093A6020093A2021091A3023BE044
:102EA000311B3093A30234C00091A602013074F5A7
:102EB0000AE54F7049F43091720134FD2BC0009344
:102EC0007201CAE8D2E02AC0423049F0309195023E
:102ED00034FD20C000939502C6E9D2E01FC03091B6
:102EE000C00234FD17C00093C002C1ECD2E016C08E
:102EF000052710E00BB91FC0052722C0052727C0F2
:102F000005272CC0052710E00BB933C04AE503C0E4
:102F100042ED01C0432FC4E1D0E032E01AB11660A7
:102F2000599A0BB11AB95F9356E020E820FF0527A4
:102F30000BB9279517951C3FD8F620FF0527279535
:102F40000BB917951C3FC0F620FF0527279517954D
:102F50000BB91C3F98F620FF0527279517951C3FB6
:102F60000BB970F600C0499120FF05270BB92795D2
:102F700017951C3F38F620FF052727950BB91795A5
:102F80001C3F38F520FF0527279517950BB91C3FE7
:102F900010F520FF0527279517951C3F0BB9E8F47E
:102FA000242F3A9519F6097F5F910BB91091A7026A
:102FB000110FC651D04011F01093A10211E01CBBBB
:102FC00002601AB1197F402F497F0BB91AB94BB96A
:102FD00049CF0527D3CF0527D8CF0527DDCFDC0183
:102FE000CB01FC01F999FECF06C0F2BDE1BDF89A14
:102FF000319600B40D9241505040B8F70895DC016D
:10300000CB0103C02D910E940A1841505040D0F7C7
:103010000895262FF999FECF1FBA92BD81BD20BD1C
:103020000FB6F894FA9AF99A0FBE01960895F8949B
:02303000FFCFD0
:10303200FFFFFFFFFFFFFFFFFFFFFFFFFFFFFFFF9E
:10304200FFFFA70EAD0EB30EB90EBF0EC50ECB0E0F
:10305200D10ED70EDD0EE30EE90EFF012E01FFFFAA
:10306200FFFFFFFFFFFFFFFFFFFFFFFFFFFF01FF6C
:10307200FFFFFFFFFFFFFFFFFFFFFFFFFFFFFFFF5E
:10308200FFFFFFFFFFFFFFFFFFFFFFFFFFFFFFFF4E
:10309200FFFFFFFFFFFFFFFFFFFFFFFFFFFFFF7DC0
:0430A200FFFF5AFFD3
:00000001FF
