:100000000C94E7010C9465190C9404020C940402FE
:100010000C9404020C9404020C9404020C94040248
:100020000C9404020C9404020C9404020C94040238
:100030000C9404020C9404020C9404020C94040228
:100040000C9404020C9404020C9404020C94040218
:100050000C9404020C9404020C9404020C94040208
:100060000C9404020C940402120110010000000818
:10007000C016DF050203010200011A037A007500B1
:10008000720062006F00720067002E0069006E004F
:1000900066006F0032034400750061006C002000B0
:1000A00053007400720069006B0065002000560068
:1000B00033002E0032002E003000200028005000B7
:1000C00053003300290005010904A101A1027501B3
:1000D000950D150025013500450105091901290D6A
:1000E0008102950381010501750495012507463BB1
:1000F00001651409398142650095018103A10075EC
:100100000295042502450209300931093209358179
:1001100002C0C07508950826FF0046FF000600FFD4
:10012000092009210922092309240925092609276B
:1001300009280929092A092B950C81020A2126B1CF
:1001400002C009022200010100803E0904000001F2
:1001500003000000092101010001227C0007058243
:100160000310000130034400750061006C002000A2
:1001700053007400720069006B0065002000560097
:1001800033002E0032002E003000200028005000E6
:100190004300290005010905A101150025013500CD
:1001A00045017501950D05091901290D810205010A
:1001B0000900950381012507463B017504950165FA
:1001C0001409398142090095018101C00902220008
:1001D000010100803E090400000103000000092124
:1001E0000101000122380007058103080001120106
:1001F000100100000008C016DF0502030102000123
:100200002A0370006F0068006C002D006D0069000B
:1002100063006800610065006C00400067006D00CD
:1002200078002E00620069007A000E034800490041
:1002300044002000450050000600FF0901A10115FF
:100240000026FF007508850195060900B2020185A8
:100250000295840900B20201850395030900B202E8
:1002600001850495830900B20201C0090222000140
:100270000100803E09040000010300000009210183
:10028000010001223300070581030800C812011094
:1002900001000000080304288E020301020001345B
:1002A000034400750061006C00200053007400726C
:1002B0000069006B0065002000560033002E0032FC
:1002C000002E003000200028004D0041004D004568
:1002D00000290005010906150025013500450175B5
:1002E00001A101850105070952094F09510950096A
:1002F000E009E209E109280929092C092B093B0930
:100300003C090409070909090A090C090E0913091E
:100310001409150916091A091B091D091E091F09C7
:100320002209230926090195208102C0050C090133
:10033000A101850209E909EA950281029506810178
:10034000C009022200010100803E090400000103EF
:10035000000000092101010001226E000705810350
:1003600008000412011001000000080304298E0295
:10037000030102000134034400750061006C002099
:100380000053007400720069006B00650020005685
:100390000033002E0032002E0030002000280058CC
:1003A0000042006F007800290009022000010100CE
:1003B000807D0904000002584200000705820320E6
:1003C00000040705020308000404030904001124C3
:1003D0001FBECFEFD4E0DEBFCDBF11E0A0E0B1E0A3
:1003E000ECEEF5E302C005900D92A437B107D9F702
:1003F00012E0A4E7B1E001C01D92AC3FB107E1F704
:100400000E94F7040C94F41A0C940000AC0120E054
:1004100030E0F901E050FF4FDA01A20FB31F9081E5
:100420008C91981711F081E008952F5F3F4F233191
:10043000310579F780E00895589A81E090E00895B9
:100440005C9A469A589A82E090E00895589A84E01F
:1004500090E00895589A85E090E0089583E090E058
:10046000089590917401809103018695869580FD91
:1004700002C086B102C086B1869580958170809356
:100480007401992319F420E030E008C090E08091D5
:100490007401811191E081E09827292F80917501E5
:1004A000882349F010927701109276012223C9F037
:1004B000109275010895222349F08091780190915E
:1004C0007901909377018093760108958091760168
:1004D00090917701009729F001979093770180938D
:1004E0007601089580910401869587708130E1F44A
:1004F0004C9907C0369B05C08091030180618F7DB8
:1005000010C04C9B07C0369905C0809103018062E2
:100510008F7E07C04C9B27C0369B25C0809103016E
:100520008F7C8093030108959091030193FF1BC07A
:10053000809174018823B9F0349902C09F7C04C073
:10054000339908C090619F7D9093030181E080936F
:1005500075010895329907C090629F7E90930301C0
:1005600081E080937501089585E085BD089510921E
:100570007A0116BCA89A0895589810927C010895A3
:10058000A89B08C080917A018F3F19F08F5F8093FC
:100590007A01A89A20E090917A0180917B019817C6
:1005A00008F021E0822F089580910401869590E063
:1005B000877090700297029710F45C9846980E949A
:1005C000E50858985B9A80E090E008951F9385E0D5
:1005D00085BD8091020183FF21C0589810927C0153
:1005E000589A0E94071802C00E94201880917C012E
:1005F0008823D1F38FE080937B0110927A0116BC9F
:10060000A89A02C00E9420180E94C0028823D1F339
:1006100080917C01823011F40E94101580910301B9
:1006200080FF21C0589810927C01589A0E94C017F0
:1006300002C00E94201880917C018823D1F385E0BC
:1006400080937B0110927A0116BCA89A02C00E9486
:1006500020180E94C0028823D1F380917C0182304F
:1006600011F40E94F5148091020184FF29C058986A
:1006700010927C010E9420020E94FA1711E008C02B
:100680000E9420180E94AB06882311F010937C0171
:1006900080917C018823A1F380E580937B011092F7
:1006A0007A0116BCA89A02C00E94E3160E94C002FA
:1006B0008823D1F380917C01823011F40E94A41729
:1006C0008091020185FF10C0589810927C0188EB40
:1006D0009BE02CE231E0F9013197F1F70197D9F76E
:1006E0000E94D4020E9427051F9108958091020163
:1006F00090E0877090708130910521F4589A21E044
:1007000030E016C08230910519F40E9420020FC01B
:100710008430910521F4589A24E030E009C005970F
:1007200021F4589A25E030E003C00E94D4029C01D5
:10073000C9010895CF93DF93EC0120E030E0F90187
:10074000E050FF4FDE01A20FB31F90818C919817EC
:1007500031F42F5F3F4F2331310589F716C0CE01A9
:1007600060E070E043E150E00E94DC1A20E030E0FD
:10077000F901E050FF4FDE01A20FB31F8C9180837F
:100780002F5F3F4F2331310599F7DF91CF910895C6
:10079000CF93DF93EC0180E091E060E070E043E113
:1007A00050E00E94CC1A80910001823021F48091A7
:1007B0000101843039F132E0388384E0898388E7AD
:1007C0008A8381E08B8380E38C8324E32D8384E41C
:1007D0008E838AE08F838CE2888793E299872A87C9
:1007E00088E28B8783E08C8782E28D879E8786E50F
:1007F0008F8781E1888B8AE1898B3A8BCE010E94B9
:100800009A030FC020E030E0FE01E20FF31FD90190
:10081000A050BF4F8C9180832F5F3F4F2331310514
:1008200099F7DF91CF910895DF93CF93CDB7DEB7DE
:1008300063970FB6F894DEBF0FBECDBFCE01019611
:100840000E94C80331990DC0589A0E94F51702C042
:100850000E94F2143099FCCF5898CE0101960E9464
:10086000C80363960FB6F894DEBF0FBECDBFCF911D
:10087000DF9108950F931F93CF93DF9317B88FE302
:1008800088B914B885B989E08AB980EE8BB90E941D
:100890001404349904C0809103018F7C0DC03399F6
:1008A00005C08091030180618F7D06C0329906C02A
:1008B0008091030180628F7E809303018091040107
:1008C000869590E0877090708130910511F00497C3
:1008D00011F45C9A469A80910201282F30E0C901F8
:1008E00043E0969587954A95E1F7682F6170462F0A
:1008F00050E089010071107024FF02C04F5F5F4F0C
:10090000D901A074B07026FF02C04F5F5F4F809185
:10091000030190E0EC01C170D07080FF02C04F5F16
:100920005F4FF901E072F07025FF02C04F5F5F4F2B
:10093000C90187709070009719F043305105C4F0D9
:100940004D9902C0662341F54E9902C0AB2BA9F523
:100950004F9902C0CD2BC9F5189905C0EF2B19F09E
:100960000E94D4023DC01C9934C0012B91F11DC0DE
:100970004230510599F54D9B0AC04E9B08C04F9BD4
:1009800006C0189B04C01A9B02C0199927C0813069
:10099000910549F0662321F0589A21E030E021C00A
:1009A0008230910541F0012B19F00E94200218C0FD
:1009B0008430910541F0AB2B21F0589A24E030E0CF
:1009C00010C0059759F0CD2B49F0589A25E030E03A
:1009D00008C0892B19F423E030E003C00E9476039D
:1009E0009C01C901DF91CF911F910F9108950E9441
:1009F0003A0482309105E1F0833091052CF40097A0
:100A000079F0019709F50FC084309105B1F0843079
:100A100091051CF00597C1F413C00E94E60214C0B2
:100A20000E94270511C00E9407180E9410150CC0D3
:100A30000E94FA170E94A41707C00E94C81704C09A
:100A40000E94C0170E94F51480E090E00895809104
:100A50000401869587708230F9F40E9431020E9469
:100A600072028091030182958F7090E08370907084
:100A70008130910519F4469A5C9805C08230910541
:100A800029F45C9A4698549A3E9A06C0892B21F420
:100A900054983E985C9A469A9091030196FF09C03B
:100AA000309905C0319903C02D98259A02C0259828
:100AB0002D9A8091040180FF20C092FD0CC03099D6
:100AC00005C01B9903C02B98239A02C023982B9A28
:100AD000309911C00BC0319905C01B9903C02B98E8
:100AE000239A02C023982B9A319905C0199903C003
:100AF0002998219A02C02198299A86958770833077
:100B000009F0A5CF1B9902C05C9A01C05C981C99A2
:100B100002C0469A9CCF46989ACFFC0180912B0147
:100B2000823009F441C0833038F4882309F47FC04F
:100B3000813009F00EC107C0833009F4B1C08430A0
:100B400009F007C1D8C02381233089F0243030F464
:100B5000213051F0223009F0FCC018C02132C9F018
:100B6000223209F0F6C018C088E690E0CDC082813C
:100B7000813009F4D6C0823009F0EBC084E990E0FE
:100B80009093BE028093BD0282E3089582E491E0D7
:100B900035C084E591E03AC086EC90E09093BE02C7
:100BA0008093BD028CE7089583818330B1F0843057
:100BB00030F4813051F0823009F0CBC01DC0813259
:100BC00019F1823209F0C5C027C088E690E0909301
:100BD000BE028093BD0282E108958281813009F4D2
:100BE000A0C0823009F0B5C084E691E09093BE02C7
:100BF0008093BD0280E308958CEC91E09093BE0257
:100C00008093BD0282E208958EED91E09093BE0242
:100C10008093BD0289E0089584E991E09093BE023B
:100C20008093BD0281E080937C0188E308958381F5
:100C3000833089F0843030F4813051F0823009F013
:100C400088C020C0813209F1823209F082C020C000
:100C50008EEE91E0BCCF8281813021F0823009F0AC
:100C600078C008C080E092E09093BE028093BD02FD
:100C70008AE208958AE292E09093BE028093BD02D8
:100C80008EE008958BE692E0B9CF8DE792E0BECF7B
:100C900088E392E09093BE028093BD0283E30895BF
:100CA0008381833089F0843030F4813051F0823098
:100CB00009F04FC012C0813299F0823209F049C068
:100CC00012C08DE892E083CF8281813051F1823071
:100CD00009F03FC08FE992E02EC081E493E08ECF0F
:100CE00083E593E093CF83ED92E09093BE028093EF
:100CF000BD028EE608952381223019F1233059F088
:100D0000213039F583E693E09093BE028093BD02D3
:100D100020937C0160CF8281813019F08230C9F448
:100D200008C08AE790E09093BE028093BD028AE1FA
:100D3000089585E793E09093BE028093BD0284E31B
:100D4000089589EA93E09093BE028093BD0280E209
:100D5000089580E0089590E08091C202813009F406
:100D600091E0892F089510928501109284018FE0FF
:100D70008093860185E580938701109293011092FC
:100D80009201109291011092900110928F01109295
:100D90008E0110928D0110928C0110928B01109295
:100DA0008A01109289011092880108950E94B30669
:100DB00040910401842F8695282F30E027703070F1
:100DC0002130310529F080917401882309F08EC00B
:100DD0008091030182958F7090E0837090708130D4
:100DE0009105D9F4349904C080918701837F06C0AE
:100DF000359906C08091870188608B7F8093870139
:100E0000339904C0809187018C7F24C032996EC0D1
:100E10008091870182608E7F1DC082309105E9F448
:100E2000349904C0809187018F7306C0359906C03C
:100E30008091870180688F7B80938701339904C0FC
:100E4000809187018F7C06C0329950C080918701C4
:100E500080628F7E8093870149C0892B09F046C04C
:100E6000349918C0339907C087E0809386018FEFCB
:100E700080938A0119C0329907C081E0809386016E
:100E80008FEF80938A0130C0109286018FEF80939C
:100E90008A012CC035991BC0339909C085E0809325
:100EA00086018FEF80938B01809389011FC0329957
:100EB00007C083E0809386018FEF80938B0114C07D
:100EC00084E0809386018FEF80938B010FC033996C
:100ED00005C086E0809386018FEFE6CF329906C089
:100EE00082E0809386018FEF809388014F9908C03C
:100EF000809184018160809384018FEF80938F01C2
:100F0000189908C0809184018860809384018FEFD4
:100F100080938C011A991AC040FF10C0809174010F
:100F2000882361F0809184018061809384018FEF38
:100F30008093900181E08093750108C080918401C5
:100F40008062809384018FEF809391014D9918C046
:100F50002430310569F080917401882349F0809133
:100F6000850184608093850181E08093750108C0CC
:100F7000809184018260809384018FEF80938E0141
:100F80004E9918C02430310569F08091740188238E
:100F900049F08091850188608093850181E080938C
:100FA000750108C0809184018460809384018FEF73
:100FB00080938D011C991AC040FF10C0809174016C
:100FC000882361F0809184018064809384018FEF95
:100FD0008093920181E08093750108C08091840123
:100FE0008068809384018FEF80939301199908C0E2
:100FF000809184018061809384018FEF80939001C0
:101000001B9908C0809184018064809384018FEFD4
:10101000809392018091030186FF0DC030990BC02F
:10102000319909C08091850180618093850181E0BB
:101030008093750124C08695869580FD0EC08091B1
:10104000760190917701892B29F08091850182604A
:1010500080938501319913C00DC0309905C08091EE
:10106000850182608093850180917601909177015E
:10107000892B29F08091850181608093850124303E
:10108000310571F44C9905C080918501846080938D
:101090008501369905C0809185018860809385011E
:1010A0001D9905C080918501806180938501089517
:1010B00010928501109284018FE08093860108953B
:1010C00010928501109284018FE0809386013499FB
:1010D0000BC0339902C087E01AC0329902C081E088
:1010E00016C01092860115C035990AC0339902C006
:1010F00085E00DC0329902C083E009C084E007C0DA
:10110000339902C086E003C0329903C082E0809325
:1011100086014F9905C0809184018061809384018C
:10112000189905C0809184018062809384011A9986
:1011300005C0809184018064809384014D9905C02D
:10114000809184018160809384014E9905C08091D3
:1011500084018260809384011C9905C08091840180
:10116000846080938401199905C08091840180680E
:10117000809384011B9905C08091840188608093CD
:1011800084014C9905C0809185018160809385011F
:10119000369905C0809185018260809385013099E0
:1011A00005C080918501846080938501319905C0D7
:1011B000809185018860809385011D9905C080918B
:1011C00085018061809385010895519A88EB9BE0A9
:1011D0002CE231E0F9013197F1F70197D9F7089541
:1011E00081E08093840182E080938D010895E9E895
:1011F000F1E0AF0144505040DA018C9180938901B5
:101200009F0123503040D9018C9180938A01DF01E6
:1012100012978C9180938B01829180938C01108224
:101220001C92F9011082DA011C9210928E0108952D
:101230008091040182958F7090E087709070009784
:1012400019F48FEF9FEF24C08130910529F410929B
:101250002F0110922E0120C08230910519F481E0F7
:1012600090E016C08330910519F482E090E010C040
:101270008430910519F483E090E00AC0853091052F
:1012800019F484E090E004C0069731F485E090E022
:1012900090932F0180932E0120910501822F90E0E1
:1012A00087709070009719F48FEF9FEF24C0813002
:1012B000910529F4109231011092300120C0823042
:1012C000910519F481E090E016C08330910519F47E
:1012D00082E090E010C08430910519F483E090E042
:1012E0000AC08530910519F484E090E004C00697A7
:1012F00031F485E090E09093310180933001822FAA
:1013000086958695869590E087709070009719F481
:101310008FEF9FEF24C08130910529F410923301A3
:101320001092320120C08230910519F481E090E0E2
:1013300016C08330910519F482E090E010C084302B
:10134000910519F483E090E00AC08530910519F405
:1013500084E090E004C0069731F485E090E090933B
:101360003301809332012295269526952370822F92
:1013700090E09C012170307080FD0AC080910601D0
:1013800090E083709070892B19F48FEF9FEF42C02B
:10139000422F222361F08091060190E083709070CB
:1013A000892B29F4109235011092340137C0211590
:1013B000310541F48091060190E083709070813096
:1013C000910541F1442341F0809106018370813001
:1013D00019F482E090E01EC02115310541F480919E
:1013E00006018370823019F483E090E013C0442337
:1013F00041F0809106018370823019F484E090E01E
:1014000009C0232B59F4809106018370833031F495
:1014100085E090E09093350180933401209106019E
:10142000822F8695869590E087709070009719F4CA
:101430008FEF9FEF24C08130910529F4109237017E
:101440001092360120C08230910519F481E090E0BD
:1014500016C08330910519F482E090E010C084300A
:10146000910519F483E090E00AC08530910519F4E4
:1014700084E090E004C0069731F485E090E090931A
:1014800037018093360122952695277030E023702E
:1014900030702115310539F48091070180FD03C0BA
:1014A0008FEF9FEF3DC02130310549F48091070156
:1014B00080FD05C0109239011092380135C02230EC
:1014C000310539F48091070180FD03C081E090E08F
:1014D00027C02330310539F48091070180FD0DC00C
:1014E00082E090E01DC02115310539F4809107019B
:1014F00080FF03C083E090E013C02130310539F450
:101500008091070180FF03C084E090E009C0223091
:10151000310551F48091070180FF06C085E090E01D
:10152000909339018093380120910701822F86958D
:1015300090E087709070009719F48FEF9FEF24C0B0
:101540008130910529F410923B0110923A0120C09C
:101550008230910519F481E090E016C08330910546
:1015600019F482E090E010C08430910519F483E012
:1015700090E00AC08530910519F484E090E004C041
:10158000069731F485E090E090933B0180933A0117
:1015900022952F70822F90E087709070009719F439
:1015A0008FEF9FEF24C08130910529F410923D0107
:1015B00010923C0120C08230910519F481E090E046
:1015C00016C08330910519F482E090E010C0843099
:1015D000910519F483E090E00AC08530910519F473
:1015E00084E090E004C0069731F485E090E09093A9
:1015F0003D0180933C0120910801822F90E087708B
:101600009070009719F48FEF9FEF24C081309105FF
:1016100029F41092400110923F0120C082309105C0
:1016200019F481E090E016C08330910519F482E04E
:1016300090E010C08430910519F483E090E00AC076
:101640008530910519F484E090E004C0069731F4E8
:1016500085E090E09093400180933F01822F869532
:101660008695869590E087709070009719F48FEFBB
:101670009FEF24C08130910529F41092420110920D
:10168000410120C08230910519F481E090E016C03C
:101690008330910519F482E090E010C08430910508
:1016A00019F483E090E00AC08530910519F484E0D4
:1016B00090E004C0069731F485E090E090934201F9
:1016C000809341012295269526952370822F90E0E4
:1016D0009C012170307080FD0AC08091090190E06A
:1016E00083709070892B19F48FEF9FEF42C0422FC7
:1016F000222361F08091090190E083709070892B22
:1017000029F4109244011092430137C0211531058C
:1017100041F48091090190E08370907081309105CF
:1017200041F1442341F0809109018370813019F423
:1017300082E090E01EC02115310541F4809109013D
:101740008370823019F483E090E013C0442341F0A9
:10175000809109018370823019F484E090E009C01F
:10176000232B59F4809109018370833031F485E093
:1017700090E0909344018093430120910901822FCE
:101780008695869590E087709070009719F48FEF9A
:101790009FEF24C08130910529F4109246011092E8
:1017A000450120C08230910519F481E090E016C017
:1017B0008330910519F482E090E010C084309105E7
:1017C00019F483E090E00AC08530910519F484E0B3
:1017D00090E004C0069731F485E090E090934601D4
:1017E0008093450122952695277030E02370307054
:1017F0002115310539F480910A0180FD03C08FEF76
:101800009FEF3DC02130310549F480910A0180FDF0
:1018100005C0109248011092470135C022303105B1
:1018200039F480910A0180FD03C081E090E027C077
:101830002330310539F480910A0180FD0DC082E02A
:1018400090E01DC02115310539F480910A0180FF17
:1018500003C083E090E013C02130310539F480915A
:101860000A0180FF03C084E090E009C02230310506
:1018700051F480910A0180FF06C085E090E09093CA
:1018800048018093470120910A01822F869590E0BC
:1018900087709070009719F48FEF9FEF24C081300C
:1018A000910529F410924A011092490120C082301A
:1018B000910519F481E090E016C08330910519F488
:1018C00082E090E010C08430910519F483E090E04C
:1018D0000AC08530910519F484E090E004C00697B1
:1018E00031F485E090E090934A018093490122957C
:1018F0002F70822F90E087709070009719F48FEF0F
:101900009FEF24C08130910529F410924C01109270
:101910004B0120C08230910519F481E090E016C09F
:101920008330910519F482E090E010C08430910575
:1019300019F483E090E00AC08530910519F484E041
:1019400090E004C0069731F485E090E090934C015C
:1019500080934B0120910B01822F90E08770907053
:10196000009719F48FEF9FEF24C08130910529F47F
:1019700010924E0110924D0120C08230910519F451
:1019800081E090E016C08330910519F482E090E088
:1019900010C08430910519F483E090E00AC08530CE
:1019A000910519F484E090E004C0069731F485E0D5
:1019B00090E090934E0180934D01822F86958695FD
:1019C000869590E087709070009719F48FEF9FEFE5
:1019D00024C08130910529F41092500110924F01DA
:1019E00020C08230910519F481E090E016C0833068
:1019F000910519F482E090E010C08430910519F44B
:101A000083E090E00AC08530910519F484E090E00D
:101A100004C0069731F485E090E0909350018093E4
:101A20004F012295269526952370822F90E09C01E8
:101A30002170307080FD0AC080910C0190E08370AD
:101A40009070892B19F48FEF9FEF42C0422F222311
:101A500061F080910C0190E083709070892B29F4E3
:101A6000109252011092510137C02115310541F4F5
:101A700080910C0190E0837090708130910541F16C
:101A8000442341F080910C018370813019F482E08D
:101A900090E01EC02115310541F480910C01837046
:101AA000823019F483E090E013C0442341F0809128
:101AB0000C018370823019F484E090E009C0232B7C
:101AC00059F480910C018370833031F485E090E00B
:101AD000909352018093510120910C01822F8695A1
:101AE000869590E087709070009719F48FEF9FEFC4
:101AF00024C08130910529F41092540110925301B1
:101B000020C08230910519F481E090E016C0833046
:101B1000910519F482E090E010C08430910519F429
:101B200083E090E00AC08530910519F484E090E0EC
:101B300004C0069731F485E090E0909354018093BF
:101B4000530122952695277030E0237030702115BF
:101B5000310539F480910D0180FD03C08FEF9FEFB7
:101B60003DC02130310549F480910D0180FD05C053
:101B7000109256011092550135C02230310539F4CA
:101B800080910D0180FD03C081E090E027C02330EB
:101B9000310539F480910D0180FD0DC082E090E0A7
:101BA0001DC02115310539F480910D0180FF03C05E
:101BB00083E090E013C02130310539F480910D01AC
:101BC00080FF03C084E090E009C02230310551F469
:101BD00080910D0180FF06C085E090E09093560152
:101BE0008093550120910D01822F869590E087709A
:101BF0009070009719F48FEF9FEF24C0813091050A
:101C000029F4109258011092570120C0823091059A
:101C100019F481E090E016C08330910519F482E058
:101C200090E010C08430910519F483E090E00AC080
:101C30008530910519F484E090E004C0069731F4F2
:101C400085E090E0909358018093570122952F7082
:101C5000822F90E087709070009719F48FEF9FEFBC
:101C600024C08130910529F410925A011092590133
:101C700020C08230910519F481E090E016C08330D5
:101C8000910519F482E090E010C08430910519F4B8
:101C900083E090E00AC08530910519F484E090E07B
:101CA00004C0069731F485E090E090935A01809348
:101CB000590120910E01822F90E08770907000975B
:101CC00019F48FEF9FEF24C08130910529F4109211
:101CD0005C0110925B0120C08230910519F481E013
:101CE00090E016C08330910519F482E090E010C0B6
:101CF0008430910519F483E090E00AC085309105A5
:101D000019F484E090E004C0069731F485E090E097
:101D100090935C0180935B01822F869586958695D2
:101D200090E087709070009719F48FEF9FEF24C0B8
:101D30008130910529F410925E0110925D0120C05E
:101D40008230910519F481E090E016C0833091054E
:101D500019F482E090E010C08430910519F483E01A
:101D600090E00AC08530910519F484E090E004C049
:101D7000069731F485E090E090935E0180935D01D9
:101D80002295269526952370822F90E09C01217044
:101D9000307080FD0AC080910F0190E083709070D8
:101DA000892B19F48FEF9FEF42C0422F222361F05D
:101DB00080910F0190E083709070892B29F410922C
:101DC000600110925F0137C02115310541F4809107
:101DD0000F0190E0837090708130910541F14423B0
:101DE00041F080910F018370813019F482E090E01E
:101DF0001EC02115310541F480910F01837082309E
:101E000019F483E090E013C0442341F080910F0166
:101E10008370823019F484E090E009C0232B59F4D8
:101E200080910F018370833031F485E090E09093CE
:101E3000600180935F0120910F01822F8695869526
:101E400090E087709070009719F48FEF9FEF24C097
:101E50008130910529F4109262011092610120C035
:101E60008230910519F481E090E016C0833091052D
:101E700019F482E090E010C08430910519F483E0F9
:101E800090E00AC08530910519F484E090E004C028
:101E9000069731F485E090E09093620180936101B0
:101EA00022952695277030E023703070211531057A
:101EB00039F48091100180FD03C08FEF9FEF3DC08A
:101EC0002130310549F48091100180FD05C0109248
:101ED00064011092630135C02230310539F48091DC
:101EE000100180FD03C081E090E027C02330310560
:101EF00039F48091100180FD0DC082E090E01DC09A
:101F00002115310539F48091100180FF03C083E071
:101F100090E013C02130310539F48091100180FF29
:101F200003C084E090E009C02230310551F4809173
:101F3000100180FF06C085E090E0909364018093DB
:101F4000630120911001822F869590E08770907038
:101F5000009719F48FEF9FEF24C08130910529F489
:101F6000109266011092650120C08230910519F42B
:101F700081E090E016C08330910519F482E090E092
:101F800010C08430910519F483E090E00AC08530D8
:101F9000910519F484E090E004C0069731F485E0DF
:101FA00090E0909366018093650122952F70822FB7
:101FB00090E087709070009719F48FEF9FEF24C026
:101FC0008130910529F4109268011092670120C0B8
:101FD0008230910519F481E090E016C083309105BC
:101FE00019F482E090E010C08430910519F483E088
:101FF00090E00AC08530910519F484E090E004C0B7
:10200000069731F485E090E0909368018093670132
:1020100020911101822F90E087709070009719F441
:102020008FEF9FEF24C08130910529F410926A014F
:102030001092690120C08230910519F481E090E08E
:1020400016C08330910519F482E090E010C084300E
:10205000910519F483E090E00AC08530910519F4E8
:1020600084E090E004C0069731F485E090E090931E
:102070006A0180936901822F86958695869590E006
:1020800087709070009719F48FEF9FEF24C0813014
:10209000910529F410926C0110926B0120C08230DE
:1020A000910519F481E090E016C08330910519F490
:1020B00082E090E010C08430910519F483E090E054
:1020C0000AC08530910519F484E090E004C00697B9
:1020D00031F485E090E090936C0180936B01229540
:1020E000269526952370822F90E09C0121703070F8
:1020F00080FD0AC08091120190E083709070892B5E
:1021000019F48FEF9FEF38C0422F222361F08091A6
:10211000120190E083709070892B29F410926E0167
:1021200010926D0108952115310541F4809112013D
:1021300090E08370907081309105F1F0442341F07C
:10214000809112018370813019F482E090E014C014
:102150002115310541F4809112018370823019F408
:1021600083E090E009C0442361F080911201837004
:10217000823039F484E090E090936E0180936D0199
:102180000895232B59F4809112018370833031F428
:1021900085E090E090936E0180936D0108958091A9
:1021A0008501806180938501089580918501806219
:1021B00080938501089580918601826080938601D5
:1021C00008958091850180648093850108958091B0
:1021D00088018160809388010895809188018260E0
:1021E00080938801089580918601806280938601A2
:1021F000089580918701806480938701089580917C
:1022000087018061809387010895809187018068AC
:10221000809387010895809187018460809387016E
:10222000089580918701826080938701089585E0F9
:1022300085BD089510927D0116BC089530916F01FF
:10224000332311F480E0089520917D012F3FD9F4CC
:1022500081E00895231790F486B596B5975E96BDF4
:1022600096B5891708F4A89A822F8B5F821750F4CD
:102270008FEF80937D0190917D010EC020937D01B1
:10228000A89AF9CF282FA899E5CF20937D01F3CF05
:1022900086B58E5286BD922F9F3F29F086B5292F95
:1022A0002F5F8E32A8F790937D0180E0931708F09E
:1022B00081E0089580917401882329F14D9908C027
:1022C0008091850180688093850181E0809375010C
:1022D0004E9908C08091860181608093860181E0DB
:1022E000809375018091030186FFECC03099EAC0AC
:1022F0003199E8C08091870188608093870181E0EF
:10230000809375010895349904C08091850181609E
:1023100005C0359905C08091850184608093850151
:10232000339904C080918501886005C0329905C049
:10233000809185018260809385014D9911C0E09163
:102340002C01F0912D010190F081E02DF7FD08C0E6
:10235000EE0FFF1FED5EFE4F0190F081E02D09951D
:102360004E9911C0E0912C01F0912D010280F38172
:10237000E02DF7FD08C0EE0FFF1FED5EFE4F019050
:10238000F081E02D09951C9911C0E0912C01F0918C
:102390002D010480F581E02DF7FD08C0EE0FFF1F31
:1023A000ED5EFE4F0190F081E02D09954F9911C02F
:1023B000E0912C01F0912D010084F185E02DF7FDD5
:1023C00008C0EE0FFF1FED5EFE4F0190F081E02D83
:1023D0000995189911C0E0912C01F0912D0102840A
:1023E000F385E02DF7FD08C0EE0FFF1FED5EFE4FF9
:1023F0000190F081E02D09951A9911C0E0912C010E
:10240000F0912D010484F585E02DF7FD08C0EE0F55
:10241000FF1FED5EFE4F0190F081E02D09951B99A5
:1024200011C0E0912C01F0912D010680F781E02D83
:10243000F7FD08C0EE0FFF1FED5EFE4F0190F0812B
:10244000E02D0995199911C0E0912C01F0912D0111
:102450000684F785E02DF7FD08C0EE0FFF1FED5E47
:10246000FE4F0190F081E02D099580910301869542
:10247000869580FD0EC08091760190917701892B21
:1024800029F080918801846080938801319913C07C
:102490000DC0309905C080918801846080938801C7
:1024A0008091760190917701892B29F080918801A4
:1024B0008061809388011D9905C0809187018860A3
:1024C00080938701089580917401882389F0809119
:1024D000030186FFF0C03099EEC03199ECC08091C5
:1024E000870188608093870181E08093750108955A
:1024F000349906C08091870180628093870107C06C
:10250000359905C080918601806880938601339952
:1025100006C08091860180648093860107C032994D
:1025200005C0809187018160809387014D9911C01A
:10253000E0912C01F0912D010190F081E02DF7FD4B
:1025400008C0EE0FFF1FE15EFE4F0190F081E02D0D
:1025500009954E9911C0E0912C01F0912D01028056
:10256000F381E02DF7FD08C0EE0FFF1FE15EFE4F87
:102570000190F081E02D09951C9911C0E0912C018A
:10258000F0912D010480F581E02DF7FD08C0EE0FDC
:10259000FF1FE15EFE4F0190F081E02D09954F99FC
:1025A00011C0E0912C01F0912D010084F185E02D06
:1025B000F7FD08C0EE0FFF1FE15EFE4F0190F081B6
:1025C000E02D0995189911C0E0912C01F0912D0191
:1025D0000284F385E02DF7FD08C0EE0FFF1FE15EDA
:1025E000FE4F0190F081E02D09951A9911C0E091FC
:1025F0002C01F0912D010484F585E02DF7FD08C034
:10260000EE0FFF1FE15EFE4F0190F081E02D099576
:102610001B9911C0E0912C01F0912D010680F781EA
:10262000E02DF7FD08C0EE0FFF1FE15EFE4F0190A9
:10263000F081E02D0995199911C0E0912C01F091DC
:102640002D010684F785E02DF7FD08C0EE0FFF1F72
:10265000E15EFE4F0190F081E02D0995809103012C
:102660008695869580FD0EC08091760190917701C8
:10267000892B29F0809188018860809388013199A5
:1026800013C00DC0309905C0809188018860809387
:1026900088018091760190917701892B29F08091B2
:1026A00088018062809388011D9905C0809187010F
:1026B0008860809387010895349904C080918501D2
:1026C000816005C0359905C0809185018460809343
:1026D0008501339904C080918501886005C03299D5
:1026E00005C0809185018260809385014F9905C066
:1026F00080918501806880938501189905C080913B
:1027000086018160809386014D9905C08091860184
:102710008860809386014E9905C080918601806112
:1027200080938601809103018695869580FD0EC079
:102730008091760190917701892B29F08091860113
:10274000846080938601319913C00DC0309905C013
:1027500080918601846080938601809176019091BA
:102760007701892B29F0809188018064809388010A
:10277000199905C080918E01816080938E011B990B
:1027800005C080918E01826080938E010895109221
:10279000840194E1909385011092870180E18093F8
:1027A000980182E48093990110929A0181E08093CC
:1027B0009B0180939C0182E080939D0190939E01F8
:1027C00086E080939F01E0EAF1E08FEF819391E052
:1027D000E83AF907D9F708951092970110929601F7
:1027E000109295011092940110929301109292010F
:1027F000109291011092900110928F0110928E010F
:1028000010928D0110928C0110928B0110928A010E
:1028100010928901109288011092860108950E94F9
:10282000EC1340910401842F8695282F30E0277007
:1028300030702130310529F080917401882309F02E
:102840005BC08091030182958F7090E083709070DF
:1028500081309105C9F4349905C08FEF80939201BE
:102860008FE703C0359903C080E8809393013399C3
:1028700002C080E806C032993FC08FEF809390017C
:102880008FE78093910138C082309105C9F4349963
:1028900005C08FEF809396018FE703C0359903C081
:1028A00080E880939701339902C080E806C032998E
:1028B00023C08FEF809394018FE7809395011CC014
:1028C000892BD1F4349904C080918601816005C0C0
:1028D000359905C080918601826080938601339985
:1028E00004C080918601846005C0329905C0809142
:1028F00086018860809386014F9903C08FEF809393
:102900008A01189903C08FEF80938B011A9910C028
:1029100040FF0BC080917401882339F08FEF8093C2
:102920008E0181E08093750103C08FEF80938C014D
:102930004D9903C08FEF809388014E9903C08FEFAC
:10294000809389011C9910C040FF0BC080917401D5
:10295000882339F08FEF80938F0181E08093750198
:1029600003C08FEF80938D01199903C08FEF80937F
:102970008E011B9903C08FEF80938F0121303105A9
:1029800029F440FD03C0309912C00CC080910301AE
:102990008695869580FD13C0809176019091770190
:1029A000892B29F08091860180618093860131997D
:1029B00018C08091860180628093860108953099C5
:1029C00005C08091860180618093860180917601A7
:1029D00090917701892B29F0809186018062809304
:1029E000860108950E942018089584E190E0909354
:1029F0007901809378010E9420180E9431020E9480
:102A000072020E940F1402C00E9420188091D90205
:102A100086FFFACF84E891E064E10E944219EBCF8F
:102A200088E290E090937901809378010E942018C9
:102A30000E9431020E9472020E94D60684E891E050
:102A400060E10E94421902C00E9420188091D902C0
:102A500086FDECCFF9CFCF92DF92EF92FF920F93EA
:102A60001F93CF93DF936C017B0100E010E017C050
:102A7000E701C01BD10BC930D1052CF0C8E0D0E074
:102A800002C00E9420188091D90286FFFACFC601A9
:102A9000800F911F6C2F0E9442190C0F1D1F0E15E5
:102AA0001F0530F3DF91CF911F910F91FF90EF90B1
:102AB000DF90CF900895DF92EF92FF920F931F93D4
:102AC000FC0180912B01882309F054C080917E0184
:102AD000823009F044C0409170015091710141155C
:102AE000510551F4318122818481809381011092BA
:102AF00082013596655004C030917F01209180019C
:102B0000CA01860F911D909371018093700170E846
:102B1000D72ED82280918101909182011816190632
:102B20005CF5883091050CF4682F032F122FE62EE8
:102B3000FF24CF01B801A7010E94DC1A0E0D1F1D52
:102B40001093800100937F01809181019091820117
:102B50008E199F0990938201809381010DC083306B
:102B600049F43181228130937F0120938001DD245B
:102B7000D39402C0DD24DA948D2D1F910F91FF9024
:102B8000EF90DF9008950F931F93FC0192812381B2
:102B900080912B01823009F447C0833038F48823B8
:102BA00009F45DC0813009F00AC107C0833009F41F
:102BB000B3C0843009F003C1DFC0808180768032E9
:102BC00009F0FDC08181813009F0F9C0233001F5A1
:102BD000992309F0F4C081E28093840186E2809316
:102BE000850110928601109287011092880110923F
:102BF000890110928A0110928B0184E891E09093F0
:102C0000BE028093BD0282E080937C0188E0D8C040
:102C1000213009F0D4C00E94B30684E891E090937B
:102C2000BE028093BD02C9C080818076803209F0E7
:102C3000C6C08181813009F0C2C0213009F0BFC017
:102C400010928501109284018FE08093860184E8C0
:102C500091E09093BE028093BD0283E0B1C0808179
:102C60008076803209F0ABC08181893069F492307E
:102C700029F4109271011092700103C0933009F091
:102C80009EC090937E0128C0813009F098C0913099
:102C9000C1F49093840184E08093850110928601B1
:102CA0001092870182E0809388011092890110922E
:102CB0008A0184E891E09093BE028093BD0287E090
:102CC0007FC0943009F07BC060917F0170918001DA
:102CD00082E06030780710F08FEF72C040E052E081
:102CE000461B570B4038510510F040E850E004E80F
:102CF00011E084E080938401409385011092860165
:102D000010928701C80104960E94CC1A1093BE024B
:102D10000093BD0284E854C080818076803209F03F
:102D20004EC08181823059F4923008F048C08FE65D
:102D300091E09093BE028093BD0281E041C08A3051
:102D400029F49230E0F520936F0139C08130B9F554
:102D5000913041F484E891E09093BE028093BD02EB
:102D600085E02EC0923059F58DE891E09093BE0237
:102D70008093BD0282E024C0808190E080769070D4
:102D80008032910559F481818130C9F484E891E061
:102D90009093BE028093BD0284E112C080349105FD
:102DA00071F48181863059F488E991E09093BE02F4
:102DB0008093BD0282E080937C0180E101C080E0CD
:102DC0001F910F91089584E891E063E00E944719F4
:102DD0000E9420188091970284FF03C082E08093B4
:102DE0007C010895CF92DF92EF92FF920F931F9391
:102DF000CF93DF936C017B0100E010E017C0E70187
:102E0000C01BD10BC930D1052CF0C8E0D0E002C006
:102E10000E9420188091970284FFFACFC601800F8C
:102E2000911F6C2F0E9447190C0F1D1F0E151F05B7
:102E300030F3DF91CF911F910F91FF90EF90DF90D2
:102E4000CF9008950E94F7080E9431020E947202FA
:102E500020917401222381F14F992EC034990AC028
:102E60008EE291E090932D0180932C0181E080937C
:102E70003E0120C0329908C08FE391E090932D016C
:102E800080932C0182E013C0359908C08FE491E053
:102E900090932D0180932C0183E009C033990CC0DD
:102EA0008FE591E090932D0180932C0184E0809335
:102EB0003E0181E0809375018091030182958F70BE
:102EC00090E083709070009729F4222369F40E94A7
:102ED0005C130AC08130910519F40E945A1104C094
:102EE000029711F40E9463120E941E118823C1F4FC
:102EF0009091890180918501981791F490918A01B0
:102F000080918601981761F490918B0180918701DF
:102F1000981731F490918C0180918801981749F0AD
:102F200084E891E065E070E00E94F21610927D0165
:102F300016BC80918E01882331F08DE891E062E02B
:102F400070E00E94F21608950E9420180E94600806
:102F500084E891E063E070E00E94F216F5CF519AA8
:102F600088EB9BE02CE231E0F9013197F1F7019712
:102F7000D9F751980E940F1878940E94201808954C
:102F800084E080932B010E94C7130E94AF1708951D
:102F900083E080932B0190910301892F869580FD1A
:102FA00003C090619F7D02C090629F7E9093030159
:102FB0000E94AF170E94201881E08093840182E074
:102FC00080938D010E94180985E085BD88E893E112
:102FD00090937901809378018091030180618F7DC6
:102FE000809303010E942217FDCF10922B010E94B3
:102FF000AF17089582E080932B0110928501109203
:1030000084018FE0809386010E94AF17089581E0CC
:1030100080932B010E94B3060E94AF170895E9E642
:10302000F0E0808183608083E89A8BE4809398024B
:103030008093DA028AE5809397028093D9020895FB
:103040001F93CF93DF936091BF02635067FD9AC0D7
:103050008091BC02CCE0D0E0C81BD109CD53DD4F3C
:103060008091BB028D3209F07AC0683009F088C0C7
:1030700083EC80938C028AE5809372011092830125
:103080008881807629F0CE010E94C315282F54C074
:103090009A81109295028981882321F410929602D8
:1030A00022E043C0853019F49093C0023DC08630C1
:1030B00029F58B818130C1F08230B1F0833081F409
:1030C0008A81882341F489EC93E09093BE02809337
:1030D000BD0224E00FC0813039F0823051F404C0C9
:1030E000813211F0823229F4CE010E948D05282F01
:1030F00001C020E080E4809383011EC0883021F469
:1031000021E082EC92E013C0893019F49093C2025E
:103110000BC08A3011F421E008C08B3029F48BE415
:10312000809398028093DA0220E085E992E0909300
:10313000BE028093BD0209C02F3F39F4888187FD0C
:103140002E8180E88093830106C08F81882319F443
:103150008E81821708F0822F8093730111C08091B5
:10316000830187FF0DC0CE010E945B158F3F21F4C4
:103170008EE18093720104C0882311F010927301D4
:103180001092BF028091720184FF4AC08091730146
:103190008F3F09F445C0182F893008F018E0811BD3
:1031A0008093730180918C0298E8892780938C0228
:1031B000112341F12091BD023091BE028091830123
:1031C00086FF0DC0ADE8B2E080E090E0F901E80FC5
:1031D000F91FE491ED9301961817C1F708C0912FDC
:1031E000D901EDE8F2E08D9181939150E1F7115012
:1031F000812F90E01F5F0196820F931F9093BE0274
:103200008093BD028DE892E0612F0E946119612FC9
:103210006C5F6C3019F08FEF8093730160937201D3
:103220009AE089B1867031F49150D9F71092C002BA
:103230001092BA02DF91CF911F9108951F93CF93FF
:10324000DF93DC01162FEA01888184FF05C08981A4
:1032500098E88927898302C08AE58883AE014E5F9A
:103260005F4F212FFA018D91819321501216DCF3CB
:10327000CA01612F0E9461191C5F1883DF91CF91F1
:103280001F91089549ED52E00E941E19089547E9E3
:1032900052E00E941E190895A82FB92F80E090E0F7
:1032A00041E050EA60956F5F58F42D9138EF822726
:1032B0009795879510F0842795273F5FC8F3F3CF44
:1032C0000895EADF8D939D930895CF93CFB7CF9361
:1032D000499BFECF499B09C0499B07C0499B05C03C
:1032E000499B03C0499B01C0A3C0DF93C091BC02AE
:1032F000DD27CD53DD4F499B02C0DF91EBCF2F93EC
:103300000F931F9309B12FEF01FB20F94F933F93C8
:1033100019B14FEF012701FB21F93BE031C04E7F8E
:10332000012F19B1216028C0102F4D7F22600000AD
:1033300009B129C04B7F2460012F000019B12BC0B7
:1033400019B1477F28602AC04F7E09B120612CC087
:103350004F7D19B120622FC04F7B09B1206432C06C
:10336000422709B149934FEF0000102711FB20F9C4
:1033700019B11670C9F1297F91F2012701FB21F9DA
:1033800009B1237F89F2315058F1102711FB22F93E
:1033900019B1277E79F2012701FB23F92F7C81F2F5
:1033A00009B1102711FB24F92F7971F200C019B16E
:1033B000012701FB25F92F7359F200C009B110272D
:1033C00011FB26F9223040F200C019B1012701FBA0
:1033D00027F9243028F64F77206819B10000F9CF7B
:1033E00011E01CBB002719C03B503195C31BD040D6
:1033F00011E01CBB0881033CF9F00B34E9F020918B
:10340000BA021981110F1213EDCF4A81441F0936F8
:1034100041F10D3211F0013E29F70093C1023F91B5
:103420004F911F910F912F91DF91CCB3C0FD50CFE1
:10343000CF91CFBFCF9118950091C102002379F3AE
:103440001091BF021123F9F53430FAF13093BF0225
:103450000093BB021091BC023BE0311B3093BC02D5
:1034600034C00091BF02013074F50AE54F7049F491
:103470003091720134FD2BC000937201CCE8D2E090
:103480002AC0423049F03091970234FD20C00093A9
:103490009702C8E9D2E01FC03091D90236FD17C0AB
:1034A0000093D902CAEDD2E016C0052710E00BB98F
:1034B0001FC0052722C0052727C005272CC00527C8
:1034C00010E00BB933C04AE503C042ED01C0432F01
:1034D000C4E1D0E032E01AB11660599A0BB11AB9C2
:1034E0005F9356E020E820FF05270BB92795179535
:1034F0001C3FD8F620FF052727950BB917951C3FD1
:10350000C0F620FF0527279517950BB91C3F98F6A5
:1035100020FF0527279517951C3F0BB970F600C0B3
:10352000499120FF05270BB9279517951C3F38F6C1
:1035300020FF052727950BB917951C3F38F520FF6D
:103540000527279517950BB91C3F10F520FF052778
:10355000279517951C3F0BB9E8F4242F3A9519F6D7
:10356000097F5F910BB91091C002110FC651D04075
:1035700011F01093BA0211E01CBB02601AB1197F5E
:10358000402F497F0BB91AB94BB949CF0527D3CF83
:103590000527D8CF0527DDCFDC01CB01FC01F99948
:1035A000FECF06C0F2BDE1BDF89A319600B40D928F
:1035B00041505040B8F70895DC01CB0103C02D9174
:1035C0000E94E71A41505040D0F70895262FF999EC
:1035D000FECF1FBA92BD81BD20BD0FB6F894FA9AF6
:0C35E000F99A0FBE01960895F894FFCFF1
:1035EC00FFFFFFFFFFFFFFFFFFFFFFFFFFFFFFFFDF
:1035FC00FFFFFFCF10D510DB10E110E710ED10F33B
:10360C0010F910FF1005110B111111FF2E01FFFF06
:10361C00FFFFFFFFFFFFFFFFFFFFFFFFFFFF01FFAC
:10362C00FFFFFFFFFFFFFFFFFFFFFFFFFFFFFFFF9E
:10363C00FFFFFFFFFFFFFFFFFFFFFFFFFFFFFFFF8E
:10364C00FFFFFFFFFFFFFFFFFFFFFFFFFFFFFF7D00
:04365C00FFFF5AFF13
:00000001FF
