:100000000C94A2010C9459170C94BF010C94BF01DD
:100010000C94BF010C94BF010C94BF010C94BF0160
:100020000C94BF010C94BF010C94BF010C94BF0150
:100030000C94BF010C94BF010C94BF010C94BF0140
:100040000C94BF010C94BF010C94BF010C94BF0130
:100050000C94BF010C94BF010C94BF010C94BF0120
:100060000C94BF010C94BF011201100100000008A4
:10007000C016DF050003010200011A037A007500B3
:10008000720062006F00720067002E0069006E004F
:1000900066006F0032034400750061006C002000B0
:1000A00053007400720069006B0065002000560068
:1000B00033002E0030002E003000200028005000B9
:1000C00053003300290005010904A101A1027501B3
:1000D000950D150025013500450105091901290D6A
:1000E0008102950381010501750495012507463BB1
:1000F00001651409398142650095018103A10075EC
:100100000295042502450209300931093209358179
:1001100002C0C07508950826FF0046FF000600FFD4
:10012000092009210922092309240925092609276B
:1001300009280929092A092B950C81020A2126B1CF
:1001400002C009022200010100807D0904000001B3
:1001500003000000092101010001227C0007058144
:10016000030800011201100100000008C016DF059D
:100170000003010200012A0370006F0068006C0098
:100180002D006D00690063006800610065006C006F
:10019000400067006D0078002E00620069007A0060
:1001A0000E034800490044002000450050000600AE
:1001B000FF0901A101150026FF00750885019506BC
:1001C0000900B20201850295840900B2020185038B
:1001D00095030900B20201850495830900B202016A
:1001E000C009022200010100807D09040000010312
:1001F00000000009210101000122330007058103ED
:100200000800C812011001000000080304288E0035
:10021000030102000134034400750061006C0020FA
:100220000053007400720069006B006500200056E6
:100230000033002E0030002E003000200028004D3A
:100240000041004D00450029000501090615002563
:1002500001350045017501A1018501050709520914
:100260004F0951095009E009E209E1092809290962
:100270002C092B093B093C090409070909090A094A
:100280000C090E0913091409150916091A091B0985
:100290001D091E091F09220923092609019520812C
:1002A00002C0050C0901A101850209E909EA9502CC
:1002B000810295068101C009022200010100807DB2
:1002C00009040000010300000009210101000122CE
:1002D0006E000705810308000412011001000000F0
:1002E000080304298E000301020001340344007551
:1002F0000061006C00200053007400720069006B04
:100300000065002000560033002E0030002E003023
:100310000020002800580042006F007800290009E2
:10032000022000010100807D090400000258420003
:1003300000070582032000040705020308000404E7
:100340000309040011241FBECFEFD4E0DEBFCDBFF0
:1003500011E0A0E0B1E0E4EDF1E302C005900D9200
:10036000A437B107D9F712E0A4E7B1E001C01D92AC
:10037000AC3CB107E1F70E94B1040C94E8180C946E
:100380000000AC0120E030E0F901E050FF4FDA015D
:10039000A20FB31F90818C91981711F081E00895FE
:1003A0002F5F3F4F2231310579F780E00895589A49
:1003B00081E090E00895589A82E090E00895589A7C
:1003C00083E090E008958091740196B190959170CA
:1003D00090937401882319F420E030E005C020E0F8
:1003E000911121E081E0282780917501882349F04F
:1003F00010927701109276012223C9F010927501B4
:100400000895222349F08091780190917901909389
:10041000770180937601089580917601909177011C
:10042000009729F0019790937701809376010895C2
:1004300020910301822F82958F7090E087709070D9
:1004400081309105E9F44C9909C0369B07C0809131
:1004500002018064809302012E7F1EC04C9B0BC062
:10046000369909C0809102018F7B809302018091AF
:100470000301816028C04C9B4EC0369B4CC01BC002
:10048000029721F54C990BC0369B09C0809102015F
:100490008F7B8093020121602093030108954C9B80
:1004A00006C0369904C080910201806407C04C994F
:1004B00032C0369930C0809102018F7B8093020157
:1004C000809103018E7F80930301089580917401D0
:1004D000882309F14E9904C0809102018F7B05C0E9
:1004E00018990CC0809102018064809302012E7FD4
:1004F0002093030181E080937501089519990BC041
:10050000809102018F7B809302012160209303017F
:1005100081E08093750108958091030182958F7029
:1005200090E0877090700397029710F45C9846985B
:100530000E940F0658985B9A80E090E008958091A1
:10054000020190E083709070009721F4589A21E0A6
:1005500030E010C08130910521F4589A22E030E05B
:1005600009C0029721F4589A23E030E003C00E94AA
:100570008C029C01C9010895CF93DF93EC0120E028
:1005800030E0F901E050FF4FDE01A20FB31F908170
:100590008C91981731F42F5F3F4F2231310589F745
:1005A00016C0CE0160E070E042E150E00E94D01839
:1005B00020E030E0F901E050FF4FDE01A20FB31F51
:1005C0008C9180832F5F3F4F2231310599F7DF9166
:1005D000CF910895CF93DF93EC0180E091E060E04C
:1005E00070E042E150E00E94C0188091000182302A
:1005F00021F480910101823001F182E088838983B6
:100600008CE38A831B8283E28C838D8384E58E83D3
:1006100080E68F839AE1988782E2898783E48A87DC
:100620009B8780E18C879D8782E38E878DE08F8713
:1006300081E5888B81E1898B0FC020E030E0FE01ED
:10064000E20FF31FD901A050BF4F8C9180832F5F21
:100650003F4F2231310599F7DF91CF9108958F9265
:100660009F92AF92BF92CF92DF92EF92FF920F9341
:100670001F93DF93CF93CDB7DEB762970FB6F89491
:10068000DEBF0FBECDBFCE0101960E94EA023199B6
:10069000A5C0589A0E944B1302C00E94C411309BFF
:1006A00010C01A9B0EC01D9B0CC04D9B0AC01B9B0B
:1006B00008C01C9B06C0329B04C0339B02C0349907
:1006C000ECCF5898CE0101960E94EA028091020177
:1006D00090E0DC01A470B070FC01E870F070BC0127
:1006E00060717070AC014072507032E09CE3892EF2
:1006F00093E284E5982E00E6A02E2AE112E2B12EC4
:1007000083E4C82E00E1D02E12E3E12E8DE0F82E16
:1007100001E511E161C01C9912C039833A838B82D3
:100720001C829D839E839F82A8862987BA86CB865A
:100730002C87DD862E87EF86F88A098B1A8B1B9B08
:100740001DC01C9B1BC01A9B19C01D9B17C0329B50
:1007500015C04E9903C08B818F7B04C0189906C0C9
:100760008B8180648B838C818E7F07C0199906C032
:100770008B818F7B8B838C8181608C831B9920C0C4
:10078000109729F0189903C08B818C7F18C030977F
:1007900031F04E9904C08B8181608D7F10C061154E
:1007A000710531F0199904C08B8182608E7F07C07A
:1007B0004115510529F04F9903C08B8183608B83CC
:1007C0001A990AC0189903C08C818B7F8C83199960
:1007D00003C08C8184608C8330999DCFCE010196BB
:1007E0000E94BC0262960FB6F894DEBF0FBECDBF6A
:1007F000CF91DF911F910F91FF90EF90DF90CF90FD
:10080000BF90AF909F908F900895CF93DF9317B8CC
:100810008FE388B914B885B989E08AB980EE8BB9BD
:100820000E942F034E9904C0809102018F7B05C066
:10083000189909C08091020180648093020180911F
:1008400003018E7F0AC019990AC0809102018F7B33
:100850008093020180910301816080930301809164
:10086000030182958F7090E08770907081309105C0
:1008700019F08530910519F45C9A469A04C00297E4
:1008800011F45C98469880910201482F50E0CA010B
:100890009695879596958795682F6170262F30E0FD
:1008A000FA01E870F07043FF02C02F5F3F4FDA019A
:1008B000A071B07044FF02C02F5F3F4FEA01C072C9
:1008C000D07045FF02C02F5F3F4F2230310501F548
:1008D0001B9B0AC01C9B08C01A9B06C01D9B04C022
:1008E0004D9B02C0339936C0CA0183709070009747
:1008F00029F06623A1F48130910529F0EF2BB9F49A
:100900008230910511F1AB2BD1F4039719F11DC081
:1009100023303105FCF01B9906C0662321F0589A5C
:1009200021E030E01AC01C9906C0EF2B21F0589A44
:1009300022E030E012C01A9906C0AB2B21F0589A81
:1009400023E030E00AC01D9905C0CD2B19F00E94AC
:100950008C0202C00E949F029C01C901DF91CF91CD
:1009600008950E9405048130910579F08230910547
:100970001CF4892B39F011C08230910549F003979E
:1009800061F409C00E94D00408C00E94851405C00B
:100990000E94601402C00E94801380E090E00895DD
:1009A0008091030182958770833061F50E94E30195
:1009B0000E94180280910201829586958695837027
:1009C00090E09C012170307080FF07C0809103018E
:1009D00080FD03C0469A5C980CC0232B99F480914B
:1009E000030190E09C012170307080FF05C05C9A8B
:1009F0004698549A3E9A06C0232B21F454983E9868
:100A00005C9A469A80910301982F82FF09C0309921
:100A100005C0319903C045983D9A02C03D98459A5A
:100A200093FF12C0309905C0349903C044983C9A92
:100A300002C03C98449A309905C0339903C043984A
:100A40003B9A02C03B98439A82958770843009F0A4
:100A5000A7CF349902C05C9A01C05C98329902C059
:100A6000469A9ECF46989CCFFC0180912A01813006
:100A700049F08130C0F1823009F478C0833009F048
:100A8000CCC09EC08381833089F0843030F48130C3
:100A900051F0823009F0C1C018C08132C9F08232F1
:100AA00009F0BBC018C088E690E093C08281813015
:100AB00009F49BC0823009F0B0C084E990E09093C3
:100AC000A5028093A40282E3089582E491E038C0F5
:100AD00084E591E03DC086EC90E09093A502809380
:100AE000A4028CE708958381833089F0843030F448
:100AF000813051F0823009F090C020C0813231F154
:100B0000823209F08AC02AC084E691E062C0828104
:100B1000813021F0823009F080C008C086E791E082
:100B20009093A5028093A4028AE2089580EA91E05E
:100B30009093A5028093A4028EE0089581EE91E047
:100B40009093A5028093A40282E2089583EF91E03E
:100B50009093A5028093A40289E008958EEA91E023
:100B60009093A5028093A40283E308958381833048
:100B700089F0843030F4813051F0823009F04DC07A
:100B800011C0813291F0823209F047C011C083E078
:100B900092E01FC08281813041F18230F1F585E120
:100BA00092E02DC087EB92E0CBCF89EC92E0D0CFE2
:100BB00089E492E09093A5028093A4028EE60895C2
:100BC0008381823011F1833051F0813031F589ED2C
:100BD00092E09093A5028093A40282E1089582811D
:100BE000813019F08230C9F408C08AE790E0909310
:100BF000A5028093A4028AE108958BEE92E090937F
:100C0000A5028093A40284E308958FE193E090937A
:100C1000A5028093A40280E2089580E00895519A8D
:100C200088EB9BE02CE231E0F9013197F1F7019775
:100C3000D9F7089510928301109282018FE080937A
:100C4000840185E5809385011092910110929001B5
:100C500010928F0110928E0110928D0110928C01D2
:100C600010928B0110928A011092890110928801D2
:100C70001092870110928601089581E0809382018D
:100C800082E080938B010895E7E8F1E0AF014450E2
:100C90005040DA018C91809387019F0123503040AE
:100CA000D9018C9180938801DF0112978C918093F8
:100CB0008901829180938A0110821C92F90110822D
:100CC000DA011C9210928C01089520910401822F68
:100CD00090E087709070009719F48FEF9FEF24C019
:100CE0008130910529F410922F0110922E0120C01D
:100CF0008230910519F481E090E016C083309105AF
:100D000019F482E090E010C08430910519F483E07A
:100D100090E00AC08530910519F484E090E004C0A9
:100D2000069731F485E090E090932F0180932E0197
:100D3000822F86958695869590E0877090700097B3
:100D400019F48FEF9FEF24C08130910529F41092A0
:100D500031011092300120C08230910519F481E0F8
:100D600090E016C08330910519F482E090E010C045
:100D70008430910519F483E090E00AC08530910534
:100D800019F484E090E004C0069731F485E090E027
:100D900090933101809330012295269526952370FA
:100DA000822F90E09C012170307080FD0AC08091FC
:100DB000050190E083709070892B19F48FEF9FEFFD
:100DC00042C0422F222361F08091050190E08370A0
:100DD0009070892B29F4109233011092320137C0A0
:100DE0002115310541F48091050190E083709070E8
:100DF0008130910541F1442341F0809105018370D8
:100E0000813019F482E090E01EC02115310541F4D3
:100E1000809105018370823019F483E090E013C063
:100E2000442341F0809105018370823019F484E0FD
:100E300090E009C0232B59F4809105018370833021
:100E400031F485E090E0909333018093320120915A
:100E50000501822F8695869590E0877090700097A7
:100E600019F48FEF9FEF24C08130910529F410927F
:100E700035011092340120C08230910519F481E0CF
:100E800090E016C08330910519F482E090E010C024
:100E90008430910519F483E090E00AC08530910513
:100EA00019F484E090E004C0069731F485E090E006
:100EB000909335018093340122952695277030E078
:100EC000237030702115310539F48091060180FDC1
:100ED00003C08FEF9FEF3DC02130310549F4809171
:100EE000060180FD05C0109237011092360135C011
:100EF0002230310539F48091060180FD03C081E084
:100F000090E027C02330310539F48091060180FD3F
:100F10000DC082E090E01DC02115310539F48091AB
:100F2000060180FF03C083E090E013C0213031054B
:100F300039F48091060180FF03C084E090E009C08D
:100F40002230310551F48091060180FF06C085E012
:100F500090E0909337018093360120910601822F13
:100F6000869590E087709070009719F48FEF9FEF4F
:100F700024C08130910529F4109239011092380172
:100F800020C08230910519F481E090E016C08330D2
:100F9000910519F482E090E010C08430910519F4B5
:100FA00083E090E00AC08530910519F484E090E078
:100FB00004C0069731F485E090E090933901809366
:100FC000380122952F70822F90E0877090700097E3
:100FD00019F48FEF9FEF24C08130910529F410920E
:100FE0003B0110923A0120C08230910519F481E052
:100FF00090E016C08330910519F482E090E010C0B3
:101000008430910519F483E090E00AC085309105A1
:1010100019F484E090E004C0069731F485E090E094
:1010200090933B0180933A0120910701822F90E039
:1010300087709070009719F48FEF9FEF24C0813074
:10104000910529F410923D0110923C0120C082309C
:10105000910519F481E090E016C08330910519F4F0
:1010600082E090E010C08430910519F483E090E0B4
:101070000AC08530910519F484E090E004C0069719
:1010800031F485E090E090933D0180933C01822F04
:1010900086958695869590E087709070009719F4F4
:1010A0008FEF9FEF24C08130910529F41092400109
:1010B00010923F0120C08230910519F481E090E048
:1010C00016C08330910519F482E090E010C084309E
:1010D000910519F483E090E00AC08530910519F478
:1010E00084E090E004C0069731F485E090E09093AE
:1010F000400180933F012295269526952370822FEB
:1011000090E09C012170307080FD0AC08091080140
:1011100090E083709070892B19F48FEF9FEF42C09D
:10112000422F222361F08091080190E0837090703B
:10113000892B29F4109242011092410137C02115E8
:10114000310541F48091080190E083709070813006
:10115000910541F1442341F0809108018370813071
:1011600019F482E090E01EC02115310541F4809110
:1011700008018370823019F483E090E013C04423A7
:1011800041F0809108018370823019F484E090E08E
:1011900009C0232B59F4809108018370833031F406
:1011A00085E090E0909342018093410120910801F5
:1011B000822F8695869590E087709070009719F43D
:1011C0008FEF9FEF24C08130910529F410924401E4
:1011D0001092430120C08230910519F481E090E023
:1011E00016C08330910519F482E090E010C084307D
:1011F000910519F483E090E00AC08530910519F457
:1012000084E090E004C0069731F485E090E090938C
:1012100044018093430122952695277030E0237086
:1012200030702115310539F48091090180FD03C02A
:101230008FEF9FEF3DC02130310549F480910901C6
:1012400080FD05C0109246011092450135C0223044
:10125000310539F48091090180FD03C081E090E0FF
:1012600027C02330310539F48091090180FD0DC07C
:1012700082E090E01DC02115310539F4809109010B
:1012800080FF03C083E090E013C02130310539F4C2
:101290008091090180FF03C084E090E009C0223002
:1012A000310551F48091090180FF06C085E090E08E
:1012B000909346018093450120910901822F8695E4
:1012C00090E087709070009719F48FEF9FEF24C023
:1012D0008130910529F4109248011092470120C0F5
:1012E0008230910519F481E090E016C083309105B9
:1012F00019F482E090E010C08430910519F483E085
:1013000090E00AC08530910519F484E090E004C0B3
:10131000069731F485E090E090934801809347016F
:1013200022952F70822F90E087709070009719F4AB
:101330008FEF9FEF24C08130910529F410924A016C
:101340001092490120C08230910519F481E090E0AB
:1013500016C08330910519F482E090E010C084300B
:10136000910519F483E090E00AC08530910519F4E5
:1013700084E090E004C0069731F485E090E090931B
:101380004A018093490120910A01822F90E08770E1
:101390009070009719F48FEF9FEF24C08130910572
:1013A00029F410924C0110924B0120C0823091051B
:1013B00019F481E090E016C08330910519F482E0C1
:1013C00090E010C08430910519F483E090E00AC0E9
:1013D0008530910519F484E090E004C0069731F45B
:1013E00085E090E090934C0180934B01822F86958D
:1013F0008695869590E087709070009719F48FEF2E
:101400009FEF24C08130910529F410924E01109273
:101410004D0120C08230910519F481E090E016C0A2
:101420008330910519F482E090E010C0843091057A
:1014300019F483E090E00AC08530910519F484E046
:1014400090E004C0069731F485E090E090934E015F
:1014500080934D012295269526952370822F90E04A
:101460009C012170307080FD0AC080910B0190E0DA
:1014700083709070892B19F48FEF9FEF42C0422F39
:10148000222361F080910B0190E083709070892B92
:1014900029F41092500110924F0137C021153105E7
:1014A00041F480910B0190E0837090708130910540
:1014B00041F1442341F080910B018370813019F494
:1014C00082E090E01EC02115310541F480910B01AE
:1014D0008370823019F483E090E013C0442341F01C
:1014E00080910B018370823019F484E090E009C090
:1014F000232B59F480910B018370833031F485E004
:1015000090E09093500180934F0120910B01822F26
:101510008695869590E087709070009719F48FEF0C
:101520009FEF24C08130910529F41092520110924E
:10153000510120C08230910519F481E090E016C07D
:101540008330910519F482E090E010C08430910559
:1015500019F483E090E00AC08530910519F484E025
:1015600090E004C0069731F485E090E0909352013A
:101570008093510122952695277030E023703070BA
:101580002115310539F480910C0180FD03C08FEFE6
:101590009FEF3DC02130310549F480910C0180FD61
:1015A00005C0109254011092530135C0223031050C
:1015B00039F480910C0180FD03C081E090E027C0E8
:1015C0002330310539F480910C0180FD0DC082E09B
:1015D00090E01DC02115310539F480910C0180FF88
:1015E00003C083E090E013C02130310539F48091CD
:1015F0000C0180FF03C084E090E009C02230310577
:1016000051F480910C0180FF06C085E090E090933A
:1016100054018093530120910C01822F869590E014
:1016200087709070009719F48FEF9FEF24C081307E
:10163000910529F4109256011092550120C0823074
:10164000910519F481E090E016C08330910519F4FA
:1016500082E090E010C08430910519F483E090E0BE
:101660000AC08530910519F484E090E004C0069723
:1016700031F485E090E090935601809355012295D6
:101680002F70822F90E087709070009719F48FEF81
:101690009FEF24C08130910529F4109258011092D7
:1016A000570120C08230910519F481E090E016C006
:1016B0008330910519F482E090E010C084309105E8
:1016C00019F483E090E00AC08530910519F484E0B4
:1016D00090E004C0069731F485E090E090935801C3
:1016E0008093570120910D01822F90E087709070B8
:1016F000009719F48FEF9FEF24C08130910529F4F2
:1017000010925A011092590120C08230910519F4AB
:1017100081E090E016C08330910519F482E090E0FA
:1017200010C08430910519F483E090E00AC0853040
:10173000910519F484E090E004C0069731F485E047
:1017400090E090935A0180935901822F8695869557
:10175000869590E087709070009719F48FEF9FEF57
:1017600024C08130910529F410925C0110925B0134
:1017700020C08230910519F481E090E016C08330DA
:10178000910519F482E090E010C08430910519F4BD
:1017900083E090E00AC08530910519F484E090E080
:1017A00004C0069731F485E090E090935C0180934B
:1017B0005B012295269526952370822F90E09C014F
:1017C0002170307080FD0AC080910E0190E083701E
:1017D0009070892B19F48FEF9FEF42C0422F222384
:1017E00061F080910E0190E083709070892B29F454
:1017F00010925E0110925D0137C02115310541F450
:1018000080910E0190E0837090708130910541F1DC
:10181000442341F080910E018370813019F482E0FD
:1018200090E01EC02115310541F480910E018370B6
:10183000823019F483E090E013C0442341F080919A
:101840000E018370823019F484E090E009C0232BEC
:1018500059F480910E018370833031F485E090E07B
:1018600090935E0180935D0120910E01822F8695F9
:10187000869590E087709070009719F48FEF9FEF36
:1018800024C08130910529F41092600110925F010B
:1018900020C08230910519F481E090E016C08330B9
:1018A000910519F482E090E010C08430910519F49C
:1018B00083E090E00AC08530910519F484E090E05F
:1018C00004C0069731F485E090E090936001809326
:1018D0005F0122952695277030E023703070211526
:1018E000310539F480910F0180FD03C08FEF9FEF28
:1018F0003DC02130310549F480910F0180FD05C0C4
:10190000109262011092610135C02230310539F424
:1019100080910F0180FD03C081E090E027C023305B
:10192000310539F480910F0180FD0DC082E090E017
:101930001DC02115310539F480910F0180FF03C0CE
:1019400083E090E013C02130310539F480910F011C
:1019500080FF03C084E090E009C02230310551F4DB
:1019600080910F0180FF06C085E090E090936201B6
:101970008093610120910F01822F869590E08770FE
:101980009070009719F48FEF9FEF24C0813091057C
:1019900029F4109264011092630120C082309105F5
:1019A00019F481E090E016C08330910519F482E0CB
:1019B00090E010C08430910519F483E090E00AC0F3
:1019C0008530910519F484E090E004C0069731F465
:1019D00085E090E0909364018093630122952F70DD
:1019E000822F90E087709070009719F48FEF9FEF2F
:1019F00024C08130910529F410926601109265018E
:101A000020C08230910519F481E090E016C0833047
:101A1000910519F482E090E010C08430910519F42A
:101A200083E090E00AC08530910519F484E090E0ED
:101A300004C0069731F485E090E0909366018093AE
:101A4000650120911001822F90E0877090700097BF
:101A500019F48FEF9FEF24C08130910529F4109283
:101A600068011092670120C08230910519F481E06D
:101A700090E016C08330910519F482E090E010C028
:101A80008430910519F483E090E00AC08530910517
:101A900019F484E090E004C0069731F485E090E00A
:101AA0009093680180936701822F8695869586952D
:101AB00090E087709070009719F48FEF9FEF24C02B
:101AC0008130910529F410926A011092690120C0B9
:101AD0008230910519F481E090E016C083309105C1
:101AE00019F482E090E010C08430910519F483E08D
:101AF00090E00AC08530910519F484E090E004C0BC
:101B0000069731F485E090E090936A018093690133
:101B10002295269526952370822F90E09C012170B6
:101B2000307080FD0AC08091110190E08370907048
:101B3000892B19F48FEF9FEF42C0422F222361F0CF
:101B40008091110190E083709070892B29F410929C
:101B50006C0110926B0137C02115310541F4809161
:101B6000110190E0837090708130910541F1442320
:101B700041F0809111018370813019F482E090E08E
:101B80001EC02115310541F480911101837082300E
:101B900019F483E090E013C0442341F080911101D7
:101BA0008370823019F484E090E009C0232B59F44B
:101BB000809111018370833031F485E090E090933F
:101BC0006C0180936B01809111018695869590E060
:101BD00087709070009719F48FEF9FEF1FC08130CE
:101BE000910529F410926E0110926D0108958230D2
:101BF000910519F481E090E011C08330910519F44A
:101C000082E090E00BC08430910519F483E090E00D
:101C100005C08530910539F484E090E090936E0121
:101C200080936D010895069731F485E090E09093DC
:101C30006E0180936D01089580918301806180938E
:101C400083010895809183018062809383010895C8
:101C50008091840182608093840108958091830142
:101C600080648093830108958091860181608093D0
:101C7000860108958091860182608093860108958F
:101C80008091840180628093840108958091850110
:101C9000806480938501089580918501806180939F
:101CA000850108958091850180688093850108955C
:101CB00080918501846080938501089580918501DC
:101CC000826080938501089585E085BD0895109216
:101CD0007B0116BC089530916F01332311F480E02D
:101CE000089520917B012F3FD9F481E008952317B7
:101CF00090F486B596B5975E96BD96B5891708F4AB
:101D0000A89A822F8B5F821750F48FEF80937B010C
:101D100090917B010EC020937B01A89AF9CF282FC8
:101D2000A899E5CF20937B01F3CF86B58E5286BD6F
:101D3000922F9F3F29F086B5292F2F5F8E32A8F76B
:101D400090937B0180E0931708F081E008958091E3
:101D50007401882319F11B9908C080918301806860
:101D60008093830181E0809375011C9908C0809164
:101D7000840181608093840181E08093750180916A
:101D8000030182FFD6C03199D4C08091850188605B
:101D90008093850181E08093750108954E9904C078
:101DA00080918301816005C04F9905C080918301B6
:101DB000846080938301189904C0809183018860B6
:101DC00005C0199905C080918301826080938301C9
:101DD0001B9911C0E0912C01F0912D010190F0812F
:101DE000E02DF7FD08C0EE0FFF1FEE5EFE4F0190E5
:101DF000F081E02D09951C9911C0E0912C01F09122
:101E00002D010280F381E02DF7FD08C0EE0FFF1FCA
:101E1000EE5EFE4F0190F081E02D0995329911C0E0
:101E2000E0912C01F0912D010480F581E02DF7FD6A
:101E300008C0EE0FFF1FEE5EFE4F0190F081E02D17
:101E400009951A9911C0E0912C01F0912D0100849F
:101E5000F185E02DF7FD08C0EE0FFF1FEE5EFE4F8F
:101E60000190F081E02D09951D9911C0E0912C01A0
:101E7000F0912D010284F385E02DF7FD08C0EE0FEF
:101E8000FF1FEE5EFE4F0190F081E02D09954D9908
:101E900011C0E0912C01F0912D010484F585E02D15
:101EA000F7FD08C0EE0FFF1FEE5EFE4F0190F081C0
:101EB000E02D0995349911C0E0912C01F0912D018C
:101EC0000680F781E02DF7FD08C0EE0FFF1FEE5EE4
:101ED000FE4F0190F081E02D0995339911C0E091FA
:101EE0002C01F0912D010684F785E02DF7FD08C047
:101EF000EE0FFF1FEE5EFE4F0190F081E02D099581
:101F00008091760190917701892B29F0809186014B
:101F1000846080938601319905C08091860180613B
:101F200080938601359905C08091850188608093F2
:101F30008501089580917401882379F080910301CF
:101F400082FFDAC03199D8C0809185018860809382
:101F5000850181E08093750108954E9906C08091B6
:101F6000850180628093850107C04F9905C08091EB
:101F70008401806880938401189906C0809184014F
:101F800080648093840107C0199905C08091850100
:101F90008160809385011B9911C0E0912C01F09123
:101FA0002D010190F081E02DF7FD08C0EE0FFF1F1D
:101FB000E25EFE4F0190F081E02D09951C9911C061
:101FC000E0912C01F0912D010280F381E02DF7FDCD
:101FD00008C0EE0FFF1FE25EFE4F0190F081E02D82
:101FE0000995329911C0E0912C01F0912D010480E6
:101FF000F581E02DF7FD08C0EE0FFF1FE25EFE4FFA
:102000000190F081E02D09951A9911C0E0912C0101
:10201000F0912D010084F185E02DF7FD08C0EE0F51
:10202000FF1FE25EFE4F0190F081E02D09951D99A2
:1020300011C0E0912C01F0912D010284F385E02D77
:10204000F7FD08C0EE0FFF1FE25EFE4F0190F0812A
:10205000E02D09954D9911C0E0912C01F0912D01D1
:102060000484F585E02DF7FD08C0EE0FFF1FE25E4A
:10207000FE4F0190F081E02D0995349911C0E09157
:102080002C01F0912D010680F781E02DF7FD08C0AD
:10209000EE0FFF1FE25EFE4F0190F081E02D0995EB
:1020A000339911C0E0912C01F0912D010684F78540
:1020B000E02DF7FD08C0EE0FFF1FE25EFE4F01901E
:1020C000F081E02D09958091760190917701892B1F
:1020D00029F080918601886080938601319905C03E
:1020E00080918601806280938601359905C0809138
:1020F000850188608093850108954E9904C0809180
:102100008301816005C04F9905C08091830184607F
:1021100080938301189904C080918301886005C071
:10212000199905C0809183018260809383011A9977
:1021300005C0809183018068809383011D9905C04B
:10214000809184018160809384011B9905C08091F6
:1021500084018860809384011C9905C0809184016A
:102160008061809384018091760190917701892B21
:1021700029F080918401846080938401319905C0A5
:1021800080918601806480938601339905C0809197
:102190008C01816080938C01349905C080918C0101
:1021A000826080938C0108951092820184E1809373
:1021B00083011092850180E18093960182E48093EF
:1021C00097011092980181E08093990180939A0180
:1021D00082E080939B0188E080939C0186E080935D
:1021E0009D01EEE9F1E08FEF819391E0E63AF90786
:1021F000D9F70895109295011092940110929301CD
:1022000010929201109291011092900110928F0100
:1022100010928E0110928D0110928C0110928B0100
:1022200010928A0110928901109288011092870100
:10223000109286011092840108950E94FA108091F4
:102240000201829586958695837080FF25C08091D6
:10225000030180FD5EC04E9907C08FEF809390010F
:10226000809191018F6705C04F9905C080919101C0
:10227000806880939101189904C080918F018068D3
:1022800008C0199946C08FEF80938E0180918F010D
:102290008F6780938F013DC08091030180FF70C0E4
:1022A0004E9907C08FEF80939401809195018F67BD
:1022B00005C04F9905C08091950180688093950174
:1022C000189904C080919301806808C0199921C0B1
:1022D0008FEF80939201809193018F678093930198
:1022E00018C080918401816005C04F9905C080911C
:1022F0008401826080938401189904C080918401D4
:10230000846005C0199905C080918401886080931C
:1023100084011A9903C08FEF809388011D9903C02F
:102320008FEF809389014D9903C08FEF80938A01CD
:102330001B9903C08FEF809386011C9903C08FEF18
:1023400080938701329903C08FEF80938B0133997B
:1023500003C08FEF80938C01349903C08FEF80937B
:102360008D01309905C08091840180618093840142
:10237000319909C08091840180628093840108951D
:102380004E9BAFCFB2CF08950E94E11508950E94F1
:102390001A060E94E30130910301232F22952F702A
:1023A000822F90E0877090700197029728F08091BB
:1023B0007401882309F088C0809102018295869576
:1023C0008695837080FF1DC030FD7EC04E9904C08D
:1023D00080918501837F06C04F9906C08091850159
:1023E00088608B7F80938501189904C08091850156
:1023F0008C7F23C0199968C08091850182608E7F8F
:102400001CC030FF33C14E9904C0809185018F7389
:1024100006C04F9906C08091850180688F7B8093AC
:102420008501189904C0809185018F7C06C0199997
:102430004BC08091850180628F7E8093850144C06E
:10244000189907C087E0809384018FEF80938801FB
:1024500019C0199907C081E0809384018FEF8093A0
:10246000880130C0109284018FEF809388012CC0C6
:102470004F991BC0189909C085E0809384018FEFA4
:1024800080938901809387011FC0199907C083E059
:10249000809384018FEF8093890114C084E080933E
:1024A00084018FEF809389010FC0189905C086E0E1
:1024B000809384018FEFE6CF199906C082E0809364
:1024C00084018FEF809386011A9908C08091820160
:1024D0008160809382018FEF80938D011D9908C0E8
:1024E000809182018860809382018FEF80938A01BE
:1024F0004D991AC033FF10C080917401882361F098
:10250000809182018061809382018FEF80938E01A0
:1025100081E08093750108C0809182018062809380
:1025200082018FEF80938F011B9919C0822F8770D2
:10253000853069F080917401882349F0809183018E
:1025400084608093830181E08093750108C080914D
:1025500082018260809382018FEF80938C011C99AD
:1025600019C0822F8770853069F0809174018823AB
:1025700049F08091830188608093830181E080939A
:10258000750108C0809182018460809382018FEF81
:1025900080938B0132991AC033FF10C0809174016F
:1025A000882361F0809182018064809382018FEFA3
:1025B0008093900181E08093750108C08091820131
:1025C0008068809382018FEF80939101339908C0D6
:1025D000809182018061809382018FEF80938E01D0
:1025E000349908C0809182018064809382018FEFCA
:1025F0008093900132FF0FC080917401882359F0BD
:10260000319909C08091830180618093830181E0C9
:102610008093750112C08091760190917701892B8A
:1026200029F080918301826080938301319905C0F4
:10263000809183018160809383012770253071F43C
:102640004C9905C080918301846080938301369901
:1026500005C080918301886080938301359909C00A
:102660008091830180618093830108954E9BE8CE21
:10267000FFCE0895519A88EB9BE02CE231E0F901FE
:102680003197F1F70197D9F751980E94D0157894B6
:102690000E94E115089510922A010E943A130895AC
:1026A000CF92DF92EF92FF920F931F93CF93DF931E
:1026B0006C017B0100E010E017C0E701C01BD10BEB
:1026C000C930D1052CF0C8E0D0E002C00E94E1156D
:1026D0008091C00284FFFACFC601800F911F6C2F3A
:1026E0000E9436170C0F1D1F0E151F0530F3DF91CA
:1026F000CF911F910F91FF90EF90DF90CF900895B1
:1027000083E080932A010E943A130E94D4100E9411
:10271000FA100E94E1150E9418020E941D1182E821
:1027200091E064E170E00E945013F3CFCF92DF920A
:10273000EF92FF920F931F93CF93DF936C017B0176
:1027400000E010E017C0E701C01BD10BC930D10574
:102750002CF0C8E0D0E002C00E94E1158091950203
:1027600084FFFACFC601800F911F6C2F0E943B1788
:102770000C0F1D1F0E151F0530F3DF91CF911F9118
:102780000F91FF90EF90DF90CF9008950E94440644
:102790000E94E30120917401222309F44FC01A9989
:1027A0002EC04E990AC08EE291E090932D01809345
:1027B0002C0181E080933E0120C0199908C08FE36D
:1027C00091E090932D0180932C0182E013C04F99EA
:1027D00008C08FE491E090932D0180932C0183E059
:1027E00009C018990CC08FE591E090932D0180935A
:1027F0002C0184E080933E0181E0809375014E9925
:1028000004C010927A0181E005C04F9905C081E0B3
:1028100080937A018093750180917A01882371F405
:10282000189904C081E080932B0106C0199906C055
:1028300082E080932B0181E08093750180917A0181
:10284000882329F0222361F40E947D1009C0809121
:102850002B01813019F40E94A70E02C00E949A0F2A
:102860000E946B0E8823C1F49091870180918301AF
:10287000981791F49091880180918401981761F4E0
:102880009091890180918501981731F490918A0186
:1028900080918601981749F082E891E065E070E048
:1028A0000E94961310927B0116BC80918C018823A4
:1028B00031F08BE891E062E070E00E949613089599
:1028C00092E090932A0180910301869580FD04C0D7
:1028D00081E080932B0102C090932B010E943A1358
:1028E0000E94E11581E08093820182E080938B0158
:1028F0000E94650685E085BD88E893E190937901A3
:10290000809378010E94C613FDCF81E080932A0155
:102910000E943A130E941A0682E891E060E170E09A
:102920000E9496138AE090E0909379018093780159
:102930000E94E1150E9418020E94C71182E891E0EE
:1029400060E170E00E949613F3CFDF92EF92FF9266
:102950000F931F93FC0180912A01882309F054C032
:1029600080917C01823009F044C040917001509107
:1029700071014115510551F4318122818481809387
:102980007F01109280013596655004C030917D0121
:1029900020917E01CA01860F911D90937101809351
:1029A000700170E8D72ED82280917F01909180012C
:1029B000181619065CF5883091050CF4682F032F62
:1029C000122FE62EFF24CF01B801A7010E94D018D4
:1029D0000E0D1F1D10937E0100937D0180917F01DC
:1029E000909180018E199F099093800180937F01BF
:1029F0000DC0833049F43181228130937D012093D1
:102A00007E01DD24D39402C0DD24DA948D2D1F9144
:102A10000F91FF90EF90DF9008950F931F93FC01AB
:102A20009281238180912A01813049F0813080F1A7
:102A3000823009F48AC0833009F0AEC09EC0808124
:102A40008076803209F0A8C08181813009F0A4C06D
:102A5000233009F0A1C0992309F09EC081E2809340
:102A6000820186E280938301109284011092850195
:102A700010928601109287011092880110928901AC
:102A800082E891E09093A5028093A40288E085C03B
:102A900080818076803209F07FC08181893069F43D
:102AA000923029F4109271011092700103C093309A
:102AB00009F072C090937C0128C0813009F06CC08D
:102AC0009130C1F49093820184E08093830110924D
:102AD00084011092850182E0809386011092870123
:102AE0001092880182E891E09093A5028093A4025D
:102AF00087E053C0943009F04FC060917D01709120
:102B00007E0182E06030780710F08FEF46C040E031
:102B100052E0461B570B4038510510F040E850E09A
:102B200002E811E084E080938201409383011092D7
:102B3000840110928501C80104960E94C018109368
:102B4000A5020093A40284E828C0808180768032A8
:102B500019F58181823051F49230F0F48FE691E0E2
:102B60009093A5028093A40281E017C08A30A1F45B
:102B7000923090F420936F010FC080818076803472
:102B800059F48181863041F486E991E09093A50261
:102B90008093A40280E101C080E01F910F9108950D
:102BA000E9E6F0E0808183608083E89A8BE480939B
:102BB00096028093C1028AE5809395028093C002B9
:102BC00008951F93CF93DF936091A602635067FD32
:102BD000C4C08091A302CCE0D0E0C81BD109C65587
:102BE000DD4F8091A2028D3209F0A4C0683009F057
:102BF000B2C083EC80938A028AE5809372011092BE
:102C000081019881892F807629F0CE010E940D15CF
:102C1000282F7DC02A813C811092930289818823CC
:102C200081F49F71923049F4313839F480919502E2
:102C30008E3119F481E0809393021092940222E085
:102C40005FC0813011F0833099F4222309F057C01E
:102C5000313809F054C0813011F08EE101C08AE5AD
:102C6000809395028BE4809396028093C10247C0C3
:102C7000853019F42093A70242C0863029F58B8154
:102C80008130C1F08230B1F0833081F48A818823B1
:102C900041F48FE393E09093A5028093A40224E093
:102CA0000FC0813039F0823051F404C0813211F00C
:102CB000823229F4CE010E943405282F01C020E081
:102CC00080E48093810123C0883021F421E089EAE7
:102CD00092E018C0893019F42093A9020BC08A3001
:102CE00011F421E00DC08B3051F48BE480939602F7
:102CF0008093C1028AE5809395028093C00220E010
:102D000083E992E09093A5028093A40209C02F3F2B
:102D100039F4888187FD2E8180E88093810106C087
:102D20008F81882319F48E81821708F0822F809377
:102D3000730111C08091810187FF0DC0CE010E94F7
:102D4000A5148F3F21F48EE18093720104C0882383
:102D500011F0109273011092A6028091720184FF0B
:102D60004AC0809173018F3F09F445C0182F893004
:102D700008F018E0811B8093730180918A0298E823
:102D8000892780938A02112341F12091A402309176
:102D9000A5028091810186FF0DC0ABE8B2E080E022
:102DA00090E0F901E80FF91FE491ED9301961817EF
:102DB000C1F708C0912FD901EBE8F2E08D91819322
:102DC0009150E1F71150812F90E01F5F0196820F23
:102DD000931F9093A5028093A4028BE892E0612F49
:102DE0000E945517612F6C5F6C3019F08FEF809344
:102DF0007301609372019AE089B1867059F4915021
:102E0000D9F71092A7021092A1028AE58093950249
:102E10008093C002DF91CF911F9108951F93CF93AC
:102E2000DF93DC01162FEA01809195028E31D1F0FB
:102E3000888184FF05C0898198E88927898302C039
:102E40008AE58883AE014E5F5F4F212FFA018D9195
:102E5000819321501216DCF3CA01612F0E9455178D
:102E60001C5F1883DF91CF911F91089540EC52E0D1
:102E70000E940E17089545E952E00E940E1708952A
:102E8000A82FB92F80E090E041E050EA60956F5F95
:102E900058F42D9138EF82279795879510F0842765
:102EA00095273F5FC8F3F3CF0895EADF8D939D9395
:102EB0000895CF93CFB7CF93499BFECF499B09C0CD
:102EC000499B07C0499B05C0499B03C0499B01C062
:102ED000A3C0DF93C091A302DD27C655DD4F499BF8
:102EE00002C0DF91EBCF2F930F931F9309B12FEF08
:102EF00001FB20F94F933F9319B14FEF012701FBDD
:102F000021F93BE031C04E7F012F19B1216028C06B
:102F1000102F4D7F2260000009B129C04B7F246033
:102F2000012F000019B12BC019B1477F28602AC0BA
:102F30004F7E09B120612CC04F7D19B120622FC096
:102F40004F7B09B1206432C0422709B149934FEF4A
:102F50000000102711FB20F919B11670C9F1297F63
:102F600091F2012701FB21F909B1237F89F2315048
:102F700058F1102711FB22F919B1277E79F20127A8
:102F800001FB23F92F7C81F209B1102711FB24F9F1
:102F90002F7971F200C019B1012701FB25F92F73B8
:102FA00059F200C009B1102711FB26F9223040F276
:102FB00000C019B1012701FB27F9243028F64F770B
:102FC000206819B10000F9CF11E01CBB002719C01F
:102FD0003B503195C31BD04011E01CBB0881033C22
:102FE000F9F00B34E9F02091A1021981110F1213AD
:102FF000EDCF4A81441F093641F10D3211F0013EF7
:1030000029F70093A8023F914F911F910F912F91A3
:10301000DF91CCB3C0FD50CFCF91CFBFCF911895EA
:103020000091A802002379F31091A6021123F9F56B
:103030003430FAF13093A6020093A2021091A30259
:103040003BE0311B3093A30234C00091A602013053
:1030500074F50AE54F7049F43091720134FD2BC0CC
:1030600000937201CAE8D2E02AC0423049F03091A0
:10307000950234FD20C000939502C6E9D2E01FC03E
:103080003091C00234FD17C00093C002C1ECD2E001
:1030900016C0052710E00BB91FC0052722C0052761
:1030A00027C005272CC0052710E00BB933C04AE51F
:1030B00003C042ED01C0432FC4E1D0E032E01AB1B9
:1030C0001660599A0BB11AB95F9356E020E820FFB9
:1030D00005270BB9279517951C3FD8F620FF052724
:1030E00027950BB917951C3FC0F620FF052727959C
:1030F00017950BB91C3F98F620FF052727951795C4
:103100001C3F0BB970F600C0499120FF05270BB991
:10311000279517951C3F38F620FF052727950BB9F3
:1031200017951C3F38F520FF0527279517950BB9F4
:103130001C3F10F520FF0527279517951C3F0BB95D
:10314000E8F4242F3A9519F6097F5F910BB9109195
:10315000A702110FC651D04011F01093A10211E047
:103160001CBB02601AB1197F402F497F0BB91AB9F5
:103170004BB949CF0527D3CF0527D8CF0527DDCFBA
:10318000DC01CB01FC01F999FECF06C0F2BDE1BD27
:10319000F89A319600B40D9241505040B8F7089516
:1031A000DC01CB0103C02D910E94DB18415050403F
:1031B000D0F70895262FF999FECF1FBA92BD81BD91
:1031C00020BD0FB6F894FA9AF99A0FBE01960895A9
:0431D000F894FFCFA1
:1031D400FFFFFFFFFFFFFFFFFFFFFFFFFFFFFFFFFB
:1031E400FFFF1C0E220E280E2E0E340E3A0E400E39
:1031F400460E4C0E520E580E5E0EFF012E01FFFFBE
:10320400FFFFFFFFFFFFFFFFFFFFFFFFFFFF01FFC8
:10321400FFFFFFFFFFFFFFFFFFFFFFFFFFFFFFFFBA
:10322400FFFFFFFFFFFFFFFFFFFFFFFFFFFFFFFFAA
:10323400FFFFFFFFFFFFFFFFFFFFFFFFFFFFFF7D1C
:04324400FFFF5AFF2F
:00000001FF
